{
	"contracts/new.sol": {
		"wallet": {
			"abi": [
				{
					"anonymous": false,
					"inputs": [
						{
							"indexed": true,
							"internalType": "address",
							"name": "previousOwner",
							"type": "address"
						},
						{
							"indexed": true,
							"internalType": "address",
							"name": "newOwner",
							"type": "address"
						}
					],
					"name": "OwnershipTransferred",
					"type": "event"
				},
				{
					"anonymous": false,
					"inputs": [
						{
							"indexed": true,
							"internalType": "address",
							"name": "buyer",
							"type": "address"
						},
						{
							"indexed": false,
							"internalType": "uint256",
							"name": "ticketno",
							"type": "uint256"
						},
						{
							"indexed": false,
							"internalType": "uint256",
							"name": "amount",
							"type": "uint256"
						}
					],
					"name": "PurchasedTicket",
					"type": "event"
				},
				{
					"anonymous": false,
					"inputs": [
						{
							"indexed": true,
							"internalType": "address",
							"name": "user",
							"type": "address"
						},
						{
							"indexed": false,
							"internalType": "uint256",
							"name": "ticketno",
							"type": "uint256"
						},
						{
							"indexed": false,
							"internalType": "uint256",
							"name": "amount",
							"type": "uint256"
						}
					],
					"name": "Refund",
					"type": "event"
				},
				{
					"anonymous": false,
					"inputs": [
						{
							"indexed": true,
							"internalType": "address",
							"name": "",
							"type": "address"
						},
						{
							"indexed": false,
							"internalType": "uint256",
							"name": "amount",
							"type": "uint256"
						}
					],
					"name": "withdraw",
					"type": "event"
				},
				{
					"inputs": [],
					"name": "Withdraw",
					"outputs": [],
					"stateMutability": "nonpayable",
					"type": "function"
				},
				{
					"inputs": [
						{
							"internalType": "uint256",
							"name": "",
							"type": "uint256"
						}
					],
					"name": "details",
					"outputs": [
						{
							"internalType": "string",
							"name": "name",
							"type": "string"
						},
						{
							"internalType": "string",
							"name": "email",
							"type": "string"
						},
						{
							"internalType": "uint256",
							"name": "phoneNo",
							"type": "uint256"
						},
						{
							"internalType": "uint256",
							"name": "ticketNo",
							"type": "uint256"
						}
					],
					"stateMutability": "view",
					"type": "function"
				},
				{
					"inputs": [],
					"name": "eth",
					"outputs": [
						{
							"internalType": "uint256",
							"name": "",
							"type": "uint256"
						}
					],
					"stateMutability": "view",
					"type": "function"
				},
				{
					"inputs": [],
					"name": "isOwner",
					"outputs": [
						{
							"internalType": "bool",
							"name": "",
							"type": "bool"
						}
					],
					"stateMutability": "view",
					"type": "function"
				},
				{
					"inputs": [],
					"name": "owner",
					"outputs": [
						{
							"internalType": "address",
							"name": "",
							"type": "address"
						}
					],
					"stateMutability": "view",
					"type": "function"
				},
				{
					"inputs": [
						{
							"internalType": "string",
							"name": "_name",
							"type": "string"
						},
						{
							"internalType": "string",
							"name": "_email",
							"type": "string"
						},
						{
							"internalType": "uint256",
							"name": "_phoneNo",
							"type": "uint256"
						}
					],
					"name": "payforticket",
					"outputs": [],
					"stateMutability": "payable",
					"type": "function"
				},
				{
					"inputs": [],
					"name": "refund",
					"outputs": [],
					"stateMutability": "nonpayable",
					"type": "function"
				},
				{
					"inputs": [],
					"name": "renounceOwnership",
					"outputs": [],
					"stateMutability": "nonpayable",
					"type": "function"
				},
				{
					"inputs": [],
					"name": "seats",
					"outputs": [
						{
							"internalType": "uint256",
							"name": "",
							"type": "uint256"
						}
					],
					"stateMutability": "view",
					"type": "function"
				},
				{
					"inputs": [
						{
							"internalType": "address",
							"name": "newOwner",
							"type": "address"
						}
					],
					"name": "transferOwnership",
					"outputs": [],
					"stateMutability": "nonpayable",
					"type": "function"
				},
				{
					"inputs": [
						{
							"internalType": "address",
							"name": "",
							"type": "address"
						}
					],
					"name": "usertoTicket",
					"outputs": [
						{
							"internalType": "uint256",
							"name": "",
							"type": "uint256"
						}
					],
					"stateMutability": "view",
					"type": "function"
				}
			],
			"devdoc": {
				"kind": "dev",
				"methods": {
					"isOwner()": {
						"returns": {
							"_0": "true if `msg.sender` is the owner of the contract."
						}
					},
					"owner()": {
						"returns": {
							"_0": "the address of the owner."
						}
					},
					"renounceOwnership()": {
						"details": "Allows the current owner to relinquish control of the contract."
					},
					"transferOwnership(address)": {
						"details": "Allows the current owner to transfer control of the contract to a newOwner.",
						"params": {
							"newOwner": "The address to transfer ownership to."
						}
					}
				},
				"version": 1
			},
			"evm": {
				"assembly": "    /* \"contracts/new.sol\":90:1858  contract wallet is Ownable {... */\n  mstore(0x40, 0x80)\n    /* \"contracts/new.sol\":140:151  0.001 ether */\n  0x038d7ea4c68000\n    /* \"contracts/new.sol\":122:151  uint public eth = 0.001 ether */\n  0x01\n  sstore\n    /* \"contracts/new.sol\":174:177  100 */\n  0x64\n    /* \"contracts/new.sol\":154:177  uint public seats = 100 */\n  0x02\n  sstore\n    /* \"contracts/new.sol\":90:1858  contract wallet is Ownable {... */\n  callvalue\n  dup1\n  iszero\n  tag_1\n  jumpi\n  revert(0x00, 0x00)\ntag_1:\n  pop\n    /* \"contracts/ownable.sol\":542:552  msg.sender */\n  caller\n    /* \"contracts/ownable.sol\":533:539  _owner */\n  0x00\n  0x00\n    /* \"contracts/ownable.sol\":533:552  _owner = msg.sender */\n  0x0100\n  exp\n  dup2\n  sload\n  dup2\n  0xffffffffffffffffffffffffffffffffffffffff\n  mul\n  not\n  and\n  swap1\n  dup4\n  0xffffffffffffffffffffffffffffffffffffffff\n  and\n  mul\n  or\n  swap1\n  sstore\n  pop\n    /* \"contracts/ownable.sol\":596:602  _owner */\n  0x00\n  0x00\n  swap1\n  sload\n  swap1\n  0x0100\n  exp\n  swap1\n  div\n  0xffffffffffffffffffffffffffffffffffffffff\n  and\n    /* \"contracts/ownable.sol\":563:603  OwnershipTransferred(address(0), _owner) */\n  0xffffffffffffffffffffffffffffffffffffffff\n  and\n    /* \"contracts/ownable.sol\":592:593  0 */\n  0x00\n    /* \"contracts/ownable.sol\":563:603  OwnershipTransferred(address(0), _owner) */\n  0xffffffffffffffffffffffffffffffffffffffff\n  and\n  0x8be0079c531659141344cd1fd0a4f28419497f9722a3daafe3b4186f6b6457e0\n  mload(0x40)\n  mload(0x40)\n  dup1\n  swap2\n  sub\n  swap1\n  log3\n    /* \"contracts/new.sol\":90:1858  contract wallet is Ownable {... */\n  dataSize(sub_0)\n  dup1\n  dataOffset(sub_0)\n  0x00\n  codecopy\n  0x00\n  return\nstop\n\nsub_0: assembly {\n        /* \"contracts/new.sol\":90:1858  contract wallet is Ownable {... */\n      mstore(0x40, 0x80)\n      jumpi(tag_1, lt(calldatasize, 0x04))\n      shr(0xe0, calldataload(0x00))\n      dup1\n      0x8da5cb5b\n      gt\n      tag_13\n      jumpi\n      dup1\n      0x8da5cb5b\n      eq\n      tag_7\n      jumpi\n      dup1\n      0x8f32d59b\n      eq\n      tag_8\n      jumpi\n      dup1\n      0x9c5655d6\n      eq\n      tag_9\n      jumpi\n      dup1\n      0xa005ec7a\n      eq\n      tag_10\n      jumpi\n      dup1\n      0xacae79bb\n      eq\n      tag_11\n      jumpi\n      dup1\n      0xf2fde38b\n      eq\n      tag_12\n      jumpi\n      jump(tag_1)\n    tag_13:\n      dup1\n      0x352371fe\n      eq\n      tag_2\n      jumpi\n      dup1\n      0x57ea89b6\n      eq\n      tag_3\n      jumpi\n      dup1\n      0x590e1ae3\n      eq\n      tag_4\n      jumpi\n      dup1\n      0x715018a6\n      eq\n      tag_5\n      jumpi\n      dup1\n      0x8c7c9e0c\n      eq\n      tag_6\n      jumpi\n    tag_1:\n      revert(0x00, 0x00)\n        /* \"contracts/new.sol\":569:1199  function payforticket(string memory _name,... */\n    tag_2:\n      tag_14\n      0x04\n      dup1\n      calldatasize\n      sub\n      dup2\n      add\n      swap1\n      tag_15\n      swap2\n      swap1\n      tag_16\n      jump\t// in\n    tag_15:\n      tag_17\n      jump\t// in\n    tag_14:\n      stop\n        /* \"contracts/new.sol\":1603:1855  function Withdraw() external onlyOwner {... */\n    tag_3:\n      callvalue\n      dup1\n      iszero\n      tag_18\n      jumpi\n      revert(0x00, 0x00)\n    tag_18:\n      pop\n      tag_19\n      tag_20\n      jump\t// in\n    tag_19:\n      stop\n        /* \"contracts/new.sol\":1208:1569  function refund() external  {... */\n    tag_4:\n      callvalue\n      dup1\n      iszero\n      tag_21\n      jumpi\n      revert(0x00, 0x00)\n    tag_21:\n      pop\n      tag_22\n      tag_23\n      jump\t// in\n    tag_22:\n      stop\n        /* \"contracts/ownable.sol\":1286:1413  function renounceOwnership() public onlyOwner {... */\n    tag_5:\n      callvalue\n      dup1\n      iszero\n      tag_24\n      jumpi\n      revert(0x00, 0x00)\n    tag_24:\n      pop\n      tag_25\n      tag_26\n      jump\t// in\n    tag_25:\n      stop\n        /* \"contracts/new.sol\":122:151  uint public eth = 0.001 ether */\n    tag_6:\n      callvalue\n      dup1\n      iszero\n      tag_27\n      jumpi\n      revert(0x00, 0x00)\n    tag_27:\n      pop\n      tag_28\n      tag_29\n      jump\t// in\n    tag_28:\n      mload(0x40)\n      tag_30\n      swap2\n      swap1\n      tag_31\n      jump\t// in\n    tag_30:\n      mload(0x40)\n      dup1\n      swap2\n      sub\n      swap1\n      return\n        /* \"contracts/ownable.sol\":661:731  function owner() public view returns(address) {... */\n    tag_7:\n      callvalue\n      dup1\n      iszero\n      tag_32\n      jumpi\n      revert(0x00, 0x00)\n    tag_32:\n      pop\n      tag_33\n      tag_34\n      jump\t// in\n    tag_33:\n      mload(0x40)\n      tag_35\n      swap2\n      swap1\n      tag_36\n      jump\t// in\n    tag_35:\n      mload(0x40)\n      dup1\n      swap2\n      sub\n      swap1\n      return\n        /* \"contracts/ownable.sol\":944:1027  function isOwner() public view returns(bool) {... */\n    tag_8:\n      callvalue\n      dup1\n      iszero\n      tag_37\n      jumpi\n      revert(0x00, 0x00)\n    tag_37:\n      pop\n      tag_38\n      tag_39\n      jump\t// in\n    tag_38:\n      mload(0x40)\n      tag_40\n      swap2\n      swap1\n      tag_41\n      jump\t// in\n    tag_40:\n      mload(0x40)\n      dup1\n      swap2\n      sub\n      swap1\n      return\n        /* \"contracts/new.sol\":154:177  uint public seats = 100 */\n    tag_9:\n      callvalue\n      dup1\n      iszero\n      tag_42\n      jumpi\n      revert(0x00, 0x00)\n    tag_42:\n      pop\n      tag_43\n      tag_44\n      jump\t// in\n    tag_43:\n      mload(0x40)\n      tag_45\n      swap2\n      swap1\n      tag_31\n      jump\t// in\n    tag_45:\n      mload(0x40)\n      dup1\n      swap2\n      sub\n      swap1\n      return\n        /* \"contracts/new.sol\":539:562  Ticket[] public details */\n    tag_10:\n      callvalue\n      dup1\n      iszero\n      tag_46\n      jumpi\n      revert(0x00, 0x00)\n    tag_46:\n      pop\n      tag_47\n      0x04\n      dup1\n      calldatasize\n      sub\n      dup2\n      add\n      swap1\n      tag_48\n      swap2\n      swap1\n      tag_49\n      jump\t// in\n    tag_48:\n      tag_50\n      jump\t// in\n    tag_47:\n      mload(0x40)\n      tag_51\n      swap5\n      swap4\n      swap3\n      swap2\n      swap1\n      tag_52\n      jump\t// in\n    tag_51:\n      mload(0x40)\n      dup1\n      swap2\n      sub\n      swap1\n      return\n        /* \"contracts/new.sol\":184:229  mapping (address => uint) public usertoTicket */\n    tag_11:\n      callvalue\n      dup1\n      iszero\n      tag_53\n      jumpi\n      revert(0x00, 0x00)\n    tag_53:\n      pop\n      tag_54\n      0x04\n      dup1\n      calldatasize\n      sub\n      dup2\n      add\n      swap1\n      tag_55\n      swap2\n      swap1\n      tag_56\n      jump\t// in\n    tag_55:\n      tag_57\n      jump\t// in\n    tag_54:\n      mload(0x40)\n      tag_58\n      swap2\n      swap1\n      tag_31\n      jump\t// in\n    tag_58:\n      mload(0x40)\n      dup1\n      swap2\n      sub\n      swap1\n      return\n        /* \"contracts/ownable.sol\":1571:1672  function transferOwnership(address newOwner) public onlyOwner {... */\n    tag_12:\n      callvalue\n      dup1\n      iszero\n      tag_59\n      jumpi\n      revert(0x00, 0x00)\n    tag_59:\n      pop\n      tag_60\n      0x04\n      dup1\n      calldatasize\n      sub\n      dup2\n      add\n      swap1\n      tag_61\n      swap2\n      swap1\n      tag_56\n      jump\t// in\n    tag_61:\n      tag_62\n      jump\t// in\n    tag_60:\n      stop\n        /* \"contracts/new.sol\":569:1199  function payforticket(string memory _name,... */\n    tag_17:\n        /* \"contracts/new.sol\":709:712  eth */\n      sload(0x01)\n        /* \"contracts/new.sol\":696:705  msg.value */\n      callvalue\n        /* \"contracts/new.sol\":696:712  msg.value == eth */\n      eq\n        /* \"contracts/new.sol\":688:752  require(msg.value == eth, \"you have to pay exact amount of eth\") */\n      tag_64\n      jumpi\n      mload(0x40)\n      0x08c379a000000000000000000000000000000000000000000000000000000000\n      dup2\n      mstore\n      0x04\n      add\n      tag_65\n      swap1\n      tag_66\n      jump\t// in\n    tag_65:\n      mload(0x40)\n      dup1\n      swap2\n      sub\n      swap1\n      revert\n    tag_64:\n        /* \"contracts/new.sol\":778:779  0 */\n      0x00\n        /* \"contracts/new.sol\":770:775  seats */\n      sload(0x02)\n        /* \"contracts/new.sol\":770:779  seats > 0 */\n      gt\n        /* \"contracts/new.sol\":762:796  require(seats > 0,\"sets are full\") */\n      tag_67\n      jumpi\n      mload(0x40)\n      0x08c379a000000000000000000000000000000000000000000000000000000000\n      dup2\n      mstore\n      0x04\n      add\n      tag_68\n      swap1\n      tag_69\n      jump\t// in\n    tag_68:\n      mload(0x40)\n      dup1\n      swap2\n      sub\n      swap1\n      revert\n    tag_67:\n        /* \"contracts/new.sol\":842:843  0 */\n      0x00\n        /* \"contracts/new.sol\":814:826  usertoTicket */\n      0x03\n        /* \"contracts/new.sol\":814:838  usertoTicket[msg.sender] */\n      0x00\n        /* \"contracts/new.sol\":827:837  msg.sender */\n      caller\n        /* \"contracts/new.sol\":814:838  usertoTicket[msg.sender] */\n      0xffffffffffffffffffffffffffffffffffffffff\n      and\n      0xffffffffffffffffffffffffffffffffffffffff\n      and\n      dup2\n      mstore\n      0x20\n      add\n      swap1\n      dup2\n      mstore\n      0x20\n      add\n      0x00\n      keccak256\n      sload\n        /* \"contracts/new.sol\":814:843  usertoTicket[msg.sender] == 0 */\n      eq\n        /* \"contracts/new.sol\":806:871  require(usertoTicket[msg.sender] == 0,\"you already own a ticket\") */\n      tag_70\n      jumpi\n      mload(0x40)\n      0x08c379a000000000000000000000000000000000000000000000000000000000\n      dup2\n      mstore\n      0x04\n      add\n      tag_71\n      swap1\n      tag_72\n      jump\t// in\n    tag_71:\n      mload(0x40)\n      dup1\n      swap2\n      sub\n      swap1\n      revert\n    tag_70:\n        /* \"contracts/new.sol\":889:890  1 */\n      0x01\n        /* \"contracts/new.sol\":881:886  seats */\n      0x02\n      0x00\n        /* \"contracts/new.sol\":881:890  seats -=1 */\n      dup3\n      dup3\n      sload\n      tag_73\n      swap2\n      swap1\n      tag_74\n      jump\t// in\n    tag_73:\n      swap3\n      pop\n      pop\n      dup2\n      swap1\n      sstore\n      pop\n        /* \"contracts/new.sol\":900:913  uint TicketNO */\n      0x00\n        /* \"contracts/new.sol\":922:927  seats */\n      sload(0x02)\n        /* \"contracts/new.sol\":916:919  100 */\n      0x64\n        /* \"contracts/new.sol\":916:927  100 - seats */\n      tag_75\n      swap2\n      swap1\n      tag_74\n      jump\t// in\n    tag_75:\n        /* \"contracts/new.sol\":900:927  uint TicketNO = 100 - seats */\n      swap1\n      pop\n        /* \"contracts/new.sol\":946:953  details */\n      0x04\n        /* \"contracts/new.sol\":959:1093  Ticket({... */\n      mload(0x40)\n      dup1\n      0x80\n      add\n      0x40\n      mstore\n      dup1\n        /* \"contracts/new.sol\":985:990  _name */\n      dup7\n        /* \"contracts/new.sol\":959:1093  Ticket({... */\n      dup2\n      mstore\n      0x20\n      add\n        /* \"contracts/new.sol\":1011:1017  _email */\n      dup6\n        /* \"contracts/new.sol\":959:1093  Ticket({... */\n      dup2\n      mstore\n      0x20\n      add\n        /* \"contracts/new.sol\":1039:1047  _phoneNo */\n      dup5\n        /* \"contracts/new.sol\":959:1093  Ticket({... */\n      dup2\n      mstore\n      0x20\n      add\n        /* \"contracts/new.sol\":1070:1078  TicketNO */\n      dup4\n        /* \"contracts/new.sol\":959:1093  Ticket({... */\n      dup2\n      mstore\n      pop\n        /* \"contracts/new.sol\":946:1094  details.push(Ticket({... */\n      swap1\n      dup1\n      0x01\n      dup2\n      sload\n      add\n      dup1\n      dup3\n      sstore\n      dup1\n      swap2\n      pop\n      pop\n      0x01\n      swap1\n      sub\n      swap1\n      0x00\n      mstore\n      keccak256(0x00, 0x20)\n      swap1\n      0x04\n      mul\n      add\n      0x00\n      swap1\n      swap2\n      swap1\n      swap2\n      swap1\n      swap2\n      pop\n      0x00\n      dup3\n      add\n      mload\n      dup2\n      0x00\n      add\n      swap1\n      dup2\n      tag_77\n      swap2\n      swap1\n      tag_78\n      jump\t// in\n    tag_77:\n      pop\n      0x20\n      dup3\n      add\n      mload\n      dup2\n      0x01\n      add\n      swap1\n      dup2\n      tag_79\n      swap2\n      swap1\n      tag_78\n      jump\t// in\n    tag_79:\n      pop\n      0x40\n      dup3\n      add\n      mload\n      dup2\n      0x02\n      add\n      sstore\n      0x60\n      dup3\n      add\n      mload\n      dup2\n      0x03\n      add\n      sstore\n      pop\n      pop\n        /* \"contracts/new.sol\":1129:1137  TicketNO */\n      dup1\n        /* \"contracts/new.sol\":1102:1114  usertoTicket */\n      0x03\n        /* \"contracts/new.sol\":1102:1126  usertoTicket[msg.sender] */\n      0x00\n        /* \"contracts/new.sol\":1115:1125  msg.sender */\n      caller\n        /* \"contracts/new.sol\":1102:1126  usertoTicket[msg.sender] */\n      0xffffffffffffffffffffffffffffffffffffffff\n      and\n      0xffffffffffffffffffffffffffffffffffffffff\n      and\n      dup2\n      mstore\n      0x20\n      add\n      swap1\n      dup2\n      mstore\n      0x20\n      add\n      0x00\n      keccak256\n        /* \"contracts/new.sol\":1102:1137  usertoTicket[msg.sender] = TicketNO */\n      dup2\n      swap1\n      sstore\n      pop\n        /* \"contracts/new.sol\":1166:1176  msg.sender */\n      caller\n        /* \"contracts/new.sol\":1150:1192  PurchasedTicket(msg.sender, TicketNO, eth) */\n      0xffffffffffffffffffffffffffffffffffffffff\n      and\n      0x7d1cd329a11d8807f0374627923b6cd32942b74b38b1accf931d70a507ff739e\n        /* \"contracts/new.sol\":1178:1186  TicketNO */\n      dup3\n        /* \"contracts/new.sol\":1188:1191  eth */\n      sload(0x01)\n        /* \"contracts/new.sol\":1150:1192  PurchasedTicket(msg.sender, TicketNO, eth) */\n      mload(0x40)\n      tag_80\n      swap3\n      swap2\n      swap1\n      tag_81\n      jump\t// in\n    tag_80:\n      mload(0x40)\n      dup1\n      swap2\n      sub\n      swap1\n      log2\n        /* \"contracts/new.sol\":678:1199  {... */\n      pop\n        /* \"contracts/new.sol\":569:1199  function payforticket(string memory _name,... */\n      pop\n      pop\n      pop\n      jump\t// out\n        /* \"contracts/new.sol\":1603:1855  function Withdraw() external onlyOwner {... */\n    tag_20:\n        /* \"contracts/ownable.sol\":844:853  isOwner() */\n      tag_83\n        /* \"contracts/ownable.sol\":844:851  isOwner */\n      tag_39\n        /* \"contracts/ownable.sol\":844:853  isOwner() */\n      jump\t// in\n    tag_83:\n        /* \"contracts/ownable.sol\":836:854  require(isOwner()) */\n      tag_84\n      jumpi\n      revert(0x00, 0x00)\n    tag_84:\n        /* \"contracts/new.sol\":1650:1661  uint amount */\n      0x00\n        /* \"contracts/new.sol\":1664:1685  address(this).balance */\n      selfbalance\n        /* \"contracts/new.sol\":1650:1685  uint amount = address(this).balance */\n      swap1\n      pop\n        /* \"contracts/new.sol\":1694:1703  bool sent */\n      0x00\n        /* \"contracts/new.sol\":1717:1724  owner() */\n      tag_86\n        /* \"contracts/new.sol\":1717:1722  owner */\n      tag_34\n        /* \"contracts/new.sol\":1717:1724  owner() */\n      jump\t// in\n    tag_86:\n        /* \"contracts/new.sol\":1709:1730  payable(owner()).call */\n      0xffffffffffffffffffffffffffffffffffffffff\n      and\n        /* \"contracts/new.sol\":1738:1759  address(this).balance */\n      selfbalance\n        /* \"contracts/new.sol\":1709:1764  payable(owner()).call{value: address(this).balance}(\"\") */\n      mload(0x40)\n      tag_87\n      swap1\n      tag_88\n      jump\t// in\n    tag_87:\n      0x00\n      mload(0x40)\n      dup1\n      dup4\n      sub\n      dup2\n      dup6\n      dup8\n      gas\n      call\n      swap3\n      pop\n      pop\n      pop\n      returndatasize\n      dup1\n      0x00\n      dup2\n      eq\n      tag_91\n      jumpi\n      mload(0x40)\n      swap2\n      pop\n      and(add(returndatasize, 0x3f), not(0x1f))\n      dup3\n      add\n      0x40\n      mstore\n      returndatasize\n      dup3\n      mstore\n      returndatasize\n      0x00\n      0x20\n      dup5\n      add\n      returndatacopy\n      jump(tag_90)\n    tag_91:\n      0x60\n      swap2\n      pop\n    tag_90:\n      pop\n        /* \"contracts/new.sol\":1693:1764  (bool sent,) =  payable(owner()).call{value: address(this).balance}(\"\") */\n      pop\n      swap1\n      pop\n        /* \"contracts/new.sol\":1780:1784  sent */\n      dup1\n        /* \"contracts/new.sol\":1772:1812  require(sent,\"error:fail to send ether\") */\n      tag_92\n      jumpi\n      mload(0x40)\n      0x08c379a000000000000000000000000000000000000000000000000000000000\n      dup2\n      mstore\n      0x04\n      add\n      tag_93\n      swap1\n      tag_94\n      jump\t// in\n    tag_93:\n      mload(0x40)\n      dup1\n      swap2\n      sub\n      swap1\n      revert\n    tag_92:\n        /* \"contracts/new.sol\":1834:1841  owner() */\n      tag_95\n        /* \"contracts/new.sol\":1834:1839  owner */\n      tag_34\n        /* \"contracts/new.sol\":1834:1841  owner() */\n      jump\t// in\n    tag_95:\n        /* \"contracts/new.sol\":1825:1849  withdraw(owner(),amount) */\n      0xffffffffffffffffffffffffffffffffffffffff\n      and\n      0xf3fef3a3f44f9c277339b67d54f015748bd8d6b77a985b0ab6e71126b018c34a\n        /* \"contracts/new.sol\":1842:1848  amount */\n      dup4\n        /* \"contracts/new.sol\":1825:1849  withdraw(owner(),amount) */\n      mload(0x40)\n      tag_96\n      swap2\n      swap1\n      tag_31\n      jump\t// in\n    tag_96:\n      mload(0x40)\n      dup1\n      swap2\n      sub\n      swap1\n      log2\n        /* \"contracts/new.sol\":1642:1855  {... */\n      pop\n      pop\n        /* \"contracts/new.sol\":1603:1855  function Withdraw() external onlyOwner {... */\n      jump\t// out\n        /* \"contracts/new.sol\":1208:1569  function refund() external  {... */\n    tag_23:\n        /* \"contracts/new.sol\":1244:1257  uint TicketNo */\n      0x00\n        /* \"contracts/new.sol\":1260:1272  usertoTicket */\n      0x03\n        /* \"contracts/new.sol\":1260:1284  usertoTicket[msg.sender] */\n      0x00\n        /* \"contracts/new.sol\":1273:1283  msg.sender */\n      caller\n        /* \"contracts/new.sol\":1260:1284  usertoTicket[msg.sender] */\n      0xffffffffffffffffffffffffffffffffffffffff\n      and\n      0xffffffffffffffffffffffffffffffffffffffff\n      and\n      dup2\n      mstore\n      0x20\n      add\n      swap1\n      dup2\n      mstore\n      0x20\n      add\n      0x00\n      keccak256\n      sload\n        /* \"contracts/new.sol\":1244:1284  uint TicketNo = usertoTicket[msg.sender] */\n      swap1\n      pop\n        /* \"contracts/new.sol\":1311:1312  0 */\n      0x00\n        /* \"contracts/new.sol\":1300:1308  TicketNo */\n      dup2\n        /* \"contracts/new.sol\":1300:1312  TicketNo > 0 */\n      gt\n        /* \"contracts/new.sol\":1292:1335  require(TicketNo > 0,\"you dont own Ticket\") */\n      tag_98\n      jumpi\n      mload(0x40)\n      0x08c379a000000000000000000000000000000000000000000000000000000000\n      dup2\n      mstore\n      0x04\n      add\n      tag_99\n      swap1\n      tag_100\n      jump\t// in\n    tag_99:\n      mload(0x40)\n      dup1\n      swap2\n      sub\n      swap1\n      revert\n    tag_98:\n        /* \"contracts/new.sol\":1377:1378  0 */\n      0x00\n        /* \"contracts/new.sol\":1350:1362  usertoTicket */\n      0x03\n        /* \"contracts/new.sol\":1350:1374  usertoTicket[msg.sender] */\n      0x00\n        /* \"contracts/new.sol\":1363:1373  msg.sender */\n      caller\n        /* \"contracts/new.sol\":1350:1374  usertoTicket[msg.sender] */\n      0xffffffffffffffffffffffffffffffffffffffff\n      and\n      0xffffffffffffffffffffffffffffffffffffffff\n      and\n      dup2\n      mstore\n      0x20\n      add\n      swap1\n      dup2\n      mstore\n      0x20\n      add\n      0x00\n      keccak256\n        /* \"contracts/new.sol\":1350:1378  usertoTicket[msg.sender] = 0 */\n      dup2\n      swap1\n      sstore\n      pop\n        /* \"contracts/new.sol\":1394:1395  1 */\n      0x01\n        /* \"contracts/new.sol\":1386:1391  seats */\n      0x02\n      0x00\n        /* \"contracts/new.sol\":1386:1395  seats +=1 */\n      dup3\n      dup3\n      sload\n      tag_101\n      swap2\n      swap1\n      tag_102\n      jump\t// in\n    tag_101:\n      swap3\n      pop\n      pop\n      dup2\n      swap1\n      sstore\n      pop\n        /* \"contracts/new.sol\":1405:1414  bool sent */\n      0x00\n        /* \"contracts/new.sol\":1428:1438  msg.sender */\n      caller\n        /* \"contracts/new.sol\":1420:1444  payable(msg.sender).call */\n      0xffffffffffffffffffffffffffffffffffffffff\n      and\n        /* \"contracts/new.sol\":1452:1455  eth */\n      sload(0x01)\n        /* \"contracts/new.sol\":1420:1460  payable(msg.sender).call{value: eth}(\"\") */\n      mload(0x40)\n      tag_103\n      swap1\n      tag_88\n      jump\t// in\n    tag_103:\n      0x00\n      mload(0x40)\n      dup1\n      dup4\n      sub\n      dup2\n      dup6\n      dup8\n      gas\n      call\n      swap3\n      pop\n      pop\n      pop\n      returndatasize\n      dup1\n      0x00\n      dup2\n      eq\n      tag_106\n      jumpi\n      mload(0x40)\n      swap2\n      pop\n      and(add(returndatasize, 0x3f), not(0x1f))\n      dup3\n      add\n      0x40\n      mstore\n      returndatasize\n      dup3\n      mstore\n      returndatasize\n      0x00\n      0x20\n      dup5\n      add\n      returndatacopy\n      jump(tag_105)\n    tag_106:\n      0x60\n      swap2\n      pop\n    tag_105:\n      pop\n        /* \"contracts/new.sol\":1404:1460  (bool sent,) =  payable(msg.sender).call{value: eth}(\"\") */\n      pop\n      swap1\n      pop\n        /* \"contracts/new.sol\":1477:1481  sent */\n      dup1\n        /* \"contracts/new.sol\":1469:1508  require(sent,\"error:issue with refund\") */\n      tag_107\n      jumpi\n      mload(0x40)\n      0x08c379a000000000000000000000000000000000000000000000000000000000\n      dup2\n      mstore\n      0x04\n      add\n      tag_108\n      swap1\n      tag_109\n      jump\t// in\n    tag_108:\n      mload(0x40)\n      dup1\n      swap2\n      sub\n      swap1\n      revert\n    tag_107:\n        /* \"contracts/new.sol\":1536:1546  msg.sender */\n      caller\n        /* \"contracts/new.sol\":1529:1562  Refund(msg.sender, TicketNo, eth) */\n      0xffffffffffffffffffffffffffffffffffffffff\n      and\n      0x73f04af9dcc582a923ec15d3eea990fe34adabfff2879e28d44572e01a54abb6\n        /* \"contracts/new.sol\":1548:1556  TicketNo */\n      dup4\n        /* \"contracts/new.sol\":1558:1561  eth */\n      sload(0x01)\n        /* \"contracts/new.sol\":1529:1562  Refund(msg.sender, TicketNo, eth) */\n      mload(0x40)\n      tag_110\n      swap3\n      swap2\n      swap1\n      tag_81\n      jump\t// in\n    tag_110:\n      mload(0x40)\n      dup1\n      swap2\n      sub\n      swap1\n      log2\n        /* \"contracts/new.sol\":1236:1569  {... */\n      pop\n      pop\n        /* \"contracts/new.sol\":1208:1569  function refund() external  {... */\n      jump\t// out\n        /* \"contracts/ownable.sol\":1286:1413  function renounceOwnership() public onlyOwner {... */\n    tag_26:\n        /* \"contracts/ownable.sol\":844:853  isOwner() */\n      tag_112\n        /* \"contracts/ownable.sol\":844:851  isOwner */\n      tag_39\n        /* \"contracts/ownable.sol\":844:853  isOwner() */\n      jump\t// in\n    tag_112:\n        /* \"contracts/ownable.sol\":836:854  require(isOwner()) */\n      tag_113\n      jumpi\n      revert(0x00, 0x00)\n    tag_113:\n        /* \"contracts/ownable.sol\":1380:1381  0 */\n      0x00\n        /* \"contracts/ownable.sol\":1343:1383  OwnershipTransferred(_owner, address(0)) */\n      0xffffffffffffffffffffffffffffffffffffffff\n      and\n        /* \"contracts/ownable.sol\":1364:1370  _owner */\n      0x00\n      0x00\n      swap1\n      sload\n      swap1\n      0x0100\n      exp\n      swap1\n      div\n      0xffffffffffffffffffffffffffffffffffffffff\n      and\n        /* \"contracts/ownable.sol\":1343:1383  OwnershipTransferred(_owner, address(0)) */\n      0xffffffffffffffffffffffffffffffffffffffff\n      and\n      0x8be0079c531659141344cd1fd0a4f28419497f9722a3daafe3b4186f6b6457e0\n      mload(0x40)\n      mload(0x40)\n      dup1\n      swap2\n      sub\n      swap1\n      log3\n        /* \"contracts/ownable.sol\":1406:1407  0 */\n      0x00\n        /* \"contracts/ownable.sol\":1389:1395  _owner */\n      0x00\n      0x00\n        /* \"contracts/ownable.sol\":1389:1408  _owner = address(0) */\n      0x0100\n      exp\n      dup2\n      sload\n      dup2\n      0xffffffffffffffffffffffffffffffffffffffff\n      mul\n      not\n      and\n      swap1\n      dup4\n      0xffffffffffffffffffffffffffffffffffffffff\n      and\n      mul\n      or\n      swap1\n      sstore\n      pop\n        /* \"contracts/ownable.sol\":1286:1413  function renounceOwnership() public onlyOwner {... */\n      jump\t// out\n        /* \"contracts/new.sol\":122:151  uint public eth = 0.001 ether */\n    tag_29:\n      sload(0x01)\n      dup2\n      jump\t// out\n        /* \"contracts/ownable.sol\":661:731  function owner() public view returns(address) {... */\n    tag_34:\n        /* \"contracts/ownable.sol\":698:705  address */\n      0x00\n        /* \"contracts/ownable.sol\":720:726  _owner */\n      0x00\n      0x00\n      swap1\n      sload\n      swap1\n      0x0100\n      exp\n      swap1\n      div\n      0xffffffffffffffffffffffffffffffffffffffff\n      and\n        /* \"contracts/ownable.sol\":713:726  return _owner */\n      swap1\n      pop\n        /* \"contracts/ownable.sol\":661:731  function owner() public view returns(address) {... */\n      swap1\n      jump\t// out\n        /* \"contracts/ownable.sol\":944:1027  function isOwner() public view returns(bool) {... */\n    tag_39:\n        /* \"contracts/ownable.sol\":983:987  bool */\n      0x00\n        /* \"contracts/ownable.sol\":1016:1022  _owner */\n      0x00\n      0x00\n      swap1\n      sload\n      swap1\n      0x0100\n      exp\n      swap1\n      div\n      0xffffffffffffffffffffffffffffffffffffffff\n      and\n        /* \"contracts/ownable.sol\":1002:1022  msg.sender == _owner */\n      0xffffffffffffffffffffffffffffffffffffffff\n      and\n        /* \"contracts/ownable.sol\":1002:1012  msg.sender */\n      caller\n        /* \"contracts/ownable.sol\":1002:1022  msg.sender == _owner */\n      0xffffffffffffffffffffffffffffffffffffffff\n      and\n      eq\n        /* \"contracts/ownable.sol\":995:1022  return msg.sender == _owner */\n      swap1\n      pop\n        /* \"contracts/ownable.sol\":944:1027  function isOwner() public view returns(bool) {... */\n      swap1\n      jump\t// out\n        /* \"contracts/new.sol\":154:177  uint public seats = 100 */\n    tag_44:\n      sload(0x02)\n      dup2\n      jump\t// out\n        /* \"contracts/new.sol\":539:562  Ticket[] public details */\n    tag_50:\n      0x04\n      dup2\n      dup2\n      sload\n      dup2\n      lt\n      tag_117\n      jumpi\n      0x00\n      dup1\n      revert\n    tag_117:\n      swap1\n      0x00\n      mstore\n      keccak256(0x00, 0x20)\n      swap1\n      0x04\n      mul\n      add\n      0x00\n      swap2\n      pop\n      swap1\n      pop\n      dup1\n      0x00\n      add\n      dup1\n      sload\n      tag_119\n      swap1\n      tag_120\n      jump\t// in\n    tag_119:\n      dup1\n      0x1f\n      add\n      0x20\n      dup1\n      swap2\n      div\n      mul\n      0x20\n      add\n      mload(0x40)\n      swap1\n      dup2\n      add\n      0x40\n      mstore\n      dup1\n      swap3\n      swap2\n      swap1\n      dup2\n      dup2\n      mstore\n      0x20\n      add\n      dup3\n      dup1\n      sload\n      tag_121\n      swap1\n      tag_120\n      jump\t// in\n    tag_121:\n      dup1\n      iszero\n      tag_122\n      jumpi\n      dup1\n      0x1f\n      lt\n      tag_123\n      jumpi\n      0x0100\n      dup1\n      dup4\n      sload\n      div\n      mul\n      dup4\n      mstore\n      swap2\n      0x20\n      add\n      swap2\n      jump(tag_122)\n    tag_123:\n      dup3\n      add\n      swap2\n      swap1\n      0x00\n      mstore\n      keccak256(0x00, 0x20)\n      swap1\n    tag_124:\n      dup2\n      sload\n      dup2\n      mstore\n      swap1\n      0x01\n      add\n      swap1\n      0x20\n      add\n      dup1\n      dup4\n      gt\n      tag_124\n      jumpi\n      dup3\n      swap1\n      sub\n      0x1f\n      and\n      dup3\n      add\n      swap2\n    tag_122:\n      pop\n      pop\n      pop\n      pop\n      pop\n      swap1\n      dup1\n      0x01\n      add\n      dup1\n      sload\n      tag_125\n      swap1\n      tag_120\n      jump\t// in\n    tag_125:\n      dup1\n      0x1f\n      add\n      0x20\n      dup1\n      swap2\n      div\n      mul\n      0x20\n      add\n      mload(0x40)\n      swap1\n      dup2\n      add\n      0x40\n      mstore\n      dup1\n      swap3\n      swap2\n      swap1\n      dup2\n      dup2\n      mstore\n      0x20\n      add\n      dup3\n      dup1\n      sload\n      tag_126\n      swap1\n      tag_120\n      jump\t// in\n    tag_126:\n      dup1\n      iszero\n      tag_127\n      jumpi\n      dup1\n      0x1f\n      lt\n      tag_128\n      jumpi\n      0x0100\n      dup1\n      dup4\n      sload\n      div\n      mul\n      dup4\n      mstore\n      swap2\n      0x20\n      add\n      swap2\n      jump(tag_127)\n    tag_128:\n      dup3\n      add\n      swap2\n      swap1\n      0x00\n      mstore\n      keccak256(0x00, 0x20)\n      swap1\n    tag_129:\n      dup2\n      sload\n      dup2\n      mstore\n      swap1\n      0x01\n      add\n      swap1\n      0x20\n      add\n      dup1\n      dup4\n      gt\n      tag_129\n      jumpi\n      dup3\n      swap1\n      sub\n      0x1f\n      and\n      dup3\n      add\n      swap2\n    tag_127:\n      pop\n      pop\n      pop\n      pop\n      pop\n      swap1\n      dup1\n      0x02\n      add\n      sload\n      swap1\n      dup1\n      0x03\n      add\n      sload\n      swap1\n      pop\n      dup5\n      jump\t// out\n        /* \"contracts/new.sol\":184:229  mapping (address => uint) public usertoTicket */\n    tag_57:\n      mstore(0x20, 0x03)\n      dup1\n      0x00\n      mstore\n      keccak256(0x00, 0x40)\n      0x00\n      swap2\n      pop\n      swap1\n      pop\n      sload\n      dup2\n      jump\t// out\n        /* \"contracts/ownable.sol\":1571:1672  function transferOwnership(address newOwner) public onlyOwner {... */\n    tag_62:\n        /* \"contracts/ownable.sol\":844:853  isOwner() */\n      tag_131\n        /* \"contracts/ownable.sol\":844:851  isOwner */\n      tag_39\n        /* \"contracts/ownable.sol\":844:853  isOwner() */\n      jump\t// in\n    tag_131:\n        /* \"contracts/ownable.sol\":836:854  require(isOwner()) */\n      tag_132\n      jumpi\n      revert(0x00, 0x00)\n    tag_132:\n        /* \"contracts/ownable.sol\":1639:1667  _transferOwnership(newOwner) */\n      tag_134\n        /* \"contracts/ownable.sol\":1658:1666  newOwner */\n      dup2\n        /* \"contracts/ownable.sol\":1639:1657  _transferOwnership */\n      tag_135\n        /* \"contracts/ownable.sol\":1639:1667  _transferOwnership(newOwner) */\n      jump\t// in\n    tag_134:\n        /* \"contracts/ownable.sol\":1571:1672  function transferOwnership(address newOwner) public onlyOwner {... */\n      pop\n      jump\t// out\n        /* \"contracts/ownable.sol\":1803:1972  function _transferOwnership(address newOwner) internal {... */\n    tag_135:\n        /* \"contracts/ownable.sol\":1892:1893  0 */\n      0x00\n        /* \"contracts/ownable.sol\":1872:1894  newOwner != address(0) */\n      0xffffffffffffffffffffffffffffffffffffffff\n      and\n        /* \"contracts/ownable.sol\":1872:1880  newOwner */\n      dup2\n        /* \"contracts/ownable.sol\":1872:1894  newOwner != address(0) */\n      0xffffffffffffffffffffffffffffffffffffffff\n      and\n      sub\n        /* \"contracts/ownable.sol\":1864:1895  require(newOwner != address(0)) */\n      tag_137\n      jumpi\n      revert(0x00, 0x00)\n    tag_137:\n        /* \"contracts/ownable.sol\":1935:1943  newOwner */\n      dup1\n        /* \"contracts/ownable.sol\":1906:1944  OwnershipTransferred(_owner, newOwner) */\n      0xffffffffffffffffffffffffffffffffffffffff\n      and\n        /* \"contracts/ownable.sol\":1927:1933  _owner */\n      0x00\n      0x00\n      swap1\n      sload\n      swap1\n      0x0100\n      exp\n      swap1\n      div\n      0xffffffffffffffffffffffffffffffffffffffff\n      and\n        /* \"contracts/ownable.sol\":1906:1944  OwnershipTransferred(_owner, newOwner) */\n      0xffffffffffffffffffffffffffffffffffffffff\n      and\n      0x8be0079c531659141344cd1fd0a4f28419497f9722a3daafe3b4186f6b6457e0\n      mload(0x40)\n      mload(0x40)\n      dup1\n      swap2\n      sub\n      swap1\n      log3\n        /* \"contracts/ownable.sol\":1959:1967  newOwner */\n      dup1\n        /* \"contracts/ownable.sol\":1950:1956  _owner */\n      0x00\n      0x00\n        /* \"contracts/ownable.sol\":1950:1967  _owner = newOwner */\n      0x0100\n      exp\n      dup2\n      sload\n      dup2\n      0xffffffffffffffffffffffffffffffffffffffff\n      mul\n      not\n      and\n      swap1\n      dup4\n      0xffffffffffffffffffffffffffffffffffffffff\n      and\n      mul\n      or\n      swap1\n      sstore\n      pop\n        /* \"contracts/ownable.sol\":1803:1972  function _transferOwnership(address newOwner) internal {... */\n      pop\n      jump\t// out\n        /* \"#utility.yul\":7:82   */\n    tag_138:\n        /* \"#utility.yul\":40:46   */\n      0x00\n        /* \"#utility.yul\":73:75   */\n      0x40\n        /* \"#utility.yul\":67:76   */\n      mload\n        /* \"#utility.yul\":57:76   */\n      swap1\n      pop\n        /* \"#utility.yul\":7:82   */\n      swap1\n      jump\t// out\n        /* \"#utility.yul\":88:205   */\n    tag_139:\n        /* \"#utility.yul\":197:198   */\n      0x00\n        /* \"#utility.yul\":194:195   */\n      0x00\n        /* \"#utility.yul\":187:199   */\n      revert\n        /* \"#utility.yul\":211:328   */\n    tag_140:\n        /* \"#utility.yul\":320:321   */\n      0x00\n        /* \"#utility.yul\":317:318   */\n      0x00\n        /* \"#utility.yul\":310:322   */\n      revert\n        /* \"#utility.yul\":334:451   */\n    tag_141:\n        /* \"#utility.yul\":443:444   */\n      0x00\n        /* \"#utility.yul\":440:441   */\n      0x00\n        /* \"#utility.yul\":433:445   */\n      revert\n        /* \"#utility.yul\":457:574   */\n    tag_142:\n        /* \"#utility.yul\":566:567   */\n      0x00\n        /* \"#utility.yul\":563:564   */\n      0x00\n        /* \"#utility.yul\":556:568   */\n      revert\n        /* \"#utility.yul\":580:682   */\n    tag_143:\n        /* \"#utility.yul\":621:627   */\n      0x00\n        /* \"#utility.yul\":672:674   */\n      0x1f\n        /* \"#utility.yul\":668:675   */\n      not\n        /* \"#utility.yul\":663:665   */\n      0x1f\n        /* \"#utility.yul\":656:661   */\n      dup4\n        /* \"#utility.yul\":652:666   */\n      add\n        /* \"#utility.yul\":648:676   */\n      and\n        /* \"#utility.yul\":638:676   */\n      swap1\n      pop\n        /* \"#utility.yul\":580:682   */\n      swap2\n      swap1\n      pop\n      jump\t// out\n        /* \"#utility.yul\":688:868   */\n    tag_144:\n        /* \"#utility.yul\":736:813   */\n      0x4e487b7100000000000000000000000000000000000000000000000000000000\n        /* \"#utility.yul\":733:734   */\n      0x00\n        /* \"#utility.yul\":726:814   */\n      mstore\n        /* \"#utility.yul\":833:837   */\n      0x41\n        /* \"#utility.yul\":830:831   */\n      0x04\n        /* \"#utility.yul\":823:838   */\n      mstore\n        /* \"#utility.yul\":857:861   */\n      0x24\n        /* \"#utility.yul\":854:855   */\n      0x00\n        /* \"#utility.yul\":847:862   */\n      revert\n        /* \"#utility.yul\":874:1155   */\n    tag_145:\n        /* \"#utility.yul\":957:984   */\n      tag_207\n        /* \"#utility.yul\":979:983   */\n      dup3\n        /* \"#utility.yul\":957:984   */\n      tag_143\n      jump\t// in\n    tag_207:\n        /* \"#utility.yul\":949:955   */\n      dup2\n        /* \"#utility.yul\":945:985   */\n      add\n        /* \"#utility.yul\":1087:1093   */\n      dup2\n        /* \"#utility.yul\":1075:1085   */\n      dup2\n        /* \"#utility.yul\":1072:1094   */\n      lt\n        /* \"#utility.yul\":1051:1069   */\n      0xffffffffffffffff\n        /* \"#utility.yul\":1039:1049   */\n      dup3\n        /* \"#utility.yul\":1036:1070   */\n      gt\n        /* \"#utility.yul\":1033:1095   */\n      or\n        /* \"#utility.yul\":1030:1118   */\n      iszero\n      tag_208\n      jumpi\n        /* \"#utility.yul\":1098:1116   */\n      tag_209\n      tag_144\n      jump\t// in\n    tag_209:\n        /* \"#utility.yul\":1030:1118   */\n    tag_208:\n        /* \"#utility.yul\":1138:1148   */\n      dup1\n        /* \"#utility.yul\":1134:1136   */\n      0x40\n        /* \"#utility.yul\":1127:1149   */\n      mstore\n        /* \"#utility.yul\":917:1155   */\n      pop\n        /* \"#utility.yul\":874:1155   */\n      pop\n      pop\n      jump\t// out\n        /* \"#utility.yul\":1161:1290   */\n    tag_146:\n        /* \"#utility.yul\":1195:1201   */\n      0x00\n        /* \"#utility.yul\":1222:1242   */\n      tag_211\n      tag_138\n      jump\t// in\n    tag_211:\n        /* \"#utility.yul\":1212:1242   */\n      swap1\n      pop\n        /* \"#utility.yul\":1251:1284   */\n      tag_212\n        /* \"#utility.yul\":1279:1283   */\n      dup3\n        /* \"#utility.yul\":1271:1277   */\n      dup3\n        /* \"#utility.yul\":1251:1284   */\n      tag_145\n      jump\t// in\n    tag_212:\n        /* \"#utility.yul\":1161:1290   */\n      swap2\n      swap1\n      pop\n      jump\t// out\n        /* \"#utility.yul\":1296:1604   */\n    tag_147:\n        /* \"#utility.yul\":1358:1362   */\n      0x00\n        /* \"#utility.yul\":1448:1466   */\n      0xffffffffffffffff\n        /* \"#utility.yul\":1440:1446   */\n      dup3\n        /* \"#utility.yul\":1437:1467   */\n      gt\n        /* \"#utility.yul\":1434:1490   */\n      iszero\n      tag_214\n      jumpi\n        /* \"#utility.yul\":1470:1488   */\n      tag_215\n      tag_144\n      jump\t// in\n    tag_215:\n        /* \"#utility.yul\":1434:1490   */\n    tag_214:\n        /* \"#utility.yul\":1508:1537   */\n      tag_216\n        /* \"#utility.yul\":1530:1536   */\n      dup3\n        /* \"#utility.yul\":1508:1537   */\n      tag_143\n      jump\t// in\n    tag_216:\n        /* \"#utility.yul\":1500:1537   */\n      swap1\n      pop\n        /* \"#utility.yul\":1592:1596   */\n      0x20\n        /* \"#utility.yul\":1586:1590   */\n      dup2\n        /* \"#utility.yul\":1582:1597   */\n      add\n        /* \"#utility.yul\":1574:1597   */\n      swap1\n      pop\n        /* \"#utility.yul\":1296:1604   */\n      swap2\n      swap1\n      pop\n      jump\t// out\n        /* \"#utility.yul\":1610:1758   */\n    tag_148:\n        /* \"#utility.yul\":1708:1714   */\n      dup3\n        /* \"#utility.yul\":1703:1706   */\n      dup2\n        /* \"#utility.yul\":1698:1701   */\n      dup4\n        /* \"#utility.yul\":1685:1715   */\n      calldatacopy\n        /* \"#utility.yul\":1749:1750   */\n      0x00\n        /* \"#utility.yul\":1740:1746   */\n      dup4\n        /* \"#utility.yul\":1735:1738   */\n      dup4\n        /* \"#utility.yul\":1731:1747   */\n      add\n        /* \"#utility.yul\":1724:1751   */\n      mstore\n        /* \"#utility.yul\":1610:1758   */\n      pop\n      pop\n      pop\n      jump\t// out\n        /* \"#utility.yul\":1764:2189   */\n    tag_149:\n        /* \"#utility.yul\":1842:1847   */\n      0x00\n        /* \"#utility.yul\":1867:1933   */\n      tag_219\n        /* \"#utility.yul\":1883:1932   */\n      tag_220\n        /* \"#utility.yul\":1925:1931   */\n      dup5\n        /* \"#utility.yul\":1883:1932   */\n      tag_147\n      jump\t// in\n    tag_220:\n        /* \"#utility.yul\":1867:1933   */\n      tag_146\n      jump\t// in\n    tag_219:\n        /* \"#utility.yul\":1858:1933   */\n      swap1\n      pop\n        /* \"#utility.yul\":1956:1962   */\n      dup3\n        /* \"#utility.yul\":1949:1954   */\n      dup2\n        /* \"#utility.yul\":1942:1963   */\n      mstore\n        /* \"#utility.yul\":1994:1998   */\n      0x20\n        /* \"#utility.yul\":1987:1992   */\n      dup2\n        /* \"#utility.yul\":1983:1999   */\n      add\n        /* \"#utility.yul\":2032:2035   */\n      dup5\n        /* \"#utility.yul\":2023:2029   */\n      dup5\n        /* \"#utility.yul\":2018:2021   */\n      dup5\n        /* \"#utility.yul\":2014:2030   */\n      add\n        /* \"#utility.yul\":2011:2036   */\n      gt\n        /* \"#utility.yul\":2008:2120   */\n      iszero\n      tag_221\n      jumpi\n        /* \"#utility.yul\":2039:2118   */\n      tag_222\n      tag_142\n      jump\t// in\n    tag_222:\n        /* \"#utility.yul\":2008:2120   */\n    tag_221:\n        /* \"#utility.yul\":2129:2183   */\n      tag_223\n        /* \"#utility.yul\":2176:2182   */\n      dup5\n        /* \"#utility.yul\":2171:2174   */\n      dup3\n        /* \"#utility.yul\":2166:2169   */\n      dup6\n        /* \"#utility.yul\":2129:2183   */\n      tag_148\n      jump\t// in\n    tag_223:\n        /* \"#utility.yul\":1848:2189   */\n      pop\n        /* \"#utility.yul\":1764:2189   */\n      swap4\n      swap3\n      pop\n      pop\n      pop\n      jump\t// out\n        /* \"#utility.yul\":2209:2549   */\n    tag_150:\n        /* \"#utility.yul\":2265:2270   */\n      0x00\n        /* \"#utility.yul\":2314:2317   */\n      dup3\n        /* \"#utility.yul\":2307:2311   */\n      0x1f\n        /* \"#utility.yul\":2299:2305   */\n      dup4\n        /* \"#utility.yul\":2295:2312   */\n      add\n        /* \"#utility.yul\":2291:2318   */\n      slt\n        /* \"#utility.yul\":2281:2403   */\n      tag_225\n      jumpi\n        /* \"#utility.yul\":2322:2401   */\n      tag_226\n      tag_141\n      jump\t// in\n    tag_226:\n        /* \"#utility.yul\":2281:2403   */\n    tag_225:\n        /* \"#utility.yul\":2439:2445   */\n      dup2\n        /* \"#utility.yul\":2426:2446   */\n      calldataload\n        /* \"#utility.yul\":2464:2543   */\n      tag_227\n        /* \"#utility.yul\":2539:2542   */\n      dup5\n        /* \"#utility.yul\":2531:2537   */\n      dup3\n        /* \"#utility.yul\":2524:2528   */\n      0x20\n        /* \"#utility.yul\":2516:2522   */\n      dup7\n        /* \"#utility.yul\":2512:2529   */\n      add\n        /* \"#utility.yul\":2464:2543   */\n      tag_149\n      jump\t// in\n    tag_227:\n        /* \"#utility.yul\":2455:2543   */\n      swap2\n      pop\n        /* \"#utility.yul\":2271:2549   */\n      pop\n        /* \"#utility.yul\":2209:2549   */\n      swap3\n      swap2\n      pop\n      pop\n      jump\t// out\n        /* \"#utility.yul\":2555:2632   */\n    tag_151:\n        /* \"#utility.yul\":2592:2599   */\n      0x00\n        /* \"#utility.yul\":2621:2626   */\n      dup2\n        /* \"#utility.yul\":2610:2626   */\n      swap1\n      pop\n        /* \"#utility.yul\":2555:2632   */\n      swap2\n      swap1\n      pop\n      jump\t// out\n        /* \"#utility.yul\":2638:2760   */\n    tag_152:\n        /* \"#utility.yul\":2711:2735   */\n      tag_230\n        /* \"#utility.yul\":2729:2734   */\n      dup2\n        /* \"#utility.yul\":2711:2735   */\n      tag_151\n      jump\t// in\n    tag_230:\n        /* \"#utility.yul\":2704:2709   */\n      dup2\n        /* \"#utility.yul\":2701:2736   */\n      eq\n        /* \"#utility.yul\":2691:2754   */\n      tag_231\n      jumpi\n        /* \"#utility.yul\":2750:2751   */\n      0x00\n        /* \"#utility.yul\":2747:2748   */\n      0x00\n        /* \"#utility.yul\":2740:2752   */\n      revert\n        /* \"#utility.yul\":2691:2754   */\n    tag_231:\n        /* \"#utility.yul\":2638:2760   */\n      pop\n      jump\t// out\n        /* \"#utility.yul\":2766:2905   */\n    tag_153:\n        /* \"#utility.yul\":2812:2817   */\n      0x00\n        /* \"#utility.yul\":2850:2856   */\n      dup2\n        /* \"#utility.yul\":2837:2857   */\n      calldataload\n        /* \"#utility.yul\":2828:2857   */\n      swap1\n      pop\n        /* \"#utility.yul\":2866:2899   */\n      tag_233\n        /* \"#utility.yul\":2893:2898   */\n      dup2\n        /* \"#utility.yul\":2866:2899   */\n      tag_152\n      jump\t// in\n    tag_233:\n        /* \"#utility.yul\":2766:2905   */\n      swap3\n      swap2\n      pop\n      pop\n      jump\t// out\n        /* \"#utility.yul\":2911:3890   */\n    tag_16:\n        /* \"#utility.yul\":3008:3014   */\n      0x00\n        /* \"#utility.yul\":3016:3022   */\n      0x00\n        /* \"#utility.yul\":3024:3030   */\n      0x00\n        /* \"#utility.yul\":3073:3075   */\n      0x60\n        /* \"#utility.yul\":3061:3070   */\n      dup5\n        /* \"#utility.yul\":3052:3059   */\n      dup7\n        /* \"#utility.yul\":3048:3071   */\n      sub\n        /* \"#utility.yul\":3044:3076   */\n      slt\n        /* \"#utility.yul\":3041:3160   */\n      iszero\n      tag_235\n      jumpi\n        /* \"#utility.yul\":3079:3158   */\n      tag_236\n      tag_139\n      jump\t// in\n    tag_236:\n        /* \"#utility.yul\":3041:3160   */\n    tag_235:\n        /* \"#utility.yul\":3227:3228   */\n      0x00\n        /* \"#utility.yul\":3216:3225   */\n      dup5\n        /* \"#utility.yul\":3212:3229   */\n      add\n        /* \"#utility.yul\":3199:3230   */\n      calldataload\n        /* \"#utility.yul\":3257:3275   */\n      0xffffffffffffffff\n        /* \"#utility.yul\":3249:3255   */\n      dup2\n        /* \"#utility.yul\":3246:3276   */\n      gt\n        /* \"#utility.yul\":3243:3360   */\n      iszero\n      tag_237\n      jumpi\n        /* \"#utility.yul\":3279:3358   */\n      tag_238\n      tag_140\n      jump\t// in\n    tag_238:\n        /* \"#utility.yul\":3243:3360   */\n    tag_237:\n        /* \"#utility.yul\":3384:3447   */\n      tag_239\n        /* \"#utility.yul\":3439:3446   */\n      dup7\n        /* \"#utility.yul\":3430:3436   */\n      dup3\n        /* \"#utility.yul\":3419:3428   */\n      dup8\n        /* \"#utility.yul\":3415:3437   */\n      add\n        /* \"#utility.yul\":3384:3447   */\n      tag_150\n      jump\t// in\n    tag_239:\n        /* \"#utility.yul\":3374:3447   */\n      swap4\n      pop\n        /* \"#utility.yul\":3170:3457   */\n      pop\n        /* \"#utility.yul\":3524:3526   */\n      0x20\n        /* \"#utility.yul\":3513:3522   */\n      dup5\n        /* \"#utility.yul\":3509:3527   */\n      add\n        /* \"#utility.yul\":3496:3528   */\n      calldataload\n        /* \"#utility.yul\":3555:3573   */\n      0xffffffffffffffff\n        /* \"#utility.yul\":3547:3553   */\n      dup2\n        /* \"#utility.yul\":3544:3574   */\n      gt\n        /* \"#utility.yul\":3541:3658   */\n      iszero\n      tag_240\n      jumpi\n        /* \"#utility.yul\":3577:3656   */\n      tag_241\n      tag_140\n      jump\t// in\n    tag_241:\n        /* \"#utility.yul\":3541:3658   */\n    tag_240:\n        /* \"#utility.yul\":3682:3745   */\n      tag_242\n        /* \"#utility.yul\":3737:3744   */\n      dup7\n        /* \"#utility.yul\":3728:3734   */\n      dup3\n        /* \"#utility.yul\":3717:3726   */\n      dup8\n        /* \"#utility.yul\":3713:3735   */\n      add\n        /* \"#utility.yul\":3682:3745   */\n      tag_150\n      jump\t// in\n    tag_242:\n        /* \"#utility.yul\":3672:3745   */\n      swap3\n      pop\n        /* \"#utility.yul\":3467:3755   */\n      pop\n        /* \"#utility.yul\":3794:3796   */\n      0x40\n        /* \"#utility.yul\":3820:3873   */\n      tag_243\n        /* \"#utility.yul\":3865:3872   */\n      dup7\n        /* \"#utility.yul\":3856:3862   */\n      dup3\n        /* \"#utility.yul\":3845:3854   */\n      dup8\n        /* \"#utility.yul\":3841:3863   */\n      add\n        /* \"#utility.yul\":3820:3873   */\n      tag_153\n      jump\t// in\n    tag_243:\n        /* \"#utility.yul\":3810:3873   */\n      swap2\n      pop\n        /* \"#utility.yul\":3765:3883   */\n      pop\n        /* \"#utility.yul\":2911:3890   */\n      swap3\n      pop\n      swap3\n      pop\n      swap3\n      jump\t// out\n        /* \"#utility.yul\":3896:4014   */\n    tag_154:\n        /* \"#utility.yul\":3983:4007   */\n      tag_245\n        /* \"#utility.yul\":4001:4006   */\n      dup2\n        /* \"#utility.yul\":3983:4007   */\n      tag_151\n      jump\t// in\n    tag_245:\n        /* \"#utility.yul\":3978:3981   */\n      dup3\n        /* \"#utility.yul\":3971:4008   */\n      mstore\n        /* \"#utility.yul\":3896:4014   */\n      pop\n      pop\n      jump\t// out\n        /* \"#utility.yul\":4020:4242   */\n    tag_31:\n        /* \"#utility.yul\":4113:4117   */\n      0x00\n        /* \"#utility.yul\":4151:4153   */\n      0x20\n        /* \"#utility.yul\":4140:4149   */\n      dup3\n        /* \"#utility.yul\":4136:4154   */\n      add\n        /* \"#utility.yul\":4128:4154   */\n      swap1\n      pop\n        /* \"#utility.yul\":4164:4235   */\n      tag_247\n        /* \"#utility.yul\":4232:4233   */\n      0x00\n        /* \"#utility.yul\":4221:4230   */\n      dup4\n        /* \"#utility.yul\":4217:4234   */\n      add\n        /* \"#utility.yul\":4208:4214   */\n      dup5\n        /* \"#utility.yul\":4164:4235   */\n      tag_154\n      jump\t// in\n    tag_247:\n        /* \"#utility.yul\":4020:4242   */\n      swap3\n      swap2\n      pop\n      pop\n      jump\t// out\n        /* \"#utility.yul\":4248:4374   */\n    tag_155:\n        /* \"#utility.yul\":4285:4292   */\n      0x00\n        /* \"#utility.yul\":4325:4367   */\n      0xffffffffffffffffffffffffffffffffffffffff\n        /* \"#utility.yul\":4318:4323   */\n      dup3\n        /* \"#utility.yul\":4314:4368   */\n      and\n        /* \"#utility.yul\":4303:4368   */\n      swap1\n      pop\n        /* \"#utility.yul\":4248:4374   */\n      swap2\n      swap1\n      pop\n      jump\t// out\n        /* \"#utility.yul\":4380:4476   */\n    tag_156:\n        /* \"#utility.yul\":4417:4424   */\n      0x00\n        /* \"#utility.yul\":4446:4470   */\n      tag_250\n        /* \"#utility.yul\":4464:4469   */\n      dup3\n        /* \"#utility.yul\":4446:4470   */\n      tag_155\n      jump\t// in\n    tag_250:\n        /* \"#utility.yul\":4435:4470   */\n      swap1\n      pop\n        /* \"#utility.yul\":4380:4476   */\n      swap2\n      swap1\n      pop\n      jump\t// out\n        /* \"#utility.yul\":4482:4600   */\n    tag_157:\n        /* \"#utility.yul\":4569:4593   */\n      tag_252\n        /* \"#utility.yul\":4587:4592   */\n      dup2\n        /* \"#utility.yul\":4569:4593   */\n      tag_156\n      jump\t// in\n    tag_252:\n        /* \"#utility.yul\":4564:4567   */\n      dup3\n        /* \"#utility.yul\":4557:4594   */\n      mstore\n        /* \"#utility.yul\":4482:4600   */\n      pop\n      pop\n      jump\t// out\n        /* \"#utility.yul\":4606:4828   */\n    tag_36:\n        /* \"#utility.yul\":4699:4703   */\n      0x00\n        /* \"#utility.yul\":4737:4739   */\n      0x20\n        /* \"#utility.yul\":4726:4735   */\n      dup3\n        /* \"#utility.yul\":4722:4740   */\n      add\n        /* \"#utility.yul\":4714:4740   */\n      swap1\n      pop\n        /* \"#utility.yul\":4750:4821   */\n      tag_254\n        /* \"#utility.yul\":4818:4819   */\n      0x00\n        /* \"#utility.yul\":4807:4816   */\n      dup4\n        /* \"#utility.yul\":4803:4820   */\n      add\n        /* \"#utility.yul\":4794:4800   */\n      dup5\n        /* \"#utility.yul\":4750:4821   */\n      tag_157\n      jump\t// in\n    tag_254:\n        /* \"#utility.yul\":4606:4828   */\n      swap3\n      swap2\n      pop\n      pop\n      jump\t// out\n        /* \"#utility.yul\":4834:4924   */\n    tag_158:\n        /* \"#utility.yul\":4868:4875   */\n      0x00\n        /* \"#utility.yul\":4911:4916   */\n      dup2\n        /* \"#utility.yul\":4904:4917   */\n      iszero\n        /* \"#utility.yul\":4897:4918   */\n      iszero\n        /* \"#utility.yul\":4886:4918   */\n      swap1\n      pop\n        /* \"#utility.yul\":4834:4924   */\n      swap2\n      swap1\n      pop\n      jump\t// out\n        /* \"#utility.yul\":4930:5039   */\n    tag_159:\n        /* \"#utility.yul\":5011:5032   */\n      tag_257\n        /* \"#utility.yul\":5026:5031   */\n      dup2\n        /* \"#utility.yul\":5011:5032   */\n      tag_158\n      jump\t// in\n    tag_257:\n        /* \"#utility.yul\":5006:5009   */\n      dup3\n        /* \"#utility.yul\":4999:5033   */\n      mstore\n        /* \"#utility.yul\":4930:5039   */\n      pop\n      pop\n      jump\t// out\n        /* \"#utility.yul\":5045:5255   */\n    tag_41:\n        /* \"#utility.yul\":5132:5136   */\n      0x00\n        /* \"#utility.yul\":5170:5172   */\n      0x20\n        /* \"#utility.yul\":5159:5168   */\n      dup3\n        /* \"#utility.yul\":5155:5173   */\n      add\n        /* \"#utility.yul\":5147:5173   */\n      swap1\n      pop\n        /* \"#utility.yul\":5183:5248   */\n      tag_259\n        /* \"#utility.yul\":5245:5246   */\n      0x00\n        /* \"#utility.yul\":5234:5243   */\n      dup4\n        /* \"#utility.yul\":5230:5247   */\n      add\n        /* \"#utility.yul\":5221:5227   */\n      dup5\n        /* \"#utility.yul\":5183:5248   */\n      tag_159\n      jump\t// in\n    tag_259:\n        /* \"#utility.yul\":5045:5255   */\n      swap3\n      swap2\n      pop\n      pop\n      jump\t// out\n        /* \"#utility.yul\":5261:5590   */\n    tag_49:\n        /* \"#utility.yul\":5320:5326   */\n      0x00\n        /* \"#utility.yul\":5369:5371   */\n      0x20\n        /* \"#utility.yul\":5357:5366   */\n      dup3\n        /* \"#utility.yul\":5348:5355   */\n      dup5\n        /* \"#utility.yul\":5344:5367   */\n      sub\n        /* \"#utility.yul\":5340:5372   */\n      slt\n        /* \"#utility.yul\":5337:5456   */\n      iszero\n      tag_261\n      jumpi\n        /* \"#utility.yul\":5375:5454   */\n      tag_262\n      tag_139\n      jump\t// in\n    tag_262:\n        /* \"#utility.yul\":5337:5456   */\n    tag_261:\n        /* \"#utility.yul\":5495:5496   */\n      0x00\n        /* \"#utility.yul\":5520:5573   */\n      tag_263\n        /* \"#utility.yul\":5565:5572   */\n      dup5\n        /* \"#utility.yul\":5556:5562   */\n      dup3\n        /* \"#utility.yul\":5545:5554   */\n      dup6\n        /* \"#utility.yul\":5541:5563   */\n      add\n        /* \"#utility.yul\":5520:5573   */\n      tag_153\n      jump\t// in\n    tag_263:\n        /* \"#utility.yul\":5510:5573   */\n      swap2\n      pop\n        /* \"#utility.yul\":5466:5583   */\n      pop\n        /* \"#utility.yul\":5261:5590   */\n      swap3\n      swap2\n      pop\n      pop\n      jump\t// out\n        /* \"#utility.yul\":5596:5695   */\n    tag_160:\n        /* \"#utility.yul\":5648:5654   */\n      0x00\n        /* \"#utility.yul\":5682:5687   */\n      dup2\n        /* \"#utility.yul\":5676:5688   */\n      mload\n        /* \"#utility.yul\":5666:5688   */\n      swap1\n      pop\n        /* \"#utility.yul\":5596:5695   */\n      swap2\n      swap1\n      pop\n      jump\t// out\n        /* \"#utility.yul\":5701:5870   */\n    tag_161:\n        /* \"#utility.yul\":5785:5796   */\n      0x00\n        /* \"#utility.yul\":5819:5825   */\n      dup3\n        /* \"#utility.yul\":5814:5817   */\n      dup3\n        /* \"#utility.yul\":5807:5826   */\n      mstore\n        /* \"#utility.yul\":5859:5863   */\n      0x20\n        /* \"#utility.yul\":5854:5857   */\n      dup3\n        /* \"#utility.yul\":5850:5864   */\n      add\n        /* \"#utility.yul\":5835:5864   */\n      swap1\n      pop\n        /* \"#utility.yul\":5701:5870   */\n      swap3\n      swap2\n      pop\n      pop\n      jump\t// out\n        /* \"#utility.yul\":5876:6015   */\n    tag_162:\n        /* \"#utility.yul\":5965:5971   */\n      dup3\n        /* \"#utility.yul\":5960:5963   */\n      dup2\n        /* \"#utility.yul\":5955:5958   */\n      dup4\n        /* \"#utility.yul\":5949:5972   */\n      mcopy\n        /* \"#utility.yul\":6006:6007   */\n      0x00\n        /* \"#utility.yul\":5997:6003   */\n      dup4\n        /* \"#utility.yul\":5992:5995   */\n      dup4\n        /* \"#utility.yul\":5988:6004   */\n      add\n        /* \"#utility.yul\":5981:6008   */\n      mstore\n        /* \"#utility.yul\":5876:6015   */\n      pop\n      pop\n      pop\n      jump\t// out\n        /* \"#utility.yul\":6021:6398   */\n    tag_163:\n        /* \"#utility.yul\":6109:6112   */\n      0x00\n        /* \"#utility.yul\":6137:6176   */\n      tag_268\n        /* \"#utility.yul\":6170:6175   */\n      dup3\n        /* \"#utility.yul\":6137:6176   */\n      tag_160\n      jump\t// in\n    tag_268:\n        /* \"#utility.yul\":6192:6263   */\n      tag_269\n        /* \"#utility.yul\":6256:6262   */\n      dup2\n        /* \"#utility.yul\":6251:6254   */\n      dup6\n        /* \"#utility.yul\":6192:6263   */\n      tag_161\n      jump\t// in\n    tag_269:\n        /* \"#utility.yul\":6185:6263   */\n      swap4\n      pop\n        /* \"#utility.yul\":6272:6337   */\n      tag_270\n        /* \"#utility.yul\":6330:6336   */\n      dup2\n        /* \"#utility.yul\":6325:6328   */\n      dup6\n        /* \"#utility.yul\":6318:6322   */\n      0x20\n        /* \"#utility.yul\":6311:6316   */\n      dup7\n        /* \"#utility.yul\":6307:6323   */\n      add\n        /* \"#utility.yul\":6272:6337   */\n      tag_162\n      jump\t// in\n    tag_270:\n        /* \"#utility.yul\":6362:6391   */\n      tag_271\n        /* \"#utility.yul\":6384:6390   */\n      dup2\n        /* \"#utility.yul\":6362:6391   */\n      tag_143\n      jump\t// in\n    tag_271:\n        /* \"#utility.yul\":6357:6360   */\n      dup5\n        /* \"#utility.yul\":6353:6392   */\n      add\n        /* \"#utility.yul\":6346:6392   */\n      swap2\n      pop\n        /* \"#utility.yul\":6113:6398   */\n      pop\n        /* \"#utility.yul\":6021:6398   */\n      swap3\n      swap2\n      pop\n      pop\n      jump\t// out\n        /* \"#utility.yul\":6404:7139   */\n    tag_52:\n        /* \"#utility.yul\":6621:6625   */\n      0x00\n        /* \"#utility.yul\":6659:6662   */\n      0x80\n        /* \"#utility.yul\":6648:6657   */\n      dup3\n        /* \"#utility.yul\":6644:6663   */\n      add\n        /* \"#utility.yul\":6636:6663   */\n      swap1\n      pop\n        /* \"#utility.yul\":6709:6718   */\n      dup2\n        /* \"#utility.yul\":6703:6707   */\n      dup2\n        /* \"#utility.yul\":6699:6719   */\n      sub\n        /* \"#utility.yul\":6695:6696   */\n      0x00\n        /* \"#utility.yul\":6684:6693   */\n      dup4\n        /* \"#utility.yul\":6680:6697   */\n      add\n        /* \"#utility.yul\":6673:6720   */\n      mstore\n        /* \"#utility.yul\":6737:6815   */\n      tag_273\n        /* \"#utility.yul\":6810:6814   */\n      dup2\n        /* \"#utility.yul\":6801:6807   */\n      dup8\n        /* \"#utility.yul\":6737:6815   */\n      tag_163\n      jump\t// in\n    tag_273:\n        /* \"#utility.yul\":6729:6815   */\n      swap1\n      pop\n        /* \"#utility.yul\":6862:6871   */\n      dup2\n        /* \"#utility.yul\":6856:6860   */\n      dup2\n        /* \"#utility.yul\":6852:6872   */\n      sub\n        /* \"#utility.yul\":6847:6849   */\n      0x20\n        /* \"#utility.yul\":6836:6845   */\n      dup4\n        /* \"#utility.yul\":6832:6850   */\n      add\n        /* \"#utility.yul\":6825:6873   */\n      mstore\n        /* \"#utility.yul\":6890:6968   */\n      tag_274\n        /* \"#utility.yul\":6963:6967   */\n      dup2\n        /* \"#utility.yul\":6954:6960   */\n      dup7\n        /* \"#utility.yul\":6890:6968   */\n      tag_163\n      jump\t// in\n    tag_274:\n        /* \"#utility.yul\":6882:6968   */\n      swap1\n      pop\n        /* \"#utility.yul\":6978:7050   */\n      tag_275\n        /* \"#utility.yul\":7046:7048   */\n      0x40\n        /* \"#utility.yul\":7035:7044   */\n      dup4\n        /* \"#utility.yul\":7031:7049   */\n      add\n        /* \"#utility.yul\":7022:7028   */\n      dup6\n        /* \"#utility.yul\":6978:7050   */\n      tag_154\n      jump\t// in\n    tag_275:\n        /* \"#utility.yul\":7060:7132   */\n      tag_276\n        /* \"#utility.yul\":7128:7130   */\n      0x60\n        /* \"#utility.yul\":7117:7126   */\n      dup4\n        /* \"#utility.yul\":7113:7131   */\n      add\n        /* \"#utility.yul\":7104:7110   */\n      dup5\n        /* \"#utility.yul\":7060:7132   */\n      tag_154\n      jump\t// in\n    tag_276:\n        /* \"#utility.yul\":6404:7139   */\n      swap6\n      swap5\n      pop\n      pop\n      pop\n      pop\n      pop\n      jump\t// out\n        /* \"#utility.yul\":7145:7267   */\n    tag_164:\n        /* \"#utility.yul\":7218:7242   */\n      tag_278\n        /* \"#utility.yul\":7236:7241   */\n      dup2\n        /* \"#utility.yul\":7218:7242   */\n      tag_156\n      jump\t// in\n    tag_278:\n        /* \"#utility.yul\":7211:7216   */\n      dup2\n        /* \"#utility.yul\":7208:7243   */\n      eq\n        /* \"#utility.yul\":7198:7261   */\n      tag_279\n      jumpi\n        /* \"#utility.yul\":7257:7258   */\n      0x00\n        /* \"#utility.yul\":7254:7255   */\n      0x00\n        /* \"#utility.yul\":7247:7259   */\n      revert\n        /* \"#utility.yul\":7198:7261   */\n    tag_279:\n        /* \"#utility.yul\":7145:7267   */\n      pop\n      jump\t// out\n        /* \"#utility.yul\":7273:7412   */\n    tag_165:\n        /* \"#utility.yul\":7319:7324   */\n      0x00\n        /* \"#utility.yul\":7357:7363   */\n      dup2\n        /* \"#utility.yul\":7344:7364   */\n      calldataload\n        /* \"#utility.yul\":7335:7364   */\n      swap1\n      pop\n        /* \"#utility.yul\":7373:7406   */\n      tag_281\n        /* \"#utility.yul\":7400:7405   */\n      dup2\n        /* \"#utility.yul\":7373:7406   */\n      tag_164\n      jump\t// in\n    tag_281:\n        /* \"#utility.yul\":7273:7412   */\n      swap3\n      swap2\n      pop\n      pop\n      jump\t// out\n        /* \"#utility.yul\":7418:7747   */\n    tag_56:\n        /* \"#utility.yul\":7477:7483   */\n      0x00\n        /* \"#utility.yul\":7526:7528   */\n      0x20\n        /* \"#utility.yul\":7514:7523   */\n      dup3\n        /* \"#utility.yul\":7505:7512   */\n      dup5\n        /* \"#utility.yul\":7501:7524   */\n      sub\n        /* \"#utility.yul\":7497:7529   */\n      slt\n        /* \"#utility.yul\":7494:7613   */\n      iszero\n      tag_283\n      jumpi\n        /* \"#utility.yul\":7532:7611   */\n      tag_284\n      tag_139\n      jump\t// in\n    tag_284:\n        /* \"#utility.yul\":7494:7613   */\n    tag_283:\n        /* \"#utility.yul\":7652:7653   */\n      0x00\n        /* \"#utility.yul\":7677:7730   */\n      tag_285\n        /* \"#utility.yul\":7722:7729   */\n      dup5\n        /* \"#utility.yul\":7713:7719   */\n      dup3\n        /* \"#utility.yul\":7702:7711   */\n      dup6\n        /* \"#utility.yul\":7698:7720   */\n      add\n        /* \"#utility.yul\":7677:7730   */\n      tag_165\n      jump\t// in\n    tag_285:\n        /* \"#utility.yul\":7667:7730   */\n      swap2\n      pop\n        /* \"#utility.yul\":7623:7740   */\n      pop\n        /* \"#utility.yul\":7418:7747   */\n      swap3\n      swap2\n      pop\n      pop\n      jump\t// out\n        /* \"#utility.yul\":7753:7975   */\n    tag_166:\n        /* \"#utility.yul\":7893:7927   */\n      0x796f75206861766520746f2070617920657861637420616d6f756e74206f6620\n        /* \"#utility.yul\":7889:7890   */\n      0x00\n        /* \"#utility.yul\":7881:7887   */\n      dup3\n        /* \"#utility.yul\":7877:7891   */\n      add\n        /* \"#utility.yul\":7870:7928   */\n      mstore\n        /* \"#utility.yul\":7962:7967   */\n      0x6574680000000000000000000000000000000000000000000000000000000000\n        /* \"#utility.yul\":7957:7959   */\n      0x20\n        /* \"#utility.yul\":7949:7955   */\n      dup3\n        /* \"#utility.yul\":7945:7960   */\n      add\n        /* \"#utility.yul\":7938:7968   */\n      mstore\n        /* \"#utility.yul\":7753:7975   */\n      pop\n      jump\t// out\n        /* \"#utility.yul\":7981:8347   */\n    tag_167:\n        /* \"#utility.yul\":8123:8126   */\n      0x00\n        /* \"#utility.yul\":8144:8211   */\n      tag_288\n        /* \"#utility.yul\":8208:8210   */\n      0x23\n        /* \"#utility.yul\":8203:8206   */\n      dup4\n        /* \"#utility.yul\":8144:8211   */\n      tag_161\n      jump\t// in\n    tag_288:\n        /* \"#utility.yul\":8137:8211   */\n      swap2\n      pop\n        /* \"#utility.yul\":8220:8313   */\n      tag_289\n        /* \"#utility.yul\":8309:8312   */\n      dup3\n        /* \"#utility.yul\":8220:8313   */\n      tag_166\n      jump\t// in\n    tag_289:\n        /* \"#utility.yul\":8338:8340   */\n      0x40\n        /* \"#utility.yul\":8333:8336   */\n      dup3\n        /* \"#utility.yul\":8329:8341   */\n      add\n        /* \"#utility.yul\":8322:8341   */\n      swap1\n      pop\n        /* \"#utility.yul\":7981:8347   */\n      swap2\n      swap1\n      pop\n      jump\t// out\n        /* \"#utility.yul\":8353:8772   */\n    tag_66:\n        /* \"#utility.yul\":8519:8523   */\n      0x00\n        /* \"#utility.yul\":8557:8559   */\n      0x20\n        /* \"#utility.yul\":8546:8555   */\n      dup3\n        /* \"#utility.yul\":8542:8560   */\n      add\n        /* \"#utility.yul\":8534:8560   */\n      swap1\n      pop\n        /* \"#utility.yul\":8606:8615   */\n      dup2\n        /* \"#utility.yul\":8600:8604   */\n      dup2\n        /* \"#utility.yul\":8596:8616   */\n      sub\n        /* \"#utility.yul\":8592:8593   */\n      0x00\n        /* \"#utility.yul\":8581:8590   */\n      dup4\n        /* \"#utility.yul\":8577:8594   */\n      add\n        /* \"#utility.yul\":8570:8617   */\n      mstore\n        /* \"#utility.yul\":8634:8765   */\n      tag_291\n        /* \"#utility.yul\":8760:8764   */\n      dup2\n        /* \"#utility.yul\":8634:8765   */\n      tag_167\n      jump\t// in\n    tag_291:\n        /* \"#utility.yul\":8626:8765   */\n      swap1\n      pop\n        /* \"#utility.yul\":8353:8772   */\n      swap2\n      swap1\n      pop\n      jump\t// out\n        /* \"#utility.yul\":8778:8941   */\n    tag_168:\n        /* \"#utility.yul\":8918:8933   */\n      0x73657473206172652066756c6c00000000000000000000000000000000000000\n        /* \"#utility.yul\":8914:8915   */\n      0x00\n        /* \"#utility.yul\":8906:8912   */\n      dup3\n        /* \"#utility.yul\":8902:8916   */\n      add\n        /* \"#utility.yul\":8895:8934   */\n      mstore\n        /* \"#utility.yul\":8778:8941   */\n      pop\n      jump\t// out\n        /* \"#utility.yul\":8947:9313   */\n    tag_169:\n        /* \"#utility.yul\":9089:9092   */\n      0x00\n        /* \"#utility.yul\":9110:9177   */\n      tag_294\n        /* \"#utility.yul\":9174:9176   */\n      0x0d\n        /* \"#utility.yul\":9169:9172   */\n      dup4\n        /* \"#utility.yul\":9110:9177   */\n      tag_161\n      jump\t// in\n    tag_294:\n        /* \"#utility.yul\":9103:9177   */\n      swap2\n      pop\n        /* \"#utility.yul\":9186:9279   */\n      tag_295\n        /* \"#utility.yul\":9275:9278   */\n      dup3\n        /* \"#utility.yul\":9186:9279   */\n      tag_168\n      jump\t// in\n    tag_295:\n        /* \"#utility.yul\":9304:9306   */\n      0x20\n        /* \"#utility.yul\":9299:9302   */\n      dup3\n        /* \"#utility.yul\":9295:9307   */\n      add\n        /* \"#utility.yul\":9288:9307   */\n      swap1\n      pop\n        /* \"#utility.yul\":8947:9313   */\n      swap2\n      swap1\n      pop\n      jump\t// out\n        /* \"#utility.yul\":9319:9738   */\n    tag_69:\n        /* \"#utility.yul\":9485:9489   */\n      0x00\n        /* \"#utility.yul\":9523:9525   */\n      0x20\n        /* \"#utility.yul\":9512:9521   */\n      dup3\n        /* \"#utility.yul\":9508:9526   */\n      add\n        /* \"#utility.yul\":9500:9526   */\n      swap1\n      pop\n        /* \"#utility.yul\":9572:9581   */\n      dup2\n        /* \"#utility.yul\":9566:9570   */\n      dup2\n        /* \"#utility.yul\":9562:9582   */\n      sub\n        /* \"#utility.yul\":9558:9559   */\n      0x00\n        /* \"#utility.yul\":9547:9556   */\n      dup4\n        /* \"#utility.yul\":9543:9560   */\n      add\n        /* \"#utility.yul\":9536:9583   */\n      mstore\n        /* \"#utility.yul\":9600:9731   */\n      tag_297\n        /* \"#utility.yul\":9726:9730   */\n      dup2\n        /* \"#utility.yul\":9600:9731   */\n      tag_169\n      jump\t// in\n    tag_297:\n        /* \"#utility.yul\":9592:9731   */\n      swap1\n      pop\n        /* \"#utility.yul\":9319:9738   */\n      swap2\n      swap1\n      pop\n      jump\t// out\n        /* \"#utility.yul\":9744:9918   */\n    tag_170:\n        /* \"#utility.yul\":9884:9910   */\n      0x796f7520616c7265616479206f776e2061207469636b65740000000000000000\n        /* \"#utility.yul\":9880:9881   */\n      0x00\n        /* \"#utility.yul\":9872:9878   */\n      dup3\n        /* \"#utility.yul\":9868:9882   */\n      add\n        /* \"#utility.yul\":9861:9911   */\n      mstore\n        /* \"#utility.yul\":9744:9918   */\n      pop\n      jump\t// out\n        /* \"#utility.yul\":9924:10290   */\n    tag_171:\n        /* \"#utility.yul\":10066:10069   */\n      0x00\n        /* \"#utility.yul\":10087:10154   */\n      tag_300\n        /* \"#utility.yul\":10151:10153   */\n      0x18\n        /* \"#utility.yul\":10146:10149   */\n      dup4\n        /* \"#utility.yul\":10087:10154   */\n      tag_161\n      jump\t// in\n    tag_300:\n        /* \"#utility.yul\":10080:10154   */\n      swap2\n      pop\n        /* \"#utility.yul\":10163:10256   */\n      tag_301\n        /* \"#utility.yul\":10252:10255   */\n      dup3\n        /* \"#utility.yul\":10163:10256   */\n      tag_170\n      jump\t// in\n    tag_301:\n        /* \"#utility.yul\":10281:10283   */\n      0x20\n        /* \"#utility.yul\":10276:10279   */\n      dup3\n        /* \"#utility.yul\":10272:10284   */\n      add\n        /* \"#utility.yul\":10265:10284   */\n      swap1\n      pop\n        /* \"#utility.yul\":9924:10290   */\n      swap2\n      swap1\n      pop\n      jump\t// out\n        /* \"#utility.yul\":10296:10715   */\n    tag_72:\n        /* \"#utility.yul\":10462:10466   */\n      0x00\n        /* \"#utility.yul\":10500:10502   */\n      0x20\n        /* \"#utility.yul\":10489:10498   */\n      dup3\n        /* \"#utility.yul\":10485:10503   */\n      add\n        /* \"#utility.yul\":10477:10503   */\n      swap1\n      pop\n        /* \"#utility.yul\":10549:10558   */\n      dup2\n        /* \"#utility.yul\":10543:10547   */\n      dup2\n        /* \"#utility.yul\":10539:10559   */\n      sub\n        /* \"#utility.yul\":10535:10536   */\n      0x00\n        /* \"#utility.yul\":10524:10533   */\n      dup4\n        /* \"#utility.yul\":10520:10537   */\n      add\n        /* \"#utility.yul\":10513:10560   */\n      mstore\n        /* \"#utility.yul\":10577:10708   */\n      tag_303\n        /* \"#utility.yul\":10703:10707   */\n      dup2\n        /* \"#utility.yul\":10577:10708   */\n      tag_171\n      jump\t// in\n    tag_303:\n        /* \"#utility.yul\":10569:10708   */\n      swap1\n      pop\n        /* \"#utility.yul\":10296:10715   */\n      swap2\n      swap1\n      pop\n      jump\t// out\n        /* \"#utility.yul\":10721:10901   */\n    tag_172:\n        /* \"#utility.yul\":10769:10846   */\n      0x4e487b7100000000000000000000000000000000000000000000000000000000\n        /* \"#utility.yul\":10766:10767   */\n      0x00\n        /* \"#utility.yul\":10759:10847   */\n      mstore\n        /* \"#utility.yul\":10866:10870   */\n      0x11\n        /* \"#utility.yul\":10863:10864   */\n      0x04\n        /* \"#utility.yul\":10856:10871   */\n      mstore\n        /* \"#utility.yul\":10890:10894   */\n      0x24\n        /* \"#utility.yul\":10887:10888   */\n      0x00\n        /* \"#utility.yul\":10880:10895   */\n      revert\n        /* \"#utility.yul\":10907:11101   */\n    tag_74:\n        /* \"#utility.yul\":10947:10951   */\n      0x00\n        /* \"#utility.yul\":10967:10987   */\n      tag_306\n        /* \"#utility.yul\":10985:10986   */\n      dup3\n        /* \"#utility.yul\":10967:10987   */\n      tag_151\n      jump\t// in\n    tag_306:\n        /* \"#utility.yul\":10962:10987   */\n      swap2\n      pop\n        /* \"#utility.yul\":11001:11021   */\n      tag_307\n        /* \"#utility.yul\":11019:11020   */\n      dup4\n        /* \"#utility.yul\":11001:11021   */\n      tag_151\n      jump\t// in\n    tag_307:\n        /* \"#utility.yul\":10996:11021   */\n      swap3\n      pop\n        /* \"#utility.yul\":11045:11046   */\n      dup3\n        /* \"#utility.yul\":11042:11043   */\n      dup3\n        /* \"#utility.yul\":11038:11047   */\n      sub\n        /* \"#utility.yul\":11030:11047   */\n      swap1\n      pop\n        /* \"#utility.yul\":11069:11070   */\n      dup2\n        /* \"#utility.yul\":11063:11067   */\n      dup2\n        /* \"#utility.yul\":11060:11071   */\n      gt\n        /* \"#utility.yul\":11057:11094   */\n      iszero\n      tag_308\n      jumpi\n        /* \"#utility.yul\":11074:11092   */\n      tag_309\n      tag_172\n      jump\t// in\n    tag_309:\n        /* \"#utility.yul\":11057:11094   */\n    tag_308:\n        /* \"#utility.yul\":10907:11101   */\n      swap3\n      swap2\n      pop\n      pop\n      jump\t// out\n        /* \"#utility.yul\":11107:11287   */\n    tag_173:\n        /* \"#utility.yul\":11155:11232   */\n      0x4e487b7100000000000000000000000000000000000000000000000000000000\n        /* \"#utility.yul\":11152:11153   */\n      0x00\n        /* \"#utility.yul\":11145:11233   */\n      mstore\n        /* \"#utility.yul\":11252:11256   */\n      0x22\n        /* \"#utility.yul\":11249:11250   */\n      0x04\n        /* \"#utility.yul\":11242:11257   */\n      mstore\n        /* \"#utility.yul\":11276:11280   */\n      0x24\n        /* \"#utility.yul\":11273:11274   */\n      0x00\n        /* \"#utility.yul\":11266:11281   */\n      revert\n        /* \"#utility.yul\":11293:11613   */\n    tag_120:\n        /* \"#utility.yul\":11337:11343   */\n      0x00\n        /* \"#utility.yul\":11374:11375   */\n      0x02\n        /* \"#utility.yul\":11368:11372   */\n      dup3\n        /* \"#utility.yul\":11364:11376   */\n      div\n        /* \"#utility.yul\":11354:11376   */\n      swap1\n      pop\n        /* \"#utility.yul\":11421:11422   */\n      0x01\n        /* \"#utility.yul\":11415:11419   */\n      dup3\n        /* \"#utility.yul\":11411:11423   */\n      and\n        /* \"#utility.yul\":11442:11460   */\n      dup1\n        /* \"#utility.yul\":11432:11513   */\n      tag_312\n      jumpi\n        /* \"#utility.yul\":11498:11502   */\n      0x7f\n        /* \"#utility.yul\":11490:11496   */\n      dup3\n        /* \"#utility.yul\":11486:11503   */\n      and\n        /* \"#utility.yul\":11476:11503   */\n      swap2\n      pop\n        /* \"#utility.yul\":11432:11513   */\n    tag_312:\n        /* \"#utility.yul\":11560:11562   */\n      0x20\n        /* \"#utility.yul\":11552:11558   */\n      dup3\n        /* \"#utility.yul\":11549:11563   */\n      lt\n        /* \"#utility.yul\":11529:11547   */\n      dup2\n        /* \"#utility.yul\":11526:11564   */\n      sub\n        /* \"#utility.yul\":11523:11607   */\n      tag_313\n      jumpi\n        /* \"#utility.yul\":11579:11597   */\n      tag_314\n      tag_173\n      jump\t// in\n    tag_314:\n        /* \"#utility.yul\":11523:11607   */\n    tag_313:\n        /* \"#utility.yul\":11344:11613   */\n      pop\n        /* \"#utility.yul\":11293:11613   */\n      swap2\n      swap1\n      pop\n      jump\t// out\n        /* \"#utility.yul\":11619:11760   */\n    tag_174:\n        /* \"#utility.yul\":11668:11672   */\n      0x00\n        /* \"#utility.yul\":11691:11694   */\n      dup2\n        /* \"#utility.yul\":11683:11694   */\n      swap1\n      pop\n        /* \"#utility.yul\":11714:11717   */\n      dup2\n        /* \"#utility.yul\":11711:11712   */\n      0x00\n        /* \"#utility.yul\":11704:11718   */\n      mstore\n        /* \"#utility.yul\":11748:11752   */\n      0x20\n        /* \"#utility.yul\":11745:11746   */\n      0x00\n        /* \"#utility.yul\":11735:11753   */\n      keccak256\n        /* \"#utility.yul\":11727:11753   */\n      swap1\n      pop\n        /* \"#utility.yul\":11619:11760   */\n      swap2\n      swap1\n      pop\n      jump\t// out\n        /* \"#utility.yul\":11766:11859   */\n    tag_175:\n        /* \"#utility.yul\":11803:11809   */\n      0x00\n        /* \"#utility.yul\":11850:11852   */\n      0x20\n        /* \"#utility.yul\":11845:11847   */\n      0x1f\n        /* \"#utility.yul\":11838:11843   */\n      dup4\n        /* \"#utility.yul\":11834:11848   */\n      add\n        /* \"#utility.yul\":11830:11853   */\n      div\n        /* \"#utility.yul\":11820:11853   */\n      swap1\n      pop\n        /* \"#utility.yul\":11766:11859   */\n      swap2\n      swap1\n      pop\n      jump\t// out\n        /* \"#utility.yul\":11865:11972   */\n    tag_176:\n        /* \"#utility.yul\":11909:11917   */\n      0x00\n        /* \"#utility.yul\":11959:11964   */\n      dup3\n        /* \"#utility.yul\":11953:11957   */\n      dup3\n        /* \"#utility.yul\":11949:11965   */\n      shl\n        /* \"#utility.yul\":11928:11965   */\n      swap1\n      pop\n        /* \"#utility.yul\":11865:11972   */\n      swap3\n      swap2\n      pop\n      pop\n      jump\t// out\n        /* \"#utility.yul\":11978:12371   */\n    tag_177:\n        /* \"#utility.yul\":12047:12053   */\n      0x00\n        /* \"#utility.yul\":12097:12098   */\n      0x08\n        /* \"#utility.yul\":12085:12095   */\n      dup4\n        /* \"#utility.yul\":12081:12099   */\n      mul\n        /* \"#utility.yul\":12120:12217   */\n      tag_319\n        /* \"#utility.yul\":12150:12216   */\n      0xffffffffffffffffffffffffffffffffffffffffffffffffffffffffffffffff\n        /* \"#utility.yul\":12139:12148   */\n      dup3\n        /* \"#utility.yul\":12120:12217   */\n      tag_176\n      jump\t// in\n    tag_319:\n        /* \"#utility.yul\":12238:12277   */\n      tag_320\n        /* \"#utility.yul\":12268:12276   */\n      dup7\n        /* \"#utility.yul\":12257:12266   */\n      dup4\n        /* \"#utility.yul\":12238:12277   */\n      tag_176\n      jump\t// in\n    tag_320:\n        /* \"#utility.yul\":12226:12277   */\n      swap6\n      pop\n        /* \"#utility.yul\":12310:12314   */\n      dup1\n        /* \"#utility.yul\":12306:12315   */\n      not\n        /* \"#utility.yul\":12299:12304   */\n      dup5\n        /* \"#utility.yul\":12295:12316   */\n      and\n        /* \"#utility.yul\":12286:12316   */\n      swap4\n      pop\n        /* \"#utility.yul\":12359:12363   */\n      dup1\n        /* \"#utility.yul\":12349:12357   */\n      dup7\n        /* \"#utility.yul\":12345:12364   */\n      and\n        /* \"#utility.yul\":12338:12343   */\n      dup5\n        /* \"#utility.yul\":12335:12365   */\n      or\n        /* \"#utility.yul\":12325:12365   */\n      swap3\n      pop\n        /* \"#utility.yul\":12054:12371   */\n      pop\n      pop\n        /* \"#utility.yul\":11978:12371   */\n      swap4\n      swap3\n      pop\n      pop\n      pop\n      jump\t// out\n        /* \"#utility.yul\":12377:12437   */\n    tag_178:\n        /* \"#utility.yul\":12405:12408   */\n      0x00\n        /* \"#utility.yul\":12426:12431   */\n      dup2\n        /* \"#utility.yul\":12419:12431   */\n      swap1\n      pop\n        /* \"#utility.yul\":12377:12437   */\n      swap2\n      swap1\n      pop\n      jump\t// out\n        /* \"#utility.yul\":12443:12585   */\n    tag_179:\n        /* \"#utility.yul\":12493:12502   */\n      0x00\n        /* \"#utility.yul\":12526:12579   */\n      tag_323\n        /* \"#utility.yul\":12544:12578   */\n      tag_324\n        /* \"#utility.yul\":12553:12577   */\n      tag_325\n        /* \"#utility.yul\":12571:12576   */\n      dup5\n        /* \"#utility.yul\":12553:12577   */\n      tag_151\n      jump\t// in\n    tag_325:\n        /* \"#utility.yul\":12544:12578   */\n      tag_178\n      jump\t// in\n    tag_324:\n        /* \"#utility.yul\":12526:12579   */\n      tag_151\n      jump\t// in\n    tag_323:\n        /* \"#utility.yul\":12513:12579   */\n      swap1\n      pop\n        /* \"#utility.yul\":12443:12585   */\n      swap2\n      swap1\n      pop\n      jump\t// out\n        /* \"#utility.yul\":12591:12666   */\n    tag_180:\n        /* \"#utility.yul\":12634:12637   */\n      0x00\n        /* \"#utility.yul\":12655:12660   */\n      dup2\n        /* \"#utility.yul\":12648:12660   */\n      swap1\n      pop\n        /* \"#utility.yul\":12591:12666   */\n      swap2\n      swap1\n      pop\n      jump\t// out\n        /* \"#utility.yul\":12672:12941   */\n    tag_181:\n        /* \"#utility.yul\":12782:12821   */\n      tag_328\n        /* \"#utility.yul\":12813:12820   */\n      dup4\n        /* \"#utility.yul\":12782:12821   */\n      tag_179\n      jump\t// in\n    tag_328:\n        /* \"#utility.yul\":12843:12934   */\n      tag_329\n        /* \"#utility.yul\":12892:12933   */\n      tag_330\n        /* \"#utility.yul\":12916:12932   */\n      dup3\n        /* \"#utility.yul\":12892:12933   */\n      tag_180\n      jump\t// in\n    tag_330:\n        /* \"#utility.yul\":12884:12890   */\n      dup5\n        /* \"#utility.yul\":12877:12881   */\n      dup5\n        /* \"#utility.yul\":12871:12882   */\n      sload\n        /* \"#utility.yul\":12843:12934   */\n      tag_177\n      jump\t// in\n    tag_329:\n        /* \"#utility.yul\":12837:12841   */\n      dup3\n        /* \"#utility.yul\":12830:12935   */\n      sstore\n        /* \"#utility.yul\":12748:12941   */\n      pop\n        /* \"#utility.yul\":12672:12941   */\n      pop\n      pop\n      pop\n      jump\t// out\n        /* \"#utility.yul\":12947:13020   */\n    tag_182:\n        /* \"#utility.yul\":12992:12995   */\n      0x00\n        /* \"#utility.yul\":13013:13014   */\n      0x00\n        /* \"#utility.yul\":13006:13014   */\n      swap1\n      pop\n        /* \"#utility.yul\":12947:13020   */\n      swap1\n      jump\t// out\n        /* \"#utility.yul\":13026:13215   */\n    tag_183:\n        /* \"#utility.yul\":13103:13135   */\n      tag_333\n      tag_182\n      jump\t// in\n    tag_333:\n        /* \"#utility.yul\":13144:13209   */\n      tag_334\n        /* \"#utility.yul\":13202:13208   */\n      dup2\n        /* \"#utility.yul\":13194:13200   */\n      dup5\n        /* \"#utility.yul\":13188:13192   */\n      dup5\n        /* \"#utility.yul\":13144:13209   */\n      tag_181\n      jump\t// in\n    tag_334:\n        /* \"#utility.yul\":13079:13215   */\n      pop\n        /* \"#utility.yul\":13026:13215   */\n      pop\n      pop\n      jump\t// out\n        /* \"#utility.yul\":13221:13407   */\n    tag_184:\n        /* \"#utility.yul\":13281:13401   */\n    tag_336:\n        /* \"#utility.yul\":13298:13301   */\n      dup2\n        /* \"#utility.yul\":13291:13296   */\n      dup2\n        /* \"#utility.yul\":13288:13302   */\n      lt\n        /* \"#utility.yul\":13281:13401   */\n      iszero\n      tag_338\n      jumpi\n        /* \"#utility.yul\":13352:13391   */\n      tag_339\n        /* \"#utility.yul\":13389:13390   */\n      0x00\n        /* \"#utility.yul\":13382:13387   */\n      dup3\n        /* \"#utility.yul\":13352:13391   */\n      tag_183\n      jump\t// in\n    tag_339:\n        /* \"#utility.yul\":13325:13326   */\n      0x01\n        /* \"#utility.yul\":13318:13323   */\n      dup2\n        /* \"#utility.yul\":13314:13327   */\n      add\n        /* \"#utility.yul\":13305:13327   */\n      swap1\n      pop\n        /* \"#utility.yul\":13281:13401   */\n      jump(tag_336)\n    tag_338:\n        /* \"#utility.yul\":13221:13407   */\n      pop\n      pop\n      jump\t// out\n        /* \"#utility.yul\":13413:13956   */\n    tag_185:\n        /* \"#utility.yul\":13514:13516   */\n      0x1f\n        /* \"#utility.yul\":13509:13512   */\n      dup3\n        /* \"#utility.yul\":13506:13517   */\n      gt\n        /* \"#utility.yul\":13503:13949   */\n      iszero\n      tag_341\n      jumpi\n        /* \"#utility.yul\":13548:13586   */\n      tag_342\n        /* \"#utility.yul\":13580:13585   */\n      dup2\n        /* \"#utility.yul\":13548:13586   */\n      tag_174\n      jump\t// in\n    tag_342:\n        /* \"#utility.yul\":13632:13661   */\n      tag_343\n        /* \"#utility.yul\":13650:13660   */\n      dup5\n        /* \"#utility.yul\":13632:13661   */\n      tag_175\n      jump\t// in\n    tag_343:\n        /* \"#utility.yul\":13622:13630   */\n      dup2\n        /* \"#utility.yul\":13618:13662   */\n      add\n        /* \"#utility.yul\":13815:13817   */\n      0x20\n        /* \"#utility.yul\":13803:13813   */\n      dup6\n        /* \"#utility.yul\":13800:13818   */\n      lt\n        /* \"#utility.yul\":13797:13846   */\n      iszero\n      tag_344\n      jumpi\n        /* \"#utility.yul\":13836:13844   */\n      dup2\n        /* \"#utility.yul\":13821:13844   */\n      swap1\n      pop\n        /* \"#utility.yul\":13797:13846   */\n    tag_344:\n        /* \"#utility.yul\":13859:13939   */\n      tag_345\n        /* \"#utility.yul\":13915:13937   */\n      tag_346\n        /* \"#utility.yul\":13933:13936   */\n      dup6\n        /* \"#utility.yul\":13915:13937   */\n      tag_175\n      jump\t// in\n    tag_346:\n        /* \"#utility.yul\":13905:13913   */\n      dup4\n        /* \"#utility.yul\":13901:13938   */\n      add\n        /* \"#utility.yul\":13888:13899   */\n      dup3\n        /* \"#utility.yul\":13859:13939   */\n      tag_184\n      jump\t// in\n    tag_345:\n        /* \"#utility.yul\":13518:13949   */\n      pop\n      pop\n        /* \"#utility.yul\":13503:13949   */\n    tag_341:\n        /* \"#utility.yul\":13413:13956   */\n      pop\n      pop\n      pop\n      jump\t// out\n        /* \"#utility.yul\":13962:14079   */\n    tag_186:\n        /* \"#utility.yul\":14016:14024   */\n      0x00\n        /* \"#utility.yul\":14066:14071   */\n      dup3\n        /* \"#utility.yul\":14060:14064   */\n      dup3\n        /* \"#utility.yul\":14056:14072   */\n      shr\n        /* \"#utility.yul\":14035:14072   */\n      swap1\n      pop\n        /* \"#utility.yul\":13962:14079   */\n      swap3\n      swap2\n      pop\n      pop\n      jump\t// out\n        /* \"#utility.yul\":14085:14254   */\n    tag_187:\n        /* \"#utility.yul\":14129:14135   */\n      0x00\n        /* \"#utility.yul\":14162:14213   */\n      tag_349\n        /* \"#utility.yul\":14210:14211   */\n      0x00\n        /* \"#utility.yul\":14206:14212   */\n      not\n        /* \"#utility.yul\":14198:14203   */\n      dup5\n        /* \"#utility.yul\":14195:14196   */\n      0x08\n        /* \"#utility.yul\":14191:14204   */\n      mul\n        /* \"#utility.yul\":14162:14213   */\n      tag_186\n      jump\t// in\n    tag_349:\n        /* \"#utility.yul\":14158:14214   */\n      not\n        /* \"#utility.yul\":14243:14247   */\n      dup1\n        /* \"#utility.yul\":14237:14241   */\n      dup4\n        /* \"#utility.yul\":14233:14248   */\n      and\n        /* \"#utility.yul\":14223:14248   */\n      swap2\n      pop\n        /* \"#utility.yul\":14136:14254   */\n      pop\n        /* \"#utility.yul\":14085:14254   */\n      swap3\n      swap2\n      pop\n      pop\n      jump\t// out\n        /* \"#utility.yul\":14259:14554   */\n    tag_188:\n        /* \"#utility.yul\":14335:14339   */\n      0x00\n        /* \"#utility.yul\":14481:14510   */\n      tag_351\n        /* \"#utility.yul\":14506:14509   */\n      dup4\n        /* \"#utility.yul\":14500:14504   */\n      dup4\n        /* \"#utility.yul\":14481:14510   */\n      tag_187\n      jump\t// in\n    tag_351:\n        /* \"#utility.yul\":14473:14510   */\n      swap2\n      pop\n        /* \"#utility.yul\":14543:14546   */\n      dup3\n        /* \"#utility.yul\":14540:14541   */\n      0x02\n        /* \"#utility.yul\":14536:14547   */\n      mul\n        /* \"#utility.yul\":14530:14534   */\n      dup3\n        /* \"#utility.yul\":14527:14548   */\n      or\n        /* \"#utility.yul\":14519:14548   */\n      swap1\n      pop\n        /* \"#utility.yul\":14259:14554   */\n      swap3\n      swap2\n      pop\n      pop\n      jump\t// out\n        /* \"#utility.yul\":14559:15954   */\n    tag_78:\n        /* \"#utility.yul\":14676:14713   */\n      tag_353\n        /* \"#utility.yul\":14709:14712   */\n      dup3\n        /* \"#utility.yul\":14676:14713   */\n      tag_160\n      jump\t// in\n    tag_353:\n        /* \"#utility.yul\":14778:14796   */\n      0xffffffffffffffff\n        /* \"#utility.yul\":14770:14776   */\n      dup2\n        /* \"#utility.yul\":14767:14797   */\n      gt\n        /* \"#utility.yul\":14764:14820   */\n      iszero\n      tag_354\n      jumpi\n        /* \"#utility.yul\":14800:14818   */\n      tag_355\n      tag_144\n      jump\t// in\n    tag_355:\n        /* \"#utility.yul\":14764:14820   */\n    tag_354:\n        /* \"#utility.yul\":14844:14882   */\n      tag_356\n        /* \"#utility.yul\":14876:14880   */\n      dup3\n        /* \"#utility.yul\":14870:14881   */\n      sload\n        /* \"#utility.yul\":14844:14882   */\n      tag_120\n      jump\t// in\n    tag_356:\n        /* \"#utility.yul\":14929:14996   */\n      tag_357\n        /* \"#utility.yul\":14989:14995   */\n      dup3\n        /* \"#utility.yul\":14981:14987   */\n      dup3\n        /* \"#utility.yul\":14975:14979   */\n      dup6\n        /* \"#utility.yul\":14929:14996   */\n      tag_185\n      jump\t// in\n    tag_357:\n        /* \"#utility.yul\":15023:15024   */\n      0x00\n        /* \"#utility.yul\":15047:15051   */\n      0x20\n        /* \"#utility.yul\":15034:15051   */\n      swap1\n      pop\n        /* \"#utility.yul\":15079:15081   */\n      0x1f\n        /* \"#utility.yul\":15071:15077   */\n      dup4\n        /* \"#utility.yul\":15068:15082   */\n      gt\n        /* \"#utility.yul\":15096:15097   */\n      0x01\n        /* \"#utility.yul\":15091:15709   */\n      dup2\n      eq\n      tag_359\n      jumpi\n        /* \"#utility.yul\":15753:15754   */\n      0x00\n        /* \"#utility.yul\":15770:15776   */\n      dup5\n        /* \"#utility.yul\":15767:15844   */\n      iszero\n      tag_360\n      jumpi\n        /* \"#utility.yul\":15819:15828   */\n      dup3\n        /* \"#utility.yul\":15814:15817   */\n      dup8\n        /* \"#utility.yul\":15810:15829   */\n      add\n        /* \"#utility.yul\":15804:15830   */\n      mload\n        /* \"#utility.yul\":15795:15830   */\n      swap1\n      pop\n        /* \"#utility.yul\":15767:15844   */\n    tag_360:\n        /* \"#utility.yul\":15870:15937   */\n      tag_361\n        /* \"#utility.yul\":15930:15936   */\n      dup6\n        /* \"#utility.yul\":15923:15928   */\n      dup3\n        /* \"#utility.yul\":15870:15937   */\n      tag_188\n      jump\t// in\n    tag_361:\n        /* \"#utility.yul\":15864:15868   */\n      dup7\n        /* \"#utility.yul\":15857:15938   */\n      sstore\n        /* \"#utility.yul\":15726:15948   */\n      pop\n        /* \"#utility.yul\":15061:15948   */\n      jump(tag_358)\n        /* \"#utility.yul\":15091:15709   */\n    tag_359:\n        /* \"#utility.yul\":15143:15147   */\n      0x1f\n        /* \"#utility.yul\":15139:15148   */\n      not\n        /* \"#utility.yul\":15131:15137   */\n      dup5\n        /* \"#utility.yul\":15127:15149   */\n      and\n        /* \"#utility.yul\":15177:15214   */\n      tag_362\n        /* \"#utility.yul\":15209:15213   */\n      dup7\n        /* \"#utility.yul\":15177:15214   */\n      tag_174\n      jump\t// in\n    tag_362:\n        /* \"#utility.yul\":15236:15237   */\n      0x00\n        /* \"#utility.yul\":15250:15458   */\n    tag_363:\n        /* \"#utility.yul\":15264:15271   */\n      dup3\n        /* \"#utility.yul\":15261:15262   */\n      dup2\n        /* \"#utility.yul\":15258:15272   */\n      lt\n        /* \"#utility.yul\":15250:15458   */\n      iszero\n      tag_365\n      jumpi\n        /* \"#utility.yul\":15343:15352   */\n      dup5\n        /* \"#utility.yul\":15338:15341   */\n      dup10\n        /* \"#utility.yul\":15334:15353   */\n      add\n        /* \"#utility.yul\":15328:15354   */\n      mload\n        /* \"#utility.yul\":15320:15326   */\n      dup3\n        /* \"#utility.yul\":15313:15355   */\n      sstore\n        /* \"#utility.yul\":15394:15395   */\n      0x01\n        /* \"#utility.yul\":15386:15392   */\n      dup3\n        /* \"#utility.yul\":15382:15396   */\n      add\n        /* \"#utility.yul\":15372:15396   */\n      swap2\n      pop\n        /* \"#utility.yul\":15441:15443   */\n      0x20\n        /* \"#utility.yul\":15430:15439   */\n      dup6\n        /* \"#utility.yul\":15426:15444   */\n      add\n        /* \"#utility.yul\":15413:15444   */\n      swap5\n      pop\n        /* \"#utility.yul\":15287:15291   */\n      0x20\n        /* \"#utility.yul\":15284:15285   */\n      dup2\n        /* \"#utility.yul\":15280:15292   */\n      add\n        /* \"#utility.yul\":15275:15292   */\n      swap1\n      pop\n        /* \"#utility.yul\":15250:15458   */\n      jump(tag_363)\n    tag_365:\n        /* \"#utility.yul\":15486:15492   */\n      dup7\n        /* \"#utility.yul\":15477:15484   */\n      dup4\n        /* \"#utility.yul\":15474:15493   */\n      lt\n        /* \"#utility.yul\":15471:15650   */\n      iszero\n      tag_366\n      jumpi\n        /* \"#utility.yul\":15544:15553   */\n      dup5\n        /* \"#utility.yul\":15539:15542   */\n      dup10\n        /* \"#utility.yul\":15535:15554   */\n      add\n        /* \"#utility.yul\":15529:15555   */\n      mload\n        /* \"#utility.yul\":15587:15635   */\n      tag_367\n        /* \"#utility.yul\":15629:15633   */\n      0x1f\n        /* \"#utility.yul\":15621:15627   */\n      dup10\n        /* \"#utility.yul\":15617:15634   */\n      and\n        /* \"#utility.yul\":15606:15615   */\n      dup3\n        /* \"#utility.yul\":15587:15635   */\n      tag_187\n      jump\t// in\n    tag_367:\n        /* \"#utility.yul\":15579:15585   */\n      dup4\n        /* \"#utility.yul\":15572:15636   */\n      sstore\n        /* \"#utility.yul\":15494:15650   */\n      pop\n        /* \"#utility.yul\":15471:15650   */\n    tag_366:\n        /* \"#utility.yul\":15696:15697   */\n      0x01\n        /* \"#utility.yul\":15692:15693   */\n      0x02\n        /* \"#utility.yul\":15684:15690   */\n      dup9\n        /* \"#utility.yul\":15680:15694   */\n      mul\n        /* \"#utility.yul\":15676:15698   */\n      add\n        /* \"#utility.yul\":15670:15674   */\n      dup9\n        /* \"#utility.yul\":15663:15699   */\n      sstore\n        /* \"#utility.yul\":15098:15709   */\n      pop\n      pop\n      pop\n        /* \"#utility.yul\":15061:15948   */\n    tag_358:\n      pop\n        /* \"#utility.yul\":14651:15954   */\n      pop\n      pop\n      pop\n        /* \"#utility.yul\":14559:15954   */\n      pop\n      pop\n      jump\t// out\n        /* \"#utility.yul\":15960:16292   */\n    tag_81:\n        /* \"#utility.yul\":16081:16085   */\n      0x00\n        /* \"#utility.yul\":16119:16121   */\n      0x40\n        /* \"#utility.yul\":16108:16117   */\n      dup3\n        /* \"#utility.yul\":16104:16122   */\n      add\n        /* \"#utility.yul\":16096:16122   */\n      swap1\n      pop\n        /* \"#utility.yul\":16132:16203   */\n      tag_369\n        /* \"#utility.yul\":16200:16201   */\n      0x00\n        /* \"#utility.yul\":16189:16198   */\n      dup4\n        /* \"#utility.yul\":16185:16202   */\n      add\n        /* \"#utility.yul\":16176:16182   */\n      dup6\n        /* \"#utility.yul\":16132:16203   */\n      tag_154\n      jump\t// in\n    tag_369:\n        /* \"#utility.yul\":16213:16285   */\n      tag_370\n        /* \"#utility.yul\":16281:16283   */\n      0x20\n        /* \"#utility.yul\":16270:16279   */\n      dup4\n        /* \"#utility.yul\":16266:16284   */\n      add\n        /* \"#utility.yul\":16257:16263   */\n      dup5\n        /* \"#utility.yul\":16213:16285   */\n      tag_154\n      jump\t// in\n    tag_370:\n        /* \"#utility.yul\":15960:16292   */\n      swap4\n      swap3\n      pop\n      pop\n      pop\n      jump\t// out\n        /* \"#utility.yul\":16298:16445   */\n    tag_189:\n        /* \"#utility.yul\":16399:16410   */\n      0x00\n        /* \"#utility.yul\":16436:16439   */\n      dup2\n        /* \"#utility.yul\":16421:16439   */\n      swap1\n      pop\n        /* \"#utility.yul\":16298:16445   */\n      swap3\n      swap2\n      pop\n      pop\n      jump\t// out\n        /* \"#utility.yul\":16451:16565   */\n    tag_190:\n      pop\n      jump\t// out\n        /* \"#utility.yul\":16571:16969   */\n    tag_191:\n        /* \"#utility.yul\":16730:16733   */\n      0x00\n        /* \"#utility.yul\":16751:16834   */\n      tag_374\n        /* \"#utility.yul\":16832:16833   */\n      0x00\n        /* \"#utility.yul\":16827:16830   */\n      dup4\n        /* \"#utility.yul\":16751:16834   */\n      tag_189\n      jump\t// in\n    tag_374:\n        /* \"#utility.yul\":16744:16834   */\n      swap2\n      pop\n        /* \"#utility.yul\":16843:16936   */\n      tag_375\n        /* \"#utility.yul\":16932:16935   */\n      dup3\n        /* \"#utility.yul\":16843:16936   */\n      tag_190\n      jump\t// in\n    tag_375:\n        /* \"#utility.yul\":16961:16962   */\n      0x00\n        /* \"#utility.yul\":16956:16959   */\n      dup3\n        /* \"#utility.yul\":16952:16963   */\n      add\n        /* \"#utility.yul\":16945:16963   */\n      swap1\n      pop\n        /* \"#utility.yul\":16571:16969   */\n      swap2\n      swap1\n      pop\n      jump\t// out\n        /* \"#utility.yul\":16975:17354   */\n    tag_88:\n        /* \"#utility.yul\":17159:17162   */\n      0x00\n        /* \"#utility.yul\":17181:17328   */\n      tag_377\n        /* \"#utility.yul\":17324:17327   */\n      dup3\n        /* \"#utility.yul\":17181:17328   */\n      tag_191\n      jump\t// in\n    tag_377:\n        /* \"#utility.yul\":17174:17328   */\n      swap2\n      pop\n        /* \"#utility.yul\":17345:17348   */\n      dup2\n        /* \"#utility.yul\":17338:17348   */\n      swap1\n      pop\n        /* \"#utility.yul\":16975:17354   */\n      swap2\n      swap1\n      pop\n      jump\t// out\n        /* \"#utility.yul\":17360:17534   */\n    tag_192:\n        /* \"#utility.yul\":17500:17526   */\n      0x6572726f723a6661696c20746f2073656e642065746865720000000000000000\n        /* \"#utility.yul\":17496:17497   */\n      0x00\n        /* \"#utility.yul\":17488:17494   */\n      dup3\n        /* \"#utility.yul\":17484:17498   */\n      add\n        /* \"#utility.yul\":17477:17527   */\n      mstore\n        /* \"#utility.yul\":17360:17534   */\n      pop\n      jump\t// out\n        /* \"#utility.yul\":17540:17906   */\n    tag_193:\n        /* \"#utility.yul\":17682:17685   */\n      0x00\n        /* \"#utility.yul\":17703:17770   */\n      tag_380\n        /* \"#utility.yul\":17767:17769   */\n      0x18\n        /* \"#utility.yul\":17762:17765   */\n      dup4\n        /* \"#utility.yul\":17703:17770   */\n      tag_161\n      jump\t// in\n    tag_380:\n        /* \"#utility.yul\":17696:17770   */\n      swap2\n      pop\n        /* \"#utility.yul\":17779:17872   */\n      tag_381\n        /* \"#utility.yul\":17868:17871   */\n      dup3\n        /* \"#utility.yul\":17779:17872   */\n      tag_192\n      jump\t// in\n    tag_381:\n        /* \"#utility.yul\":17897:17899   */\n      0x20\n        /* \"#utility.yul\":17892:17895   */\n      dup3\n        /* \"#utility.yul\":17888:17900   */\n      add\n        /* \"#utility.yul\":17881:17900   */\n      swap1\n      pop\n        /* \"#utility.yul\":17540:17906   */\n      swap2\n      swap1\n      pop\n      jump\t// out\n        /* \"#utility.yul\":17912:18331   */\n    tag_94:\n        /* \"#utility.yul\":18078:18082   */\n      0x00\n        /* \"#utility.yul\":18116:18118   */\n      0x20\n        /* \"#utility.yul\":18105:18114   */\n      dup3\n        /* \"#utility.yul\":18101:18119   */\n      add\n        /* \"#utility.yul\":18093:18119   */\n      swap1\n      pop\n        /* \"#utility.yul\":18165:18174   */\n      dup2\n        /* \"#utility.yul\":18159:18163   */\n      dup2\n        /* \"#utility.yul\":18155:18175   */\n      sub\n        /* \"#utility.yul\":18151:18152   */\n      0x00\n        /* \"#utility.yul\":18140:18149   */\n      dup4\n        /* \"#utility.yul\":18136:18153   */\n      add\n        /* \"#utility.yul\":18129:18176   */\n      mstore\n        /* \"#utility.yul\":18193:18324   */\n      tag_383\n        /* \"#utility.yul\":18319:18323   */\n      dup2\n        /* \"#utility.yul\":18193:18324   */\n      tag_193\n      jump\t// in\n    tag_383:\n        /* \"#utility.yul\":18185:18324   */\n      swap1\n      pop\n        /* \"#utility.yul\":17912:18331   */\n      swap2\n      swap1\n      pop\n      jump\t// out\n        /* \"#utility.yul\":18337:18506   */\n    tag_194:\n        /* \"#utility.yul\":18477:18498   */\n      0x796f7520646f6e74206f776e205469636b657400000000000000000000000000\n        /* \"#utility.yul\":18473:18474   */\n      0x00\n        /* \"#utility.yul\":18465:18471   */\n      dup3\n        /* \"#utility.yul\":18461:18475   */\n      add\n        /* \"#utility.yul\":18454:18499   */\n      mstore\n        /* \"#utility.yul\":18337:18506   */\n      pop\n      jump\t// out\n        /* \"#utility.yul\":18512:18878   */\n    tag_195:\n        /* \"#utility.yul\":18654:18657   */\n      0x00\n        /* \"#utility.yul\":18675:18742   */\n      tag_386\n        /* \"#utility.yul\":18739:18741   */\n      0x13\n        /* \"#utility.yul\":18734:18737   */\n      dup4\n        /* \"#utility.yul\":18675:18742   */\n      tag_161\n      jump\t// in\n    tag_386:\n        /* \"#utility.yul\":18668:18742   */\n      swap2\n      pop\n        /* \"#utility.yul\":18751:18844   */\n      tag_387\n        /* \"#utility.yul\":18840:18843   */\n      dup3\n        /* \"#utility.yul\":18751:18844   */\n      tag_194\n      jump\t// in\n    tag_387:\n        /* \"#utility.yul\":18869:18871   */\n      0x20\n        /* \"#utility.yul\":18864:18867   */\n      dup3\n        /* \"#utility.yul\":18860:18872   */\n      add\n        /* \"#utility.yul\":18853:18872   */\n      swap1\n      pop\n        /* \"#utility.yul\":18512:18878   */\n      swap2\n      swap1\n      pop\n      jump\t// out\n        /* \"#utility.yul\":18884:19303   */\n    tag_100:\n        /* \"#utility.yul\":19050:19054   */\n      0x00\n        /* \"#utility.yul\":19088:19090   */\n      0x20\n        /* \"#utility.yul\":19077:19086   */\n      dup3\n        /* \"#utility.yul\":19073:19091   */\n      add\n        /* \"#utility.yul\":19065:19091   */\n      swap1\n      pop\n        /* \"#utility.yul\":19137:19146   */\n      dup2\n        /* \"#utility.yul\":19131:19135   */\n      dup2\n        /* \"#utility.yul\":19127:19147   */\n      sub\n        /* \"#utility.yul\":19123:19124   */\n      0x00\n        /* \"#utility.yul\":19112:19121   */\n      dup4\n        /* \"#utility.yul\":19108:19125   */\n      add\n        /* \"#utility.yul\":19101:19148   */\n      mstore\n        /* \"#utility.yul\":19165:19296   */\n      tag_389\n        /* \"#utility.yul\":19291:19295   */\n      dup2\n        /* \"#utility.yul\":19165:19296   */\n      tag_195\n      jump\t// in\n    tag_389:\n        /* \"#utility.yul\":19157:19296   */\n      swap1\n      pop\n        /* \"#utility.yul\":18884:19303   */\n      swap2\n      swap1\n      pop\n      jump\t// out\n        /* \"#utility.yul\":19309:19500   */\n    tag_102:\n        /* \"#utility.yul\":19349:19352   */\n      0x00\n        /* \"#utility.yul\":19368:19388   */\n      tag_391\n        /* \"#utility.yul\":19386:19387   */\n      dup3\n        /* \"#utility.yul\":19368:19388   */\n      tag_151\n      jump\t// in\n    tag_391:\n        /* \"#utility.yul\":19363:19388   */\n      swap2\n      pop\n        /* \"#utility.yul\":19402:19422   */\n      tag_392\n        /* \"#utility.yul\":19420:19421   */\n      dup4\n        /* \"#utility.yul\":19402:19422   */\n      tag_151\n      jump\t// in\n    tag_392:\n        /* \"#utility.yul\":19397:19422   */\n      swap3\n      pop\n        /* \"#utility.yul\":19445:19446   */\n      dup3\n        /* \"#utility.yul\":19442:19443   */\n      dup3\n        /* \"#utility.yul\":19438:19447   */\n      add\n        /* \"#utility.yul\":19431:19447   */\n      swap1\n      pop\n        /* \"#utility.yul\":19466:19469   */\n      dup1\n        /* \"#utility.yul\":19463:19464   */\n      dup3\n        /* \"#utility.yul\":19460:19470   */\n      gt\n        /* \"#utility.yul\":19457:19493   */\n      iszero\n      tag_393\n      jumpi\n        /* \"#utility.yul\":19473:19491   */\n      tag_394\n      tag_172\n      jump\t// in\n    tag_394:\n        /* \"#utility.yul\":19457:19493   */\n    tag_393:\n        /* \"#utility.yul\":19309:19500   */\n      swap3\n      swap2\n      pop\n      pop\n      jump\t// out\n        /* \"#utility.yul\":19506:19679   */\n    tag_196:\n        /* \"#utility.yul\":19646:19671   */\n      0x6572726f723a6973737565207769746820726566756e64000000000000000000\n        /* \"#utility.yul\":19642:19643   */\n      0x00\n        /* \"#utility.yul\":19634:19640   */\n      dup3\n        /* \"#utility.yul\":19630:19644   */\n      add\n        /* \"#utility.yul\":19623:19672   */\n      mstore\n        /* \"#utility.yul\":19506:19679   */\n      pop\n      jump\t// out\n        /* \"#utility.yul\":19685:20051   */\n    tag_197:\n        /* \"#utility.yul\":19827:19830   */\n      0x00\n        /* \"#utility.yul\":19848:19915   */\n      tag_397\n        /* \"#utility.yul\":19912:19914   */\n      0x17\n        /* \"#utility.yul\":19907:19910   */\n      dup4\n        /* \"#utility.yul\":19848:19915   */\n      tag_161\n      jump\t// in\n    tag_397:\n        /* \"#utility.yul\":19841:19915   */\n      swap2\n      pop\n        /* \"#utility.yul\":19924:20017   */\n      tag_398\n        /* \"#utility.yul\":20013:20016   */\n      dup3\n        /* \"#utility.yul\":19924:20017   */\n      tag_196\n      jump\t// in\n    tag_398:\n        /* \"#utility.yul\":20042:20044   */\n      0x20\n        /* \"#utility.yul\":20037:20040   */\n      dup3\n        /* \"#utility.yul\":20033:20045   */\n      add\n        /* \"#utility.yul\":20026:20045   */\n      swap1\n      pop\n        /* \"#utility.yul\":19685:20051   */\n      swap2\n      swap1\n      pop\n      jump\t// out\n        /* \"#utility.yul\":20057:20476   */\n    tag_109:\n        /* \"#utility.yul\":20223:20227   */\n      0x00\n        /* \"#utility.yul\":20261:20263   */\n      0x20\n        /* \"#utility.yul\":20250:20259   */\n      dup3\n        /* \"#utility.yul\":20246:20264   */\n      add\n        /* \"#utility.yul\":20238:20264   */\n      swap1\n      pop\n        /* \"#utility.yul\":20310:20319   */\n      dup2\n        /* \"#utility.yul\":20304:20308   */\n      dup2\n        /* \"#utility.yul\":20300:20320   */\n      sub\n        /* \"#utility.yul\":20296:20297   */\n      0x00\n        /* \"#utility.yul\":20285:20294   */\n      dup4\n        /* \"#utility.yul\":20281:20298   */\n      add\n        /* \"#utility.yul\":20274:20321   */\n      mstore\n        /* \"#utility.yul\":20338:20469   */\n      tag_400\n        /* \"#utility.yul\":20464:20468   */\n      dup2\n        /* \"#utility.yul\":20338:20469   */\n      tag_197\n      jump\t// in\n    tag_400:\n        /* \"#utility.yul\":20330:20469   */\n      swap1\n      pop\n        /* \"#utility.yul\":20057:20476   */\n      swap2\n      swap1\n      pop\n      jump\t// out\n\n    auxdata: 0xa2646970667358221220128d1d23e833495d61c7c1271aa93ca7616e26e22c8b41d3742683efccfb7b0164736f6c634300081e0033\n}\n",
				"bytecode": {
					"linkReferences": {},
					"object": "608060405266038d7ea4c680006001556064600255348015601e575f5ffd5b50335f5f6101000a81548173ffffffffffffffffffffffffffffffffffffffff021916908373ffffffffffffffffffffffffffffffffffffffff1602179055505f5f9054906101000a900473ffffffffffffffffffffffffffffffffffffffff1673ffffffffffffffffffffffffffffffffffffffff165f73ffffffffffffffffffffffffffffffffffffffff167f8be0079c531659141344cd1fd0a4f28419497f9722a3daafe3b4186f6b6457e060405160405180910390a36115d4806100e55f395ff3fe60806040526004361061009b575f3560e01c80638da5cb5b116100635780638da5cb5b146101275780638f32d59b146101515780639c5655d61461017b578063a005ec7a146101a5578063acae79bb146101e4578063f2fde38b146102205761009b565b8063352371fe1461009f57806357ea89b6146100bb578063590e1ae3146100d1578063715018a6146100e75780638c7c9e0c146100fd575b5f5ffd5b6100b960048036038101906100b49190610cd5565b610248565b005b3480156100c6575f5ffd5b506100cf61049d565b005b3480156100dc575f5ffd5b506100e56105b9565b005b3480156100f2575f5ffd5b506100fb610797565b005b348015610108575f5ffd5b50610111610862565b60405161011e9190610d6c565b60405180910390f35b348015610132575f5ffd5b5061013b610868565b6040516101489190610dc4565b60405180910390f35b34801561015c575f5ffd5b5061016561088f565b6040516101729190610df7565b60405180910390f35b348015610186575f5ffd5b5061018f6108e4565b60405161019c9190610d6c565b60405180910390f35b3480156101b0575f5ffd5b506101cb60048036038101906101c69190610e10565b6108ea565b6040516101db9493929190610e9b565b60405180910390f35b3480156101ef575f5ffd5b5061020a60048036038101906102059190610f16565b610a31565b6040516102179190610d6c565b60405180910390f35b34801561022b575f5ffd5b5061024660048036038101906102419190610f16565b610a46565b005b600154341461028c576040517f08c379a000000000000000000000000000000000000000000000000000000000815260040161028390610fb1565b60405180910390fd5b5f600254116102d0576040517f08c379a00000000000000000000000000000000000000000000000000000000081526004016102c790611019565b60405180910390fd5b5f60035f3373ffffffffffffffffffffffffffffffffffffffff1673ffffffffffffffffffffffffffffffffffffffff1681526020019081526020015f20541461034f576040517f08c379a000000000000000000000000000000000000000000000000000000000815260040161034690611081565b60405180910390fd5b600160025f82825461036191906110cc565b925050819055505f600254606461037891906110cc565b90506004604051806080016040528086815260200185815260200184815260200183815250908060018154018082558091505060019003905f5260205f2090600402015f909190919091505f820151815f0190816103d691906112fc565b5060208201518160010190816103ec91906112fc565b50604082015181600201556060820151816003015550508060035f3373ffffffffffffffffffffffffffffffffffffffff1673ffffffffffffffffffffffffffffffffffffffff1681526020019081526020015f20819055503373ffffffffffffffffffffffffffffffffffffffff167f7d1cd329a11d8807f0374627923b6cd32942b74b38b1accf931d70a507ff739e8260015460405161048f9291906113cb565b60405180910390a250505050565b6104a561088f565b6104ad575f5ffd5b5f4790505f6104ba610868565b73ffffffffffffffffffffffffffffffffffffffff16476040516104dd9061141f565b5f6040518083038185875af1925050503d805f8114610517576040519150601f19603f3d011682016040523d82523d5f602084013e61051c565b606091505b5050905080610560576040517f08c379a00000000000000000000000000000000000000000000000000000000081526004016105579061147d565b60405180910390fd5b610568610868565b73ffffffffffffffffffffffffffffffffffffffff167ff3fef3a3f44f9c277339b67d54f015748bd8d6b77a985b0ab6e71126b018c34a836040516105ad9190610d6c565b60405180910390a25050565b5f60035f3373ffffffffffffffffffffffffffffffffffffffff1673ffffffffffffffffffffffffffffffffffffffff1681526020019081526020015f205490505f811161063c576040517f08c379a0000000000000000000000000000000000000000000000000000000008152600401610633906114e5565b60405180910390fd5b5f60035f3373ffffffffffffffffffffffffffffffffffffffff1673ffffffffffffffffffffffffffffffffffffffff1681526020019081526020015f2081905550600160025f8282546106909190611503565b925050819055505f3373ffffffffffffffffffffffffffffffffffffffff166001546040516106be9061141f565b5f6040518083038185875af1925050503d805f81146106f8576040519150601f19603f3d011682016040523d82523d5f602084013e6106fd565b606091505b5050905080610741576040517f08c379a000000000000000000000000000000000000000000000000000000000815260040161073890611580565b60405180910390fd5b3373ffffffffffffffffffffffffffffffffffffffff167f73f04af9dcc582a923ec15d3eea990fe34adabfff2879e28d44572e01a54abb68360015460405161078b9291906113cb565b60405180910390a25050565b61079f61088f565b6107a7575f5ffd5b5f73ffffffffffffffffffffffffffffffffffffffff165f5f9054906101000a900473ffffffffffffffffffffffffffffffffffffffff1673ffffffffffffffffffffffffffffffffffffffff167f8be0079c531659141344cd1fd0a4f28419497f9722a3daafe3b4186f6b6457e060405160405180910390a35f5f5f6101000a81548173ffffffffffffffffffffffffffffffffffffffff021916908373ffffffffffffffffffffffffffffffffffffffff160217905550565b60015481565b5f5f5f9054906101000a900473ffffffffffffffffffffffffffffffffffffffff16905090565b5f5f5f9054906101000a900473ffffffffffffffffffffffffffffffffffffffff1673ffffffffffffffffffffffffffffffffffffffff163373ffffffffffffffffffffffffffffffffffffffff1614905090565b60025481565b600481815481106108f9575f80fd5b905f5260205f2090600402015f91509050805f0180546109189061112c565b80601f01602080910402602001604051908101604052809291908181526020018280546109449061112c565b801561098f5780601f106109665761010080835404028352916020019161098f565b820191905f5260205f20905b81548152906001019060200180831161097257829003601f168201915b5050505050908060010180546109a49061112c565b80601f01602080910402602001604051908101604052809291908181526020018280546109d09061112c565b8015610a1b5780601f106109f257610100808354040283529160200191610a1b565b820191905f5260205f20905b8154815290600101906020018083116109fe57829003601f168201915b5050505050908060020154908060030154905084565b6003602052805f5260405f205f915090505481565b610a4e61088f565b610a56575f5ffd5b610a5f81610a62565b50565b5f73ffffffffffffffffffffffffffffffffffffffff168173ffffffffffffffffffffffffffffffffffffffff1603610a99575f5ffd5b8073ffffffffffffffffffffffffffffffffffffffff165f5f9054906101000a900473ffffffffffffffffffffffffffffffffffffffff1673ffffffffffffffffffffffffffffffffffffffff167f8be0079c531659141344cd1fd0a4f28419497f9722a3daafe3b4186f6b6457e060405160405180910390a3805f5f6101000a81548173ffffffffffffffffffffffffffffffffffffffff021916908373ffffffffffffffffffffffffffffffffffffffff16021790555050565b5f604051905090565b5f5ffd5b5f5ffd5b5f5ffd5b5f5ffd5b5f601f19601f8301169050919050565b7f4e487b71000000000000000000000000000000000000000000000000000000005f52604160045260245ffd5b610bb482610b6e565b810181811067ffffffffffffffff82111715610bd357610bd2610b7e565b5b80604052505050565b5f610be5610b55565b9050610bf18282610bab565b919050565b5f67ffffffffffffffff821115610c1057610c0f610b7e565b5b610c1982610b6e565b9050602081019050919050565b828183375f83830152505050565b5f610c46610c4184610bf6565b610bdc565b905082815260208101848484011115610c6257610c61610b6a565b5b610c6d848285610c26565b509392505050565b5f82601f830112610c8957610c88610b66565b5b8135610c99848260208601610c34565b91505092915050565b5f819050919050565b610cb481610ca2565b8114610cbe575f5ffd5b50565b5f81359050610ccf81610cab565b92915050565b5f5f5f60608486031215610cec57610ceb610b5e565b5b5f84013567ffffffffffffffff811115610d0957610d08610b62565b5b610d1586828701610c75565b935050602084013567ffffffffffffffff811115610d3657610d35610b62565b5b610d4286828701610c75565b9250506040610d5386828701610cc1565b9150509250925092565b610d6681610ca2565b82525050565b5f602082019050610d7f5f830184610d5d565b92915050565b5f73ffffffffffffffffffffffffffffffffffffffff82169050919050565b5f610dae82610d85565b9050919050565b610dbe81610da4565b82525050565b5f602082019050610dd75f830184610db5565b92915050565b5f8115159050919050565b610df181610ddd565b82525050565b5f602082019050610e0a5f830184610de8565b92915050565b5f60208284031215610e2557610e24610b5e565b5b5f610e3284828501610cc1565b91505092915050565b5f81519050919050565b5f82825260208201905092915050565b8281835e5f83830152505050565b5f610e6d82610e3b565b610e778185610e45565b9350610e87818560208601610e55565b610e9081610b6e565b840191505092915050565b5f6080820190508181035f830152610eb38187610e63565b90508181036020830152610ec78186610e63565b9050610ed66040830185610d5d565b610ee36060830184610d5d565b95945050505050565b610ef581610da4565b8114610eff575f5ffd5b50565b5f81359050610f1081610eec565b92915050565b5f60208284031215610f2b57610f2a610b5e565b5b5f610f3884828501610f02565b91505092915050565b7f796f75206861766520746f2070617920657861637420616d6f756e74206f66205f8201527f6574680000000000000000000000000000000000000000000000000000000000602082015250565b5f610f9b602383610e45565b9150610fa682610f41565b604082019050919050565b5f6020820190508181035f830152610fc881610f8f565b9050919050565b7f73657473206172652066756c6c000000000000000000000000000000000000005f82015250565b5f611003600d83610e45565b915061100e82610fcf565b602082019050919050565b5f6020820190508181035f83015261103081610ff7565b9050919050565b7f796f7520616c7265616479206f776e2061207469636b657400000000000000005f82015250565b5f61106b601883610e45565b915061107682611037565b602082019050919050565b5f6020820190508181035f8301526110988161105f565b9050919050565b7f4e487b71000000000000000000000000000000000000000000000000000000005f52601160045260245ffd5b5f6110d682610ca2565b91506110e183610ca2565b92508282039050818111156110f9576110f861109f565b5b92915050565b7f4e487b71000000000000000000000000000000000000000000000000000000005f52602260045260245ffd5b5f600282049050600182168061114357607f821691505b602082108103611156576111556110ff565b5b50919050565b5f819050815f5260205f209050919050565b5f6020601f8301049050919050565b5f82821b905092915050565b5f600883026111b87fffffffffffffffffffffffffffffffffffffffffffffffffffffffffffffffff8261117d565b6111c2868361117d565b95508019841693508086168417925050509392505050565b5f819050919050565b5f6111fd6111f86111f384610ca2565b6111da565b610ca2565b9050919050565b5f819050919050565b611216836111e3565b61122a61122282611204565b848454611189565b825550505050565b5f5f905090565b611241611232565b61124c81848461120d565b505050565b5b8181101561126f576112645f82611239565b600181019050611252565b5050565b601f8211156112b4576112858161115c565b61128e8461116e565b8101602085101561129d578190505b6112b16112a98561116e565b830182611251565b50505b505050565b5f82821c905092915050565b5f6112d45f19846008026112b9565b1980831691505092915050565b5f6112ec83836112c5565b9150826002028217905092915050565b61130582610e3b565b67ffffffffffffffff81111561131e5761131d610b7e565b5b611328825461112c565b611333828285611273565b5f60209050601f831160018114611364575f8415611352578287015190505b61135c85826112e1565b8655506113c3565b601f1984166113728661115c565b5f5b8281101561139957848901518255600182019150602085019450602081019050611374565b868310156113b657848901516113b2601f8916826112c5565b8355505b6001600288020188555050505b505050505050565b5f6040820190506113de5f830185610d5d565b6113eb6020830184610d5d565b9392505050565b5f81905092915050565b50565b5f61140a5f836113f2565b9150611415826113fc565b5f82019050919050565b5f611429826113ff565b9150819050919050565b7f6572726f723a6661696c20746f2073656e6420657468657200000000000000005f82015250565b5f611467601883610e45565b915061147282611433565b602082019050919050565b5f6020820190508181035f8301526114948161145b565b9050919050565b7f796f7520646f6e74206f776e205469636b6574000000000000000000000000005f82015250565b5f6114cf601383610e45565b91506114da8261149b565b602082019050919050565b5f6020820190508181035f8301526114fc816114c3565b9050919050565b5f61150d82610ca2565b915061151883610ca2565b92508282019050808211156115305761152f61109f565b5b92915050565b7f6572726f723a6973737565207769746820726566756e640000000000000000005f82015250565b5f61156a601783610e45565b915061157582611536565b602082019050919050565b5f6020820190508181035f8301526115978161155e565b905091905056fea2646970667358221220128d1d23e833495d61c7c1271aa93ca7616e26e22c8b41d3742683efccfb7b0164736f6c634300081e0033",
					"opcodes": "PUSH1 0x80 PUSH1 0x40 MSTORE PUSH7 0x38D7EA4C68000 PUSH1 0x1 SSTORE PUSH1 0x64 PUSH1 0x2 SSTORE CALLVALUE DUP1 ISZERO PUSH1 0x1E JUMPI PUSH0 PUSH0 REVERT JUMPDEST POP CALLER PUSH0 PUSH0 PUSH2 0x100 EXP DUP2 SLOAD DUP2 PUSH20 0xFFFFFFFFFFFFFFFFFFFFFFFFFFFFFFFFFFFFFFFF MUL NOT AND SWAP1 DUP4 PUSH20 0xFFFFFFFFFFFFFFFFFFFFFFFFFFFFFFFFFFFFFFFF AND MUL OR SWAP1 SSTORE POP PUSH0 PUSH0 SWAP1 SLOAD SWAP1 PUSH2 0x100 EXP SWAP1 DIV PUSH20 0xFFFFFFFFFFFFFFFFFFFFFFFFFFFFFFFFFFFFFFFF AND PUSH20 0xFFFFFFFFFFFFFFFFFFFFFFFFFFFFFFFFFFFFFFFF AND PUSH0 PUSH20 0xFFFFFFFFFFFFFFFFFFFFFFFFFFFFFFFFFFFFFFFF AND PUSH32 0x8BE0079C531659141344CD1FD0A4F28419497F9722A3DAAFE3B4186F6B6457E0 PUSH1 0x40 MLOAD PUSH1 0x40 MLOAD DUP1 SWAP2 SUB SWAP1 LOG3 PUSH2 0x15D4 DUP1 PUSH2 0xE5 PUSH0 CODECOPY PUSH0 RETURN INVALID PUSH1 0x80 PUSH1 0x40 MSTORE PUSH1 0x4 CALLDATASIZE LT PUSH2 0x9B JUMPI PUSH0 CALLDATALOAD PUSH1 0xE0 SHR DUP1 PUSH4 0x8DA5CB5B GT PUSH2 0x63 JUMPI DUP1 PUSH4 0x8DA5CB5B EQ PUSH2 0x127 JUMPI DUP1 PUSH4 0x8F32D59B EQ PUSH2 0x151 JUMPI DUP1 PUSH4 0x9C5655D6 EQ PUSH2 0x17B JUMPI DUP1 PUSH4 0xA005EC7A EQ PUSH2 0x1A5 JUMPI DUP1 PUSH4 0xACAE79BB EQ PUSH2 0x1E4 JUMPI DUP1 PUSH4 0xF2FDE38B EQ PUSH2 0x220 JUMPI PUSH2 0x9B JUMP JUMPDEST DUP1 PUSH4 0x352371FE EQ PUSH2 0x9F JUMPI DUP1 PUSH4 0x57EA89B6 EQ PUSH2 0xBB JUMPI DUP1 PUSH4 0x590E1AE3 EQ PUSH2 0xD1 JUMPI DUP1 PUSH4 0x715018A6 EQ PUSH2 0xE7 JUMPI DUP1 PUSH4 0x8C7C9E0C EQ PUSH2 0xFD JUMPI JUMPDEST PUSH0 PUSH0 REVERT JUMPDEST PUSH2 0xB9 PUSH1 0x4 DUP1 CALLDATASIZE SUB DUP2 ADD SWAP1 PUSH2 0xB4 SWAP2 SWAP1 PUSH2 0xCD5 JUMP JUMPDEST PUSH2 0x248 JUMP JUMPDEST STOP JUMPDEST CALLVALUE DUP1 ISZERO PUSH2 0xC6 JUMPI PUSH0 PUSH0 REVERT JUMPDEST POP PUSH2 0xCF PUSH2 0x49D JUMP JUMPDEST STOP JUMPDEST CALLVALUE DUP1 ISZERO PUSH2 0xDC JUMPI PUSH0 PUSH0 REVERT JUMPDEST POP PUSH2 0xE5 PUSH2 0x5B9 JUMP JUMPDEST STOP JUMPDEST CALLVALUE DUP1 ISZERO PUSH2 0xF2 JUMPI PUSH0 PUSH0 REVERT JUMPDEST POP PUSH2 0xFB PUSH2 0x797 JUMP JUMPDEST STOP JUMPDEST CALLVALUE DUP1 ISZERO PUSH2 0x108 JUMPI PUSH0 PUSH0 REVERT JUMPDEST POP PUSH2 0x111 PUSH2 0x862 JUMP JUMPDEST PUSH1 0x40 MLOAD PUSH2 0x11E SWAP2 SWAP1 PUSH2 0xD6C JUMP JUMPDEST PUSH1 0x40 MLOAD DUP1 SWAP2 SUB SWAP1 RETURN JUMPDEST CALLVALUE DUP1 ISZERO PUSH2 0x132 JUMPI PUSH0 PUSH0 REVERT JUMPDEST POP PUSH2 0x13B PUSH2 0x868 JUMP JUMPDEST PUSH1 0x40 MLOAD PUSH2 0x148 SWAP2 SWAP1 PUSH2 0xDC4 JUMP JUMPDEST PUSH1 0x40 MLOAD DUP1 SWAP2 SUB SWAP1 RETURN JUMPDEST CALLVALUE DUP1 ISZERO PUSH2 0x15C JUMPI PUSH0 PUSH0 REVERT JUMPDEST POP PUSH2 0x165 PUSH2 0x88F JUMP JUMPDEST PUSH1 0x40 MLOAD PUSH2 0x172 SWAP2 SWAP1 PUSH2 0xDF7 JUMP JUMPDEST PUSH1 0x40 MLOAD DUP1 SWAP2 SUB SWAP1 RETURN JUMPDEST CALLVALUE DUP1 ISZERO PUSH2 0x186 JUMPI PUSH0 PUSH0 REVERT JUMPDEST POP PUSH2 0x18F PUSH2 0x8E4 JUMP JUMPDEST PUSH1 0x40 MLOAD PUSH2 0x19C SWAP2 SWAP1 PUSH2 0xD6C JUMP JUMPDEST PUSH1 0x40 MLOAD DUP1 SWAP2 SUB SWAP1 RETURN JUMPDEST CALLVALUE DUP1 ISZERO PUSH2 0x1B0 JUMPI PUSH0 PUSH0 REVERT JUMPDEST POP PUSH2 0x1CB PUSH1 0x4 DUP1 CALLDATASIZE SUB DUP2 ADD SWAP1 PUSH2 0x1C6 SWAP2 SWAP1 PUSH2 0xE10 JUMP JUMPDEST PUSH2 0x8EA JUMP JUMPDEST PUSH1 0x40 MLOAD PUSH2 0x1DB SWAP5 SWAP4 SWAP3 SWAP2 SWAP1 PUSH2 0xE9B JUMP JUMPDEST PUSH1 0x40 MLOAD DUP1 SWAP2 SUB SWAP1 RETURN JUMPDEST CALLVALUE DUP1 ISZERO PUSH2 0x1EF JUMPI PUSH0 PUSH0 REVERT JUMPDEST POP PUSH2 0x20A PUSH1 0x4 DUP1 CALLDATASIZE SUB DUP2 ADD SWAP1 PUSH2 0x205 SWAP2 SWAP1 PUSH2 0xF16 JUMP JUMPDEST PUSH2 0xA31 JUMP JUMPDEST PUSH1 0x40 MLOAD PUSH2 0x217 SWAP2 SWAP1 PUSH2 0xD6C JUMP JUMPDEST PUSH1 0x40 MLOAD DUP1 SWAP2 SUB SWAP1 RETURN JUMPDEST CALLVALUE DUP1 ISZERO PUSH2 0x22B JUMPI PUSH0 PUSH0 REVERT JUMPDEST POP PUSH2 0x246 PUSH1 0x4 DUP1 CALLDATASIZE SUB DUP2 ADD SWAP1 PUSH2 0x241 SWAP2 SWAP1 PUSH2 0xF16 JUMP JUMPDEST PUSH2 0xA46 JUMP JUMPDEST STOP JUMPDEST PUSH1 0x1 SLOAD CALLVALUE EQ PUSH2 0x28C JUMPI PUSH1 0x40 MLOAD PUSH32 0x8C379A000000000000000000000000000000000000000000000000000000000 DUP2 MSTORE PUSH1 0x4 ADD PUSH2 0x283 SWAP1 PUSH2 0xFB1 JUMP JUMPDEST PUSH1 0x40 MLOAD DUP1 SWAP2 SUB SWAP1 REVERT JUMPDEST PUSH0 PUSH1 0x2 SLOAD GT PUSH2 0x2D0 JUMPI PUSH1 0x40 MLOAD PUSH32 0x8C379A000000000000000000000000000000000000000000000000000000000 DUP2 MSTORE PUSH1 0x4 ADD PUSH2 0x2C7 SWAP1 PUSH2 0x1019 JUMP JUMPDEST PUSH1 0x40 MLOAD DUP1 SWAP2 SUB SWAP1 REVERT JUMPDEST PUSH0 PUSH1 0x3 PUSH0 CALLER PUSH20 0xFFFFFFFFFFFFFFFFFFFFFFFFFFFFFFFFFFFFFFFF AND PUSH20 0xFFFFFFFFFFFFFFFFFFFFFFFFFFFFFFFFFFFFFFFF AND DUP2 MSTORE PUSH1 0x20 ADD SWAP1 DUP2 MSTORE PUSH1 0x20 ADD PUSH0 KECCAK256 SLOAD EQ PUSH2 0x34F JUMPI PUSH1 0x40 MLOAD PUSH32 0x8C379A000000000000000000000000000000000000000000000000000000000 DUP2 MSTORE PUSH1 0x4 ADD PUSH2 0x346 SWAP1 PUSH2 0x1081 JUMP JUMPDEST PUSH1 0x40 MLOAD DUP1 SWAP2 SUB SWAP1 REVERT JUMPDEST PUSH1 0x1 PUSH1 0x2 PUSH0 DUP3 DUP3 SLOAD PUSH2 0x361 SWAP2 SWAP1 PUSH2 0x10CC JUMP JUMPDEST SWAP3 POP POP DUP2 SWAP1 SSTORE POP PUSH0 PUSH1 0x2 SLOAD PUSH1 0x64 PUSH2 0x378 SWAP2 SWAP1 PUSH2 0x10CC JUMP JUMPDEST SWAP1 POP PUSH1 0x4 PUSH1 0x40 MLOAD DUP1 PUSH1 0x80 ADD PUSH1 0x40 MSTORE DUP1 DUP7 DUP2 MSTORE PUSH1 0x20 ADD DUP6 DUP2 MSTORE PUSH1 0x20 ADD DUP5 DUP2 MSTORE PUSH1 0x20 ADD DUP4 DUP2 MSTORE POP SWAP1 DUP1 PUSH1 0x1 DUP2 SLOAD ADD DUP1 DUP3 SSTORE DUP1 SWAP2 POP POP PUSH1 0x1 SWAP1 SUB SWAP1 PUSH0 MSTORE PUSH1 0x20 PUSH0 KECCAK256 SWAP1 PUSH1 0x4 MUL ADD PUSH0 SWAP1 SWAP2 SWAP1 SWAP2 SWAP1 SWAP2 POP PUSH0 DUP3 ADD MLOAD DUP2 PUSH0 ADD SWAP1 DUP2 PUSH2 0x3D6 SWAP2 SWAP1 PUSH2 0x12FC JUMP JUMPDEST POP PUSH1 0x20 DUP3 ADD MLOAD DUP2 PUSH1 0x1 ADD SWAP1 DUP2 PUSH2 0x3EC SWAP2 SWAP1 PUSH2 0x12FC JUMP JUMPDEST POP PUSH1 0x40 DUP3 ADD MLOAD DUP2 PUSH1 0x2 ADD SSTORE PUSH1 0x60 DUP3 ADD MLOAD DUP2 PUSH1 0x3 ADD SSTORE POP POP DUP1 PUSH1 0x3 PUSH0 CALLER PUSH20 0xFFFFFFFFFFFFFFFFFFFFFFFFFFFFFFFFFFFFFFFF AND PUSH20 0xFFFFFFFFFFFFFFFFFFFFFFFFFFFFFFFFFFFFFFFF AND DUP2 MSTORE PUSH1 0x20 ADD SWAP1 DUP2 MSTORE PUSH1 0x20 ADD PUSH0 KECCAK256 DUP2 SWAP1 SSTORE POP CALLER PUSH20 0xFFFFFFFFFFFFFFFFFFFFFFFFFFFFFFFFFFFFFFFF AND PUSH32 0x7D1CD329A11D8807F0374627923B6CD32942B74B38B1ACCF931D70A507FF739E DUP3 PUSH1 0x1 SLOAD PUSH1 0x40 MLOAD PUSH2 0x48F SWAP3 SWAP2 SWAP1 PUSH2 0x13CB JUMP JUMPDEST PUSH1 0x40 MLOAD DUP1 SWAP2 SUB SWAP1 LOG2 POP POP POP POP JUMP JUMPDEST PUSH2 0x4A5 PUSH2 0x88F JUMP JUMPDEST PUSH2 0x4AD JUMPI PUSH0 PUSH0 REVERT JUMPDEST PUSH0 SELFBALANCE SWAP1 POP PUSH0 PUSH2 0x4BA PUSH2 0x868 JUMP JUMPDEST PUSH20 0xFFFFFFFFFFFFFFFFFFFFFFFFFFFFFFFFFFFFFFFF AND SELFBALANCE PUSH1 0x40 MLOAD PUSH2 0x4DD SWAP1 PUSH2 0x141F JUMP JUMPDEST PUSH0 PUSH1 0x40 MLOAD DUP1 DUP4 SUB DUP2 DUP6 DUP8 GAS CALL SWAP3 POP POP POP RETURNDATASIZE DUP1 PUSH0 DUP2 EQ PUSH2 0x517 JUMPI PUSH1 0x40 MLOAD SWAP2 POP PUSH1 0x1F NOT PUSH1 0x3F RETURNDATASIZE ADD AND DUP3 ADD PUSH1 0x40 MSTORE RETURNDATASIZE DUP3 MSTORE RETURNDATASIZE PUSH0 PUSH1 0x20 DUP5 ADD RETURNDATACOPY PUSH2 0x51C JUMP JUMPDEST PUSH1 0x60 SWAP2 POP JUMPDEST POP POP SWAP1 POP DUP1 PUSH2 0x560 JUMPI PUSH1 0x40 MLOAD PUSH32 0x8C379A000000000000000000000000000000000000000000000000000000000 DUP2 MSTORE PUSH1 0x4 ADD PUSH2 0x557 SWAP1 PUSH2 0x147D JUMP JUMPDEST PUSH1 0x40 MLOAD DUP1 SWAP2 SUB SWAP1 REVERT JUMPDEST PUSH2 0x568 PUSH2 0x868 JUMP JUMPDEST PUSH20 0xFFFFFFFFFFFFFFFFFFFFFFFFFFFFFFFFFFFFFFFF AND PUSH32 0xF3FEF3A3F44F9C277339B67D54F015748BD8D6B77A985B0AB6E71126B018C34A DUP4 PUSH1 0x40 MLOAD PUSH2 0x5AD SWAP2 SWAP1 PUSH2 0xD6C JUMP JUMPDEST PUSH1 0x40 MLOAD DUP1 SWAP2 SUB SWAP1 LOG2 POP POP JUMP JUMPDEST PUSH0 PUSH1 0x3 PUSH0 CALLER PUSH20 0xFFFFFFFFFFFFFFFFFFFFFFFFFFFFFFFFFFFFFFFF AND PUSH20 0xFFFFFFFFFFFFFFFFFFFFFFFFFFFFFFFFFFFFFFFF AND DUP2 MSTORE PUSH1 0x20 ADD SWAP1 DUP2 MSTORE PUSH1 0x20 ADD PUSH0 KECCAK256 SLOAD SWAP1 POP PUSH0 DUP2 GT PUSH2 0x63C JUMPI PUSH1 0x40 MLOAD PUSH32 0x8C379A000000000000000000000000000000000000000000000000000000000 DUP2 MSTORE PUSH1 0x4 ADD PUSH2 0x633 SWAP1 PUSH2 0x14E5 JUMP JUMPDEST PUSH1 0x40 MLOAD DUP1 SWAP2 SUB SWAP1 REVERT JUMPDEST PUSH0 PUSH1 0x3 PUSH0 CALLER PUSH20 0xFFFFFFFFFFFFFFFFFFFFFFFFFFFFFFFFFFFFFFFF AND PUSH20 0xFFFFFFFFFFFFFFFFFFFFFFFFFFFFFFFFFFFFFFFF AND DUP2 MSTORE PUSH1 0x20 ADD SWAP1 DUP2 MSTORE PUSH1 0x20 ADD PUSH0 KECCAK256 DUP2 SWAP1 SSTORE POP PUSH1 0x1 PUSH1 0x2 PUSH0 DUP3 DUP3 SLOAD PUSH2 0x690 SWAP2 SWAP1 PUSH2 0x1503 JUMP JUMPDEST SWAP3 POP POP DUP2 SWAP1 SSTORE POP PUSH0 CALLER PUSH20 0xFFFFFFFFFFFFFFFFFFFFFFFFFFFFFFFFFFFFFFFF AND PUSH1 0x1 SLOAD PUSH1 0x40 MLOAD PUSH2 0x6BE SWAP1 PUSH2 0x141F JUMP JUMPDEST PUSH0 PUSH1 0x40 MLOAD DUP1 DUP4 SUB DUP2 DUP6 DUP8 GAS CALL SWAP3 POP POP POP RETURNDATASIZE DUP1 PUSH0 DUP2 EQ PUSH2 0x6F8 JUMPI PUSH1 0x40 MLOAD SWAP2 POP PUSH1 0x1F NOT PUSH1 0x3F RETURNDATASIZE ADD AND DUP3 ADD PUSH1 0x40 MSTORE RETURNDATASIZE DUP3 MSTORE RETURNDATASIZE PUSH0 PUSH1 0x20 DUP5 ADD RETURNDATACOPY PUSH2 0x6FD JUMP JUMPDEST PUSH1 0x60 SWAP2 POP JUMPDEST POP POP SWAP1 POP DUP1 PUSH2 0x741 JUMPI PUSH1 0x40 MLOAD PUSH32 0x8C379A000000000000000000000000000000000000000000000000000000000 DUP2 MSTORE PUSH1 0x4 ADD PUSH2 0x738 SWAP1 PUSH2 0x1580 JUMP JUMPDEST PUSH1 0x40 MLOAD DUP1 SWAP2 SUB SWAP1 REVERT JUMPDEST CALLER PUSH20 0xFFFFFFFFFFFFFFFFFFFFFFFFFFFFFFFFFFFFFFFF AND PUSH32 0x73F04AF9DCC582A923EC15D3EEA990FE34ADABFFF2879E28D44572E01A54ABB6 DUP4 PUSH1 0x1 SLOAD PUSH1 0x40 MLOAD PUSH2 0x78B SWAP3 SWAP2 SWAP1 PUSH2 0x13CB JUMP JUMPDEST PUSH1 0x40 MLOAD DUP1 SWAP2 SUB SWAP1 LOG2 POP POP JUMP JUMPDEST PUSH2 0x79F PUSH2 0x88F JUMP JUMPDEST PUSH2 0x7A7 JUMPI PUSH0 PUSH0 REVERT JUMPDEST PUSH0 PUSH20 0xFFFFFFFFFFFFFFFFFFFFFFFFFFFFFFFFFFFFFFFF AND PUSH0 PUSH0 SWAP1 SLOAD SWAP1 PUSH2 0x100 EXP SWAP1 DIV PUSH20 0xFFFFFFFFFFFFFFFFFFFFFFFFFFFFFFFFFFFFFFFF AND PUSH20 0xFFFFFFFFFFFFFFFFFFFFFFFFFFFFFFFFFFFFFFFF AND PUSH32 0x8BE0079C531659141344CD1FD0A4F28419497F9722A3DAAFE3B4186F6B6457E0 PUSH1 0x40 MLOAD PUSH1 0x40 MLOAD DUP1 SWAP2 SUB SWAP1 LOG3 PUSH0 PUSH0 PUSH0 PUSH2 0x100 EXP DUP2 SLOAD DUP2 PUSH20 0xFFFFFFFFFFFFFFFFFFFFFFFFFFFFFFFFFFFFFFFF MUL NOT AND SWAP1 DUP4 PUSH20 0xFFFFFFFFFFFFFFFFFFFFFFFFFFFFFFFFFFFFFFFF AND MUL OR SWAP1 SSTORE POP JUMP JUMPDEST PUSH1 0x1 SLOAD DUP2 JUMP JUMPDEST PUSH0 PUSH0 PUSH0 SWAP1 SLOAD SWAP1 PUSH2 0x100 EXP SWAP1 DIV PUSH20 0xFFFFFFFFFFFFFFFFFFFFFFFFFFFFFFFFFFFFFFFF AND SWAP1 POP SWAP1 JUMP JUMPDEST PUSH0 PUSH0 PUSH0 SWAP1 SLOAD SWAP1 PUSH2 0x100 EXP SWAP1 DIV PUSH20 0xFFFFFFFFFFFFFFFFFFFFFFFFFFFFFFFFFFFFFFFF AND PUSH20 0xFFFFFFFFFFFFFFFFFFFFFFFFFFFFFFFFFFFFFFFF AND CALLER PUSH20 0xFFFFFFFFFFFFFFFFFFFFFFFFFFFFFFFFFFFFFFFF AND EQ SWAP1 POP SWAP1 JUMP JUMPDEST PUSH1 0x2 SLOAD DUP2 JUMP JUMPDEST PUSH1 0x4 DUP2 DUP2 SLOAD DUP2 LT PUSH2 0x8F9 JUMPI PUSH0 DUP1 REVERT JUMPDEST SWAP1 PUSH0 MSTORE PUSH1 0x20 PUSH0 KECCAK256 SWAP1 PUSH1 0x4 MUL ADD PUSH0 SWAP2 POP SWAP1 POP DUP1 PUSH0 ADD DUP1 SLOAD PUSH2 0x918 SWAP1 PUSH2 0x112C JUMP JUMPDEST DUP1 PUSH1 0x1F ADD PUSH1 0x20 DUP1 SWAP2 DIV MUL PUSH1 0x20 ADD PUSH1 0x40 MLOAD SWAP1 DUP2 ADD PUSH1 0x40 MSTORE DUP1 SWAP3 SWAP2 SWAP1 DUP2 DUP2 MSTORE PUSH1 0x20 ADD DUP3 DUP1 SLOAD PUSH2 0x944 SWAP1 PUSH2 0x112C JUMP JUMPDEST DUP1 ISZERO PUSH2 0x98F JUMPI DUP1 PUSH1 0x1F LT PUSH2 0x966 JUMPI PUSH2 0x100 DUP1 DUP4 SLOAD DIV MUL DUP4 MSTORE SWAP2 PUSH1 0x20 ADD SWAP2 PUSH2 0x98F JUMP JUMPDEST DUP3 ADD SWAP2 SWAP1 PUSH0 MSTORE PUSH1 0x20 PUSH0 KECCAK256 SWAP1 JUMPDEST DUP2 SLOAD DUP2 MSTORE SWAP1 PUSH1 0x1 ADD SWAP1 PUSH1 0x20 ADD DUP1 DUP4 GT PUSH2 0x972 JUMPI DUP3 SWAP1 SUB PUSH1 0x1F AND DUP3 ADD SWAP2 JUMPDEST POP POP POP POP POP SWAP1 DUP1 PUSH1 0x1 ADD DUP1 SLOAD PUSH2 0x9A4 SWAP1 PUSH2 0x112C JUMP JUMPDEST DUP1 PUSH1 0x1F ADD PUSH1 0x20 DUP1 SWAP2 DIV MUL PUSH1 0x20 ADD PUSH1 0x40 MLOAD SWAP1 DUP2 ADD PUSH1 0x40 MSTORE DUP1 SWAP3 SWAP2 SWAP1 DUP2 DUP2 MSTORE PUSH1 0x20 ADD DUP3 DUP1 SLOAD PUSH2 0x9D0 SWAP1 PUSH2 0x112C JUMP JUMPDEST DUP1 ISZERO PUSH2 0xA1B JUMPI DUP1 PUSH1 0x1F LT PUSH2 0x9F2 JUMPI PUSH2 0x100 DUP1 DUP4 SLOAD DIV MUL DUP4 MSTORE SWAP2 PUSH1 0x20 ADD SWAP2 PUSH2 0xA1B JUMP JUMPDEST DUP3 ADD SWAP2 SWAP1 PUSH0 MSTORE PUSH1 0x20 PUSH0 KECCAK256 SWAP1 JUMPDEST DUP2 SLOAD DUP2 MSTORE SWAP1 PUSH1 0x1 ADD SWAP1 PUSH1 0x20 ADD DUP1 DUP4 GT PUSH2 0x9FE JUMPI DUP3 SWAP1 SUB PUSH1 0x1F AND DUP3 ADD SWAP2 JUMPDEST POP POP POP POP POP SWAP1 DUP1 PUSH1 0x2 ADD SLOAD SWAP1 DUP1 PUSH1 0x3 ADD SLOAD SWAP1 POP DUP5 JUMP JUMPDEST PUSH1 0x3 PUSH1 0x20 MSTORE DUP1 PUSH0 MSTORE PUSH1 0x40 PUSH0 KECCAK256 PUSH0 SWAP2 POP SWAP1 POP SLOAD DUP2 JUMP JUMPDEST PUSH2 0xA4E PUSH2 0x88F JUMP JUMPDEST PUSH2 0xA56 JUMPI PUSH0 PUSH0 REVERT JUMPDEST PUSH2 0xA5F DUP2 PUSH2 0xA62 JUMP JUMPDEST POP JUMP JUMPDEST PUSH0 PUSH20 0xFFFFFFFFFFFFFFFFFFFFFFFFFFFFFFFFFFFFFFFF AND DUP2 PUSH20 0xFFFFFFFFFFFFFFFFFFFFFFFFFFFFFFFFFFFFFFFF AND SUB PUSH2 0xA99 JUMPI PUSH0 PUSH0 REVERT JUMPDEST DUP1 PUSH20 0xFFFFFFFFFFFFFFFFFFFFFFFFFFFFFFFFFFFFFFFF AND PUSH0 PUSH0 SWAP1 SLOAD SWAP1 PUSH2 0x100 EXP SWAP1 DIV PUSH20 0xFFFFFFFFFFFFFFFFFFFFFFFFFFFFFFFFFFFFFFFF AND PUSH20 0xFFFFFFFFFFFFFFFFFFFFFFFFFFFFFFFFFFFFFFFF AND PUSH32 0x8BE0079C531659141344CD1FD0A4F28419497F9722A3DAAFE3B4186F6B6457E0 PUSH1 0x40 MLOAD PUSH1 0x40 MLOAD DUP1 SWAP2 SUB SWAP1 LOG3 DUP1 PUSH0 PUSH0 PUSH2 0x100 EXP DUP2 SLOAD DUP2 PUSH20 0xFFFFFFFFFFFFFFFFFFFFFFFFFFFFFFFFFFFFFFFF MUL NOT AND SWAP1 DUP4 PUSH20 0xFFFFFFFFFFFFFFFFFFFFFFFFFFFFFFFFFFFFFFFF AND MUL OR SWAP1 SSTORE POP POP JUMP JUMPDEST PUSH0 PUSH1 0x40 MLOAD SWAP1 POP SWAP1 JUMP JUMPDEST PUSH0 PUSH0 REVERT JUMPDEST PUSH0 PUSH0 REVERT JUMPDEST PUSH0 PUSH0 REVERT JUMPDEST PUSH0 PUSH0 REVERT JUMPDEST PUSH0 PUSH1 0x1F NOT PUSH1 0x1F DUP4 ADD AND SWAP1 POP SWAP2 SWAP1 POP JUMP JUMPDEST PUSH32 0x4E487B7100000000000000000000000000000000000000000000000000000000 PUSH0 MSTORE PUSH1 0x41 PUSH1 0x4 MSTORE PUSH1 0x24 PUSH0 REVERT JUMPDEST PUSH2 0xBB4 DUP3 PUSH2 0xB6E JUMP JUMPDEST DUP2 ADD DUP2 DUP2 LT PUSH8 0xFFFFFFFFFFFFFFFF DUP3 GT OR ISZERO PUSH2 0xBD3 JUMPI PUSH2 0xBD2 PUSH2 0xB7E JUMP JUMPDEST JUMPDEST DUP1 PUSH1 0x40 MSTORE POP POP POP JUMP JUMPDEST PUSH0 PUSH2 0xBE5 PUSH2 0xB55 JUMP JUMPDEST SWAP1 POP PUSH2 0xBF1 DUP3 DUP3 PUSH2 0xBAB JUMP JUMPDEST SWAP2 SWAP1 POP JUMP JUMPDEST PUSH0 PUSH8 0xFFFFFFFFFFFFFFFF DUP3 GT ISZERO PUSH2 0xC10 JUMPI PUSH2 0xC0F PUSH2 0xB7E JUMP JUMPDEST JUMPDEST PUSH2 0xC19 DUP3 PUSH2 0xB6E JUMP JUMPDEST SWAP1 POP PUSH1 0x20 DUP2 ADD SWAP1 POP SWAP2 SWAP1 POP JUMP JUMPDEST DUP3 DUP2 DUP4 CALLDATACOPY PUSH0 DUP4 DUP4 ADD MSTORE POP POP POP JUMP JUMPDEST PUSH0 PUSH2 0xC46 PUSH2 0xC41 DUP5 PUSH2 0xBF6 JUMP JUMPDEST PUSH2 0xBDC JUMP JUMPDEST SWAP1 POP DUP3 DUP2 MSTORE PUSH1 0x20 DUP2 ADD DUP5 DUP5 DUP5 ADD GT ISZERO PUSH2 0xC62 JUMPI PUSH2 0xC61 PUSH2 0xB6A JUMP JUMPDEST JUMPDEST PUSH2 0xC6D DUP5 DUP3 DUP6 PUSH2 0xC26 JUMP JUMPDEST POP SWAP4 SWAP3 POP POP POP JUMP JUMPDEST PUSH0 DUP3 PUSH1 0x1F DUP4 ADD SLT PUSH2 0xC89 JUMPI PUSH2 0xC88 PUSH2 0xB66 JUMP JUMPDEST JUMPDEST DUP2 CALLDATALOAD PUSH2 0xC99 DUP5 DUP3 PUSH1 0x20 DUP7 ADD PUSH2 0xC34 JUMP JUMPDEST SWAP2 POP POP SWAP3 SWAP2 POP POP JUMP JUMPDEST PUSH0 DUP2 SWAP1 POP SWAP2 SWAP1 POP JUMP JUMPDEST PUSH2 0xCB4 DUP2 PUSH2 0xCA2 JUMP JUMPDEST DUP2 EQ PUSH2 0xCBE JUMPI PUSH0 PUSH0 REVERT JUMPDEST POP JUMP JUMPDEST PUSH0 DUP2 CALLDATALOAD SWAP1 POP PUSH2 0xCCF DUP2 PUSH2 0xCAB JUMP JUMPDEST SWAP3 SWAP2 POP POP JUMP JUMPDEST PUSH0 PUSH0 PUSH0 PUSH1 0x60 DUP5 DUP7 SUB SLT ISZERO PUSH2 0xCEC JUMPI PUSH2 0xCEB PUSH2 0xB5E JUMP JUMPDEST JUMPDEST PUSH0 DUP5 ADD CALLDATALOAD PUSH8 0xFFFFFFFFFFFFFFFF DUP2 GT ISZERO PUSH2 0xD09 JUMPI PUSH2 0xD08 PUSH2 0xB62 JUMP JUMPDEST JUMPDEST PUSH2 0xD15 DUP7 DUP3 DUP8 ADD PUSH2 0xC75 JUMP JUMPDEST SWAP4 POP POP PUSH1 0x20 DUP5 ADD CALLDATALOAD PUSH8 0xFFFFFFFFFFFFFFFF DUP2 GT ISZERO PUSH2 0xD36 JUMPI PUSH2 0xD35 PUSH2 0xB62 JUMP JUMPDEST JUMPDEST PUSH2 0xD42 DUP7 DUP3 DUP8 ADD PUSH2 0xC75 JUMP JUMPDEST SWAP3 POP POP PUSH1 0x40 PUSH2 0xD53 DUP7 DUP3 DUP8 ADD PUSH2 0xCC1 JUMP JUMPDEST SWAP2 POP POP SWAP3 POP SWAP3 POP SWAP3 JUMP JUMPDEST PUSH2 0xD66 DUP2 PUSH2 0xCA2 JUMP JUMPDEST DUP3 MSTORE POP POP JUMP JUMPDEST PUSH0 PUSH1 0x20 DUP3 ADD SWAP1 POP PUSH2 0xD7F PUSH0 DUP4 ADD DUP5 PUSH2 0xD5D JUMP JUMPDEST SWAP3 SWAP2 POP POP JUMP JUMPDEST PUSH0 PUSH20 0xFFFFFFFFFFFFFFFFFFFFFFFFFFFFFFFFFFFFFFFF DUP3 AND SWAP1 POP SWAP2 SWAP1 POP JUMP JUMPDEST PUSH0 PUSH2 0xDAE DUP3 PUSH2 0xD85 JUMP JUMPDEST SWAP1 POP SWAP2 SWAP1 POP JUMP JUMPDEST PUSH2 0xDBE DUP2 PUSH2 0xDA4 JUMP JUMPDEST DUP3 MSTORE POP POP JUMP JUMPDEST PUSH0 PUSH1 0x20 DUP3 ADD SWAP1 POP PUSH2 0xDD7 PUSH0 DUP4 ADD DUP5 PUSH2 0xDB5 JUMP JUMPDEST SWAP3 SWAP2 POP POP JUMP JUMPDEST PUSH0 DUP2 ISZERO ISZERO SWAP1 POP SWAP2 SWAP1 POP JUMP JUMPDEST PUSH2 0xDF1 DUP2 PUSH2 0xDDD JUMP JUMPDEST DUP3 MSTORE POP POP JUMP JUMPDEST PUSH0 PUSH1 0x20 DUP3 ADD SWAP1 POP PUSH2 0xE0A PUSH0 DUP4 ADD DUP5 PUSH2 0xDE8 JUMP JUMPDEST SWAP3 SWAP2 POP POP JUMP JUMPDEST PUSH0 PUSH1 0x20 DUP3 DUP5 SUB SLT ISZERO PUSH2 0xE25 JUMPI PUSH2 0xE24 PUSH2 0xB5E JUMP JUMPDEST JUMPDEST PUSH0 PUSH2 0xE32 DUP5 DUP3 DUP6 ADD PUSH2 0xCC1 JUMP JUMPDEST SWAP2 POP POP SWAP3 SWAP2 POP POP JUMP JUMPDEST PUSH0 DUP2 MLOAD SWAP1 POP SWAP2 SWAP1 POP JUMP JUMPDEST PUSH0 DUP3 DUP3 MSTORE PUSH1 0x20 DUP3 ADD SWAP1 POP SWAP3 SWAP2 POP POP JUMP JUMPDEST DUP3 DUP2 DUP4 MCOPY PUSH0 DUP4 DUP4 ADD MSTORE POP POP POP JUMP JUMPDEST PUSH0 PUSH2 0xE6D DUP3 PUSH2 0xE3B JUMP JUMPDEST PUSH2 0xE77 DUP2 DUP6 PUSH2 0xE45 JUMP JUMPDEST SWAP4 POP PUSH2 0xE87 DUP2 DUP6 PUSH1 0x20 DUP7 ADD PUSH2 0xE55 JUMP JUMPDEST PUSH2 0xE90 DUP2 PUSH2 0xB6E JUMP JUMPDEST DUP5 ADD SWAP2 POP POP SWAP3 SWAP2 POP POP JUMP JUMPDEST PUSH0 PUSH1 0x80 DUP3 ADD SWAP1 POP DUP2 DUP2 SUB PUSH0 DUP4 ADD MSTORE PUSH2 0xEB3 DUP2 DUP8 PUSH2 0xE63 JUMP JUMPDEST SWAP1 POP DUP2 DUP2 SUB PUSH1 0x20 DUP4 ADD MSTORE PUSH2 0xEC7 DUP2 DUP7 PUSH2 0xE63 JUMP JUMPDEST SWAP1 POP PUSH2 0xED6 PUSH1 0x40 DUP4 ADD DUP6 PUSH2 0xD5D JUMP JUMPDEST PUSH2 0xEE3 PUSH1 0x60 DUP4 ADD DUP5 PUSH2 0xD5D JUMP JUMPDEST SWAP6 SWAP5 POP POP POP POP POP JUMP JUMPDEST PUSH2 0xEF5 DUP2 PUSH2 0xDA4 JUMP JUMPDEST DUP2 EQ PUSH2 0xEFF JUMPI PUSH0 PUSH0 REVERT JUMPDEST POP JUMP JUMPDEST PUSH0 DUP2 CALLDATALOAD SWAP1 POP PUSH2 0xF10 DUP2 PUSH2 0xEEC JUMP JUMPDEST SWAP3 SWAP2 POP POP JUMP JUMPDEST PUSH0 PUSH1 0x20 DUP3 DUP5 SUB SLT ISZERO PUSH2 0xF2B JUMPI PUSH2 0xF2A PUSH2 0xB5E JUMP JUMPDEST JUMPDEST PUSH0 PUSH2 0xF38 DUP5 DUP3 DUP6 ADD PUSH2 0xF02 JUMP JUMPDEST SWAP2 POP POP SWAP3 SWAP2 POP POP JUMP JUMPDEST PUSH32 0x796F75206861766520746F2070617920657861637420616D6F756E74206F6620 PUSH0 DUP3 ADD MSTORE PUSH32 0x6574680000000000000000000000000000000000000000000000000000000000 PUSH1 0x20 DUP3 ADD MSTORE POP JUMP JUMPDEST PUSH0 PUSH2 0xF9B PUSH1 0x23 DUP4 PUSH2 0xE45 JUMP JUMPDEST SWAP2 POP PUSH2 0xFA6 DUP3 PUSH2 0xF41 JUMP JUMPDEST PUSH1 0x40 DUP3 ADD SWAP1 POP SWAP2 SWAP1 POP JUMP JUMPDEST PUSH0 PUSH1 0x20 DUP3 ADD SWAP1 POP DUP2 DUP2 SUB PUSH0 DUP4 ADD MSTORE PUSH2 0xFC8 DUP2 PUSH2 0xF8F JUMP JUMPDEST SWAP1 POP SWAP2 SWAP1 POP JUMP JUMPDEST PUSH32 0x73657473206172652066756C6C00000000000000000000000000000000000000 PUSH0 DUP3 ADD MSTORE POP JUMP JUMPDEST PUSH0 PUSH2 0x1003 PUSH1 0xD DUP4 PUSH2 0xE45 JUMP JUMPDEST SWAP2 POP PUSH2 0x100E DUP3 PUSH2 0xFCF JUMP JUMPDEST PUSH1 0x20 DUP3 ADD SWAP1 POP SWAP2 SWAP1 POP JUMP JUMPDEST PUSH0 PUSH1 0x20 DUP3 ADD SWAP1 POP DUP2 DUP2 SUB PUSH0 DUP4 ADD MSTORE PUSH2 0x1030 DUP2 PUSH2 0xFF7 JUMP JUMPDEST SWAP1 POP SWAP2 SWAP1 POP JUMP JUMPDEST PUSH32 0x796F7520616C7265616479206F776E2061207469636B65740000000000000000 PUSH0 DUP3 ADD MSTORE POP JUMP JUMPDEST PUSH0 PUSH2 0x106B PUSH1 0x18 DUP4 PUSH2 0xE45 JUMP JUMPDEST SWAP2 POP PUSH2 0x1076 DUP3 PUSH2 0x1037 JUMP JUMPDEST PUSH1 0x20 DUP3 ADD SWAP1 POP SWAP2 SWAP1 POP JUMP JUMPDEST PUSH0 PUSH1 0x20 DUP3 ADD SWAP1 POP DUP2 DUP2 SUB PUSH0 DUP4 ADD MSTORE PUSH2 0x1098 DUP2 PUSH2 0x105F JUMP JUMPDEST SWAP1 POP SWAP2 SWAP1 POP JUMP JUMPDEST PUSH32 0x4E487B7100000000000000000000000000000000000000000000000000000000 PUSH0 MSTORE PUSH1 0x11 PUSH1 0x4 MSTORE PUSH1 0x24 PUSH0 REVERT JUMPDEST PUSH0 PUSH2 0x10D6 DUP3 PUSH2 0xCA2 JUMP JUMPDEST SWAP2 POP PUSH2 0x10E1 DUP4 PUSH2 0xCA2 JUMP JUMPDEST SWAP3 POP DUP3 DUP3 SUB SWAP1 POP DUP2 DUP2 GT ISZERO PUSH2 0x10F9 JUMPI PUSH2 0x10F8 PUSH2 0x109F JUMP JUMPDEST JUMPDEST SWAP3 SWAP2 POP POP JUMP JUMPDEST PUSH32 0x4E487B7100000000000000000000000000000000000000000000000000000000 PUSH0 MSTORE PUSH1 0x22 PUSH1 0x4 MSTORE PUSH1 0x24 PUSH0 REVERT JUMPDEST PUSH0 PUSH1 0x2 DUP3 DIV SWAP1 POP PUSH1 0x1 DUP3 AND DUP1 PUSH2 0x1143 JUMPI PUSH1 0x7F DUP3 AND SWAP2 POP JUMPDEST PUSH1 0x20 DUP3 LT DUP2 SUB PUSH2 0x1156 JUMPI PUSH2 0x1155 PUSH2 0x10FF JUMP JUMPDEST JUMPDEST POP SWAP2 SWAP1 POP JUMP JUMPDEST PUSH0 DUP2 SWAP1 POP DUP2 PUSH0 MSTORE PUSH1 0x20 PUSH0 KECCAK256 SWAP1 POP SWAP2 SWAP1 POP JUMP JUMPDEST PUSH0 PUSH1 0x20 PUSH1 0x1F DUP4 ADD DIV SWAP1 POP SWAP2 SWAP1 POP JUMP JUMPDEST PUSH0 DUP3 DUP3 SHL SWAP1 POP SWAP3 SWAP2 POP POP JUMP JUMPDEST PUSH0 PUSH1 0x8 DUP4 MUL PUSH2 0x11B8 PUSH32 0xFFFFFFFFFFFFFFFFFFFFFFFFFFFFFFFFFFFFFFFFFFFFFFFFFFFFFFFFFFFFFFFF DUP3 PUSH2 0x117D JUMP JUMPDEST PUSH2 0x11C2 DUP7 DUP4 PUSH2 0x117D JUMP JUMPDEST SWAP6 POP DUP1 NOT DUP5 AND SWAP4 POP DUP1 DUP7 AND DUP5 OR SWAP3 POP POP POP SWAP4 SWAP3 POP POP POP JUMP JUMPDEST PUSH0 DUP2 SWAP1 POP SWAP2 SWAP1 POP JUMP JUMPDEST PUSH0 PUSH2 0x11FD PUSH2 0x11F8 PUSH2 0x11F3 DUP5 PUSH2 0xCA2 JUMP JUMPDEST PUSH2 0x11DA JUMP JUMPDEST PUSH2 0xCA2 JUMP JUMPDEST SWAP1 POP SWAP2 SWAP1 POP JUMP JUMPDEST PUSH0 DUP2 SWAP1 POP SWAP2 SWAP1 POP JUMP JUMPDEST PUSH2 0x1216 DUP4 PUSH2 0x11E3 JUMP JUMPDEST PUSH2 0x122A PUSH2 0x1222 DUP3 PUSH2 0x1204 JUMP JUMPDEST DUP5 DUP5 SLOAD PUSH2 0x1189 JUMP JUMPDEST DUP3 SSTORE POP POP POP POP JUMP JUMPDEST PUSH0 PUSH0 SWAP1 POP SWAP1 JUMP JUMPDEST PUSH2 0x1241 PUSH2 0x1232 JUMP JUMPDEST PUSH2 0x124C DUP2 DUP5 DUP5 PUSH2 0x120D JUMP JUMPDEST POP POP POP JUMP JUMPDEST JUMPDEST DUP2 DUP2 LT ISZERO PUSH2 0x126F JUMPI PUSH2 0x1264 PUSH0 DUP3 PUSH2 0x1239 JUMP JUMPDEST PUSH1 0x1 DUP2 ADD SWAP1 POP PUSH2 0x1252 JUMP JUMPDEST POP POP JUMP JUMPDEST PUSH1 0x1F DUP3 GT ISZERO PUSH2 0x12B4 JUMPI PUSH2 0x1285 DUP2 PUSH2 0x115C JUMP JUMPDEST PUSH2 0x128E DUP5 PUSH2 0x116E JUMP JUMPDEST DUP2 ADD PUSH1 0x20 DUP6 LT ISZERO PUSH2 0x129D JUMPI DUP2 SWAP1 POP JUMPDEST PUSH2 0x12B1 PUSH2 0x12A9 DUP6 PUSH2 0x116E JUMP JUMPDEST DUP4 ADD DUP3 PUSH2 0x1251 JUMP JUMPDEST POP POP JUMPDEST POP POP POP JUMP JUMPDEST PUSH0 DUP3 DUP3 SHR SWAP1 POP SWAP3 SWAP2 POP POP JUMP JUMPDEST PUSH0 PUSH2 0x12D4 PUSH0 NOT DUP5 PUSH1 0x8 MUL PUSH2 0x12B9 JUMP JUMPDEST NOT DUP1 DUP4 AND SWAP2 POP POP SWAP3 SWAP2 POP POP JUMP JUMPDEST PUSH0 PUSH2 0x12EC DUP4 DUP4 PUSH2 0x12C5 JUMP JUMPDEST SWAP2 POP DUP3 PUSH1 0x2 MUL DUP3 OR SWAP1 POP SWAP3 SWAP2 POP POP JUMP JUMPDEST PUSH2 0x1305 DUP3 PUSH2 0xE3B JUMP JUMPDEST PUSH8 0xFFFFFFFFFFFFFFFF DUP2 GT ISZERO PUSH2 0x131E JUMPI PUSH2 0x131D PUSH2 0xB7E JUMP JUMPDEST JUMPDEST PUSH2 0x1328 DUP3 SLOAD PUSH2 0x112C JUMP JUMPDEST PUSH2 0x1333 DUP3 DUP3 DUP6 PUSH2 0x1273 JUMP JUMPDEST PUSH0 PUSH1 0x20 SWAP1 POP PUSH1 0x1F DUP4 GT PUSH1 0x1 DUP2 EQ PUSH2 0x1364 JUMPI PUSH0 DUP5 ISZERO PUSH2 0x1352 JUMPI DUP3 DUP8 ADD MLOAD SWAP1 POP JUMPDEST PUSH2 0x135C DUP6 DUP3 PUSH2 0x12E1 JUMP JUMPDEST DUP7 SSTORE POP PUSH2 0x13C3 JUMP JUMPDEST PUSH1 0x1F NOT DUP5 AND PUSH2 0x1372 DUP7 PUSH2 0x115C JUMP JUMPDEST PUSH0 JUMPDEST DUP3 DUP2 LT ISZERO PUSH2 0x1399 JUMPI DUP5 DUP10 ADD MLOAD DUP3 SSTORE PUSH1 0x1 DUP3 ADD SWAP2 POP PUSH1 0x20 DUP6 ADD SWAP5 POP PUSH1 0x20 DUP2 ADD SWAP1 POP PUSH2 0x1374 JUMP JUMPDEST DUP7 DUP4 LT ISZERO PUSH2 0x13B6 JUMPI DUP5 DUP10 ADD MLOAD PUSH2 0x13B2 PUSH1 0x1F DUP10 AND DUP3 PUSH2 0x12C5 JUMP JUMPDEST DUP4 SSTORE POP JUMPDEST PUSH1 0x1 PUSH1 0x2 DUP9 MUL ADD DUP9 SSTORE POP POP POP JUMPDEST POP POP POP POP POP POP JUMP JUMPDEST PUSH0 PUSH1 0x40 DUP3 ADD SWAP1 POP PUSH2 0x13DE PUSH0 DUP4 ADD DUP6 PUSH2 0xD5D JUMP JUMPDEST PUSH2 0x13EB PUSH1 0x20 DUP4 ADD DUP5 PUSH2 0xD5D JUMP JUMPDEST SWAP4 SWAP3 POP POP POP JUMP JUMPDEST PUSH0 DUP2 SWAP1 POP SWAP3 SWAP2 POP POP JUMP JUMPDEST POP JUMP JUMPDEST PUSH0 PUSH2 0x140A PUSH0 DUP4 PUSH2 0x13F2 JUMP JUMPDEST SWAP2 POP PUSH2 0x1415 DUP3 PUSH2 0x13FC JUMP JUMPDEST PUSH0 DUP3 ADD SWAP1 POP SWAP2 SWAP1 POP JUMP JUMPDEST PUSH0 PUSH2 0x1429 DUP3 PUSH2 0x13FF JUMP JUMPDEST SWAP2 POP DUP2 SWAP1 POP SWAP2 SWAP1 POP JUMP JUMPDEST PUSH32 0x6572726F723A6661696C20746F2073656E642065746865720000000000000000 PUSH0 DUP3 ADD MSTORE POP JUMP JUMPDEST PUSH0 PUSH2 0x1467 PUSH1 0x18 DUP4 PUSH2 0xE45 JUMP JUMPDEST SWAP2 POP PUSH2 0x1472 DUP3 PUSH2 0x1433 JUMP JUMPDEST PUSH1 0x20 DUP3 ADD SWAP1 POP SWAP2 SWAP1 POP JUMP JUMPDEST PUSH0 PUSH1 0x20 DUP3 ADD SWAP1 POP DUP2 DUP2 SUB PUSH0 DUP4 ADD MSTORE PUSH2 0x1494 DUP2 PUSH2 0x145B JUMP JUMPDEST SWAP1 POP SWAP2 SWAP1 POP JUMP JUMPDEST PUSH32 0x796F7520646F6E74206F776E205469636B657400000000000000000000000000 PUSH0 DUP3 ADD MSTORE POP JUMP JUMPDEST PUSH0 PUSH2 0x14CF PUSH1 0x13 DUP4 PUSH2 0xE45 JUMP JUMPDEST SWAP2 POP PUSH2 0x14DA DUP3 PUSH2 0x149B JUMP JUMPDEST PUSH1 0x20 DUP3 ADD SWAP1 POP SWAP2 SWAP1 POP JUMP JUMPDEST PUSH0 PUSH1 0x20 DUP3 ADD SWAP1 POP DUP2 DUP2 SUB PUSH0 DUP4 ADD MSTORE PUSH2 0x14FC DUP2 PUSH2 0x14C3 JUMP JUMPDEST SWAP1 POP SWAP2 SWAP1 POP JUMP JUMPDEST PUSH0 PUSH2 0x150D DUP3 PUSH2 0xCA2 JUMP JUMPDEST SWAP2 POP PUSH2 0x1518 DUP4 PUSH2 0xCA2 JUMP JUMPDEST SWAP3 POP DUP3 DUP3 ADD SWAP1 POP DUP1 DUP3 GT ISZERO PUSH2 0x1530 JUMPI PUSH2 0x152F PUSH2 0x109F JUMP JUMPDEST JUMPDEST SWAP3 SWAP2 POP POP JUMP JUMPDEST PUSH32 0x6572726F723A6973737565207769746820726566756E64000000000000000000 PUSH0 DUP3 ADD MSTORE POP JUMP JUMPDEST PUSH0 PUSH2 0x156A PUSH1 0x17 DUP4 PUSH2 0xE45 JUMP JUMPDEST SWAP2 POP PUSH2 0x1575 DUP3 PUSH2 0x1536 JUMP JUMPDEST PUSH1 0x20 DUP3 ADD SWAP1 POP SWAP2 SWAP1 POP JUMP JUMPDEST PUSH0 PUSH1 0x20 DUP3 ADD SWAP1 POP DUP2 DUP2 SUB PUSH0 DUP4 ADD MSTORE PUSH2 0x1597 DUP2 PUSH2 0x155E JUMP JUMPDEST SWAP1 POP SWAP2 SWAP1 POP JUMP INVALID LOG2 PUSH5 0x6970667358 0x22 SLT KECCAK256 SLT DUP14 SAR 0x23 0xE8 CALLER BLOBHASH TSTORE PUSH2 0xC7C1 0x27 BYTE 0xA9 EXTCODECOPY 0xA7 PUSH2 0x6E26 0xE2 0x2C DUP12 COINBASE 0xD3 PUSH21 0x2683EFCCFB7B0164736F6C634300081E0033000000 "
				},
				"gasEstimates": {
					"creation": {
						"codeDepositCost": "1117600",
						"executionCost": "73312",
						"totalCost": "1190912"
					},
					"external": {
						"Withdraw()": "infinite",
						"details(uint256)": "infinite",
						"eth()": "2514",
						"isOwner()": "2511",
						"owner()": "2514",
						"payforticket(string,string,uint256)": "infinite",
						"refund()": "infinite",
						"renounceOwnership()": "30354",
						"seats()": "2469",
						"transferOwnership(address)": "30768",
						"usertoTicket(address)": "2890"
					}
				},
				"methodIdentifiers": {
					"Withdraw()": "57ea89b6",
					"details(uint256)": "a005ec7a",
					"eth()": "8c7c9e0c",
					"isOwner()": "8f32d59b",
					"owner()": "8da5cb5b",
					"payforticket(string,string,uint256)": "352371fe",
					"refund()": "590e1ae3",
					"renounceOwnership()": "715018a6",
					"seats()": "9c5655d6",
					"transferOwnership(address)": "f2fde38b",
					"usertoTicket(address)": "acae79bb"
				}
			},
			"storageLayout": {
				"storage": [
					{
						"astId": 221,
						"contract": "contracts/new.sol:wallet",
						"label": "_owner",
						"offset": 0,
						"slot": "0",
						"type": "t_address"
					},
					{
						"astId": 7,
						"contract": "contracts/new.sol:wallet",
						"label": "eth",
						"offset": 0,
						"slot": "1",
						"type": "t_uint256"
					},
					{
						"astId": 10,
						"contract": "contracts/new.sol:wallet",
						"label": "seats",
						"offset": 0,
						"slot": "2",
						"type": "t_uint256"
					},
					{
						"astId": 14,
						"contract": "contracts/new.sol:wallet",
						"label": "usertoTicket",
						"offset": 0,
						"slot": "3",
						"type": "t_mapping(t_address,t_uint256)"
					},
					{
						"astId": 49,
						"contract": "contracts/new.sol:wallet",
						"label": "details",
						"offset": 0,
						"slot": "4",
						"type": "t_array(t_struct(Ticket)45_storage)dyn_storage"
					}
				],
				"types": {
					"t_address": {
						"encoding": "inplace",
						"label": "address",
						"numberOfBytes": "20"
					},
					"t_array(t_struct(Ticket)45_storage)dyn_storage": {
						"base": "t_struct(Ticket)45_storage",
						"encoding": "dynamic_array",
						"label": "struct wallet.Ticket[]",
						"numberOfBytes": "32"
					},
					"t_mapping(t_address,t_uint256)": {
						"encoding": "mapping",
						"key": "t_address",
						"label": "mapping(address => uint256)",
						"numberOfBytes": "32",
						"value": "t_uint256"
					},
					"t_string_storage": {
						"encoding": "bytes",
						"label": "string",
						"numberOfBytes": "32"
					},
					"t_struct(Ticket)45_storage": {
						"encoding": "inplace",
						"label": "struct wallet.Ticket",
						"members": [
							{
								"astId": 38,
								"contract": "contracts/new.sol:wallet",
								"label": "name",
								"offset": 0,
								"slot": "0",
								"type": "t_string_storage"
							},
							{
								"astId": 40,
								"contract": "contracts/new.sol:wallet",
								"label": "email",
								"offset": 0,
								"slot": "1",
								"type": "t_string_storage"
							},
							{
								"astId": 42,
								"contract": "contracts/new.sol:wallet",
								"label": "phoneNo",
								"offset": 0,
								"slot": "2",
								"type": "t_uint256"
							},
							{
								"astId": 44,
								"contract": "contracts/new.sol:wallet",
								"label": "ticketNo",
								"offset": 0,
								"slot": "3",
								"type": "t_uint256"
							}
						],
						"numberOfBytes": "128"
					},
					"t_uint256": {
						"encoding": "inplace",
						"label": "uint256",
						"numberOfBytes": "32"
					}
				}
			},
			"userdoc": {
				"kind": "user",
				"methods": {
					"renounceOwnership()": {
						"notice": "Renouncing to ownership will leave the contract without an owner. It will not be possible to call the functions with the `onlyOwner` modifier anymore."
					}
				},
				"version": 1
			}
		}
	}
}