{
	"contracts/new.sol": {
		"wallet": {
			"abi": [
				{
					"inputs": [],
					"stateMutability": "nonpayable",
					"type": "constructor"
				},
				{
					"anonymous": false,
					"inputs": [
						{
							"indexed": true,
							"internalType": "address",
							"name": "previousOwner",
							"type": "address"
						},
						{
							"indexed": true,
							"internalType": "address",
							"name": "newOwner",
							"type": "address"
						}
					],
					"name": "OwnershipTransferred",
					"type": "event"
				},
				{
					"anonymous": false,
					"inputs": [
						{
							"indexed": true,
							"internalType": "address",
							"name": "buyer",
							"type": "address"
						},
						{
							"indexed": false,
							"internalType": "uint256",
							"name": "ticketno",
							"type": "uint256"
						},
						{
							"indexed": false,
							"internalType": "uint256",
							"name": "amount",
							"type": "uint256"
						}
					],
					"name": "PurchasedTicket",
					"type": "event"
				},
				{
					"anonymous": false,
					"inputs": [
						{
							"indexed": true,
							"internalType": "address",
							"name": "user",
							"type": "address"
						},
						{
							"indexed": false,
							"internalType": "uint256",
							"name": "ticketno",
							"type": "uint256"
						},
						{
							"indexed": false,
							"internalType": "uint256",
							"name": "amount",
							"type": "uint256"
						}
					],
					"name": "Refund",
					"type": "event"
				},
				{
					"anonymous": false,
					"inputs": [
						{
							"indexed": true,
							"internalType": "address",
							"name": "withdraweth",
							"type": "address"
						},
						{
							"indexed": false,
							"internalType": "uint256",
							"name": "amount",
							"type": "uint256"
						}
					],
					"name": "Withdraw",
					"type": "event"
				},
				{
					"anonymous": false,
					"inputs": [
						{
							"indexed": true,
							"internalType": "address",
							"name": "user",
							"type": "address"
						},
						{
							"indexed": false,
							"internalType": "uint256",
							"name": "ticketno",
							"type": "uint256"
						}
					],
					"name": "ticketinfo",
					"type": "event"
				},
				{
					"inputs": [
						{
							"internalType": "string",
							"name": "_name",
							"type": "string"
						},
						{
							"internalType": "string",
							"name": "_email",
							"type": "string"
						},
						{
							"internalType": "uint256",
							"name": "_phoneNo",
							"type": "uint256"
						}
					],
					"name": "Buyvipseats",
					"outputs": [],
					"stateMutability": "payable",
					"type": "function"
				},
				{
					"inputs": [],
					"name": "checkticket",
					"outputs": [
						{
							"components": [
								{
									"internalType": "address",
									"name": "buyer",
									"type": "address"
								},
								{
									"internalType": "string",
									"name": "name",
									"type": "string"
								},
								{
									"internalType": "string",
									"name": "email",
									"type": "string"
								},
								{
									"internalType": "uint256",
									"name": "phoneNo",
									"type": "uint256"
								},
								{
									"internalType": "uint256",
									"name": "ticketNo",
									"type": "uint256"
								},
								{
									"internalType": "bool",
									"name": "refunded",
									"type": "bool"
								}
							],
							"internalType": "struct wallet.Ticket",
							"name": "t",
							"type": "tuple"
						}
					],
					"stateMutability": "view",
					"type": "function"
				},
				{
					"inputs": [],
					"name": "checkticketvip",
					"outputs": [
						{
							"components": [
								{
									"internalType": "address",
									"name": "buyer",
									"type": "address"
								},
								{
									"internalType": "string",
									"name": "name",
									"type": "string"
								},
								{
									"internalType": "string",
									"name": "email",
									"type": "string"
								},
								{
									"internalType": "uint256",
									"name": "phoneNo",
									"type": "uint256"
								},
								{
									"internalType": "uint256",
									"name": "ticketNo",
									"type": "uint256"
								},
								{
									"internalType": "bool",
									"name": "refunded",
									"type": "bool"
								}
							],
							"internalType": "struct wallet.Ticket",
							"name": "t",
							"type": "tuple"
						}
					],
					"stateMutability": "view",
					"type": "function"
				},
				{
					"inputs": [
						{
							"internalType": "uint256",
							"name": "",
							"type": "uint256"
						}
					],
					"name": "details",
					"outputs": [
						{
							"internalType": "address",
							"name": "buyer",
							"type": "address"
						},
						{
							"internalType": "string",
							"name": "name",
							"type": "string"
						},
						{
							"internalType": "string",
							"name": "email",
							"type": "string"
						},
						{
							"internalType": "uint256",
							"name": "phoneNo",
							"type": "uint256"
						},
						{
							"internalType": "uint256",
							"name": "ticketNo",
							"type": "uint256"
						},
						{
							"internalType": "bool",
							"name": "refunded",
							"type": "bool"
						}
					],
					"stateMutability": "view",
					"type": "function"
				},
				{
					"inputs": [],
					"name": "eth",
					"outputs": [
						{
							"internalType": "uint256",
							"name": "",
							"type": "uint256"
						}
					],
					"stateMutability": "view",
					"type": "function"
				},
				{
					"inputs": [],
					"name": "ethforvip",
					"outputs": [
						{
							"internalType": "uint256",
							"name": "",
							"type": "uint256"
						}
					],
					"stateMutability": "view",
					"type": "function"
				},
				{
					"inputs": [],
					"name": "eventDate",
					"outputs": [
						{
							"internalType": "uint256",
							"name": "",
							"type": "uint256"
						}
					],
					"stateMutability": "view",
					"type": "function"
				},
				{
					"inputs": [],
					"name": "isOwner",
					"outputs": [
						{
							"internalType": "bool",
							"name": "",
							"type": "bool"
						}
					],
					"stateMutability": "view",
					"type": "function"
				},
				{
					"inputs": [],
					"name": "owner",
					"outputs": [
						{
							"internalType": "address",
							"name": "",
							"type": "address"
						}
					],
					"stateMutability": "view",
					"type": "function"
				},
				{
					"inputs": [
						{
							"internalType": "string",
							"name": "_name",
							"type": "string"
						},
						{
							"internalType": "string",
							"name": "_email",
							"type": "string"
						},
						{
							"internalType": "uint256",
							"name": "_phoneNo",
							"type": "uint256"
						}
					],
					"name": "payforticket",
					"outputs": [],
					"stateMutability": "payable",
					"type": "function"
				},
				{
					"inputs": [],
					"name": "refund",
					"outputs": [],
					"stateMutability": "nonpayable",
					"type": "function"
				},
				{
					"inputs": [],
					"name": "refundforvip",
					"outputs": [],
					"stateMutability": "nonpayable",
					"type": "function"
				},
				{
					"inputs": [],
					"name": "renounceOwnership",
					"outputs": [],
					"stateMutability": "nonpayable",
					"type": "function"
				},
				{
					"inputs": [],
					"name": "seats",
					"outputs": [
						{
							"internalType": "uint256",
							"name": "",
							"type": "uint256"
						}
					],
					"stateMutability": "view",
					"type": "function"
				},
				{
					"inputs": [
						{
							"internalType": "uint256",
							"name": "_eventdate",
							"type": "uint256"
						}
					],
					"name": "seteventdate",
					"outputs": [],
					"stateMutability": "nonpayable",
					"type": "function"
				},
				{
					"inputs": [
						{
							"internalType": "uint256",
							"name": "_ticket",
							"type": "uint256"
						},
						{
							"internalType": "uint256",
							"name": "_vipticket",
							"type": "uint256"
						}
					],
					"name": "setticketprize",
					"outputs": [],
					"stateMutability": "nonpayable",
					"type": "function"
				},
				{
					"inputs": [],
					"name": "soldticket",
					"outputs": [
						{
							"internalType": "uint256",
							"name": "",
							"type": "uint256"
						}
					],
					"stateMutability": "view",
					"type": "function"
				},
				{
					"inputs": [],
					"name": "soldvipticket",
					"outputs": [
						{
							"internalType": "uint256",
							"name": "",
							"type": "uint256"
						}
					],
					"stateMutability": "view",
					"type": "function"
				},
				{
					"inputs": [
						{
							"internalType": "address",
							"name": "newOwner",
							"type": "address"
						}
					],
					"name": "transferOwnership",
					"outputs": [],
					"stateMutability": "nonpayable",
					"type": "function"
				},
				{
					"inputs": [
						{
							"internalType": "address",
							"name": "",
							"type": "address"
						}
					],
					"name": "usertoTicket",
					"outputs": [
						{
							"internalType": "uint256",
							"name": "",
							"type": "uint256"
						}
					],
					"stateMutability": "view",
					"type": "function"
				},
				{
					"inputs": [
						{
							"internalType": "address",
							"name": "",
							"type": "address"
						}
					],
					"name": "usertoVipTicket",
					"outputs": [
						{
							"internalType": "uint256",
							"name": "",
							"type": "uint256"
						}
					],
					"stateMutability": "view",
					"type": "function"
				},
				{
					"inputs": [
						{
							"internalType": "uint256",
							"name": "",
							"type": "uint256"
						}
					],
					"name": "vipdetails",
					"outputs": [
						{
							"internalType": "address",
							"name": "buyer",
							"type": "address"
						},
						{
							"internalType": "string",
							"name": "name",
							"type": "string"
						},
						{
							"internalType": "string",
							"name": "email",
							"type": "string"
						},
						{
							"internalType": "uint256",
							"name": "phoneNo",
							"type": "uint256"
						},
						{
							"internalType": "uint256",
							"name": "ticketNo",
							"type": "uint256"
						},
						{
							"internalType": "bool",
							"name": "refunded",
							"type": "bool"
						}
					],
					"stateMutability": "view",
					"type": "function"
				},
				{
					"inputs": [],
					"name": "vipseats",
					"outputs": [
						{
							"internalType": "uint256",
							"name": "",
							"type": "uint256"
						}
					],
					"stateMutability": "view",
					"type": "function"
				},
				{
					"inputs": [],
					"name": "withdraw",
					"outputs": [],
					"stateMutability": "nonpayable",
					"type": "function"
				}
			],
			"devdoc": {
				"kind": "dev",
				"methods": {
					"isOwner()": {
						"returns": {
							"_0": "true if `msg.sender` is the owner of the contract."
						}
					},
					"owner()": {
						"returns": {
							"_0": "the address of the owner."
						}
					},
					"renounceOwnership()": {
						"details": "Allows the current owner to relinquish control of the contract."
					},
					"transferOwnership(address)": {
						"details": "Allows the current owner to transfer control of the contract to a newOwner.",
						"params": {
							"newOwner": "The address to transfer ownership to."
						}
					}
				},
				"version": 1
			},
			"evm": {
				"assembly": "    /* \"contracts/new.sol\":90:5307  contract wallet is Ownable {... */\n  mstore(0x40, 0x80)\n    /* \"contracts/new.sol\":187:198  0.001 ether */\n  0x038d7ea4c68000\n    /* \"contracts/new.sol\":165:198  uint256 public  eth = 0.001 ether */\n  0x01\n  sstore\n    /* \"contracts/new.sol\":228:239  0.004 ether */\n  0x0e35fa931a0000\n    /* \"contracts/new.sol\":201:239  uint256 public ethforvip = 0.004 ether */\n  0x02\n  sstore\n    /* \"contracts/new.sol\":265:268  100 */\n  0x64\n    /* \"contracts/new.sol\":242:268  uint256 public seats = 100 */\n  0x03\n  sstore\n    /* \"contracts/new.sol\":298:300  50 */\n  0x32\n    /* \"contracts/new.sol\":271:300  uint256  public vipseats = 50 */\n  0x04\n  sstore\n    /* \"contracts/new.sol\":1748:1812  constructor(){... */\n  callvalue\n  dup1\n  iszero\n  tag_1\n  jumpi\n  revert(0x00, 0x00)\ntag_1:\n  pop\n    /* \"contracts/ownable.sol\":542:552  msg.sender */\n  caller\n    /* \"contracts/ownable.sol\":533:539  _owner */\n  0x00\n  0x00\n    /* \"contracts/ownable.sol\":533:552  _owner = msg.sender */\n  0x0100\n  exp\n  dup2\n  sload\n  dup2\n  0xffffffffffffffffffffffffffffffffffffffff\n  mul\n  not\n  and\n  swap1\n  dup4\n  0xffffffffffffffffffffffffffffffffffffffff\n  and\n  mul\n  or\n  swap1\n  sstore\n  pop\n    /* \"contracts/ownable.sol\":596:602  _owner */\n  0x00\n  0x00\n  swap1\n  sload\n  swap1\n  0x0100\n  exp\n  swap1\n  div\n  0xffffffffffffffffffffffffffffffffffffffff\n  and\n    /* \"contracts/ownable.sol\":563:603  OwnershipTransferred(address(0), _owner) */\n  0xffffffffffffffffffffffffffffffffffffffff\n  and\n    /* \"contracts/ownable.sol\":592:593  0 */\n  0x00\n    /* \"contracts/ownable.sol\":563:603  OwnershipTransferred(address(0), _owner) */\n  0xffffffffffffffffffffffffffffffffffffffff\n  and\n  0x8be0079c531659141344cd1fd0a4f28419497f9722a3daafe3b4186f6b6457e0\n  mload(0x40)\n  mload(0x40)\n  dup1\n  swap2\n  sub\n  swap1\n  log3\n    /* \"contracts/new.sol\":1799:1805  7 days */\n  0x093a80\n    /* \"contracts/new.sol\":1781:1796  block.timestamp */\n  timestamp\n    /* \"contracts/new.sol\":1781:1805  block.timestamp + 7 days */\n  tag_6\n  swap2\n  swap1\n  tag_7\n  jump\t// in\ntag_6:\n    /* \"contracts/new.sol\":1769:1778  eventDate */\n  0x05\n    /* \"contracts/new.sol\":1769:1805  eventDate = block.timestamp + 7 days */\n  dup2\n  swap1\n  sstore\n  pop\n    /* \"contracts/new.sol\":90:5307  contract wallet is Ownable {... */\n  jump(tag_8)\n    /* \"#utility.yul\":7:84   */\ntag_9:\n    /* \"#utility.yul\":44:51   */\n  0x00\n    /* \"#utility.yul\":73:78   */\n  dup2\n    /* \"#utility.yul\":62:78   */\n  swap1\n  pop\n    /* \"#utility.yul\":7:84   */\n  swap2\n  swap1\n  pop\n  jump\t// out\n    /* \"#utility.yul\":90:270   */\ntag_10:\n    /* \"#utility.yul\":138:215   */\n  0x4e487b7100000000000000000000000000000000000000000000000000000000\n    /* \"#utility.yul\":135:136   */\n  0x00\n    /* \"#utility.yul\":128:216   */\n  mstore\n    /* \"#utility.yul\":235:239   */\n  0x11\n    /* \"#utility.yul\":232:233   */\n  0x04\n    /* \"#utility.yul\":225:240   */\n  mstore\n    /* \"#utility.yul\":259:263   */\n  0x24\n    /* \"#utility.yul\":256:257   */\n  0x00\n    /* \"#utility.yul\":249:264   */\n  revert\n    /* \"#utility.yul\":276:467   */\ntag_7:\n    /* \"#utility.yul\":316:319   */\n  0x00\n    /* \"#utility.yul\":335:355   */\n  tag_15\n    /* \"#utility.yul\":353:354   */\n  dup3\n    /* \"#utility.yul\":335:355   */\n  tag_9\n  jump\t// in\ntag_15:\n    /* \"#utility.yul\":330:355   */\n  swap2\n  pop\n    /* \"#utility.yul\":369:389   */\n  tag_16\n    /* \"#utility.yul\":387:388   */\n  dup4\n    /* \"#utility.yul\":369:389   */\n  tag_9\n  jump\t// in\ntag_16:\n    /* \"#utility.yul\":364:389   */\n  swap3\n  pop\n    /* \"#utility.yul\":412:413   */\n  dup3\n    /* \"#utility.yul\":409:410   */\n  dup3\n    /* \"#utility.yul\":405:414   */\n  add\n    /* \"#utility.yul\":398:414   */\n  swap1\n  pop\n    /* \"#utility.yul\":433:436   */\n  dup1\n    /* \"#utility.yul\":430:431   */\n  dup3\n    /* \"#utility.yul\":427:437   */\n  gt\n    /* \"#utility.yul\":424:460   */\n  iszero\n  tag_17\n  jumpi\n    /* \"#utility.yul\":440:458   */\n  tag_18\n  tag_10\n  jump\t// in\ntag_18:\n    /* \"#utility.yul\":424:460   */\ntag_17:\n    /* \"#utility.yul\":276:467   */\n  swap3\n  swap2\n  pop\n  pop\n  jump\t// out\n    /* \"contracts/new.sol\":90:5307  contract wallet is Ownable {... */\ntag_8:\n  dataSize(sub_0)\n  dup1\n  dataOffset(sub_0)\n  0x00\n  codecopy\n  0x00\n  return\nstop\n\nsub_0: assembly {\n        /* \"contracts/new.sol\":90:5307  contract wallet is Ownable {... */\n      mstore(0x40, 0x80)\n      jumpi(tag_1, lt(calldatasize, 0x04))\n      shr(0xe0, calldataload(0x00))\n      dup1\n      0x8c7c9e0c\n      gt\n      tag_26\n      jumpi\n      dup1\n      0xa5567197\n      gt\n      tag_27\n      jumpi\n      dup1\n      0xa5567197\n      eq\n      tag_20\n      jumpi\n      dup1\n      0xacae79bb\n      eq\n      tag_21\n      jumpi\n      dup1\n      0xad90cf8d\n      eq\n      tag_22\n      jumpi\n      dup1\n      0xd94d3914\n      eq\n      tag_23\n      jumpi\n      dup1\n      0xef265cbe\n      eq\n      tag_24\n      jumpi\n      dup1\n      0xf2fde38b\n      eq\n      tag_25\n      jumpi\n      jump(tag_1)\n    tag_27:\n      dup1\n      0x8c7c9e0c\n      eq\n      tag_14\n      jumpi\n      dup1\n      0x8da5cb5b\n      eq\n      tag_15\n      jumpi\n      dup1\n      0x8f32d59b\n      eq\n      tag_16\n      jumpi\n      dup1\n      0x98721575\n      eq\n      tag_17\n      jumpi\n      dup1\n      0x9c5655d6\n      eq\n      tag_18\n      jumpi\n      dup1\n      0xa005ec7a\n      eq\n      tag_19\n      jumpi\n      jump(tag_1)\n    tag_26:\n      dup1\n      0x4bfbe5df\n      gt\n      tag_28\n      jumpi\n      dup1\n      0x4bfbe5df\n      eq\n      tag_8\n      jumpi\n      dup1\n      0x53ab3648\n      eq\n      tag_9\n      jumpi\n      dup1\n      0x590e1ae3\n      eq\n      tag_10\n      jumpi\n      dup1\n      0x609af3a7\n      eq\n      tag_11\n      jumpi\n      dup1\n      0x715018a6\n      eq\n      tag_12\n      jumpi\n      dup1\n      0x7ab05004\n      eq\n      tag_13\n      jumpi\n      jump(tag_1)\n    tag_28:\n      dup1\n      0x332c4fde\n      eq\n      tag_2\n      jumpi\n      dup1\n      0x352371fe\n      eq\n      tag_3\n      jumpi\n      dup1\n      0x3ccfd60b\n      eq\n      tag_4\n      jumpi\n      dup1\n      0x3d784677\n      eq\n      tag_5\n      jumpi\n      dup1\n      0x3ea52614\n      eq\n      tag_6\n      jumpi\n      dup1\n      0x4b87bb84\n      eq\n      tag_7\n      jumpi\n    tag_1:\n      revert(0x00, 0x00)\n        /* \"contracts/new.sol\":934:960  Ticket[] public vipdetails */\n    tag_2:\n      callvalue\n      dup1\n      iszero\n      tag_29\n      jumpi\n      revert(0x00, 0x00)\n    tag_29:\n      pop\n      tag_30\n      0x04\n      dup1\n      calldatasize\n      sub\n      dup2\n      add\n      swap1\n      tag_31\n      swap2\n      swap1\n      tag_32\n      jump\t// in\n    tag_31:\n      tag_33\n      jump\t// in\n    tag_30:\n      mload(0x40)\n      tag_34\n      swap7\n      swap6\n      swap5\n      swap4\n      swap3\n      swap2\n      swap1\n      tag_35\n      jump\t// in\n    tag_34:\n      mload(0x40)\n      dup1\n      swap2\n      sub\n      swap1\n      return\n        /* \"contracts/new.sol\":986:1718  function payforticket(string memory _name,... */\n    tag_3:\n      tag_36\n      0x04\n      dup1\n      calldatasize\n      sub\n      dup2\n      add\n      swap1\n      tag_37\n      swap2\n      swap1\n      tag_38\n      jump\t// in\n    tag_37:\n      tag_39\n      jump\t// in\n    tag_36:\n      stop\n        /* \"contracts/new.sol\":3825:4137  function withdraw() external onlyOwner {... */\n    tag_4:\n      callvalue\n      dup1\n      iszero\n      tag_40\n      jumpi\n      revert(0x00, 0x00)\n    tag_40:\n      pop\n      tag_41\n      tag_42\n      jump\t// in\n    tag_41:\n      stop\n        /* \"contracts/new.sol\":5041:5187  function setticketprize(uint _ticket,uint _vipticket) external onlyOwner{... */\n    tag_5:\n      callvalue\n      dup1\n      iszero\n      tag_43\n      jumpi\n      revert(0x00, 0x00)\n    tag_43:\n      pop\n      tag_44\n      0x04\n      dup1\n      calldatasize\n      sub\n      dup2\n      add\n      swap1\n      tag_45\n      swap2\n      swap1\n      tag_46\n      jump\t// in\n    tag_45:\n      tag_47\n      jump\t// in\n    tag_44:\n      stop\n        /* \"contracts/new.sol\":4168:4436  function checkticket() external view  returns  (Ticket memory t) {... */\n    tag_6:\n      callvalue\n      dup1\n      iszero\n      tag_48\n      jumpi\n      revert(0x00, 0x00)\n    tag_48:\n      pop\n      tag_49\n      tag_50\n      jump\t// in\n    tag_49:\n      mload(0x40)\n      tag_51\n      swap2\n      swap1\n      tag_52\n      jump\t// in\n    tag_51:\n      mload(0x40)\n      dup1\n      swap2\n      sub\n      swap1\n      return\n        /* \"contracts/new.sol\":4471:4753  function checkticketvip() external view  returns  (Ticket memory t) {... */\n    tag_7:\n      callvalue\n      dup1\n      iszero\n      tag_53\n      jumpi\n      revert(0x00, 0x00)\n    tag_53:\n      pop\n      tag_54\n      tag_55\n      jump\t// in\n    tag_54:\n      mload(0x40)\n      tag_56\n      swap2\n      swap1\n      tag_52\n      jump\t// in\n    tag_56:\n      mload(0x40)\n      dup1\n      swap2\n      sub\n      swap1\n      return\n        /* \"contracts/new.sol\":303:328  uint256 public  eventDate */\n    tag_8:\n      callvalue\n      dup1\n      iszero\n      tag_57\n      jumpi\n      revert(0x00, 0x00)\n    tag_57:\n      pop\n      tag_58\n      tag_59\n      jump\t// in\n    tag_58:\n      mload(0x40)\n      tag_60\n      swap2\n      swap1\n      tag_61\n      jump\t// in\n    tag_60:\n      mload(0x40)\n      dup1\n      swap2\n      sub\n      swap1\n      return\n        /* \"contracts/new.sol\":201:239  uint256 public ethforvip = 0.004 ether */\n    tag_9:\n      callvalue\n      dup1\n      iszero\n      tag_62\n      jumpi\n      revert(0x00, 0x00)\n    tag_62:\n      pop\n      tag_63\n      tag_64\n      jump\t// in\n    tag_63:\n      mload(0x40)\n      tag_65\n      swap2\n      swap1\n      tag_61\n      jump\t// in\n    tag_65:\n      mload(0x40)\n      dup1\n      swap2\n      sub\n      swap1\n      return\n        /* \"contracts/new.sol\":1817:2375  function refund() external  {... */\n    tag_10:\n      callvalue\n      dup1\n      iszero\n      tag_66\n      jumpi\n      revert(0x00, 0x00)\n    tag_66:\n      pop\n      tag_67\n      tag_68\n      jump\t// in\n    tag_67:\n      stop\n        /* \"contracts/new.sol\":3195:3792  function refundforvip() external {... */\n    tag_11:\n      callvalue\n      dup1\n      iszero\n      tag_69\n      jumpi\n      revert(0x00, 0x00)\n    tag_69:\n      pop\n      tag_70\n      tag_71\n      jump\t// in\n    tag_70:\n      stop\n        /* \"contracts/ownable.sol\":1286:1413  function renounceOwnership() public onlyOwner {... */\n    tag_12:\n      callvalue\n      dup1\n      iszero\n      tag_72\n      jumpi\n      revert(0x00, 0x00)\n    tag_72:\n      pop\n      tag_73\n      tag_74\n      jump\t// in\n    tag_73:\n      stop\n        /* \"contracts/new.sol\":393:441  mapping (address => uint) public usertoVipTicket */\n    tag_13:\n      callvalue\n      dup1\n      iszero\n      tag_75\n      jumpi\n      revert(0x00, 0x00)\n    tag_75:\n      pop\n      tag_76\n      0x04\n      dup1\n      calldatasize\n      sub\n      dup2\n      add\n      swap1\n      tag_77\n      swap2\n      swap1\n      tag_78\n      jump\t// in\n    tag_77:\n      tag_79\n      jump\t// in\n    tag_76:\n      mload(0x40)\n      tag_80\n      swap2\n      swap1\n      tag_61\n      jump\t// in\n    tag_80:\n      mload(0x40)\n      dup1\n      swap2\n      sub\n      swap1\n      return\n        /* \"contracts/new.sol\":165:198  uint256 public  eth = 0.001 ether */\n    tag_14:\n      callvalue\n      dup1\n      iszero\n      tag_81\n      jumpi\n      revert(0x00, 0x00)\n    tag_81:\n      pop\n      tag_82\n      tag_83\n      jump\t// in\n    tag_82:\n      mload(0x40)\n      tag_84\n      swap2\n      swap1\n      tag_61\n      jump\t// in\n    tag_84:\n      mload(0x40)\n      dup1\n      swap2\n      sub\n      swap1\n      return\n        /* \"contracts/ownable.sol\":661:731  function owner() public view returns(address) {... */\n    tag_15:\n      callvalue\n      dup1\n      iszero\n      tag_85\n      jumpi\n      revert(0x00, 0x00)\n    tag_85:\n      pop\n      tag_86\n      tag_87\n      jump\t// in\n    tag_86:\n      mload(0x40)\n      tag_88\n      swap2\n      swap1\n      tag_89\n      jump\t// in\n    tag_88:\n      mload(0x40)\n      dup1\n      swap2\n      sub\n      swap1\n      return\n        /* \"contracts/ownable.sol\":944:1027  function isOwner() public view returns(bool) {... */\n    tag_16:\n      callvalue\n      dup1\n      iszero\n      tag_90\n      jumpi\n      revert(0x00, 0x00)\n    tag_90:\n      pop\n      tag_91\n      tag_92\n      jump\t// in\n    tag_91:\n      mload(0x40)\n      tag_93\n      swap2\n      swap1\n      tag_94\n      jump\t// in\n    tag_93:\n      mload(0x40)\n      dup1\n      swap2\n      sub\n      swap1\n      return\n        /* \"contracts/new.sol\":5211:5305  function seteventdate(uint256 _eventdate) external onlyOwner{... */\n    tag_17:\n      callvalue\n      dup1\n      iszero\n      tag_95\n      jumpi\n      revert(0x00, 0x00)\n    tag_95:\n      pop\n      tag_96\n      0x04\n      dup1\n      calldatasize\n      sub\n      dup2\n      add\n      swap1\n      tag_97\n      swap2\n      swap1\n      tag_32\n      jump\t// in\n    tag_97:\n      tag_98\n      jump\t// in\n    tag_96:\n      stop\n        /* \"contracts/new.sol\":242:268  uint256 public seats = 100 */\n    tag_18:\n      callvalue\n      dup1\n      iszero\n      tag_99\n      jumpi\n      revert(0x00, 0x00)\n    tag_99:\n      pop\n      tag_100\n      tag_101\n      jump\t// in\n    tag_100:\n      mload(0x40)\n      tag_102\n      swap2\n      swap1\n      tag_61\n      jump\t// in\n    tag_102:\n      mload(0x40)\n      dup1\n      swap2\n      sub\n      swap1\n      return\n        /* \"contracts/new.sol\":905:928  Ticket[] public details */\n    tag_19:\n      callvalue\n      dup1\n      iszero\n      tag_103\n      jumpi\n      revert(0x00, 0x00)\n    tag_103:\n      pop\n      tag_104\n      0x04\n      dup1\n      calldatasize\n      sub\n      dup2\n      add\n      swap1\n      tag_105\n      swap2\n      swap1\n      tag_32\n      jump\t// in\n    tag_105:\n      tag_106\n      jump\t// in\n    tag_104:\n      mload(0x40)\n      tag_107\n      swap7\n      swap6\n      swap5\n      swap4\n      swap3\n      swap2\n      swap1\n      tag_35\n      jump\t// in\n    tag_107:\n      mload(0x40)\n      dup1\n      swap2\n      sub\n      swap1\n      return\n        /* \"contracts/new.sol\":271:300  uint256  public vipseats = 50 */\n    tag_20:\n      callvalue\n      dup1\n      iszero\n      tag_108\n      jumpi\n      revert(0x00, 0x00)\n    tag_108:\n      pop\n      tag_109\n      tag_110\n      jump\t// in\n    tag_109:\n      mload(0x40)\n      tag_111\n      swap2\n      swap1\n      tag_61\n      jump\t// in\n    tag_111:\n      mload(0x40)\n      dup1\n      swap2\n      sub\n      swap1\n      return\n        /* \"contracts/new.sol\":345:390  mapping (address => uint) public usertoTicket */\n    tag_21:\n      callvalue\n      dup1\n      iszero\n      tag_112\n      jumpi\n      revert(0x00, 0x00)\n    tag_112:\n      pop\n      tag_113\n      0x04\n      dup1\n      calldatasize\n      sub\n      dup2\n      add\n      swap1\n      tag_114\n      swap2\n      swap1\n      tag_78\n      jump\t// in\n    tag_114:\n      tag_115\n      jump\t// in\n    tag_113:\n      mload(0x40)\n      tag_116\n      swap2\n      swap1\n      tag_61\n      jump\t// in\n    tag_116:\n      mload(0x40)\n      dup1\n      swap2\n      sub\n      swap1\n      return\n        /* \"contracts/new.sol\":2410:3161  function Buyvipseats(string memory _name,... */\n    tag_22:\n      tag_117\n      0x04\n      dup1\n      calldatasize\n      sub\n      dup2\n      add\n      swap1\n      tag_118\n      swap2\n      swap1\n      tag_38\n      jump\t// in\n    tag_118:\n      tag_119\n      jump\t// in\n    tag_117:\n      stop\n        /* \"contracts/new.sol\":4906:4997  function soldvipticket() external view returns(uint256){... */\n    tag_23:\n      callvalue\n      dup1\n      iszero\n      tag_120\n      jumpi\n      revert(0x00, 0x00)\n    tag_120:\n      pop\n      tag_121\n      tag_122\n      jump\t// in\n    tag_121:\n      mload(0x40)\n      tag_123\n      swap2\n      swap1\n      tag_61\n      jump\t// in\n    tag_123:\n      mload(0x40)\n      dup1\n      swap2\n      sub\n      swap1\n      return\n        /* \"contracts/new.sol\":4785:4871  function soldticket() external view returns(uint256){... */\n    tag_24:\n      callvalue\n      dup1\n      iszero\n      tag_124\n      jumpi\n      revert(0x00, 0x00)\n    tag_124:\n      pop\n      tag_125\n      tag_126\n      jump\t// in\n    tag_125:\n      mload(0x40)\n      tag_127\n      swap2\n      swap1\n      tag_61\n      jump\t// in\n    tag_127:\n      mload(0x40)\n      dup1\n      swap2\n      sub\n      swap1\n      return\n        /* \"contracts/ownable.sol\":1571:1672  function transferOwnership(address newOwner) public onlyOwner {... */\n    tag_25:\n      callvalue\n      dup1\n      iszero\n      tag_128\n      jumpi\n      revert(0x00, 0x00)\n    tag_128:\n      pop\n      tag_129\n      0x04\n      dup1\n      calldatasize\n      sub\n      dup2\n      add\n      swap1\n      tag_130\n      swap2\n      swap1\n      tag_78\n      jump\t// in\n    tag_130:\n      tag_131\n      jump\t// in\n    tag_129:\n      stop\n        /* \"contracts/new.sol\":934:960  Ticket[] public vipdetails */\n    tag_33:\n      0x09\n      dup2\n      dup2\n      sload\n      dup2\n      lt\n      tag_132\n      jumpi\n      0x00\n      dup1\n      revert\n    tag_132:\n      swap1\n      0x00\n      mstore\n      keccak256(0x00, 0x20)\n      swap1\n      0x06\n      mul\n      add\n      0x00\n      swap2\n      pop\n      swap1\n      pop\n      dup1\n      0x00\n      add\n      0x00\n      swap1\n      sload\n      swap1\n      0x0100\n      exp\n      swap1\n      div\n      0xffffffffffffffffffffffffffffffffffffffff\n      and\n      swap1\n      dup1\n      0x01\n      add\n      dup1\n      sload\n      tag_134\n      swap1\n      tag_135\n      jump\t// in\n    tag_134:\n      dup1\n      0x1f\n      add\n      0x20\n      dup1\n      swap2\n      div\n      mul\n      0x20\n      add\n      mload(0x40)\n      swap1\n      dup2\n      add\n      0x40\n      mstore\n      dup1\n      swap3\n      swap2\n      swap1\n      dup2\n      dup2\n      mstore\n      0x20\n      add\n      dup3\n      dup1\n      sload\n      tag_136\n      swap1\n      tag_135\n      jump\t// in\n    tag_136:\n      dup1\n      iszero\n      tag_137\n      jumpi\n      dup1\n      0x1f\n      lt\n      tag_138\n      jumpi\n      0x0100\n      dup1\n      dup4\n      sload\n      div\n      mul\n      dup4\n      mstore\n      swap2\n      0x20\n      add\n      swap2\n      jump(tag_137)\n    tag_138:\n      dup3\n      add\n      swap2\n      swap1\n      0x00\n      mstore\n      keccak256(0x00, 0x20)\n      swap1\n    tag_139:\n      dup2\n      sload\n      dup2\n      mstore\n      swap1\n      0x01\n      add\n      swap1\n      0x20\n      add\n      dup1\n      dup4\n      gt\n      tag_139\n      jumpi\n      dup3\n      swap1\n      sub\n      0x1f\n      and\n      dup3\n      add\n      swap2\n    tag_137:\n      pop\n      pop\n      pop\n      pop\n      pop\n      swap1\n      dup1\n      0x02\n      add\n      dup1\n      sload\n      tag_140\n      swap1\n      tag_135\n      jump\t// in\n    tag_140:\n      dup1\n      0x1f\n      add\n      0x20\n      dup1\n      swap2\n      div\n      mul\n      0x20\n      add\n      mload(0x40)\n      swap1\n      dup2\n      add\n      0x40\n      mstore\n      dup1\n      swap3\n      swap2\n      swap1\n      dup2\n      dup2\n      mstore\n      0x20\n      add\n      dup3\n      dup1\n      sload\n      tag_141\n      swap1\n      tag_135\n      jump\t// in\n    tag_141:\n      dup1\n      iszero\n      tag_142\n      jumpi\n      dup1\n      0x1f\n      lt\n      tag_143\n      jumpi\n      0x0100\n      dup1\n      dup4\n      sload\n      div\n      mul\n      dup4\n      mstore\n      swap2\n      0x20\n      add\n      swap2\n      jump(tag_142)\n    tag_143:\n      dup3\n      add\n      swap2\n      swap1\n      0x00\n      mstore\n      keccak256(0x00, 0x20)\n      swap1\n    tag_144:\n      dup2\n      sload\n      dup2\n      mstore\n      swap1\n      0x01\n      add\n      swap1\n      0x20\n      add\n      dup1\n      dup4\n      gt\n      tag_144\n      jumpi\n      dup3\n      swap1\n      sub\n      0x1f\n      and\n      dup3\n      add\n      swap2\n    tag_142:\n      pop\n      pop\n      pop\n      pop\n      pop\n      swap1\n      dup1\n      0x03\n      add\n      sload\n      swap1\n      dup1\n      0x04\n      add\n      sload\n      swap1\n      dup1\n      0x05\n      add\n      0x00\n      swap1\n      sload\n      swap1\n      0x0100\n      exp\n      swap1\n      div\n      0xff\n      and\n      swap1\n      pop\n      dup7\n      jump\t// out\n        /* \"contracts/new.sol\":986:1718  function payforticket(string memory _name,... */\n    tag_39:\n        /* \"contracts/new.sol\":1129:1132  eth */\n      sload(0x01)\n        /* \"contracts/new.sol\":1116:1125  msg.value */\n      callvalue\n        /* \"contracts/new.sol\":1116:1132  msg.value == eth */\n      eq\n        /* \"contracts/new.sol\":1108:1172  require(msg.value == eth, \"you have to pay exact amount of eth\") */\n      tag_146\n      jumpi\n      mload(0x40)\n      0x08c379a000000000000000000000000000000000000000000000000000000000\n      dup2\n      mstore\n      0x04\n      add\n      tag_147\n      swap1\n      tag_148\n      jump\t// in\n    tag_147:\n      mload(0x40)\n      dup1\n      swap2\n      sub\n      swap1\n      revert\n    tag_146:\n        /* \"contracts/new.sol\":1198:1199  0 */\n      0x00\n        /* \"contracts/new.sol\":1190:1195  seats */\n      sload(0x03)\n        /* \"contracts/new.sol\":1190:1199  seats > 0 */\n      gt\n        /* \"contracts/new.sol\":1182:1217  require(seats > 0,\"seats are full\") */\n      tag_149\n      jumpi\n      mload(0x40)\n      0x08c379a000000000000000000000000000000000000000000000000000000000\n      dup2\n      mstore\n      0x04\n      add\n      tag_150\n      swap1\n      tag_151\n      jump\t// in\n    tag_150:\n      mload(0x40)\n      dup1\n      swap2\n      sub\n      swap1\n      revert\n    tag_149:\n        /* \"contracts/new.sol\":1263:1264  0 */\n      0x00\n        /* \"contracts/new.sol\":1235:1247  usertoTicket */\n      0x06\n        /* \"contracts/new.sol\":1235:1259  usertoTicket[msg.sender] */\n      0x00\n        /* \"contracts/new.sol\":1248:1258  msg.sender */\n      caller\n        /* \"contracts/new.sol\":1235:1259  usertoTicket[msg.sender] */\n      0xffffffffffffffffffffffffffffffffffffffff\n      and\n      0xffffffffffffffffffffffffffffffffffffffff\n      and\n      dup2\n      mstore\n      0x20\n      add\n      swap1\n      dup2\n      mstore\n      0x20\n      add\n      0x00\n      keccak256\n      sload\n        /* \"contracts/new.sol\":1235:1264  usertoTicket[msg.sender] == 0 */\n      eq\n        /* \"contracts/new.sol\":1235:1300  usertoTicket[msg.sender] == 0 && usertoVipTicket[msg.sender] == 0 */\n      dup1\n      iszero\n      tag_152\n      jumpi\n      pop\n        /* \"contracts/new.sol\":1299:1300  0 */\n      0x00\n        /* \"contracts/new.sol\":1268:1283  usertoVipTicket */\n      0x07\n        /* \"contracts/new.sol\":1268:1295  usertoVipTicket[msg.sender] */\n      0x00\n        /* \"contracts/new.sol\":1284:1294  msg.sender */\n      caller\n        /* \"contracts/new.sol\":1268:1295  usertoVipTicket[msg.sender] */\n      0xffffffffffffffffffffffffffffffffffffffff\n      and\n      0xffffffffffffffffffffffffffffffffffffffff\n      and\n      dup2\n      mstore\n      0x20\n      add\n      swap1\n      dup2\n      mstore\n      0x20\n      add\n      0x00\n      keccak256\n      sload\n        /* \"contracts/new.sol\":1268:1300  usertoVipTicket[msg.sender] == 0 */\n      eq\n        /* \"contracts/new.sol\":1235:1300  usertoTicket[msg.sender] == 0 && usertoVipTicket[msg.sender] == 0 */\n    tag_152:\n        /* \"contracts/new.sol\":1227:1328  require(usertoTicket[msg.sender] == 0 && usertoVipTicket[msg.sender] == 0,\"you already own a ticket\") */\n      tag_153\n      jumpi\n      mload(0x40)\n      0x08c379a000000000000000000000000000000000000000000000000000000000\n      dup2\n      mstore\n      0x04\n      add\n      tag_154\n      swap1\n      tag_155\n      jump\t// in\n    tag_154:\n      mload(0x40)\n      dup1\n      swap2\n      sub\n      swap1\n      revert\n    tag_153:\n        /* \"contracts/new.sol\":1346:1347  1 */\n      0x01\n        /* \"contracts/new.sol\":1338:1343  seats */\n      0x03\n      0x00\n        /* \"contracts/new.sol\":1338:1347  seats -=1 */\n      dup3\n      dup3\n      sload\n      tag_156\n      swap2\n      swap1\n      tag_157\n      jump\t// in\n    tag_156:\n      swap3\n      pop\n      pop\n      dup2\n      swap1\n      sstore\n      pop\n        /* \"contracts/new.sol\":1357:1370  uint TicketNO */\n      0x00\n        /* \"contracts/new.sol\":1389:1390  1 */\n      0x01\n        /* \"contracts/new.sol\":1373:1380  details */\n      0x08\n        /* \"contracts/new.sol\":1373:1387  details.length */\n      dup1\n      sload\n      swap1\n      pop\n        /* \"contracts/new.sol\":1373:1390  details.length +1 */\n      tag_158\n      swap2\n      swap1\n      tag_159\n      jump\t// in\n    tag_158:\n        /* \"contracts/new.sol\":1357:1390  uint TicketNO = details.length +1 */\n      swap1\n      pop\n        /* \"contracts/new.sol\":1409:1416  details */\n      0x08\n        /* \"contracts/new.sol\":1422:1612  Ticket({... */\n      mload(0x40)\n      dup1\n      0xc0\n      add\n      0x40\n      mstore\n      dup1\n        /* \"contracts/new.sol\":1447:1457  msg.sender */\n      caller\n        /* \"contracts/new.sol\":1422:1612  Ticket({... */\n      0xffffffffffffffffffffffffffffffffffffffff\n      and\n      dup2\n      mstore\n      0x20\n      add\n        /* \"contracts/new.sol\":1476:1481  _name */\n      dup7\n        /* \"contracts/new.sol\":1422:1612  Ticket({... */\n      dup2\n      mstore\n      0x20\n      add\n        /* \"contracts/new.sol\":1502:1508  _email */\n      dup6\n        /* \"contracts/new.sol\":1422:1612  Ticket({... */\n      dup2\n      mstore\n      0x20\n      add\n        /* \"contracts/new.sol\":1530:1538  _phoneNo */\n      dup5\n        /* \"contracts/new.sol\":1422:1612  Ticket({... */\n      dup2\n      mstore\n      0x20\n      add\n        /* \"contracts/new.sol\":1561:1569  TicketNO */\n      dup4\n        /* \"contracts/new.sol\":1422:1612  Ticket({... */\n      dup2\n      mstore\n      0x20\n      add\n        /* \"contracts/new.sol\":1592:1597  false */\n      0x00\n        /* \"contracts/new.sol\":1422:1612  Ticket({... */\n      iszero\n      iszero\n      dup2\n      mstore\n      pop\n        /* \"contracts/new.sol\":1409:1613  details.push(Ticket({... */\n      swap1\n      dup1\n      0x01\n      dup2\n      sload\n      add\n      dup1\n      dup3\n      sstore\n      dup1\n      swap2\n      pop\n      pop\n      0x01\n      swap1\n      sub\n      swap1\n      0x00\n      mstore\n      keccak256(0x00, 0x20)\n      swap1\n      0x06\n      mul\n      add\n      0x00\n      swap1\n      swap2\n      swap1\n      swap2\n      swap1\n      swap2\n      pop\n      0x00\n      dup3\n      add\n      mload\n      dup2\n      0x00\n      add\n      exp(0x0100, 0x00)\n      dup2\n      sload\n      dup2\n      0xffffffffffffffffffffffffffffffffffffffff\n      mul\n      not\n      and\n      swap1\n      dup4\n      0xffffffffffffffffffffffffffffffffffffffff\n      and\n      mul\n      or\n      swap1\n      sstore\n      pop\n      0x20\n      dup3\n      add\n      mload\n      dup2\n      0x01\n      add\n      swap1\n      dup2\n      tag_161\n      swap2\n      swap1\n      tag_162\n      jump\t// in\n    tag_161:\n      pop\n      0x40\n      dup3\n      add\n      mload\n      dup2\n      0x02\n      add\n      swap1\n      dup2\n      tag_163\n      swap2\n      swap1\n      tag_162\n      jump\t// in\n    tag_163:\n      pop\n      0x60\n      dup3\n      add\n      mload\n      dup2\n      0x03\n      add\n      sstore\n      0x80\n      dup3\n      add\n      mload\n      dup2\n      0x04\n      add\n      sstore\n      0xa0\n      dup3\n      add\n      mload\n      dup2\n      0x05\n      add\n      exp(0x0100, 0x00)\n      dup2\n      sload\n      dup2\n      0xff\n      mul\n      not\n      and\n      swap1\n      dup4\n      iszero\n      iszero\n      mul\n      or\n      swap1\n      sstore\n      pop\n      pop\n      pop\n        /* \"contracts/new.sol\":1648:1656  TicketNO */\n      dup1\n        /* \"contracts/new.sol\":1621:1633  usertoTicket */\n      0x06\n        /* \"contracts/new.sol\":1621:1645  usertoTicket[msg.sender] */\n      0x00\n        /* \"contracts/new.sol\":1634:1644  msg.sender */\n      caller\n        /* \"contracts/new.sol\":1621:1645  usertoTicket[msg.sender] */\n      0xffffffffffffffffffffffffffffffffffffffff\n      and\n      0xffffffffffffffffffffffffffffffffffffffff\n      and\n      dup2\n      mstore\n      0x20\n      add\n      swap1\n      dup2\n      mstore\n      0x20\n      add\n      0x00\n      keccak256\n        /* \"contracts/new.sol\":1621:1656  usertoTicket[msg.sender] = TicketNO */\n      dup2\n      swap1\n      sstore\n      pop\n        /* \"contracts/new.sol\":1685:1695  msg.sender */\n      caller\n        /* \"contracts/new.sol\":1669:1711  PurchasedTicket(msg.sender, TicketNO, eth) */\n      0xffffffffffffffffffffffffffffffffffffffff\n      and\n      0x7d1cd329a11d8807f0374627923b6cd32942b74b38b1accf931d70a507ff739e\n        /* \"contracts/new.sol\":1697:1705  TicketNO */\n      dup3\n        /* \"contracts/new.sol\":1707:1710  eth */\n      sload(0x01)\n        /* \"contracts/new.sol\":1669:1711  PurchasedTicket(msg.sender, TicketNO, eth) */\n      mload(0x40)\n      tag_164\n      swap3\n      swap2\n      swap1\n      tag_165\n      jump\t// in\n    tag_164:\n      mload(0x40)\n      dup1\n      swap2\n      sub\n      swap1\n      log2\n        /* \"contracts/new.sol\":1098:1718  {... */\n      pop\n        /* \"contracts/new.sol\":986:1718  function payforticket(string memory _name,... */\n      pop\n      pop\n      pop\n      jump\t// out\n        /* \"contracts/new.sol\":3825:4137  function withdraw() external onlyOwner {... */\n    tag_42:\n        /* \"contracts/ownable.sol\":844:853  isOwner() */\n      tag_167\n        /* \"contracts/ownable.sol\":844:851  isOwner */\n      tag_92\n        /* \"contracts/ownable.sol\":844:853  isOwner() */\n      jump\t// in\n    tag_167:\n        /* \"contracts/ownable.sol\":836:854  require(isOwner()) */\n      tag_168\n      jumpi\n      revert(0x00, 0x00)\n    tag_168:\n        /* \"contracts/new.sol\":3898:3907  eventDate */\n      sload(0x05)\n        /* \"contracts/new.sol\":3880:3895  block.timestamp */\n      timestamp\n        /* \"contracts/new.sol\":3880:3907  block.timestamp > eventDate */\n      gt\n        /* \"contracts/new.sol\":3872:3928  require(block.timestamp > eventDate,\"event is not over\") */\n      tag_170\n      jumpi\n      mload(0x40)\n      0x08c379a000000000000000000000000000000000000000000000000000000000\n      dup2\n      mstore\n      0x04\n      add\n      tag_171\n      swap1\n      tag_172\n      jump\t// in\n    tag_171:\n      mload(0x40)\n      dup1\n      swap2\n      sub\n      swap1\n      revert\n    tag_170:\n        /* \"contracts/new.sol\":3936:3947  uint amount */\n      0x00\n        /* \"contracts/new.sol\":3950:3971  address(this).balance */\n      selfbalance\n        /* \"contracts/new.sol\":3936:3971  uint amount = address(this).balance */\n      swap1\n      pop\n        /* \"contracts/new.sol\":3980:3989  bool sent */\n      0x00\n        /* \"contracts/new.sol\":4003:4010  owner() */\n      tag_173\n        /* \"contracts/new.sol\":4003:4008  owner */\n      tag_87\n        /* \"contracts/new.sol\":4003:4010  owner() */\n      jump\t// in\n    tag_173:\n        /* \"contracts/new.sol\":3995:4016  payable(owner()).call */\n      0xffffffffffffffffffffffffffffffffffffffff\n      and\n        /* \"contracts/new.sol\":4024:4030  amount */\n      dup3\n        /* \"contracts/new.sol\":3995:4035  payable(owner()).call{value: amount}(\"\") */\n      mload(0x40)\n      tag_174\n      swap1\n      tag_175\n      jump\t// in\n    tag_174:\n      0x00\n      mload(0x40)\n      dup1\n      dup4\n      sub\n      dup2\n      dup6\n      dup8\n      gas\n      call\n      swap3\n      pop\n      pop\n      pop\n      returndatasize\n      dup1\n      0x00\n      dup2\n      eq\n      tag_178\n      jumpi\n      mload(0x40)\n      swap2\n      pop\n      and(add(returndatasize, 0x3f), not(0x1f))\n      dup3\n      add\n      0x40\n      mstore\n      returndatasize\n      dup3\n      mstore\n      returndatasize\n      0x00\n      0x20\n      dup5\n      add\n      returndatacopy\n      jump(tag_177)\n    tag_178:\n      0x60\n      swap2\n      pop\n    tag_177:\n      pop\n        /* \"contracts/new.sol\":3979:4035  (bool sent,) =  payable(owner()).call{value: amount}(\"\") */\n      pop\n      swap1\n      pop\n        /* \"contracts/new.sol\":4051:4055  sent */\n      dup1\n        /* \"contracts/new.sol\":4043:4087  require(sent,\"error:fail to withdraw ether\") */\n      tag_179\n      jumpi\n      mload(0x40)\n      0x08c379a000000000000000000000000000000000000000000000000000000000\n      dup2\n      mstore\n      0x04\n      add\n      tag_180\n      swap1\n      tag_181\n      jump\t// in\n    tag_180:\n      mload(0x40)\n      dup1\n      swap2\n      sub\n      swap1\n      revert\n    tag_179:\n        /* \"contracts/new.sol\":4116:4123  owner() */\n      tag_182\n        /* \"contracts/new.sol\":4116:4121  owner */\n      tag_87\n        /* \"contracts/new.sol\":4116:4123  owner() */\n      jump\t// in\n    tag_182:\n        /* \"contracts/new.sol\":4107:4131  Withdraw(owner(),amount) */\n      0xffffffffffffffffffffffffffffffffffffffff\n      and\n      0x884edad9ce6fa2440d8a54cc123490eb96d2768479d49ff9c7366125a9424364\n        /* \"contracts/new.sol\":4124:4130  amount */\n      dup4\n        /* \"contracts/new.sol\":4107:4131  Withdraw(owner(),amount) */\n      mload(0x40)\n      tag_183\n      swap2\n      swap1\n      tag_61\n      jump\t// in\n    tag_183:\n      mload(0x40)\n      dup1\n      swap2\n      sub\n      swap1\n      log2\n        /* \"contracts/new.sol\":3864:4137  {... */\n      pop\n      pop\n        /* \"contracts/new.sol\":3825:4137  function withdraw() external onlyOwner {... */\n      jump\t// out\n        /* \"contracts/new.sol\":5041:5187  function setticketprize(uint _ticket,uint _vipticket) external onlyOwner{... */\n    tag_47:\n        /* \"contracts/ownable.sol\":844:853  isOwner() */\n      tag_185\n        /* \"contracts/ownable.sol\":844:851  isOwner */\n      tag_92\n        /* \"contracts/ownable.sol\":844:853  isOwner() */\n      jump\t// in\n    tag_185:\n        /* \"contracts/ownable.sol\":836:854  require(isOwner()) */\n      tag_186\n      jumpi\n      revert(0x00, 0x00)\n    tag_186:\n        /* \"contracts/new.sol\":5136:5143  1 ether */\n      0x0de0b6b3a7640000\n        /* \"contracts/new.sol\":5126:5133  _ticket */\n      dup3\n        /* \"contracts/new.sol\":5126:5143  _ticket * 1 ether */\n      tag_188\n      swap2\n      swap1\n      tag_189\n      jump\t// in\n    tag_188:\n        /* \"contracts/new.sol\":5119:5122  eth */\n      0x01\n        /* \"contracts/new.sol\":5119:5143  eth  = _ticket * 1 ether */\n      dup2\n      swap1\n      sstore\n      pop\n        /* \"contracts/new.sol\":5174:5181  1 ether */\n      0x0de0b6b3a7640000\n        /* \"contracts/new.sol\":5161:5171  _vipticket */\n      dup2\n        /* \"contracts/new.sol\":5161:5181  _vipticket * 1 ether */\n      tag_190\n      swap2\n      swap1\n      tag_189\n      jump\t// in\n    tag_190:\n        /* \"contracts/new.sol\":5149:5158  ethforvip */\n      0x02\n        /* \"contracts/new.sol\":5149:5181  ethforvip = _vipticket * 1 ether */\n      dup2\n      swap1\n      sstore\n      pop\n        /* \"contracts/new.sol\":5041:5187  function setticketprize(uint _ticket,uint _vipticket) external onlyOwner{... */\n      pop\n      pop\n      jump\t// out\n        /* \"contracts/new.sol\":4168:4436  function checkticket() external view  returns  (Ticket memory t) {... */\n    tag_50:\n        /* \"contracts/new.sol\":4216:4231  Ticket memory t */\n      tag_191\n      tag_192\n      jump\t// in\n    tag_191:\n        /* \"contracts/new.sol\":4239:4252  uint Ticketno */\n      0x00\n        /* \"contracts/new.sol\":4253:4265  usertoTicket */\n      0x06\n        /* \"contracts/new.sol\":4253:4277  usertoTicket[msg.sender] */\n      0x00\n        /* \"contracts/new.sol\":4266:4276  msg.sender */\n      caller\n        /* \"contracts/new.sol\":4253:4277  usertoTicket[msg.sender] */\n      0xffffffffffffffffffffffffffffffffffffffff\n      and\n      0xffffffffffffffffffffffffffffffffffffffff\n      and\n      dup2\n      mstore\n      0x20\n      add\n      swap1\n      dup2\n      mstore\n      0x20\n      add\n      0x00\n      keccak256\n      sload\n        /* \"contracts/new.sol\":4239:4277  uint Ticketno=usertoTicket[msg.sender] */\n      swap1\n      pop\n        /* \"contracts/new.sol\":4302:4303  0 */\n      0x00\n        /* \"contracts/new.sol\":4291:4299  Ticketno */\n      dup2\n        /* \"contracts/new.sol\":4291:4303  Ticketno > 0 */\n      gt\n        /* \"contracts/new.sol\":4283:4326  require(Ticketno > 0,\"you dont own ticket\") */\n      tag_194\n      jumpi\n      mload(0x40)\n      0x08c379a000000000000000000000000000000000000000000000000000000000\n      dup2\n      mstore\n      0x04\n      add\n      tag_195\n      swap1\n      tag_196\n      jump\t// in\n    tag_195:\n      mload(0x40)\n      dup1\n      swap2\n      sub\n      swap1\n      revert\n    tag_194:\n        /* \"contracts/new.sol\":4332:4343  uint256 idx */\n      0x00\n        /* \"contracts/new.sol\":4354:4355  1 */\n      0x01\n        /* \"contracts/new.sol\":4345:4353  Ticketno */\n      dup3\n        /* \"contracts/new.sol\":4345:4355  Ticketno-1 */\n      tag_197\n      swap2\n      swap1\n      tag_157\n      jump\t// in\n    tag_197:\n        /* \"contracts/new.sol\":4332:4355  uint256 idx =Ticketno-1 */\n      swap1\n      pop\n        /* \"contracts/new.sol\":4373:4380  details */\n      0x08\n        /* \"contracts/new.sol\":4373:4387  details.length */\n      dup1\n      sload\n      swap1\n      pop\n        /* \"contracts/new.sol\":4367:4370  idx */\n      dup2\n        /* \"contracts/new.sol\":4367:4387  idx < details.length */\n      lt\n        /* \"contracts/new.sol\":4359:4406  require(idx < details.length, \" invalid index\") */\n      tag_198\n      jumpi\n      mload(0x40)\n      0x08c379a000000000000000000000000000000000000000000000000000000000\n      dup2\n      mstore\n      0x04\n      add\n      tag_199\n      swap1\n      tag_200\n      jump\t// in\n    tag_199:\n      mload(0x40)\n      dup1\n      swap2\n      sub\n      swap1\n      revert\n    tag_198:\n        /* \"contracts/new.sol\":4418:4425  details */\n      0x08\n        /* \"contracts/new.sol\":4426:4429  idx */\n      dup2\n        /* \"contracts/new.sol\":4418:4430  details[idx] */\n      dup2\n      sload\n      dup2\n      lt\n      tag_201\n      jumpi\n      tag_202\n      tag_203\n      jump\t// in\n    tag_202:\n    tag_201:\n      swap1\n      0x00\n      mstore\n      keccak256(0x00, 0x20)\n      swap1\n      0x06\n      mul\n      add\n        /* \"contracts/new.sol\":4411:4430  return details[idx] */\n      mload(0x40)\n      dup1\n      0xc0\n      add\n      0x40\n      mstore\n      swap1\n      dup2\n      0x00\n      dup3\n      add\n      0x00\n      swap1\n      sload\n      swap1\n      0x0100\n      exp\n      swap1\n      div\n      0xffffffffffffffffffffffffffffffffffffffff\n      and\n      0xffffffffffffffffffffffffffffffffffffffff\n      and\n      0xffffffffffffffffffffffffffffffffffffffff\n      and\n      dup2\n      mstore\n      0x20\n      add\n      0x01\n      dup3\n      add\n      dup1\n      sload\n      tag_205\n      swap1\n      tag_135\n      jump\t// in\n    tag_205:\n      dup1\n      0x1f\n      add\n      0x20\n      dup1\n      swap2\n      div\n      mul\n      0x20\n      add\n      mload(0x40)\n      swap1\n      dup2\n      add\n      0x40\n      mstore\n      dup1\n      swap3\n      swap2\n      swap1\n      dup2\n      dup2\n      mstore\n      0x20\n      add\n      dup3\n      dup1\n      sload\n      tag_206\n      swap1\n      tag_135\n      jump\t// in\n    tag_206:\n      dup1\n      iszero\n      tag_207\n      jumpi\n      dup1\n      0x1f\n      lt\n      tag_208\n      jumpi\n      0x0100\n      dup1\n      dup4\n      sload\n      div\n      mul\n      dup4\n      mstore\n      swap2\n      0x20\n      add\n      swap2\n      jump(tag_207)\n    tag_208:\n      dup3\n      add\n      swap2\n      swap1\n      0x00\n      mstore\n      keccak256(0x00, 0x20)\n      swap1\n    tag_209:\n      dup2\n      sload\n      dup2\n      mstore\n      swap1\n      0x01\n      add\n      swap1\n      0x20\n      add\n      dup1\n      dup4\n      gt\n      tag_209\n      jumpi\n      dup3\n      swap1\n      sub\n      0x1f\n      and\n      dup3\n      add\n      swap2\n    tag_207:\n      pop\n      pop\n      pop\n      pop\n      pop\n      dup2\n      mstore\n      0x20\n      add\n      0x02\n      dup3\n      add\n      dup1\n      sload\n      tag_210\n      swap1\n      tag_135\n      jump\t// in\n    tag_210:\n      dup1\n      0x1f\n      add\n      0x20\n      dup1\n      swap2\n      div\n      mul\n      0x20\n      add\n      mload(0x40)\n      swap1\n      dup2\n      add\n      0x40\n      mstore\n      dup1\n      swap3\n      swap2\n      swap1\n      dup2\n      dup2\n      mstore\n      0x20\n      add\n      dup3\n      dup1\n      sload\n      tag_211\n      swap1\n      tag_135\n      jump\t// in\n    tag_211:\n      dup1\n      iszero\n      tag_212\n      jumpi\n      dup1\n      0x1f\n      lt\n      tag_213\n      jumpi\n      0x0100\n      dup1\n      dup4\n      sload\n      div\n      mul\n      dup4\n      mstore\n      swap2\n      0x20\n      add\n      swap2\n      jump(tag_212)\n    tag_213:\n      dup3\n      add\n      swap2\n      swap1\n      0x00\n      mstore\n      keccak256(0x00, 0x20)\n      swap1\n    tag_214:\n      dup2\n      sload\n      dup2\n      mstore\n      swap1\n      0x01\n      add\n      swap1\n      0x20\n      add\n      dup1\n      dup4\n      gt\n      tag_214\n      jumpi\n      dup3\n      swap1\n      sub\n      0x1f\n      and\n      dup3\n      add\n      swap2\n    tag_212:\n      pop\n      pop\n      pop\n      pop\n      pop\n      dup2\n      mstore\n      0x20\n      add\n      0x03\n      dup3\n      add\n      sload\n      dup2\n      mstore\n      0x20\n      add\n      0x04\n      dup3\n      add\n      sload\n      dup2\n      mstore\n      0x20\n      add\n      0x05\n      dup3\n      add\n      0x00\n      swap1\n      sload\n      swap1\n      0x0100\n      exp\n      swap1\n      div\n      0xff\n      and\n      iszero\n      iszero\n      iszero\n      iszero\n      dup2\n      mstore\n      pop\n      pop\n      swap3\n      pop\n      pop\n      pop\n        /* \"contracts/new.sol\":4168:4436  function checkticket() external view  returns  (Ticket memory t) {... */\n      swap1\n      jump\t// out\n        /* \"contracts/new.sol\":4471:4753  function checkticketvip() external view  returns  (Ticket memory t) {... */\n    tag_55:\n        /* \"contracts/new.sol\":4522:4537  Ticket memory t */\n      tag_215\n      tag_192\n      jump\t// in\n    tag_215:\n        /* \"contracts/new.sol\":4545:4558  uint Ticketno */\n      0x00\n        /* \"contracts/new.sol\":4559:4574  usertoVipTicket */\n      0x07\n        /* \"contracts/new.sol\":4559:4586  usertoVipTicket[msg.sender] */\n      0x00\n        /* \"contracts/new.sol\":4575:4585  msg.sender */\n      caller\n        /* \"contracts/new.sol\":4559:4586  usertoVipTicket[msg.sender] */\n      0xffffffffffffffffffffffffffffffffffffffff\n      and\n      0xffffffffffffffffffffffffffffffffffffffff\n      and\n      dup2\n      mstore\n      0x20\n      add\n      swap1\n      dup2\n      mstore\n      0x20\n      add\n      0x00\n      keccak256\n      sload\n        /* \"contracts/new.sol\":4545:4586  uint Ticketno=usertoVipTicket[msg.sender] */\n      swap1\n      pop\n        /* \"contracts/new.sol\":4611:4612  0 */\n      0x00\n        /* \"contracts/new.sol\":4600:4608  Ticketno */\n      dup2\n        /* \"contracts/new.sol\":4600:4612  Ticketno > 0 */\n      gt\n        /* \"contracts/new.sol\":4592:4635  require(Ticketno > 0,\"you dont own ticket\") */\n      tag_217\n      jumpi\n      mload(0x40)\n      0x08c379a000000000000000000000000000000000000000000000000000000000\n      dup2\n      mstore\n      0x04\n      add\n      tag_218\n      swap1\n      tag_196\n      jump\t// in\n    tag_218:\n      mload(0x40)\n      dup1\n      swap2\n      sub\n      swap1\n      revert\n    tag_217:\n        /* \"contracts/new.sol\":4641:4652  uint256 idx */\n      0x00\n        /* \"contracts/new.sol\":4663:4664  1 */\n      0x01\n        /* \"contracts/new.sol\":4654:4662  Ticketno */\n      dup3\n        /* \"contracts/new.sol\":4654:4664  Ticketno-1 */\n      tag_219\n      swap2\n      swap1\n      tag_157\n      jump\t// in\n    tag_219:\n        /* \"contracts/new.sol\":4641:4664  uint256 idx =Ticketno-1 */\n      swap1\n      pop\n        /* \"contracts/new.sol\":4684:4694  vipdetails */\n      0x09\n        /* \"contracts/new.sol\":4684:4701  vipdetails.length */\n      dup1\n      sload\n      swap1\n      pop\n        /* \"contracts/new.sol\":4678:4681  idx */\n      dup2\n        /* \"contracts/new.sol\":4678:4701  idx < vipdetails.length */\n      lt\n        /* \"contracts/new.sol\":4670:4720  require(idx < vipdetails.length, \" invalid index\") */\n      tag_220\n      jumpi\n      mload(0x40)\n      0x08c379a000000000000000000000000000000000000000000000000000000000\n      dup2\n      mstore\n      0x04\n      add\n      tag_221\n      swap1\n      tag_200\n      jump\t// in\n    tag_221:\n      mload(0x40)\n      dup1\n      swap2\n      sub\n      swap1\n      revert\n    tag_220:\n        /* \"contracts/new.sol\":4732:4742  vipdetails */\n      0x09\n        /* \"contracts/new.sol\":4743:4746  idx */\n      dup2\n        /* \"contracts/new.sol\":4732:4747  vipdetails[idx] */\n      dup2\n      sload\n      dup2\n      lt\n      tag_222\n      jumpi\n      tag_223\n      tag_203\n      jump\t// in\n    tag_223:\n    tag_222:\n      swap1\n      0x00\n      mstore\n      keccak256(0x00, 0x20)\n      swap1\n      0x06\n      mul\n      add\n        /* \"contracts/new.sol\":4725:4747  return vipdetails[idx] */\n      mload(0x40)\n      dup1\n      0xc0\n      add\n      0x40\n      mstore\n      swap1\n      dup2\n      0x00\n      dup3\n      add\n      0x00\n      swap1\n      sload\n      swap1\n      0x0100\n      exp\n      swap1\n      div\n      0xffffffffffffffffffffffffffffffffffffffff\n      and\n      0xffffffffffffffffffffffffffffffffffffffff\n      and\n      0xffffffffffffffffffffffffffffffffffffffff\n      and\n      dup2\n      mstore\n      0x20\n      add\n      0x01\n      dup3\n      add\n      dup1\n      sload\n      tag_225\n      swap1\n      tag_135\n      jump\t// in\n    tag_225:\n      dup1\n      0x1f\n      add\n      0x20\n      dup1\n      swap2\n      div\n      mul\n      0x20\n      add\n      mload(0x40)\n      swap1\n      dup2\n      add\n      0x40\n      mstore\n      dup1\n      swap3\n      swap2\n      swap1\n      dup2\n      dup2\n      mstore\n      0x20\n      add\n      dup3\n      dup1\n      sload\n      tag_226\n      swap1\n      tag_135\n      jump\t// in\n    tag_226:\n      dup1\n      iszero\n      tag_227\n      jumpi\n      dup1\n      0x1f\n      lt\n      tag_228\n      jumpi\n      0x0100\n      dup1\n      dup4\n      sload\n      div\n      mul\n      dup4\n      mstore\n      swap2\n      0x20\n      add\n      swap2\n      jump(tag_227)\n    tag_228:\n      dup3\n      add\n      swap2\n      swap1\n      0x00\n      mstore\n      keccak256(0x00, 0x20)\n      swap1\n    tag_229:\n      dup2\n      sload\n      dup2\n      mstore\n      swap1\n      0x01\n      add\n      swap1\n      0x20\n      add\n      dup1\n      dup4\n      gt\n      tag_229\n      jumpi\n      dup3\n      swap1\n      sub\n      0x1f\n      and\n      dup3\n      add\n      swap2\n    tag_227:\n      pop\n      pop\n      pop\n      pop\n      pop\n      dup2\n      mstore\n      0x20\n      add\n      0x02\n      dup3\n      add\n      dup1\n      sload\n      tag_230\n      swap1\n      tag_135\n      jump\t// in\n    tag_230:\n      dup1\n      0x1f\n      add\n      0x20\n      dup1\n      swap2\n      div\n      mul\n      0x20\n      add\n      mload(0x40)\n      swap1\n      dup2\n      add\n      0x40\n      mstore\n      dup1\n      swap3\n      swap2\n      swap1\n      dup2\n      dup2\n      mstore\n      0x20\n      add\n      dup3\n      dup1\n      sload\n      tag_231\n      swap1\n      tag_135\n      jump\t// in\n    tag_231:\n      dup1\n      iszero\n      tag_232\n      jumpi\n      dup1\n      0x1f\n      lt\n      tag_233\n      jumpi\n      0x0100\n      dup1\n      dup4\n      sload\n      div\n      mul\n      dup4\n      mstore\n      swap2\n      0x20\n      add\n      swap2\n      jump(tag_232)\n    tag_233:\n      dup3\n      add\n      swap2\n      swap1\n      0x00\n      mstore\n      keccak256(0x00, 0x20)\n      swap1\n    tag_234:\n      dup2\n      sload\n      dup2\n      mstore\n      swap1\n      0x01\n      add\n      swap1\n      0x20\n      add\n      dup1\n      dup4\n      gt\n      tag_234\n      jumpi\n      dup3\n      swap1\n      sub\n      0x1f\n      and\n      dup3\n      add\n      swap2\n    tag_232:\n      pop\n      pop\n      pop\n      pop\n      pop\n      dup2\n      mstore\n      0x20\n      add\n      0x03\n      dup3\n      add\n      sload\n      dup2\n      mstore\n      0x20\n      add\n      0x04\n      dup3\n      add\n      sload\n      dup2\n      mstore\n      0x20\n      add\n      0x05\n      dup3\n      add\n      0x00\n      swap1\n      sload\n      swap1\n      0x0100\n      exp\n      swap1\n      div\n      0xff\n      and\n      iszero\n      iszero\n      iszero\n      iszero\n      dup2\n      mstore\n      pop\n      pop\n      swap3\n      pop\n      pop\n      pop\n        /* \"contracts/new.sol\":4471:4753  function checkticketvip() external view  returns  (Ticket memory t) {... */\n      swap1\n      jump\t// out\n        /* \"contracts/new.sol\":303:328  uint256 public  eventDate */\n    tag_59:\n      sload(0x05)\n      dup2\n      jump\t// out\n        /* \"contracts/new.sol\":201:239  uint256 public ethforvip = 0.004 ether */\n    tag_64:\n      sload(0x02)\n      dup2\n      jump\t// out\n        /* \"contracts/new.sol\":1817:2375  function refund() external  {... */\n    tag_68:\n        /* \"contracts/new.sol\":1853:1866  uint TicketNo */\n      0x00\n        /* \"contracts/new.sol\":1869:1881  usertoTicket */\n      0x06\n        /* \"contracts/new.sol\":1869:1893  usertoTicket[msg.sender] */\n      0x00\n        /* \"contracts/new.sol\":1882:1892  msg.sender */\n      caller\n        /* \"contracts/new.sol\":1869:1893  usertoTicket[msg.sender] */\n      0xffffffffffffffffffffffffffffffffffffffff\n      and\n      0xffffffffffffffffffffffffffffffffffffffff\n      and\n      dup2\n      mstore\n      0x20\n      add\n      swap1\n      dup2\n      mstore\n      0x20\n      add\n      0x00\n      keccak256\n      sload\n        /* \"contracts/new.sol\":1853:1893  uint TicketNo = usertoTicket[msg.sender] */\n      swap1\n      pop\n        /* \"contracts/new.sol\":1934:1943  eventDate */\n      sload(0x05)\n        /* \"contracts/new.sol\":1916:1931  block.timestamp */\n      timestamp\n        /* \"contracts/new.sol\":1916:1943  block.timestamp < eventDate */\n      lt\n        /* \"contracts/new.sol\":1908:1969  require(block.timestamp < eventDate, \"refund period is over\") */\n      tag_236\n      jumpi\n      mload(0x40)\n      0x08c379a000000000000000000000000000000000000000000000000000000000\n      dup2\n      mstore\n      0x04\n      add\n      tag_237\n      swap1\n      tag_238\n      jump\t// in\n    tag_237:\n      mload(0x40)\n      dup1\n      swap2\n      sub\n      swap1\n      revert\n    tag_236:\n        /* \"contracts/new.sol\":1996:1997  0 */\n      0x00\n        /* \"contracts/new.sol\":1985:1993  TicketNo */\n      dup2\n        /* \"contracts/new.sol\":1985:1997  TicketNo > 0 */\n      gt\n        /* \"contracts/new.sol\":1977:2020  require(TicketNo > 0,\"you dont own Ticket\") */\n      tag_239\n      jumpi\n      mload(0x40)\n      0x08c379a000000000000000000000000000000000000000000000000000000000\n      dup2\n      mstore\n      0x04\n      add\n      tag_240\n      swap1\n      tag_241\n      jump\t// in\n    tag_240:\n      mload(0x40)\n      dup1\n      swap2\n      sub\n      swap1\n      revert\n    tag_239:\n        /* \"contracts/new.sol\":2062:2063  0 */\n      0x00\n        /* \"contracts/new.sol\":2035:2047  usertoTicket */\n      0x06\n        /* \"contracts/new.sol\":2035:2059  usertoTicket[msg.sender] */\n      0x00\n        /* \"contracts/new.sol\":2048:2058  msg.sender */\n      caller\n        /* \"contracts/new.sol\":2035:2059  usertoTicket[msg.sender] */\n      0xffffffffffffffffffffffffffffffffffffffff\n      and\n      0xffffffffffffffffffffffffffffffffffffffff\n      and\n      dup2\n      mstore\n      0x20\n      add\n      swap1\n      dup2\n      mstore\n      0x20\n      add\n      0x00\n      keccak256\n        /* \"contracts/new.sol\":2035:2063  usertoTicket[msg.sender] = 0 */\n      dup2\n      swap1\n      sstore\n      pop\n        /* \"contracts/new.sol\":2079:2080  1 */\n      0x01\n        /* \"contracts/new.sol\":2071:2076  seats */\n      0x03\n      0x00\n        /* \"contracts/new.sol\":2071:2080  seats +=1 */\n      dup3\n      dup3\n      sload\n      tag_242\n      swap2\n      swap1\n      tag_159\n      jump\t// in\n    tag_242:\n      swap3\n      pop\n      pop\n      dup2\n      swap1\n      sstore\n      pop\n        /* \"contracts/new.sol\":2089:2100  uint256 idx */\n      0x00\n        /* \"contracts/new.sol\":2114:2115  1 */\n      0x01\n        /* \"contracts/new.sol\":2103:2111  TicketNo */\n      dup3\n        /* \"contracts/new.sol\":2103:2115  TicketNo - 1 */\n      tag_243\n      swap2\n      swap1\n      tag_157\n      jump\t// in\n    tag_243:\n        /* \"contracts/new.sol\":2089:2115  uint256 idx = TicketNo - 1 */\n      swap1\n      pop\n        /* \"contracts/new.sol\":2133:2140  details */\n      0x08\n        /* \"contracts/new.sol\":2133:2147  details.length */\n      dup1\n      sload\n      swap1\n      pop\n        /* \"contracts/new.sol\":2127:2130  idx */\n      dup2\n        /* \"contracts/new.sol\":2127:2147  idx < details.length */\n      lt\n        /* \"contracts/new.sol\":2123:2195  if (idx < details.length){... */\n      iszero\n      tag_244\n      jumpi\n        /* \"contracts/new.sol\":2182:2186  true */\n      0x01\n        /* \"contracts/new.sol\":2158:2165  details */\n      0x08\n        /* \"contracts/new.sol\":2166:2169  idx */\n      dup3\n        /* \"contracts/new.sol\":2158:2170  details[idx] */\n      dup2\n      sload\n      dup2\n      lt\n      tag_245\n      jumpi\n      tag_246\n      tag_203\n      jump\t// in\n    tag_246:\n    tag_245:\n      swap1\n      0x00\n      mstore\n      keccak256(0x00, 0x20)\n      swap1\n      0x06\n      mul\n      add\n        /* \"contracts/new.sol\":2158:2179  details[idx].refunded */\n      0x05\n      add\n      0x00\n        /* \"contracts/new.sol\":2158:2186  details[idx].refunded = true */\n      0x0100\n      exp\n      dup2\n      sload\n      dup2\n      0xff\n      mul\n      not\n      and\n      swap1\n      dup4\n      iszero\n      iszero\n      mul\n      or\n      swap1\n      sstore\n      pop\n        /* \"contracts/new.sol\":2123:2195  if (idx < details.length){... */\n    tag_244:\n        /* \"contracts/new.sol\":2211:2220  bool sent */\n      0x00\n        /* \"contracts/new.sol\":2234:2244  msg.sender */\n      caller\n        /* \"contracts/new.sol\":2226:2250  payable(msg.sender).call */\n      0xffffffffffffffffffffffffffffffffffffffff\n      and\n        /* \"contracts/new.sol\":2258:2261  eth */\n      sload(0x01)\n        /* \"contracts/new.sol\":2226:2266  payable(msg.sender).call{value: eth}(\"\") */\n      mload(0x40)\n      tag_248\n      swap1\n      tag_175\n      jump\t// in\n    tag_248:\n      0x00\n      mload(0x40)\n      dup1\n      dup4\n      sub\n      dup2\n      dup6\n      dup8\n      gas\n      call\n      swap3\n      pop\n      pop\n      pop\n      returndatasize\n      dup1\n      0x00\n      dup2\n      eq\n      tag_251\n      jumpi\n      mload(0x40)\n      swap2\n      pop\n      and(add(returndatasize, 0x3f), not(0x1f))\n      dup3\n      add\n      0x40\n      mstore\n      returndatasize\n      dup3\n      mstore\n      returndatasize\n      0x00\n      0x20\n      dup5\n      add\n      returndatacopy\n      jump(tag_250)\n    tag_251:\n      0x60\n      swap2\n      pop\n    tag_250:\n      pop\n        /* \"contracts/new.sol\":2210:2266  (bool sent,) =  payable(msg.sender).call{value: eth}(\"\") */\n      pop\n      swap1\n      pop\n        /* \"contracts/new.sol\":2283:2287  sent */\n      dup1\n        /* \"contracts/new.sol\":2275:2314  require(sent,\"error:issue with refund\") */\n      tag_252\n      jumpi\n      mload(0x40)\n      0x08c379a000000000000000000000000000000000000000000000000000000000\n      dup2\n      mstore\n      0x04\n      add\n      tag_253\n      swap1\n      tag_254\n      jump\t// in\n    tag_253:\n      mload(0x40)\n      dup1\n      swap2\n      sub\n      swap1\n      revert\n    tag_252:\n        /* \"contracts/new.sol\":2342:2352  msg.sender */\n      caller\n        /* \"contracts/new.sol\":2335:2368  Refund(msg.sender, TicketNo, eth) */\n      0xffffffffffffffffffffffffffffffffffffffff\n      and\n      0x73f04af9dcc582a923ec15d3eea990fe34adabfff2879e28d44572e01a54abb6\n        /* \"contracts/new.sol\":2354:2362  TicketNo */\n      dup5\n        /* \"contracts/new.sol\":2364:2367  eth */\n      sload(0x01)\n        /* \"contracts/new.sol\":2335:2368  Refund(msg.sender, TicketNo, eth) */\n      mload(0x40)\n      tag_255\n      swap3\n      swap2\n      swap1\n      tag_165\n      jump\t// in\n    tag_255:\n      mload(0x40)\n      dup1\n      swap2\n      sub\n      swap1\n      log2\n        /* \"contracts/new.sol\":1845:2375  {... */\n      pop\n      pop\n      pop\n        /* \"contracts/new.sol\":1817:2375  function refund() external  {... */\n      jump\t// out\n        /* \"contracts/new.sol\":3195:3792  function refundforvip() external {... */\n    tag_71:\n        /* \"contracts/new.sol\":3234:3247  uint ticketno */\n      0x00\n        /* \"contracts/new.sol\":3250:3265  usertoVipTicket */\n      0x07\n        /* \"contracts/new.sol\":3250:3277  usertoVipTicket[msg.sender] */\n      0x00\n        /* \"contracts/new.sol\":3266:3276  msg.sender */\n      caller\n        /* \"contracts/new.sol\":3250:3277  usertoVipTicket[msg.sender] */\n      0xffffffffffffffffffffffffffffffffffffffff\n      and\n      0xffffffffffffffffffffffffffffffffffffffff\n      and\n      dup2\n      mstore\n      0x20\n      add\n      swap1\n      dup2\n      mstore\n      0x20\n      add\n      0x00\n      keccak256\n      sload\n        /* \"contracts/new.sol\":3234:3277  uint ticketno = usertoVipTicket[msg.sender] */\n      swap1\n      pop\n        /* \"contracts/new.sol\":3312:3321  eventDate */\n      sload(0x05)\n        /* \"contracts/new.sol\":3294:3309  block.timestamp */\n      timestamp\n        /* \"contracts/new.sol\":3294:3321  block.timestamp < eventDate */\n      lt\n        /* \"contracts/new.sol\":3286:3347  require(block.timestamp < eventDate, \"refund period is over\") */\n      tag_257\n      jumpi\n      mload(0x40)\n      0x08c379a000000000000000000000000000000000000000000000000000000000\n      dup2\n      mstore\n      0x04\n      add\n      tag_258\n      swap1\n      tag_238\n      jump\t// in\n    tag_258:\n      mload(0x40)\n      dup1\n      swap2\n      sub\n      swap1\n      revert\n    tag_257:\n        /* \"contracts/new.sol\":3374:3375  0 */\n      0x00\n        /* \"contracts/new.sol\":3363:3371  ticketno */\n      dup2\n        /* \"contracts/new.sol\":3363:3375  ticketno > 0 */\n      gt\n        /* \"contracts/new.sol\":3355:3398  require(ticketno > 0,\"you dont own Ticket\") */\n      tag_259\n      jumpi\n      mload(0x40)\n      0x08c379a000000000000000000000000000000000000000000000000000000000\n      dup2\n      mstore\n      0x04\n      add\n      tag_260\n      swap1\n      tag_241\n      jump\t// in\n    tag_260:\n      mload(0x40)\n      dup1\n      swap2\n      sub\n      swap1\n      revert\n    tag_259:\n        /* \"contracts/new.sol\":3443:3444  0 */\n      0x00\n        /* \"contracts/new.sol\":3413:3428  usertoVipTicket */\n      0x07\n        /* \"contracts/new.sol\":3413:3440  usertoVipTicket[msg.sender] */\n      0x00\n        /* \"contracts/new.sol\":3429:3439  msg.sender */\n      caller\n        /* \"contracts/new.sol\":3413:3440  usertoVipTicket[msg.sender] */\n      0xffffffffffffffffffffffffffffffffffffffff\n      and\n      0xffffffffffffffffffffffffffffffffffffffff\n      and\n      dup2\n      mstore\n      0x20\n      add\n      swap1\n      dup2\n      mstore\n      0x20\n      add\n      0x00\n      keccak256\n        /* \"contracts/new.sol\":3413:3444  usertoVipTicket[msg.sender] = 0 */\n      dup2\n      swap1\n      sstore\n      pop\n        /* \"contracts/new.sol\":3462:3463  1 */\n      0x01\n        /* \"contracts/new.sol\":3452:3460  vipseats */\n      0x04\n      0x00\n        /* \"contracts/new.sol\":3452:3463  vipseats+=1 */\n      dup3\n      dup3\n      sload\n      tag_261\n      swap2\n      swap1\n      tag_159\n      jump\t// in\n    tag_261:\n      swap3\n      pop\n      pop\n      dup2\n      swap1\n      sstore\n      pop\n        /* \"contracts/new.sol\":3474:3485  uint256 idx */\n      0x00\n        /* \"contracts/new.sol\":3499:3500  1 */\n      0x01\n        /* \"contracts/new.sol\":3488:3496  ticketno */\n      dup3\n        /* \"contracts/new.sol\":3488:3500  ticketno - 1 */\n      tag_262\n      swap2\n      swap1\n      tag_157\n      jump\t// in\n    tag_262:\n        /* \"contracts/new.sol\":3474:3500  uint256 idx = ticketno - 1 */\n      swap1\n      pop\n        /* \"contracts/new.sol\":3542:3552  vipdetails */\n      0x09\n        /* \"contracts/new.sol\":3542:3559  vipdetails.length */\n      dup1\n      sload\n      swap1\n      pop\n        /* \"contracts/new.sol\":3536:3539  idx */\n      dup2\n        /* \"contracts/new.sol\":3536:3559  idx < vipdetails.length */\n      lt\n        /* \"contracts/new.sol\":3532:3617  if (idx < vipdetails.length) {... */\n      iszero\n      tag_263\n      jumpi\n        /* \"contracts/new.sol\":3602:3606  true */\n      0x01\n        /* \"contracts/new.sol\":3575:3585  vipdetails */\n      0x09\n        /* \"contracts/new.sol\":3586:3589  idx */\n      dup3\n        /* \"contracts/new.sol\":3575:3590  vipdetails[idx] */\n      dup2\n      sload\n      dup2\n      lt\n      tag_264\n      jumpi\n      tag_265\n      tag_203\n      jump\t// in\n    tag_265:\n    tag_264:\n      swap1\n      0x00\n      mstore\n      keccak256(0x00, 0x20)\n      swap1\n      0x06\n      mul\n      add\n        /* \"contracts/new.sol\":3575:3599  vipdetails[idx].refunded */\n      0x05\n      add\n      0x00\n        /* \"contracts/new.sol\":3575:3606  vipdetails[idx].refunded = true */\n      0x0100\n      exp\n      dup2\n      sload\n      dup2\n      0xff\n      mul\n      not\n      and\n      swap1\n      dup4\n      iszero\n      iszero\n      mul\n      or\n      swap1\n      sstore\n      pop\n        /* \"contracts/new.sol\":3532:3617  if (idx < vipdetails.length) {... */\n    tag_263:\n        /* \"contracts/new.sol\":3627:3636  bool sent */\n      0x00\n        /* \"contracts/new.sol\":3649:3659  msg.sender */\n      caller\n        /* \"contracts/new.sol\":3641:3665  payable(msg.sender).call */\n      0xffffffffffffffffffffffffffffffffffffffff\n      and\n        /* \"contracts/new.sol\":3672:3681  ethforvip */\n      sload(0x02)\n        /* \"contracts/new.sol\":3641:3686  payable(msg.sender).call{value:ethforvip}(\"\") */\n      mload(0x40)\n      tag_267\n      swap1\n      tag_175\n      jump\t// in\n    tag_267:\n      0x00\n      mload(0x40)\n      dup1\n      dup4\n      sub\n      dup2\n      dup6\n      dup8\n      gas\n      call\n      swap3\n      pop\n      pop\n      pop\n      returndatasize\n      dup1\n      0x00\n      dup2\n      eq\n      tag_270\n      jumpi\n      mload(0x40)\n      swap2\n      pop\n      and(add(returndatasize, 0x3f), not(0x1f))\n      dup3\n      add\n      0x40\n      mstore\n      returndatasize\n      dup3\n      mstore\n      returndatasize\n      0x00\n      0x20\n      dup5\n      add\n      returndatacopy\n      jump(tag_269)\n    tag_270:\n      0x60\n      swap2\n      pop\n    tag_269:\n      pop\n        /* \"contracts/new.sol\":3626:3686  (bool sent,) = payable(msg.sender).call{value:ethforvip}(\"\") */\n      pop\n      swap1\n      pop\n        /* \"contracts/new.sol\":3702:3706  sent */\n      dup1\n        /* \"contracts/new.sol\":3694:3733  require(sent,\"error:issue with refund\") */\n      tag_271\n      jumpi\n      mload(0x40)\n      0x08c379a000000000000000000000000000000000000000000000000000000000\n      dup2\n      mstore\n      0x04\n      add\n      tag_272\n      swap1\n      tag_254\n      jump\t// in\n    tag_272:\n      mload(0x40)\n      dup1\n      swap2\n      sub\n      swap1\n      revert\n    tag_271:\n        /* \"contracts/new.sol\":3754:3764  msg.sender */\n      caller\n        /* \"contracts/new.sol\":3747:3786  Refund(msg.sender, ticketno, ethforvip) */\n      0xffffffffffffffffffffffffffffffffffffffff\n      and\n      0x73f04af9dcc582a923ec15d3eea990fe34adabfff2879e28d44572e01a54abb6\n        /* \"contracts/new.sol\":3766:3774  ticketno */\n      dup5\n        /* \"contracts/new.sol\":3776:3785  ethforvip */\n      sload(0x02)\n        /* \"contracts/new.sol\":3747:3786  Refund(msg.sender, ticketno, ethforvip) */\n      mload(0x40)\n      tag_273\n      swap3\n      swap2\n      swap1\n      tag_165\n      jump\t// in\n    tag_273:\n      mload(0x40)\n      dup1\n      swap2\n      sub\n      swap1\n      log2\n        /* \"contracts/new.sol\":3228:3792  {... */\n      pop\n      pop\n      pop\n        /* \"contracts/new.sol\":3195:3792  function refundforvip() external {... */\n      jump\t// out\n        /* \"contracts/ownable.sol\":1286:1413  function renounceOwnership() public onlyOwner {... */\n    tag_74:\n        /* \"contracts/ownable.sol\":844:853  isOwner() */\n      tag_275\n        /* \"contracts/ownable.sol\":844:851  isOwner */\n      tag_92\n        /* \"contracts/ownable.sol\":844:853  isOwner() */\n      jump\t// in\n    tag_275:\n        /* \"contracts/ownable.sol\":836:854  require(isOwner()) */\n      tag_276\n      jumpi\n      revert(0x00, 0x00)\n    tag_276:\n        /* \"contracts/ownable.sol\":1380:1381  0 */\n      0x00\n        /* \"contracts/ownable.sol\":1343:1383  OwnershipTransferred(_owner, address(0)) */\n      0xffffffffffffffffffffffffffffffffffffffff\n      and\n        /* \"contracts/ownable.sol\":1364:1370  _owner */\n      0x00\n      0x00\n      swap1\n      sload\n      swap1\n      0x0100\n      exp\n      swap1\n      div\n      0xffffffffffffffffffffffffffffffffffffffff\n      and\n        /* \"contracts/ownable.sol\":1343:1383  OwnershipTransferred(_owner, address(0)) */\n      0xffffffffffffffffffffffffffffffffffffffff\n      and\n      0x8be0079c531659141344cd1fd0a4f28419497f9722a3daafe3b4186f6b6457e0\n      mload(0x40)\n      mload(0x40)\n      dup1\n      swap2\n      sub\n      swap1\n      log3\n        /* \"contracts/ownable.sol\":1406:1407  0 */\n      0x00\n        /* \"contracts/ownable.sol\":1389:1395  _owner */\n      0x00\n      0x00\n        /* \"contracts/ownable.sol\":1389:1408  _owner = address(0) */\n      0x0100\n      exp\n      dup2\n      sload\n      dup2\n      0xffffffffffffffffffffffffffffffffffffffff\n      mul\n      not\n      and\n      swap1\n      dup4\n      0xffffffffffffffffffffffffffffffffffffffff\n      and\n      mul\n      or\n      swap1\n      sstore\n      pop\n        /* \"contracts/ownable.sol\":1286:1413  function renounceOwnership() public onlyOwner {... */\n      jump\t// out\n        /* \"contracts/new.sol\":393:441  mapping (address => uint) public usertoVipTicket */\n    tag_79:\n      mstore(0x20, 0x07)\n      dup1\n      0x00\n      mstore\n      keccak256(0x00, 0x40)\n      0x00\n      swap2\n      pop\n      swap1\n      pop\n      sload\n      dup2\n      jump\t// out\n        /* \"contracts/new.sol\":165:198  uint256 public  eth = 0.001 ether */\n    tag_83:\n      sload(0x01)\n      dup2\n      jump\t// out\n        /* \"contracts/ownable.sol\":661:731  function owner() public view returns(address) {... */\n    tag_87:\n        /* \"contracts/ownable.sol\":698:705  address */\n      0x00\n        /* \"contracts/ownable.sol\":720:726  _owner */\n      0x00\n      0x00\n      swap1\n      sload\n      swap1\n      0x0100\n      exp\n      swap1\n      div\n      0xffffffffffffffffffffffffffffffffffffffff\n      and\n        /* \"contracts/ownable.sol\":713:726  return _owner */\n      swap1\n      pop\n        /* \"contracts/ownable.sol\":661:731  function owner() public view returns(address) {... */\n      swap1\n      jump\t// out\n        /* \"contracts/ownable.sol\":944:1027  function isOwner() public view returns(bool) {... */\n    tag_92:\n        /* \"contracts/ownable.sol\":983:987  bool */\n      0x00\n        /* \"contracts/ownable.sol\":1016:1022  _owner */\n      0x00\n      0x00\n      swap1\n      sload\n      swap1\n      0x0100\n      exp\n      swap1\n      div\n      0xffffffffffffffffffffffffffffffffffffffff\n      and\n        /* \"contracts/ownable.sol\":1002:1022  msg.sender == _owner */\n      0xffffffffffffffffffffffffffffffffffffffff\n      and\n        /* \"contracts/ownable.sol\":1002:1012  msg.sender */\n      caller\n        /* \"contracts/ownable.sol\":1002:1022  msg.sender == _owner */\n      0xffffffffffffffffffffffffffffffffffffffff\n      and\n      eq\n        /* \"contracts/ownable.sol\":995:1022  return msg.sender == _owner */\n      swap1\n      pop\n        /* \"contracts/ownable.sol\":944:1027  function isOwner() public view returns(bool) {... */\n      swap1\n      jump\t// out\n        /* \"contracts/new.sol\":5211:5305  function seteventdate(uint256 _eventdate) external onlyOwner{... */\n    tag_98:\n        /* \"contracts/ownable.sol\":844:853  isOwner() */\n      tag_281\n        /* \"contracts/ownable.sol\":844:851  isOwner */\n      tag_92\n        /* \"contracts/ownable.sol\":844:853  isOwner() */\n      jump\t// in\n    tag_281:\n        /* \"contracts/ownable.sol\":836:854  require(isOwner()) */\n      tag_282\n      jumpi\n      revert(0x00, 0x00)\n    tag_282:\n        /* \"contracts/new.sol\":5289:5299  _eventdate */\n      dup1\n        /* \"contracts/new.sol\":5277:5286  eventDate */\n      0x05\n        /* \"contracts/new.sol\":5277:5299  eventDate = _eventdate */\n      dup2\n      swap1\n      sstore\n      pop\n        /* \"contracts/new.sol\":5211:5305  function seteventdate(uint256 _eventdate) external onlyOwner{... */\n      pop\n      jump\t// out\n        /* \"contracts/new.sol\":242:268  uint256 public seats = 100 */\n    tag_101:\n      sload(0x03)\n      dup2\n      jump\t// out\n        /* \"contracts/new.sol\":905:928  Ticket[] public details */\n    tag_106:\n      0x08\n      dup2\n      dup2\n      sload\n      dup2\n      lt\n      tag_284\n      jumpi\n      0x00\n      dup1\n      revert\n    tag_284:\n      swap1\n      0x00\n      mstore\n      keccak256(0x00, 0x20)\n      swap1\n      0x06\n      mul\n      add\n      0x00\n      swap2\n      pop\n      swap1\n      pop\n      dup1\n      0x00\n      add\n      0x00\n      swap1\n      sload\n      swap1\n      0x0100\n      exp\n      swap1\n      div\n      0xffffffffffffffffffffffffffffffffffffffff\n      and\n      swap1\n      dup1\n      0x01\n      add\n      dup1\n      sload\n      tag_286\n      swap1\n      tag_135\n      jump\t// in\n    tag_286:\n      dup1\n      0x1f\n      add\n      0x20\n      dup1\n      swap2\n      div\n      mul\n      0x20\n      add\n      mload(0x40)\n      swap1\n      dup2\n      add\n      0x40\n      mstore\n      dup1\n      swap3\n      swap2\n      swap1\n      dup2\n      dup2\n      mstore\n      0x20\n      add\n      dup3\n      dup1\n      sload\n      tag_287\n      swap1\n      tag_135\n      jump\t// in\n    tag_287:\n      dup1\n      iszero\n      tag_288\n      jumpi\n      dup1\n      0x1f\n      lt\n      tag_289\n      jumpi\n      0x0100\n      dup1\n      dup4\n      sload\n      div\n      mul\n      dup4\n      mstore\n      swap2\n      0x20\n      add\n      swap2\n      jump(tag_288)\n    tag_289:\n      dup3\n      add\n      swap2\n      swap1\n      0x00\n      mstore\n      keccak256(0x00, 0x20)\n      swap1\n    tag_290:\n      dup2\n      sload\n      dup2\n      mstore\n      swap1\n      0x01\n      add\n      swap1\n      0x20\n      add\n      dup1\n      dup4\n      gt\n      tag_290\n      jumpi\n      dup3\n      swap1\n      sub\n      0x1f\n      and\n      dup3\n      add\n      swap2\n    tag_288:\n      pop\n      pop\n      pop\n      pop\n      pop\n      swap1\n      dup1\n      0x02\n      add\n      dup1\n      sload\n      tag_291\n      swap1\n      tag_135\n      jump\t// in\n    tag_291:\n      dup1\n      0x1f\n      add\n      0x20\n      dup1\n      swap2\n      div\n      mul\n      0x20\n      add\n      mload(0x40)\n      swap1\n      dup2\n      add\n      0x40\n      mstore\n      dup1\n      swap3\n      swap2\n      swap1\n      dup2\n      dup2\n      mstore\n      0x20\n      add\n      dup3\n      dup1\n      sload\n      tag_292\n      swap1\n      tag_135\n      jump\t// in\n    tag_292:\n      dup1\n      iszero\n      tag_293\n      jumpi\n      dup1\n      0x1f\n      lt\n      tag_294\n      jumpi\n      0x0100\n      dup1\n      dup4\n      sload\n      div\n      mul\n      dup4\n      mstore\n      swap2\n      0x20\n      add\n      swap2\n      jump(tag_293)\n    tag_294:\n      dup3\n      add\n      swap2\n      swap1\n      0x00\n      mstore\n      keccak256(0x00, 0x20)\n      swap1\n    tag_295:\n      dup2\n      sload\n      dup2\n      mstore\n      swap1\n      0x01\n      add\n      swap1\n      0x20\n      add\n      dup1\n      dup4\n      gt\n      tag_295\n      jumpi\n      dup3\n      swap1\n      sub\n      0x1f\n      and\n      dup3\n      add\n      swap2\n    tag_293:\n      pop\n      pop\n      pop\n      pop\n      pop\n      swap1\n      dup1\n      0x03\n      add\n      sload\n      swap1\n      dup1\n      0x04\n      add\n      sload\n      swap1\n      dup1\n      0x05\n      add\n      0x00\n      swap1\n      sload\n      swap1\n      0x0100\n      exp\n      swap1\n      div\n      0xff\n      and\n      swap1\n      pop\n      dup7\n      jump\t// out\n        /* \"contracts/new.sol\":271:300  uint256  public vipseats = 50 */\n    tag_110:\n      sload(0x04)\n      dup2\n      jump\t// out\n        /* \"contracts/new.sol\":345:390  mapping (address => uint) public usertoTicket */\n    tag_115:\n      mstore(0x20, 0x06)\n      dup1\n      0x00\n      mstore\n      keccak256(0x00, 0x40)\n      0x00\n      swap2\n      pop\n      swap1\n      pop\n      sload\n      dup2\n      jump\t// out\n        /* \"contracts/new.sol\":2410:3161  function Buyvipseats(string memory _name,... */\n    tag_119:\n        /* \"contracts/new.sol\":2551:2560  ethforvip */\n      sload(0x02)\n        /* \"contracts/new.sol\":2538:2547  msg.value */\n      callvalue\n        /* \"contracts/new.sol\":2538:2560  msg.value == ethforvip */\n      eq\n        /* \"contracts/new.sol\":2530:2600  require(msg.value == ethforvip, \"you have to pay exact amount of eth\") */\n      tag_297\n      jumpi\n      mload(0x40)\n      0x08c379a000000000000000000000000000000000000000000000000000000000\n      dup2\n      mstore\n      0x04\n      add\n      tag_298\n      swap1\n      tag_148\n      jump\t// in\n    tag_298:\n      mload(0x40)\n      dup1\n      swap2\n      sub\n      swap1\n      revert\n    tag_297:\n        /* \"contracts/new.sol\":2630:2631  0 */\n      0x00\n        /* \"contracts/new.sol\":2619:2627  vipseats */\n      sload(0x04)\n        /* \"contracts/new.sol\":2619:2631  vipseats > 0 */\n      gt\n        /* \"contracts/new.sol\":2610:2649  require( vipseats > 0,\"seats are full\") */\n      tag_299\n      jumpi\n      mload(0x40)\n      0x08c379a000000000000000000000000000000000000000000000000000000000\n      dup2\n      mstore\n      0x04\n      add\n      tag_300\n      swap1\n      tag_151\n      jump\t// in\n    tag_300:\n      mload(0x40)\n      dup1\n      swap2\n      sub\n      swap1\n      revert\n    tag_299:\n        /* \"contracts/new.sol\":2698:2699  0 */\n      0x00\n        /* \"contracts/new.sol\":2667:2682  usertoVipTicket */\n      0x07\n        /* \"contracts/new.sol\":2667:2694  usertoVipTicket[msg.sender] */\n      0x00\n        /* \"contracts/new.sol\":2683:2693  msg.sender */\n      caller\n        /* \"contracts/new.sol\":2667:2694  usertoVipTicket[msg.sender] */\n      0xffffffffffffffffffffffffffffffffffffffff\n      and\n      0xffffffffffffffffffffffffffffffffffffffff\n      and\n      dup2\n      mstore\n      0x20\n      add\n      swap1\n      dup2\n      mstore\n      0x20\n      add\n      0x00\n      keccak256\n      sload\n        /* \"contracts/new.sol\":2667:2699  usertoVipTicket[msg.sender] == 0 */\n      eq\n        /* \"contracts/new.sol\":2667:2732  usertoVipTicket[msg.sender] == 0 && usertoTicket[msg.sender] == 0 */\n      dup1\n      iszero\n      tag_301\n      jumpi\n      pop\n        /* \"contracts/new.sol\":2731:2732  0 */\n      0x00\n        /* \"contracts/new.sol\":2703:2715  usertoTicket */\n      0x06\n        /* \"contracts/new.sol\":2703:2727  usertoTicket[msg.sender] */\n      0x00\n        /* \"contracts/new.sol\":2716:2726  msg.sender */\n      caller\n        /* \"contracts/new.sol\":2703:2727  usertoTicket[msg.sender] */\n      0xffffffffffffffffffffffffffffffffffffffff\n      and\n      0xffffffffffffffffffffffffffffffffffffffff\n      and\n      dup2\n      mstore\n      0x20\n      add\n      swap1\n      dup2\n      mstore\n      0x20\n      add\n      0x00\n      keccak256\n      sload\n        /* \"contracts/new.sol\":2703:2732  usertoTicket[msg.sender] == 0 */\n      eq\n        /* \"contracts/new.sol\":2667:2732  usertoVipTicket[msg.sender] == 0 && usertoTicket[msg.sender] == 0 */\n    tag_301:\n        /* \"contracts/new.sol\":2659:2762  require(usertoVipTicket[msg.sender] == 0 && usertoTicket[msg.sender] == 0,\"you have to buy one ticket\") */\n      tag_302\n      jumpi\n      mload(0x40)\n      0x08c379a000000000000000000000000000000000000000000000000000000000\n      dup2\n      mstore\n      0x04\n      add\n      tag_303\n      swap1\n      tag_304\n      jump\t// in\n    tag_303:\n      mload(0x40)\n      dup1\n      swap2\n      sub\n      swap1\n      revert\n    tag_302:\n        /* \"contracts/new.sol\":2782:2783  1 */\n      0x01\n        /* \"contracts/new.sol\":2771:2779  vipseats */\n      0x04\n      0x00\n        /* \"contracts/new.sol\":2771:2783  vipseats -=1 */\n      dup3\n      dup3\n      sload\n      tag_305\n      swap2\n      swap1\n      tag_157\n      jump\t// in\n    tag_305:\n      swap3\n      pop\n      pop\n      dup2\n      swap1\n      sstore\n      pop\n        /* \"contracts/new.sol\":2793:2809  uint VipTicketNo */\n      0x00\n        /* \"contracts/new.sol\":2831:2832  1 */\n      0x01\n        /* \"contracts/new.sol\":2812:2822  vipdetails */\n      0x09\n        /* \"contracts/new.sol\":2812:2829  vipdetails.length */\n      dup1\n      sload\n      swap1\n      pop\n        /* \"contracts/new.sol\":2812:2832  vipdetails.length +1 */\n      tag_306\n      swap2\n      swap1\n      tag_159\n      jump\t// in\n    tag_306:\n        /* \"contracts/new.sol\":2793:2832  uint VipTicketNo = vipdetails.length +1 */\n      swap1\n      pop\n        /* \"contracts/new.sol\":2843:2853  vipdetails */\n      0x09\n        /* \"contracts/new.sol\":2859:3037  Ticket({... */\n      mload(0x40)\n      dup1\n      0xc0\n      add\n      0x40\n      mstore\n      dup1\n        /* \"contracts/new.sol\":2884:2894  msg.sender */\n      caller\n        /* \"contracts/new.sol\":2859:3037  Ticket({... */\n      0xffffffffffffffffffffffffffffffffffffffff\n      and\n      dup2\n      mstore\n      0x20\n      add\n        /* \"contracts/new.sol\":2911:2916  _name */\n      dup7\n        /* \"contracts/new.sol\":2859:3037  Ticket({... */\n      dup2\n      mstore\n      0x20\n      add\n        /* \"contracts/new.sol\":2934:2940  _email */\n      dup6\n        /* \"contracts/new.sol\":2859:3037  Ticket({... */\n      dup2\n      mstore\n      0x20\n      add\n        /* \"contracts/new.sol\":2960:2968  _phoneNo */\n      dup5\n        /* \"contracts/new.sol\":2859:3037  Ticket({... */\n      dup2\n      mstore\n      0x20\n      add\n        /* \"contracts/new.sol\":2989:3000  VipTicketNo */\n      dup4\n        /* \"contracts/new.sol\":2859:3037  Ticket({... */\n      dup2\n      mstore\n      0x20\n      add\n        /* \"contracts/new.sol\":3021:3026  false */\n      0x00\n        /* \"contracts/new.sol\":2859:3037  Ticket({... */\n      iszero\n      iszero\n      dup2\n      mstore\n      pop\n        /* \"contracts/new.sol\":2843:3038  vipdetails.push(Ticket({... */\n      swap1\n      dup1\n      0x01\n      dup2\n      sload\n      add\n      dup1\n      dup3\n      sstore\n      dup1\n      swap2\n      pop\n      pop\n      0x01\n      swap1\n      sub\n      swap1\n      0x00\n      mstore\n      keccak256(0x00, 0x20)\n      swap1\n      0x06\n      mul\n      add\n      0x00\n      swap1\n      swap2\n      swap1\n      swap2\n      swap1\n      swap2\n      pop\n      0x00\n      dup3\n      add\n      mload\n      dup2\n      0x00\n      add\n      exp(0x0100, 0x00)\n      dup2\n      sload\n      dup2\n      0xffffffffffffffffffffffffffffffffffffffff\n      mul\n      not\n      and\n      swap1\n      dup4\n      0xffffffffffffffffffffffffffffffffffffffff\n      and\n      mul\n      or\n      swap1\n      sstore\n      pop\n      0x20\n      dup3\n      add\n      mload\n      dup2\n      0x01\n      add\n      swap1\n      dup2\n      tag_308\n      swap2\n      swap1\n      tag_162\n      jump\t// in\n    tag_308:\n      pop\n      0x40\n      dup3\n      add\n      mload\n      dup2\n      0x02\n      add\n      swap1\n      dup2\n      tag_309\n      swap2\n      swap1\n      tag_162\n      jump\t// in\n    tag_309:\n      pop\n      0x60\n      dup3\n      add\n      mload\n      dup2\n      0x03\n      add\n      sstore\n      0x80\n      dup3\n      add\n      mload\n      dup2\n      0x04\n      add\n      sstore\n      0xa0\n      dup3\n      add\n      mload\n      dup2\n      0x05\n      add\n      exp(0x0100, 0x00)\n      dup2\n      sload\n      dup2\n      0xff\n      mul\n      not\n      and\n      swap1\n      dup4\n      iszero\n      iszero\n      mul\n      or\n      swap1\n      sstore\n      pop\n      pop\n      pop\n        /* \"contracts/new.sol\":3078:3089  VipTicketNo */\n      dup1\n        /* \"contracts/new.sol\":3048:3063  usertoVipTicket */\n      0x07\n        /* \"contracts/new.sol\":3048:3075  usertoVipTicket[msg.sender] */\n      0x00\n        /* \"contracts/new.sol\":3064:3074  msg.sender */\n      caller\n        /* \"contracts/new.sol\":3048:3075  usertoVipTicket[msg.sender] */\n      0xffffffffffffffffffffffffffffffffffffffff\n      and\n      0xffffffffffffffffffffffffffffffffffffffff\n      and\n      dup2\n      mstore\n      0x20\n      add\n      swap1\n      dup2\n      mstore\n      0x20\n      add\n      0x00\n      keccak256\n        /* \"contracts/new.sol\":3048:3089  usertoVipTicket[msg.sender] = VipTicketNo */\n      dup2\n      swap1\n      sstore\n      pop\n        /* \"contracts/new.sol\":3120:3130  msg.sender */\n      caller\n        /* \"contracts/new.sol\":3104:3155  PurchasedTicket(msg.sender,VipTicketNo , ethforvip) */\n      0xffffffffffffffffffffffffffffffffffffffff\n      and\n      0x7d1cd329a11d8807f0374627923b6cd32942b74b38b1accf931d70a507ff739e\n        /* \"contracts/new.sol\":3131:3142  VipTicketNo */\n      dup3\n        /* \"contracts/new.sol\":3145:3154  ethforvip */\n      sload(0x02)\n        /* \"contracts/new.sol\":3104:3155  PurchasedTicket(msg.sender,VipTicketNo , ethforvip) */\n      mload(0x40)\n      tag_310\n      swap3\n      swap2\n      swap1\n      tag_165\n      jump\t// in\n    tag_310:\n      mload(0x40)\n      dup1\n      swap2\n      sub\n      swap1\n      log2\n        /* \"contracts/new.sol\":2520:3161  {... */\n      pop\n        /* \"contracts/new.sol\":2410:3161  function Buyvipseats(string memory _name,... */\n      pop\n      pop\n      pop\n      jump\t// out\n        /* \"contracts/new.sol\":4906:4997  function soldvipticket() external view returns(uint256){... */\n    tag_122:\n        /* \"contracts/new.sol\":4953:4960  uint256 */\n      0x00\n        /* \"contracts/new.sol\":4974:4984  vipdetails */\n      0x09\n        /* \"contracts/new.sol\":4974:4991  vipdetails.length */\n      dup1\n      sload\n      swap1\n      pop\n        /* \"contracts/new.sol\":4967:4991  return vipdetails.length */\n      swap1\n      pop\n        /* \"contracts/new.sol\":4906:4997  function soldvipticket() external view returns(uint256){... */\n      swap1\n      jump\t// out\n        /* \"contracts/new.sol\":4785:4871  function soldticket() external view returns(uint256){... */\n    tag_126:\n        /* \"contracts/new.sol\":4829:4836  uint256 */\n      0x00\n        /* \"contracts/new.sol\":4851:4858  details */\n      0x08\n        /* \"contracts/new.sol\":4851:4865  details.length */\n      dup1\n      sload\n      swap1\n      pop\n        /* \"contracts/new.sol\":4843:4865  return  details.length */\n      swap1\n      pop\n        /* \"contracts/new.sol\":4785:4871  function soldticket() external view returns(uint256){... */\n      swap1\n      jump\t// out\n        /* \"contracts/ownable.sol\":1571:1672  function transferOwnership(address newOwner) public onlyOwner {... */\n    tag_131:\n        /* \"contracts/ownable.sol\":844:853  isOwner() */\n      tag_314\n        /* \"contracts/ownable.sol\":844:851  isOwner */\n      tag_92\n        /* \"contracts/ownable.sol\":844:853  isOwner() */\n      jump\t// in\n    tag_314:\n        /* \"contracts/ownable.sol\":836:854  require(isOwner()) */\n      tag_315\n      jumpi\n      revert(0x00, 0x00)\n    tag_315:\n        /* \"contracts/ownable.sol\":1639:1667  _transferOwnership(newOwner) */\n      tag_317\n        /* \"contracts/ownable.sol\":1658:1666  newOwner */\n      dup2\n        /* \"contracts/ownable.sol\":1639:1657  _transferOwnership */\n      tag_318\n        /* \"contracts/ownable.sol\":1639:1667  _transferOwnership(newOwner) */\n      jump\t// in\n    tag_317:\n        /* \"contracts/ownable.sol\":1571:1672  function transferOwnership(address newOwner) public onlyOwner {... */\n      pop\n      jump\t// out\n        /* \"contracts/ownable.sol\":1803:1972  function _transferOwnership(address newOwner) internal {... */\n    tag_318:\n        /* \"contracts/ownable.sol\":1892:1893  0 */\n      0x00\n        /* \"contracts/ownable.sol\":1872:1894  newOwner != address(0) */\n      0xffffffffffffffffffffffffffffffffffffffff\n      and\n        /* \"contracts/ownable.sol\":1872:1880  newOwner */\n      dup2\n        /* \"contracts/ownable.sol\":1872:1894  newOwner != address(0) */\n      0xffffffffffffffffffffffffffffffffffffffff\n      and\n      sub\n        /* \"contracts/ownable.sol\":1864:1895  require(newOwner != address(0)) */\n      tag_320\n      jumpi\n      revert(0x00, 0x00)\n    tag_320:\n        /* \"contracts/ownable.sol\":1935:1943  newOwner */\n      dup1\n        /* \"contracts/ownable.sol\":1906:1944  OwnershipTransferred(_owner, newOwner) */\n      0xffffffffffffffffffffffffffffffffffffffff\n      and\n        /* \"contracts/ownable.sol\":1927:1933  _owner */\n      0x00\n      0x00\n      swap1\n      sload\n      swap1\n      0x0100\n      exp\n      swap1\n      div\n      0xffffffffffffffffffffffffffffffffffffffff\n      and\n        /* \"contracts/ownable.sol\":1906:1944  OwnershipTransferred(_owner, newOwner) */\n      0xffffffffffffffffffffffffffffffffffffffff\n      and\n      0x8be0079c531659141344cd1fd0a4f28419497f9722a3daafe3b4186f6b6457e0\n      mload(0x40)\n      mload(0x40)\n      dup1\n      swap2\n      sub\n      swap1\n      log3\n        /* \"contracts/ownable.sol\":1959:1967  newOwner */\n      dup1\n        /* \"contracts/ownable.sol\":1950:1956  _owner */\n      0x00\n      0x00\n        /* \"contracts/ownable.sol\":1950:1967  _owner = newOwner */\n      0x0100\n      exp\n      dup2\n      sload\n      dup2\n      0xffffffffffffffffffffffffffffffffffffffff\n      mul\n      not\n      and\n      swap1\n      dup4\n      0xffffffffffffffffffffffffffffffffffffffff\n      and\n      mul\n      or\n      swap1\n      sstore\n      pop\n        /* \"contracts/ownable.sol\":1803:1972  function _transferOwnership(address newOwner) internal {... */\n      pop\n      jump\t// out\n    tag_192:\n      mload(0x40)\n      dup1\n      0xc0\n      add\n      0x40\n      mstore\n      dup1\n      and(0xffffffffffffffffffffffffffffffffffffffff, 0x00)\n      dup2\n      mstore\n      0x20\n      add\n      0x60\n      dup2\n      mstore\n      0x20\n      add\n      0x60\n      dup2\n      mstore\n      0x20\n      add\n      0x00\n      dup2\n      mstore\n      0x20\n      add\n      0x00\n      dup2\n      mstore\n      0x20\n      add\n      iszero(iszero(0x00))\n      dup2\n      mstore\n      pop\n      swap1\n      jump\t// out\n        /* \"#utility.yul\":7:82   */\n    tag_321:\n        /* \"#utility.yul\":40:46   */\n      0x00\n        /* \"#utility.yul\":73:75   */\n      0x40\n        /* \"#utility.yul\":67:76   */\n      mload\n        /* \"#utility.yul\":57:76   */\n      swap1\n      pop\n        /* \"#utility.yul\":7:82   */\n      swap1\n      jump\t// out\n        /* \"#utility.yul\":88:205   */\n    tag_322:\n        /* \"#utility.yul\":197:198   */\n      0x00\n        /* \"#utility.yul\":194:195   */\n      0x00\n        /* \"#utility.yul\":187:199   */\n      revert\n        /* \"#utility.yul\":211:328   */\n    tag_323:\n        /* \"#utility.yul\":320:321   */\n      0x00\n        /* \"#utility.yul\":317:318   */\n      0x00\n        /* \"#utility.yul\":310:322   */\n      revert\n        /* \"#utility.yul\":334:411   */\n    tag_324:\n        /* \"#utility.yul\":371:378   */\n      0x00\n        /* \"#utility.yul\":400:405   */\n      dup2\n        /* \"#utility.yul\":389:405   */\n      swap1\n      pop\n        /* \"#utility.yul\":334:411   */\n      swap2\n      swap1\n      pop\n      jump\t// out\n        /* \"#utility.yul\":417:539   */\n    tag_325:\n        /* \"#utility.yul\":490:514   */\n      tag_403\n        /* \"#utility.yul\":508:513   */\n      dup2\n        /* \"#utility.yul\":490:514   */\n      tag_324\n      jump\t// in\n    tag_403:\n        /* \"#utility.yul\":483:488   */\n      dup2\n        /* \"#utility.yul\":480:515   */\n      eq\n        /* \"#utility.yul\":470:533   */\n      tag_404\n      jumpi\n        /* \"#utility.yul\":529:530   */\n      0x00\n        /* \"#utility.yul\":526:527   */\n      0x00\n        /* \"#utility.yul\":519:531   */\n      revert\n        /* \"#utility.yul\":470:533   */\n    tag_404:\n        /* \"#utility.yul\":417:539   */\n      pop\n      jump\t// out\n        /* \"#utility.yul\":545:684   */\n    tag_326:\n        /* \"#utility.yul\":591:596   */\n      0x00\n        /* \"#utility.yul\":629:635   */\n      dup2\n        /* \"#utility.yul\":616:636   */\n      calldataload\n        /* \"#utility.yul\":607:636   */\n      swap1\n      pop\n        /* \"#utility.yul\":645:678   */\n      tag_406\n        /* \"#utility.yul\":672:677   */\n      dup2\n        /* \"#utility.yul\":645:678   */\n      tag_325\n      jump\t// in\n    tag_406:\n        /* \"#utility.yul\":545:684   */\n      swap3\n      swap2\n      pop\n      pop\n      jump\t// out\n        /* \"#utility.yul\":690:1019   */\n    tag_32:\n        /* \"#utility.yul\":749:755   */\n      0x00\n        /* \"#utility.yul\":798:800   */\n      0x20\n        /* \"#utility.yul\":786:795   */\n      dup3\n        /* \"#utility.yul\":777:784   */\n      dup5\n        /* \"#utility.yul\":773:796   */\n      sub\n        /* \"#utility.yul\":769:801   */\n      slt\n        /* \"#utility.yul\":766:885   */\n      iszero\n      tag_408\n      jumpi\n        /* \"#utility.yul\":804:883   */\n      tag_409\n      tag_322\n      jump\t// in\n    tag_409:\n        /* \"#utility.yul\":766:885   */\n    tag_408:\n        /* \"#utility.yul\":924:925   */\n      0x00\n        /* \"#utility.yul\":949:1002   */\n      tag_410\n        /* \"#utility.yul\":994:1001   */\n      dup5\n        /* \"#utility.yul\":985:991   */\n      dup3\n        /* \"#utility.yul\":974:983   */\n      dup6\n        /* \"#utility.yul\":970:992   */\n      add\n        /* \"#utility.yul\":949:1002   */\n      tag_326\n      jump\t// in\n    tag_410:\n        /* \"#utility.yul\":939:1002   */\n      swap2\n      pop\n        /* \"#utility.yul\":895:1012   */\n      pop\n        /* \"#utility.yul\":690:1019   */\n      swap3\n      swap2\n      pop\n      pop\n      jump\t// out\n        /* \"#utility.yul\":1025:1151   */\n    tag_327:\n        /* \"#utility.yul\":1062:1069   */\n      0x00\n        /* \"#utility.yul\":1102:1144   */\n      0xffffffffffffffffffffffffffffffffffffffff\n        /* \"#utility.yul\":1095:1100   */\n      dup3\n        /* \"#utility.yul\":1091:1145   */\n      and\n        /* \"#utility.yul\":1080:1145   */\n      swap1\n      pop\n        /* \"#utility.yul\":1025:1151   */\n      swap2\n      swap1\n      pop\n      jump\t// out\n        /* \"#utility.yul\":1157:1253   */\n    tag_328:\n        /* \"#utility.yul\":1194:1201   */\n      0x00\n        /* \"#utility.yul\":1223:1247   */\n      tag_413\n        /* \"#utility.yul\":1241:1246   */\n      dup3\n        /* \"#utility.yul\":1223:1247   */\n      tag_327\n      jump\t// in\n    tag_413:\n        /* \"#utility.yul\":1212:1247   */\n      swap1\n      pop\n        /* \"#utility.yul\":1157:1253   */\n      swap2\n      swap1\n      pop\n      jump\t// out\n        /* \"#utility.yul\":1259:1377   */\n    tag_329:\n        /* \"#utility.yul\":1346:1370   */\n      tag_415\n        /* \"#utility.yul\":1364:1369   */\n      dup2\n        /* \"#utility.yul\":1346:1370   */\n      tag_328\n      jump\t// in\n    tag_415:\n        /* \"#utility.yul\":1341:1344   */\n      dup3\n        /* \"#utility.yul\":1334:1371   */\n      mstore\n        /* \"#utility.yul\":1259:1377   */\n      pop\n      pop\n      jump\t// out\n        /* \"#utility.yul\":1383:1482   */\n    tag_330:\n        /* \"#utility.yul\":1435:1441   */\n      0x00\n        /* \"#utility.yul\":1469:1474   */\n      dup2\n        /* \"#utility.yul\":1463:1475   */\n      mload\n        /* \"#utility.yul\":1453:1475   */\n      swap1\n      pop\n        /* \"#utility.yul\":1383:1482   */\n      swap2\n      swap1\n      pop\n      jump\t// out\n        /* \"#utility.yul\":1488:1657   */\n    tag_331:\n        /* \"#utility.yul\":1572:1583   */\n      0x00\n        /* \"#utility.yul\":1606:1612   */\n      dup3\n        /* \"#utility.yul\":1601:1604   */\n      dup3\n        /* \"#utility.yul\":1594:1613   */\n      mstore\n        /* \"#utility.yul\":1646:1650   */\n      0x20\n        /* \"#utility.yul\":1641:1644   */\n      dup3\n        /* \"#utility.yul\":1637:1651   */\n      add\n        /* \"#utility.yul\":1622:1651   */\n      swap1\n      pop\n        /* \"#utility.yul\":1488:1657   */\n      swap3\n      swap2\n      pop\n      pop\n      jump\t// out\n        /* \"#utility.yul\":1663:1802   */\n    tag_332:\n        /* \"#utility.yul\":1752:1758   */\n      dup3\n        /* \"#utility.yul\":1747:1750   */\n      dup2\n        /* \"#utility.yul\":1742:1745   */\n      dup4\n        /* \"#utility.yul\":1736:1759   */\n      mcopy\n        /* \"#utility.yul\":1793:1794   */\n      0x00\n        /* \"#utility.yul\":1784:1790   */\n      dup4\n        /* \"#utility.yul\":1779:1782   */\n      dup4\n        /* \"#utility.yul\":1775:1791   */\n      add\n        /* \"#utility.yul\":1768:1795   */\n      mstore\n        /* \"#utility.yul\":1663:1802   */\n      pop\n      pop\n      pop\n      jump\t// out\n        /* \"#utility.yul\":1808:1910   */\n    tag_333:\n        /* \"#utility.yul\":1849:1855   */\n      0x00\n        /* \"#utility.yul\":1900:1902   */\n      0x1f\n        /* \"#utility.yul\":1896:1903   */\n      not\n        /* \"#utility.yul\":1891:1893   */\n      0x1f\n        /* \"#utility.yul\":1884:1889   */\n      dup4\n        /* \"#utility.yul\":1880:1894   */\n      add\n        /* \"#utility.yul\":1876:1904   */\n      and\n        /* \"#utility.yul\":1866:1904   */\n      swap1\n      pop\n        /* \"#utility.yul\":1808:1910   */\n      swap2\n      swap1\n      pop\n      jump\t// out\n        /* \"#utility.yul\":1916:2293   */\n    tag_334:\n        /* \"#utility.yul\":2004:2007   */\n      0x00\n        /* \"#utility.yul\":2032:2071   */\n      tag_421\n        /* \"#utility.yul\":2065:2070   */\n      dup3\n        /* \"#utility.yul\":2032:2071   */\n      tag_330\n      jump\t// in\n    tag_421:\n        /* \"#utility.yul\":2087:2158   */\n      tag_422\n        /* \"#utility.yul\":2151:2157   */\n      dup2\n        /* \"#utility.yul\":2146:2149   */\n      dup6\n        /* \"#utility.yul\":2087:2158   */\n      tag_331\n      jump\t// in\n    tag_422:\n        /* \"#utility.yul\":2080:2158   */\n      swap4\n      pop\n        /* \"#utility.yul\":2167:2232   */\n      tag_423\n        /* \"#utility.yul\":2225:2231   */\n      dup2\n        /* \"#utility.yul\":2220:2223   */\n      dup6\n        /* \"#utility.yul\":2213:2217   */\n      0x20\n        /* \"#utility.yul\":2206:2211   */\n      dup7\n        /* \"#utility.yul\":2202:2218   */\n      add\n        /* \"#utility.yul\":2167:2232   */\n      tag_332\n      jump\t// in\n    tag_423:\n        /* \"#utility.yul\":2257:2286   */\n      tag_424\n        /* \"#utility.yul\":2279:2285   */\n      dup2\n        /* \"#utility.yul\":2257:2286   */\n      tag_333\n      jump\t// in\n    tag_424:\n        /* \"#utility.yul\":2252:2255   */\n      dup5\n        /* \"#utility.yul\":2248:2287   */\n      add\n        /* \"#utility.yul\":2241:2287   */\n      swap2\n      pop\n        /* \"#utility.yul\":2008:2293   */\n      pop\n        /* \"#utility.yul\":1916:2293   */\n      swap3\n      swap2\n      pop\n      pop\n      jump\t// out\n        /* \"#utility.yul\":2299:2417   */\n    tag_335:\n        /* \"#utility.yul\":2386:2410   */\n      tag_426\n        /* \"#utility.yul\":2404:2409   */\n      dup2\n        /* \"#utility.yul\":2386:2410   */\n      tag_324\n      jump\t// in\n    tag_426:\n        /* \"#utility.yul\":2381:2384   */\n      dup3\n        /* \"#utility.yul\":2374:2411   */\n      mstore\n        /* \"#utility.yul\":2299:2417   */\n      pop\n      pop\n      jump\t// out\n        /* \"#utility.yul\":2423:2513   */\n    tag_336:\n        /* \"#utility.yul\":2457:2464   */\n      0x00\n        /* \"#utility.yul\":2500:2505   */\n      dup2\n        /* \"#utility.yul\":2493:2506   */\n      iszero\n        /* \"#utility.yul\":2486:2507   */\n      iszero\n        /* \"#utility.yul\":2475:2507   */\n      swap1\n      pop\n        /* \"#utility.yul\":2423:2513   */\n      swap2\n      swap1\n      pop\n      jump\t// out\n        /* \"#utility.yul\":2519:2628   */\n    tag_337:\n        /* \"#utility.yul\":2600:2621   */\n      tag_429\n        /* \"#utility.yul\":2615:2620   */\n      dup2\n        /* \"#utility.yul\":2600:2621   */\n      tag_336\n      jump\t// in\n    tag_429:\n        /* \"#utility.yul\":2595:2598   */\n      dup3\n        /* \"#utility.yul\":2588:2622   */\n      mstore\n        /* \"#utility.yul\":2519:2628   */\n      pop\n      pop\n      jump\t// out\n        /* \"#utility.yul\":2634:3579   */\n    tag_35:\n        /* \"#utility.yul\":2901:2905   */\n      0x00\n        /* \"#utility.yul\":2939:2942   */\n      0xc0\n        /* \"#utility.yul\":2928:2937   */\n      dup3\n        /* \"#utility.yul\":2924:2943   */\n      add\n        /* \"#utility.yul\":2916:2943   */\n      swap1\n      pop\n        /* \"#utility.yul\":2953:3024   */\n      tag_431\n        /* \"#utility.yul\":3021:3022   */\n      0x00\n        /* \"#utility.yul\":3010:3019   */\n      dup4\n        /* \"#utility.yul\":3006:3023   */\n      add\n        /* \"#utility.yul\":2997:3003   */\n      dup10\n        /* \"#utility.yul\":2953:3024   */\n      tag_329\n      jump\t// in\n    tag_431:\n        /* \"#utility.yul\":3071:3080   */\n      dup2\n        /* \"#utility.yul\":3065:3069   */\n      dup2\n        /* \"#utility.yul\":3061:3081   */\n      sub\n        /* \"#utility.yul\":3056:3058   */\n      0x20\n        /* \"#utility.yul\":3045:3054   */\n      dup4\n        /* \"#utility.yul\":3041:3059   */\n      add\n        /* \"#utility.yul\":3034:3082   */\n      mstore\n        /* \"#utility.yul\":3099:3177   */\n      tag_432\n        /* \"#utility.yul\":3172:3176   */\n      dup2\n        /* \"#utility.yul\":3163:3169   */\n      dup9\n        /* \"#utility.yul\":3099:3177   */\n      tag_334\n      jump\t// in\n    tag_432:\n        /* \"#utility.yul\":3091:3177   */\n      swap1\n      pop\n        /* \"#utility.yul\":3224:3233   */\n      dup2\n        /* \"#utility.yul\":3218:3222   */\n      dup2\n        /* \"#utility.yul\":3214:3234   */\n      sub\n        /* \"#utility.yul\":3209:3211   */\n      0x40\n        /* \"#utility.yul\":3198:3207   */\n      dup4\n        /* \"#utility.yul\":3194:3212   */\n      add\n        /* \"#utility.yul\":3187:3235   */\n      mstore\n        /* \"#utility.yul\":3252:3330   */\n      tag_433\n        /* \"#utility.yul\":3325:3329   */\n      dup2\n        /* \"#utility.yul\":3316:3322   */\n      dup8\n        /* \"#utility.yul\":3252:3330   */\n      tag_334\n      jump\t// in\n    tag_433:\n        /* \"#utility.yul\":3244:3330   */\n      swap1\n      pop\n        /* \"#utility.yul\":3340:3412   */\n      tag_434\n        /* \"#utility.yul\":3408:3410   */\n      0x60\n        /* \"#utility.yul\":3397:3406   */\n      dup4\n        /* \"#utility.yul\":3393:3411   */\n      add\n        /* \"#utility.yul\":3384:3390   */\n      dup7\n        /* \"#utility.yul\":3340:3412   */\n      tag_335\n      jump\t// in\n    tag_434:\n        /* \"#utility.yul\":3422:3495   */\n      tag_435\n        /* \"#utility.yul\":3490:3493   */\n      0x80\n        /* \"#utility.yul\":3479:3488   */\n      dup4\n        /* \"#utility.yul\":3475:3494   */\n      add\n        /* \"#utility.yul\":3466:3472   */\n      dup6\n        /* \"#utility.yul\":3422:3495   */\n      tag_335\n      jump\t// in\n    tag_435:\n        /* \"#utility.yul\":3505:3572   */\n      tag_436\n        /* \"#utility.yul\":3567:3570   */\n      0xa0\n        /* \"#utility.yul\":3556:3565   */\n      dup4\n        /* \"#utility.yul\":3552:3571   */\n      add\n        /* \"#utility.yul\":3543:3549   */\n      dup5\n        /* \"#utility.yul\":3505:3572   */\n      tag_337\n      jump\t// in\n    tag_436:\n        /* \"#utility.yul\":2634:3579   */\n      swap8\n      swap7\n      pop\n      pop\n      pop\n      pop\n      pop\n      pop\n      pop\n      jump\t// out\n        /* \"#utility.yul\":3585:3702   */\n    tag_338:\n        /* \"#utility.yul\":3694:3695   */\n      0x00\n        /* \"#utility.yul\":3691:3692   */\n      0x00\n        /* \"#utility.yul\":3684:3696   */\n      revert\n        /* \"#utility.yul\":3708:3825   */\n    tag_339:\n        /* \"#utility.yul\":3817:3818   */\n      0x00\n        /* \"#utility.yul\":3814:3815   */\n      0x00\n        /* \"#utility.yul\":3807:3819   */\n      revert\n        /* \"#utility.yul\":3831:4011   */\n    tag_340:\n        /* \"#utility.yul\":3879:3956   */\n      0x4e487b7100000000000000000000000000000000000000000000000000000000\n        /* \"#utility.yul\":3876:3877   */\n      0x00\n        /* \"#utility.yul\":3869:3957   */\n      mstore\n        /* \"#utility.yul\":3976:3980   */\n      0x41\n        /* \"#utility.yul\":3973:3974   */\n      0x04\n        /* \"#utility.yul\":3966:3981   */\n      mstore\n        /* \"#utility.yul\":4000:4004   */\n      0x24\n        /* \"#utility.yul\":3997:3998   */\n      0x00\n        /* \"#utility.yul\":3990:4005   */\n      revert\n        /* \"#utility.yul\":4017:4298   */\n    tag_341:\n        /* \"#utility.yul\":4100:4127   */\n      tag_441\n        /* \"#utility.yul\":4122:4126   */\n      dup3\n        /* \"#utility.yul\":4100:4127   */\n      tag_333\n      jump\t// in\n    tag_441:\n        /* \"#utility.yul\":4092:4098   */\n      dup2\n        /* \"#utility.yul\":4088:4128   */\n      add\n        /* \"#utility.yul\":4230:4236   */\n      dup2\n        /* \"#utility.yul\":4218:4228   */\n      dup2\n        /* \"#utility.yul\":4215:4237   */\n      lt\n        /* \"#utility.yul\":4194:4212   */\n      0xffffffffffffffff\n        /* \"#utility.yul\":4182:4192   */\n      dup3\n        /* \"#utility.yul\":4179:4213   */\n      gt\n        /* \"#utility.yul\":4176:4238   */\n      or\n        /* \"#utility.yul\":4173:4261   */\n      iszero\n      tag_442\n      jumpi\n        /* \"#utility.yul\":4241:4259   */\n      tag_443\n      tag_340\n      jump\t// in\n    tag_443:\n        /* \"#utility.yul\":4173:4261   */\n    tag_442:\n        /* \"#utility.yul\":4281:4291   */\n      dup1\n        /* \"#utility.yul\":4277:4279   */\n      0x40\n        /* \"#utility.yul\":4270:4292   */\n      mstore\n        /* \"#utility.yul\":4060:4298   */\n      pop\n        /* \"#utility.yul\":4017:4298   */\n      pop\n      pop\n      jump\t// out\n        /* \"#utility.yul\":4304:4433   */\n    tag_342:\n        /* \"#utility.yul\":4338:4344   */\n      0x00\n        /* \"#utility.yul\":4365:4385   */\n      tag_445\n      tag_321\n      jump\t// in\n    tag_445:\n        /* \"#utility.yul\":4355:4385   */\n      swap1\n      pop\n        /* \"#utility.yul\":4394:4427   */\n      tag_446\n        /* \"#utility.yul\":4422:4426   */\n      dup3\n        /* \"#utility.yul\":4414:4420   */\n      dup3\n        /* \"#utility.yul\":4394:4427   */\n      tag_341\n      jump\t// in\n    tag_446:\n        /* \"#utility.yul\":4304:4433   */\n      swap2\n      swap1\n      pop\n      jump\t// out\n        /* \"#utility.yul\":4439:4747   */\n    tag_343:\n        /* \"#utility.yul\":4501:4505   */\n      0x00\n        /* \"#utility.yul\":4591:4609   */\n      0xffffffffffffffff\n        /* \"#utility.yul\":4583:4589   */\n      dup3\n        /* \"#utility.yul\":4580:4610   */\n      gt\n        /* \"#utility.yul\":4577:4633   */\n      iszero\n      tag_448\n      jumpi\n        /* \"#utility.yul\":4613:4631   */\n      tag_449\n      tag_340\n      jump\t// in\n    tag_449:\n        /* \"#utility.yul\":4577:4633   */\n    tag_448:\n        /* \"#utility.yul\":4651:4680   */\n      tag_450\n        /* \"#utility.yul\":4673:4679   */\n      dup3\n        /* \"#utility.yul\":4651:4680   */\n      tag_333\n      jump\t// in\n    tag_450:\n        /* \"#utility.yul\":4643:4680   */\n      swap1\n      pop\n        /* \"#utility.yul\":4735:4739   */\n      0x20\n        /* \"#utility.yul\":4729:4733   */\n      dup2\n        /* \"#utility.yul\":4725:4740   */\n      add\n        /* \"#utility.yul\":4717:4740   */\n      swap1\n      pop\n        /* \"#utility.yul\":4439:4747   */\n      swap2\n      swap1\n      pop\n      jump\t// out\n        /* \"#utility.yul\":4753:4901   */\n    tag_344:\n        /* \"#utility.yul\":4851:4857   */\n      dup3\n        /* \"#utility.yul\":4846:4849   */\n      dup2\n        /* \"#utility.yul\":4841:4844   */\n      dup4\n        /* \"#utility.yul\":4828:4858   */\n      calldatacopy\n        /* \"#utility.yul\":4892:4893   */\n      0x00\n        /* \"#utility.yul\":4883:4889   */\n      dup4\n        /* \"#utility.yul\":4878:4881   */\n      dup4\n        /* \"#utility.yul\":4874:4890   */\n      add\n        /* \"#utility.yul\":4867:4894   */\n      mstore\n        /* \"#utility.yul\":4753:4901   */\n      pop\n      pop\n      pop\n      jump\t// out\n        /* \"#utility.yul\":4907:5332   */\n    tag_345:\n        /* \"#utility.yul\":4985:4990   */\n      0x00\n        /* \"#utility.yul\":5010:5076   */\n      tag_453\n        /* \"#utility.yul\":5026:5075   */\n      tag_454\n        /* \"#utility.yul\":5068:5074   */\n      dup5\n        /* \"#utility.yul\":5026:5075   */\n      tag_343\n      jump\t// in\n    tag_454:\n        /* \"#utility.yul\":5010:5076   */\n      tag_342\n      jump\t// in\n    tag_453:\n        /* \"#utility.yul\":5001:5076   */\n      swap1\n      pop\n        /* \"#utility.yul\":5099:5105   */\n      dup3\n        /* \"#utility.yul\":5092:5097   */\n      dup2\n        /* \"#utility.yul\":5085:5106   */\n      mstore\n        /* \"#utility.yul\":5137:5141   */\n      0x20\n        /* \"#utility.yul\":5130:5135   */\n      dup2\n        /* \"#utility.yul\":5126:5142   */\n      add\n        /* \"#utility.yul\":5175:5178   */\n      dup5\n        /* \"#utility.yul\":5166:5172   */\n      dup5\n        /* \"#utility.yul\":5161:5164   */\n      dup5\n        /* \"#utility.yul\":5157:5173   */\n      add\n        /* \"#utility.yul\":5154:5179   */\n      gt\n        /* \"#utility.yul\":5151:5263   */\n      iszero\n      tag_455\n      jumpi\n        /* \"#utility.yul\":5182:5261   */\n      tag_456\n      tag_339\n      jump\t// in\n    tag_456:\n        /* \"#utility.yul\":5151:5263   */\n    tag_455:\n        /* \"#utility.yul\":5272:5326   */\n      tag_457\n        /* \"#utility.yul\":5319:5325   */\n      dup5\n        /* \"#utility.yul\":5314:5317   */\n      dup3\n        /* \"#utility.yul\":5309:5312   */\n      dup6\n        /* \"#utility.yul\":5272:5326   */\n      tag_344\n      jump\t// in\n    tag_457:\n        /* \"#utility.yul\":4991:5332   */\n      pop\n        /* \"#utility.yul\":4907:5332   */\n      swap4\n      swap3\n      pop\n      pop\n      pop\n      jump\t// out\n        /* \"#utility.yul\":5352:5692   */\n    tag_346:\n        /* \"#utility.yul\":5408:5413   */\n      0x00\n        /* \"#utility.yul\":5457:5460   */\n      dup3\n        /* \"#utility.yul\":5450:5454   */\n      0x1f\n        /* \"#utility.yul\":5442:5448   */\n      dup4\n        /* \"#utility.yul\":5438:5455   */\n      add\n        /* \"#utility.yul\":5434:5461   */\n      slt\n        /* \"#utility.yul\":5424:5546   */\n      tag_459\n      jumpi\n        /* \"#utility.yul\":5465:5544   */\n      tag_460\n      tag_338\n      jump\t// in\n    tag_460:\n        /* \"#utility.yul\":5424:5546   */\n    tag_459:\n        /* \"#utility.yul\":5582:5588   */\n      dup2\n        /* \"#utility.yul\":5569:5589   */\n      calldataload\n        /* \"#utility.yul\":5607:5686   */\n      tag_461\n        /* \"#utility.yul\":5682:5685   */\n      dup5\n        /* \"#utility.yul\":5674:5680   */\n      dup3\n        /* \"#utility.yul\":5667:5671   */\n      0x20\n        /* \"#utility.yul\":5659:5665   */\n      dup7\n        /* \"#utility.yul\":5655:5672   */\n      add\n        /* \"#utility.yul\":5607:5686   */\n      tag_345\n      jump\t// in\n    tag_461:\n        /* \"#utility.yul\":5598:5686   */\n      swap2\n      pop\n        /* \"#utility.yul\":5414:5692   */\n      pop\n        /* \"#utility.yul\":5352:5692   */\n      swap3\n      swap2\n      pop\n      pop\n      jump\t// out\n        /* \"#utility.yul\":5698:6677   */\n    tag_38:\n        /* \"#utility.yul\":5795:5801   */\n      0x00\n        /* \"#utility.yul\":5803:5809   */\n      0x00\n        /* \"#utility.yul\":5811:5817   */\n      0x00\n        /* \"#utility.yul\":5860:5862   */\n      0x60\n        /* \"#utility.yul\":5848:5857   */\n      dup5\n        /* \"#utility.yul\":5839:5846   */\n      dup7\n        /* \"#utility.yul\":5835:5858   */\n      sub\n        /* \"#utility.yul\":5831:5863   */\n      slt\n        /* \"#utility.yul\":5828:5947   */\n      iszero\n      tag_463\n      jumpi\n        /* \"#utility.yul\":5866:5945   */\n      tag_464\n      tag_322\n      jump\t// in\n    tag_464:\n        /* \"#utility.yul\":5828:5947   */\n    tag_463:\n        /* \"#utility.yul\":6014:6015   */\n      0x00\n        /* \"#utility.yul\":6003:6012   */\n      dup5\n        /* \"#utility.yul\":5999:6016   */\n      add\n        /* \"#utility.yul\":5986:6017   */\n      calldataload\n        /* \"#utility.yul\":6044:6062   */\n      0xffffffffffffffff\n        /* \"#utility.yul\":6036:6042   */\n      dup2\n        /* \"#utility.yul\":6033:6063   */\n      gt\n        /* \"#utility.yul\":6030:6147   */\n      iszero\n      tag_465\n      jumpi\n        /* \"#utility.yul\":6066:6145   */\n      tag_466\n      tag_323\n      jump\t// in\n    tag_466:\n        /* \"#utility.yul\":6030:6147   */\n    tag_465:\n        /* \"#utility.yul\":6171:6234   */\n      tag_467\n        /* \"#utility.yul\":6226:6233   */\n      dup7\n        /* \"#utility.yul\":6217:6223   */\n      dup3\n        /* \"#utility.yul\":6206:6215   */\n      dup8\n        /* \"#utility.yul\":6202:6224   */\n      add\n        /* \"#utility.yul\":6171:6234   */\n      tag_346\n      jump\t// in\n    tag_467:\n        /* \"#utility.yul\":6161:6234   */\n      swap4\n      pop\n        /* \"#utility.yul\":5957:6244   */\n      pop\n        /* \"#utility.yul\":6311:6313   */\n      0x20\n        /* \"#utility.yul\":6300:6309   */\n      dup5\n        /* \"#utility.yul\":6296:6314   */\n      add\n        /* \"#utility.yul\":6283:6315   */\n      calldataload\n        /* \"#utility.yul\":6342:6360   */\n      0xffffffffffffffff\n        /* \"#utility.yul\":6334:6340   */\n      dup2\n        /* \"#utility.yul\":6331:6361   */\n      gt\n        /* \"#utility.yul\":6328:6445   */\n      iszero\n      tag_468\n      jumpi\n        /* \"#utility.yul\":6364:6443   */\n      tag_469\n      tag_323\n      jump\t// in\n    tag_469:\n        /* \"#utility.yul\":6328:6445   */\n    tag_468:\n        /* \"#utility.yul\":6469:6532   */\n      tag_470\n        /* \"#utility.yul\":6524:6531   */\n      dup7\n        /* \"#utility.yul\":6515:6521   */\n      dup3\n        /* \"#utility.yul\":6504:6513   */\n      dup8\n        /* \"#utility.yul\":6500:6522   */\n      add\n        /* \"#utility.yul\":6469:6532   */\n      tag_346\n      jump\t// in\n    tag_470:\n        /* \"#utility.yul\":6459:6532   */\n      swap3\n      pop\n        /* \"#utility.yul\":6254:6542   */\n      pop\n        /* \"#utility.yul\":6581:6583   */\n      0x40\n        /* \"#utility.yul\":6607:6660   */\n      tag_471\n        /* \"#utility.yul\":6652:6659   */\n      dup7\n        /* \"#utility.yul\":6643:6649   */\n      dup3\n        /* \"#utility.yul\":6632:6641   */\n      dup8\n        /* \"#utility.yul\":6628:6650   */\n      add\n        /* \"#utility.yul\":6607:6660   */\n      tag_326\n      jump\t// in\n    tag_471:\n        /* \"#utility.yul\":6597:6660   */\n      swap2\n      pop\n        /* \"#utility.yul\":6552:6670   */\n      pop\n        /* \"#utility.yul\":5698:6677   */\n      swap3\n      pop\n      swap3\n      pop\n      swap3\n      jump\t// out\n        /* \"#utility.yul\":6683:7157   */\n    tag_46:\n        /* \"#utility.yul\":6751:6757   */\n      0x00\n        /* \"#utility.yul\":6759:6765   */\n      0x00\n        /* \"#utility.yul\":6808:6810   */\n      0x40\n        /* \"#utility.yul\":6796:6805   */\n      dup4\n        /* \"#utility.yul\":6787:6794   */\n      dup6\n        /* \"#utility.yul\":6783:6806   */\n      sub\n        /* \"#utility.yul\":6779:6811   */\n      slt\n        /* \"#utility.yul\":6776:6895   */\n      iszero\n      tag_473\n      jumpi\n        /* \"#utility.yul\":6814:6893   */\n      tag_474\n      tag_322\n      jump\t// in\n    tag_474:\n        /* \"#utility.yul\":6776:6895   */\n    tag_473:\n        /* \"#utility.yul\":6934:6935   */\n      0x00\n        /* \"#utility.yul\":6959:7012   */\n      tag_475\n        /* \"#utility.yul\":7004:7011   */\n      dup6\n        /* \"#utility.yul\":6995:7001   */\n      dup3\n        /* \"#utility.yul\":6984:6993   */\n      dup7\n        /* \"#utility.yul\":6980:7002   */\n      add\n        /* \"#utility.yul\":6959:7012   */\n      tag_326\n      jump\t// in\n    tag_475:\n        /* \"#utility.yul\":6949:7012   */\n      swap3\n      pop\n        /* \"#utility.yul\":6905:7022   */\n      pop\n        /* \"#utility.yul\":7061:7063   */\n      0x20\n        /* \"#utility.yul\":7087:7140   */\n      tag_476\n        /* \"#utility.yul\":7132:7139   */\n      dup6\n        /* \"#utility.yul\":7123:7129   */\n      dup3\n        /* \"#utility.yul\":7112:7121   */\n      dup7\n        /* \"#utility.yul\":7108:7130   */\n      add\n        /* \"#utility.yul\":7087:7140   */\n      tag_326\n      jump\t// in\n    tag_476:\n        /* \"#utility.yul\":7077:7140   */\n      swap2\n      pop\n        /* \"#utility.yul\":7032:7150   */\n      pop\n        /* \"#utility.yul\":6683:7157   */\n      swap3\n      pop\n      swap3\n      swap1\n      pop\n      jump\t// out\n        /* \"#utility.yul\":7163:7271   */\n    tag_347:\n        /* \"#utility.yul\":7240:7264   */\n      tag_478\n        /* \"#utility.yul\":7258:7263   */\n      dup2\n        /* \"#utility.yul\":7240:7264   */\n      tag_328\n      jump\t// in\n    tag_478:\n        /* \"#utility.yul\":7235:7238   */\n      dup3\n        /* \"#utility.yul\":7228:7265   */\n      mstore\n        /* \"#utility.yul\":7163:7271   */\n      pop\n      pop\n      jump\t// out\n        /* \"#utility.yul\":7277:7436   */\n    tag_348:\n        /* \"#utility.yul\":7351:7362   */\n      0x00\n        /* \"#utility.yul\":7385:7391   */\n      dup3\n        /* \"#utility.yul\":7380:7383   */\n      dup3\n        /* \"#utility.yul\":7373:7392   */\n      mstore\n        /* \"#utility.yul\":7425:7429   */\n      0x20\n        /* \"#utility.yul\":7420:7423   */\n      dup3\n        /* \"#utility.yul\":7416:7430   */\n      add\n        /* \"#utility.yul\":7401:7430   */\n      swap1\n      pop\n        /* \"#utility.yul\":7277:7436   */\n      swap3\n      swap2\n      pop\n      pop\n      jump\t// out\n        /* \"#utility.yul\":7442:7799   */\n    tag_349:\n        /* \"#utility.yul\":7520:7523   */\n      0x00\n        /* \"#utility.yul\":7548:7587   */\n      tag_481\n        /* \"#utility.yul\":7581:7586   */\n      dup3\n        /* \"#utility.yul\":7548:7587   */\n      tag_330\n      jump\t// in\n    tag_481:\n        /* \"#utility.yul\":7603:7664   */\n      tag_482\n        /* \"#utility.yul\":7657:7663   */\n      dup2\n        /* \"#utility.yul\":7652:7655   */\n      dup6\n        /* \"#utility.yul\":7603:7664   */\n      tag_348\n      jump\t// in\n    tag_482:\n        /* \"#utility.yul\":7596:7664   */\n      swap4\n      pop\n        /* \"#utility.yul\":7673:7738   */\n      tag_483\n        /* \"#utility.yul\":7731:7737   */\n      dup2\n        /* \"#utility.yul\":7726:7729   */\n      dup6\n        /* \"#utility.yul\":7719:7723   */\n      0x20\n        /* \"#utility.yul\":7712:7717   */\n      dup7\n        /* \"#utility.yul\":7708:7724   */\n      add\n        /* \"#utility.yul\":7673:7738   */\n      tag_332\n      jump\t// in\n    tag_483:\n        /* \"#utility.yul\":7763:7792   */\n      tag_484\n        /* \"#utility.yul\":7785:7791   */\n      dup2\n        /* \"#utility.yul\":7763:7792   */\n      tag_333\n      jump\t// in\n    tag_484:\n        /* \"#utility.yul\":7758:7761   */\n      dup5\n        /* \"#utility.yul\":7754:7793   */\n      add\n        /* \"#utility.yul\":7747:7793   */\n      swap2\n      pop\n        /* \"#utility.yul\":7524:7799   */\n      pop\n        /* \"#utility.yul\":7442:7799   */\n      swap3\n      swap2\n      pop\n      pop\n      jump\t// out\n        /* \"#utility.yul\":7805:7913   */\n    tag_350:\n        /* \"#utility.yul\":7882:7906   */\n      tag_486\n        /* \"#utility.yul\":7900:7905   */\n      dup2\n        /* \"#utility.yul\":7882:7906   */\n      tag_324\n      jump\t// in\n    tag_486:\n        /* \"#utility.yul\":7877:7880   */\n      dup3\n        /* \"#utility.yul\":7870:7907   */\n      mstore\n        /* \"#utility.yul\":7805:7913   */\n      pop\n      pop\n      jump\t// out\n        /* \"#utility.yul\":7919:8018   */\n    tag_351:\n        /* \"#utility.yul\":7990:8011   */\n      tag_488\n        /* \"#utility.yul\":8005:8010   */\n      dup2\n        /* \"#utility.yul\":7990:8011   */\n      tag_336\n      jump\t// in\n    tag_488:\n        /* \"#utility.yul\":7985:7988   */\n      dup3\n        /* \"#utility.yul\":7978:8012   */\n      mstore\n        /* \"#utility.yul\":7919:8018   */\n      pop\n      pop\n      jump\t// out\n        /* \"#utility.yul\":8076:9450   */\n    tag_352:\n        /* \"#utility.yul\":8189:8192   */\n      0x00\n        /* \"#utility.yul\":8225:8229   */\n      0xc0\n        /* \"#utility.yul\":8220:8223   */\n      dup4\n        /* \"#utility.yul\":8216:8230   */\n      add\n        /* \"#utility.yul\":8313:8317   */\n      0x00\n        /* \"#utility.yul\":8306:8311   */\n      dup4\n        /* \"#utility.yul\":8302:8318   */\n      add\n        /* \"#utility.yul\":8296:8319   */\n      mload\n        /* \"#utility.yul\":8332:8395   */\n      tag_490\n        /* \"#utility.yul\":8389:8393   */\n      0x00\n        /* \"#utility.yul\":8384:8387   */\n      dup7\n        /* \"#utility.yul\":8380:8394   */\n      add\n        /* \"#utility.yul\":8366:8378   */\n      dup3\n        /* \"#utility.yul\":8332:8395   */\n      tag_347\n      jump\t// in\n    tag_490:\n        /* \"#utility.yul\":8240:8405   */\n      pop\n        /* \"#utility.yul\":8487:8491   */\n      0x20\n        /* \"#utility.yul\":8480:8485   */\n      dup4\n        /* \"#utility.yul\":8476:8492   */\n      add\n        /* \"#utility.yul\":8470:8493   */\n      mload\n        /* \"#utility.yul\":8540:8543   */\n      dup5\n        /* \"#utility.yul\":8534:8538   */\n      dup3\n        /* \"#utility.yul\":8530:8544   */\n      sub\n        /* \"#utility.yul\":8523:8527   */\n      0x20\n        /* \"#utility.yul\":8518:8521   */\n      dup7\n        /* \"#utility.yul\":8514:8528   */\n      add\n        /* \"#utility.yul\":8507:8545   */\n      mstore\n        /* \"#utility.yul\":8566:8639   */\n      tag_491\n        /* \"#utility.yul\":8634:8638   */\n      dup3\n        /* \"#utility.yul\":8620:8632   */\n      dup3\n        /* \"#utility.yul\":8566:8639   */\n      tag_349\n      jump\t// in\n    tag_491:\n        /* \"#utility.yul\":8558:8639   */\n      swap2\n      pop\n        /* \"#utility.yul\":8415:8650   */\n      pop\n        /* \"#utility.yul\":8733:8737   */\n      0x40\n        /* \"#utility.yul\":8726:8731   */\n      dup4\n        /* \"#utility.yul\":8722:8738   */\n      add\n        /* \"#utility.yul\":8716:8739   */\n      mload\n        /* \"#utility.yul\":8786:8789   */\n      dup5\n        /* \"#utility.yul\":8780:8784   */\n      dup3\n        /* \"#utility.yul\":8776:8790   */\n      sub\n        /* \"#utility.yul\":8769:8773   */\n      0x40\n        /* \"#utility.yul\":8764:8767   */\n      dup7\n        /* \"#utility.yul\":8760:8774   */\n      add\n        /* \"#utility.yul\":8753:8791   */\n      mstore\n        /* \"#utility.yul\":8812:8885   */\n      tag_492\n        /* \"#utility.yul\":8880:8884   */\n      dup3\n        /* \"#utility.yul\":8866:8878   */\n      dup3\n        /* \"#utility.yul\":8812:8885   */\n      tag_349\n      jump\t// in\n    tag_492:\n        /* \"#utility.yul\":8804:8885   */\n      swap2\n      pop\n        /* \"#utility.yul\":8660:8896   */\n      pop\n        /* \"#utility.yul\":8981:8985   */\n      0x60\n        /* \"#utility.yul\":8974:8979   */\n      dup4\n        /* \"#utility.yul\":8970:8986   */\n      add\n        /* \"#utility.yul\":8964:8987   */\n      mload\n        /* \"#utility.yul\":9000:9063   */\n      tag_493\n        /* \"#utility.yul\":9057:9061   */\n      0x60\n        /* \"#utility.yul\":9052:9055   */\n      dup7\n        /* \"#utility.yul\":9048:9062   */\n      add\n        /* \"#utility.yul\":9034:9046   */\n      dup3\n        /* \"#utility.yul\":9000:9063   */\n      tag_350\n      jump\t// in\n    tag_493:\n        /* \"#utility.yul\":8906:9073   */\n      pop\n        /* \"#utility.yul\":9159:9163   */\n      0x80\n        /* \"#utility.yul\":9152:9157   */\n      dup4\n        /* \"#utility.yul\":9148:9164   */\n      add\n        /* \"#utility.yul\":9142:9165   */\n      mload\n        /* \"#utility.yul\":9178:9241   */\n      tag_494\n        /* \"#utility.yul\":9235:9239   */\n      0x80\n        /* \"#utility.yul\":9230:9233   */\n      dup7\n        /* \"#utility.yul\":9226:9240   */\n      add\n        /* \"#utility.yul\":9212:9224   */\n      dup3\n        /* \"#utility.yul\":9178:9241   */\n      tag_350\n      jump\t// in\n    tag_494:\n        /* \"#utility.yul\":9083:9251   */\n      pop\n        /* \"#utility.yul\":9337:9341   */\n      0xa0\n        /* \"#utility.yul\":9330:9335   */\n      dup4\n        /* \"#utility.yul\":9326:9342   */\n      add\n        /* \"#utility.yul\":9320:9343   */\n      mload\n        /* \"#utility.yul\":9356:9413   */\n      tag_495\n        /* \"#utility.yul\":9407:9411   */\n      0xa0\n        /* \"#utility.yul\":9402:9405   */\n      dup7\n        /* \"#utility.yul\":9398:9412   */\n      add\n        /* \"#utility.yul\":9384:9396   */\n      dup3\n        /* \"#utility.yul\":9356:9413   */\n      tag_351\n      jump\t// in\n    tag_495:\n        /* \"#utility.yul\":9261:9423   */\n      pop\n        /* \"#utility.yul\":9440:9444   */\n      dup1\n        /* \"#utility.yul\":9433:9444   */\n      swap2\n      pop\n        /* \"#utility.yul\":8194:9450   */\n      pop\n        /* \"#utility.yul\":8076:9450   */\n      swap3\n      swap2\n      pop\n      pop\n      jump\t// out\n        /* \"#utility.yul\":9456:9817   */\n    tag_52:\n        /* \"#utility.yul\":9593:9597   */\n      0x00\n        /* \"#utility.yul\":9631:9633   */\n      0x20\n        /* \"#utility.yul\":9620:9629   */\n      dup3\n        /* \"#utility.yul\":9616:9634   */\n      add\n        /* \"#utility.yul\":9608:9634   */\n      swap1\n      pop\n        /* \"#utility.yul\":9680:9689   */\n      dup2\n        /* \"#utility.yul\":9674:9678   */\n      dup2\n        /* \"#utility.yul\":9670:9690   */\n      sub\n        /* \"#utility.yul\":9666:9667   */\n      0x00\n        /* \"#utility.yul\":9655:9664   */\n      dup4\n        /* \"#utility.yul\":9651:9668   */\n      add\n        /* \"#utility.yul\":9644:9691   */\n      mstore\n        /* \"#utility.yul\":9708:9810   */\n      tag_497\n        /* \"#utility.yul\":9805:9809   */\n      dup2\n        /* \"#utility.yul\":9796:9802   */\n      dup5\n        /* \"#utility.yul\":9708:9810   */\n      tag_352\n      jump\t// in\n    tag_497:\n        /* \"#utility.yul\":9700:9810   */\n      swap1\n      pop\n        /* \"#utility.yul\":9456:9817   */\n      swap3\n      swap2\n      pop\n      pop\n      jump\t// out\n        /* \"#utility.yul\":9823:10045   */\n    tag_61:\n        /* \"#utility.yul\":9916:9920   */\n      0x00\n        /* \"#utility.yul\":9954:9956   */\n      0x20\n        /* \"#utility.yul\":9943:9952   */\n      dup3\n        /* \"#utility.yul\":9939:9957   */\n      add\n        /* \"#utility.yul\":9931:9957   */\n      swap1\n      pop\n        /* \"#utility.yul\":9967:10038   */\n      tag_499\n        /* \"#utility.yul\":10035:10036   */\n      0x00\n        /* \"#utility.yul\":10024:10033   */\n      dup4\n        /* \"#utility.yul\":10020:10037   */\n      add\n        /* \"#utility.yul\":10011:10017   */\n      dup5\n        /* \"#utility.yul\":9967:10038   */\n      tag_335\n      jump\t// in\n    tag_499:\n        /* \"#utility.yul\":9823:10045   */\n      swap3\n      swap2\n      pop\n      pop\n      jump\t// out\n        /* \"#utility.yul\":10051:10173   */\n    tag_353:\n        /* \"#utility.yul\":10124:10148   */\n      tag_501\n        /* \"#utility.yul\":10142:10147   */\n      dup2\n        /* \"#utility.yul\":10124:10148   */\n      tag_328\n      jump\t// in\n    tag_501:\n        /* \"#utility.yul\":10117:10122   */\n      dup2\n        /* \"#utility.yul\":10114:10149   */\n      eq\n        /* \"#utility.yul\":10104:10167   */\n      tag_502\n      jumpi\n        /* \"#utility.yul\":10163:10164   */\n      0x00\n        /* \"#utility.yul\":10160:10161   */\n      0x00\n        /* \"#utility.yul\":10153:10165   */\n      revert\n        /* \"#utility.yul\":10104:10167   */\n    tag_502:\n        /* \"#utility.yul\":10051:10173   */\n      pop\n      jump\t// out\n        /* \"#utility.yul\":10179:10318   */\n    tag_354:\n        /* \"#utility.yul\":10225:10230   */\n      0x00\n        /* \"#utility.yul\":10263:10269   */\n      dup2\n        /* \"#utility.yul\":10250:10270   */\n      calldataload\n        /* \"#utility.yul\":10241:10270   */\n      swap1\n      pop\n        /* \"#utility.yul\":10279:10312   */\n      tag_504\n        /* \"#utility.yul\":10306:10311   */\n      dup2\n        /* \"#utility.yul\":10279:10312   */\n      tag_353\n      jump\t// in\n    tag_504:\n        /* \"#utility.yul\":10179:10318   */\n      swap3\n      swap2\n      pop\n      pop\n      jump\t// out\n        /* \"#utility.yul\":10324:10653   */\n    tag_78:\n        /* \"#utility.yul\":10383:10389   */\n      0x00\n        /* \"#utility.yul\":10432:10434   */\n      0x20\n        /* \"#utility.yul\":10420:10429   */\n      dup3\n        /* \"#utility.yul\":10411:10418   */\n      dup5\n        /* \"#utility.yul\":10407:10430   */\n      sub\n        /* \"#utility.yul\":10403:10435   */\n      slt\n        /* \"#utility.yul\":10400:10519   */\n      iszero\n      tag_506\n      jumpi\n        /* \"#utility.yul\":10438:10517   */\n      tag_507\n      tag_322\n      jump\t// in\n    tag_507:\n        /* \"#utility.yul\":10400:10519   */\n    tag_506:\n        /* \"#utility.yul\":10558:10559   */\n      0x00\n        /* \"#utility.yul\":10583:10636   */\n      tag_508\n        /* \"#utility.yul\":10628:10635   */\n      dup5\n        /* \"#utility.yul\":10619:10625   */\n      dup3\n        /* \"#utility.yul\":10608:10617   */\n      dup6\n        /* \"#utility.yul\":10604:10626   */\n      add\n        /* \"#utility.yul\":10583:10636   */\n      tag_354\n      jump\t// in\n    tag_508:\n        /* \"#utility.yul\":10573:10636   */\n      swap2\n      pop\n        /* \"#utility.yul\":10529:10646   */\n      pop\n        /* \"#utility.yul\":10324:10653   */\n      swap3\n      swap2\n      pop\n      pop\n      jump\t// out\n        /* \"#utility.yul\":10659:10881   */\n    tag_89:\n        /* \"#utility.yul\":10752:10756   */\n      0x00\n        /* \"#utility.yul\":10790:10792   */\n      0x20\n        /* \"#utility.yul\":10779:10788   */\n      dup3\n        /* \"#utility.yul\":10775:10793   */\n      add\n        /* \"#utility.yul\":10767:10793   */\n      swap1\n      pop\n        /* \"#utility.yul\":10803:10874   */\n      tag_510\n        /* \"#utility.yul\":10871:10872   */\n      0x00\n        /* \"#utility.yul\":10860:10869   */\n      dup4\n        /* \"#utility.yul\":10856:10873   */\n      add\n        /* \"#utility.yul\":10847:10853   */\n      dup5\n        /* \"#utility.yul\":10803:10874   */\n      tag_329\n      jump\t// in\n    tag_510:\n        /* \"#utility.yul\":10659:10881   */\n      swap3\n      swap2\n      pop\n      pop\n      jump\t// out\n        /* \"#utility.yul\":10887:11097   */\n    tag_94:\n        /* \"#utility.yul\":10974:10978   */\n      0x00\n        /* \"#utility.yul\":11012:11014   */\n      0x20\n        /* \"#utility.yul\":11001:11010   */\n      dup3\n        /* \"#utility.yul\":10997:11015   */\n      add\n        /* \"#utility.yul\":10989:11015   */\n      swap1\n      pop\n        /* \"#utility.yul\":11025:11090   */\n      tag_512\n        /* \"#utility.yul\":11087:11088   */\n      0x00\n        /* \"#utility.yul\":11076:11085   */\n      dup4\n        /* \"#utility.yul\":11072:11089   */\n      add\n        /* \"#utility.yul\":11063:11069   */\n      dup5\n        /* \"#utility.yul\":11025:11090   */\n      tag_337\n      jump\t// in\n    tag_512:\n        /* \"#utility.yul\":10887:11097   */\n      swap3\n      swap2\n      pop\n      pop\n      jump\t// out\n        /* \"#utility.yul\":11103:11283   */\n    tag_355:\n        /* \"#utility.yul\":11151:11228   */\n      0x4e487b7100000000000000000000000000000000000000000000000000000000\n        /* \"#utility.yul\":11148:11149   */\n      0x00\n        /* \"#utility.yul\":11141:11229   */\n      mstore\n        /* \"#utility.yul\":11248:11252   */\n      0x22\n        /* \"#utility.yul\":11245:11246   */\n      0x04\n        /* \"#utility.yul\":11238:11253   */\n      mstore\n        /* \"#utility.yul\":11272:11276   */\n      0x24\n        /* \"#utility.yul\":11269:11270   */\n      0x00\n        /* \"#utility.yul\":11262:11277   */\n      revert\n        /* \"#utility.yul\":11289:11609   */\n    tag_135:\n        /* \"#utility.yul\":11333:11339   */\n      0x00\n        /* \"#utility.yul\":11370:11371   */\n      0x02\n        /* \"#utility.yul\":11364:11368   */\n      dup3\n        /* \"#utility.yul\":11360:11372   */\n      div\n        /* \"#utility.yul\":11350:11372   */\n      swap1\n      pop\n        /* \"#utility.yul\":11417:11418   */\n      0x01\n        /* \"#utility.yul\":11411:11415   */\n      dup3\n        /* \"#utility.yul\":11407:11419   */\n      and\n        /* \"#utility.yul\":11438:11456   */\n      dup1\n        /* \"#utility.yul\":11428:11509   */\n      tag_515\n      jumpi\n        /* \"#utility.yul\":11494:11498   */\n      0x7f\n        /* \"#utility.yul\":11486:11492   */\n      dup3\n        /* \"#utility.yul\":11482:11499   */\n      and\n        /* \"#utility.yul\":11472:11499   */\n      swap2\n      pop\n        /* \"#utility.yul\":11428:11509   */\n    tag_515:\n        /* \"#utility.yul\":11556:11558   */\n      0x20\n        /* \"#utility.yul\":11548:11554   */\n      dup3\n        /* \"#utility.yul\":11545:11559   */\n      lt\n        /* \"#utility.yul\":11525:11543   */\n      dup2\n        /* \"#utility.yul\":11522:11560   */\n      sub\n        /* \"#utility.yul\":11519:11603   */\n      tag_516\n      jumpi\n        /* \"#utility.yul\":11575:11593   */\n      tag_517\n      tag_355\n      jump\t// in\n    tag_517:\n        /* \"#utility.yul\":11519:11603   */\n    tag_516:\n        /* \"#utility.yul\":11340:11609   */\n      pop\n        /* \"#utility.yul\":11289:11609   */\n      swap2\n      swap1\n      pop\n      jump\t// out\n        /* \"#utility.yul\":11615:11837   */\n    tag_356:\n        /* \"#utility.yul\":11755:11789   */\n      0x796f75206861766520746f2070617920657861637420616d6f756e74206f6620\n        /* \"#utility.yul\":11751:11752   */\n      0x00\n        /* \"#utility.yul\":11743:11749   */\n      dup3\n        /* \"#utility.yul\":11739:11753   */\n      add\n        /* \"#utility.yul\":11732:11790   */\n      mstore\n        /* \"#utility.yul\":11824:11829   */\n      0x6574680000000000000000000000000000000000000000000000000000000000\n        /* \"#utility.yul\":11819:11821   */\n      0x20\n        /* \"#utility.yul\":11811:11817   */\n      dup3\n        /* \"#utility.yul\":11807:11822   */\n      add\n        /* \"#utility.yul\":11800:11830   */\n      mstore\n        /* \"#utility.yul\":11615:11837   */\n      pop\n      jump\t// out\n        /* \"#utility.yul\":11843:12209   */\n    tag_357:\n        /* \"#utility.yul\":11985:11988   */\n      0x00\n        /* \"#utility.yul\":12006:12073   */\n      tag_520\n        /* \"#utility.yul\":12070:12072   */\n      0x23\n        /* \"#utility.yul\":12065:12068   */\n      dup4\n        /* \"#utility.yul\":12006:12073   */\n      tag_331\n      jump\t// in\n    tag_520:\n        /* \"#utility.yul\":11999:12073   */\n      swap2\n      pop\n        /* \"#utility.yul\":12082:12175   */\n      tag_521\n        /* \"#utility.yul\":12171:12174   */\n      dup3\n        /* \"#utility.yul\":12082:12175   */\n      tag_356\n      jump\t// in\n    tag_521:\n        /* \"#utility.yul\":12200:12202   */\n      0x40\n        /* \"#utility.yul\":12195:12198   */\n      dup3\n        /* \"#utility.yul\":12191:12203   */\n      add\n        /* \"#utility.yul\":12184:12203   */\n      swap1\n      pop\n        /* \"#utility.yul\":11843:12209   */\n      swap2\n      swap1\n      pop\n      jump\t// out\n        /* \"#utility.yul\":12215:12634   */\n    tag_148:\n        /* \"#utility.yul\":12381:12385   */\n      0x00\n        /* \"#utility.yul\":12419:12421   */\n      0x20\n        /* \"#utility.yul\":12408:12417   */\n      dup3\n        /* \"#utility.yul\":12404:12422   */\n      add\n        /* \"#utility.yul\":12396:12422   */\n      swap1\n      pop\n        /* \"#utility.yul\":12468:12477   */\n      dup2\n        /* \"#utility.yul\":12462:12466   */\n      dup2\n        /* \"#utility.yul\":12458:12478   */\n      sub\n        /* \"#utility.yul\":12454:12455   */\n      0x00\n        /* \"#utility.yul\":12443:12452   */\n      dup4\n        /* \"#utility.yul\":12439:12456   */\n      add\n        /* \"#utility.yul\":12432:12479   */\n      mstore\n        /* \"#utility.yul\":12496:12627   */\n      tag_523\n        /* \"#utility.yul\":12622:12626   */\n      dup2\n        /* \"#utility.yul\":12496:12627   */\n      tag_357\n      jump\t// in\n    tag_523:\n        /* \"#utility.yul\":12488:12627   */\n      swap1\n      pop\n        /* \"#utility.yul\":12215:12634   */\n      swap2\n      swap1\n      pop\n      jump\t// out\n        /* \"#utility.yul\":12640:12804   */\n    tag_358:\n        /* \"#utility.yul\":12780:12796   */\n      0x7365617473206172652066756c6c000000000000000000000000000000000000\n        /* \"#utility.yul\":12776:12777   */\n      0x00\n        /* \"#utility.yul\":12768:12774   */\n      dup3\n        /* \"#utility.yul\":12764:12778   */\n      add\n        /* \"#utility.yul\":12757:12797   */\n      mstore\n        /* \"#utility.yul\":12640:12804   */\n      pop\n      jump\t// out\n        /* \"#utility.yul\":12810:13176   */\n    tag_359:\n        /* \"#utility.yul\":12952:12955   */\n      0x00\n        /* \"#utility.yul\":12973:13040   */\n      tag_526\n        /* \"#utility.yul\":13037:13039   */\n      0x0e\n        /* \"#utility.yul\":13032:13035   */\n      dup4\n        /* \"#utility.yul\":12973:13040   */\n      tag_331\n      jump\t// in\n    tag_526:\n        /* \"#utility.yul\":12966:13040   */\n      swap2\n      pop\n        /* \"#utility.yul\":13049:13142   */\n      tag_527\n        /* \"#utility.yul\":13138:13141   */\n      dup3\n        /* \"#utility.yul\":13049:13142   */\n      tag_358\n      jump\t// in\n    tag_527:\n        /* \"#utility.yul\":13167:13169   */\n      0x20\n        /* \"#utility.yul\":13162:13165   */\n      dup3\n        /* \"#utility.yul\":13158:13170   */\n      add\n        /* \"#utility.yul\":13151:13170   */\n      swap1\n      pop\n        /* \"#utility.yul\":12810:13176   */\n      swap2\n      swap1\n      pop\n      jump\t// out\n        /* \"#utility.yul\":13182:13601   */\n    tag_151:\n        /* \"#utility.yul\":13348:13352   */\n      0x00\n        /* \"#utility.yul\":13386:13388   */\n      0x20\n        /* \"#utility.yul\":13375:13384   */\n      dup3\n        /* \"#utility.yul\":13371:13389   */\n      add\n        /* \"#utility.yul\":13363:13389   */\n      swap1\n      pop\n        /* \"#utility.yul\":13435:13444   */\n      dup2\n        /* \"#utility.yul\":13429:13433   */\n      dup2\n        /* \"#utility.yul\":13425:13445   */\n      sub\n        /* \"#utility.yul\":13421:13422   */\n      0x00\n        /* \"#utility.yul\":13410:13419   */\n      dup4\n        /* \"#utility.yul\":13406:13423   */\n      add\n        /* \"#utility.yul\":13399:13446   */\n      mstore\n        /* \"#utility.yul\":13463:13594   */\n      tag_529\n        /* \"#utility.yul\":13589:13593   */\n      dup2\n        /* \"#utility.yul\":13463:13594   */\n      tag_359\n      jump\t// in\n    tag_529:\n        /* \"#utility.yul\":13455:13594   */\n      swap1\n      pop\n        /* \"#utility.yul\":13182:13601   */\n      swap2\n      swap1\n      pop\n      jump\t// out\n        /* \"#utility.yul\":13607:13781   */\n    tag_360:\n        /* \"#utility.yul\":13747:13773   */\n      0x796f7520616c7265616479206f776e2061207469636b65740000000000000000\n        /* \"#utility.yul\":13743:13744   */\n      0x00\n        /* \"#utility.yul\":13735:13741   */\n      dup3\n        /* \"#utility.yul\":13731:13745   */\n      add\n        /* \"#utility.yul\":13724:13774   */\n      mstore\n        /* \"#utility.yul\":13607:13781   */\n      pop\n      jump\t// out\n        /* \"#utility.yul\":13787:14153   */\n    tag_361:\n        /* \"#utility.yul\":13929:13932   */\n      0x00\n        /* \"#utility.yul\":13950:14017   */\n      tag_532\n        /* \"#utility.yul\":14014:14016   */\n      0x18\n        /* \"#utility.yul\":14009:14012   */\n      dup4\n        /* \"#utility.yul\":13950:14017   */\n      tag_331\n      jump\t// in\n    tag_532:\n        /* \"#utility.yul\":13943:14017   */\n      swap2\n      pop\n        /* \"#utility.yul\":14026:14119   */\n      tag_533\n        /* \"#utility.yul\":14115:14118   */\n      dup3\n        /* \"#utility.yul\":14026:14119   */\n      tag_360\n      jump\t// in\n    tag_533:\n        /* \"#utility.yul\":14144:14146   */\n      0x20\n        /* \"#utility.yul\":14139:14142   */\n      dup3\n        /* \"#utility.yul\":14135:14147   */\n      add\n        /* \"#utility.yul\":14128:14147   */\n      swap1\n      pop\n        /* \"#utility.yul\":13787:14153   */\n      swap2\n      swap1\n      pop\n      jump\t// out\n        /* \"#utility.yul\":14159:14578   */\n    tag_155:\n        /* \"#utility.yul\":14325:14329   */\n      0x00\n        /* \"#utility.yul\":14363:14365   */\n      0x20\n        /* \"#utility.yul\":14352:14361   */\n      dup3\n        /* \"#utility.yul\":14348:14366   */\n      add\n        /* \"#utility.yul\":14340:14366   */\n      swap1\n      pop\n        /* \"#utility.yul\":14412:14421   */\n      dup2\n        /* \"#utility.yul\":14406:14410   */\n      dup2\n        /* \"#utility.yul\":14402:14422   */\n      sub\n        /* \"#utility.yul\":14398:14399   */\n      0x00\n        /* \"#utility.yul\":14387:14396   */\n      dup4\n        /* \"#utility.yul\":14383:14400   */\n      add\n        /* \"#utility.yul\":14376:14423   */\n      mstore\n        /* \"#utility.yul\":14440:14571   */\n      tag_535\n        /* \"#utility.yul\":14566:14570   */\n      dup2\n        /* \"#utility.yul\":14440:14571   */\n      tag_361\n      jump\t// in\n    tag_535:\n        /* \"#utility.yul\":14432:14571   */\n      swap1\n      pop\n        /* \"#utility.yul\":14159:14578   */\n      swap2\n      swap1\n      pop\n      jump\t// out\n        /* \"#utility.yul\":14584:14764   */\n    tag_362:\n        /* \"#utility.yul\":14632:14709   */\n      0x4e487b7100000000000000000000000000000000000000000000000000000000\n        /* \"#utility.yul\":14629:14630   */\n      0x00\n        /* \"#utility.yul\":14622:14710   */\n      mstore\n        /* \"#utility.yul\":14729:14733   */\n      0x11\n        /* \"#utility.yul\":14726:14727   */\n      0x04\n        /* \"#utility.yul\":14719:14734   */\n      mstore\n        /* \"#utility.yul\":14753:14757   */\n      0x24\n        /* \"#utility.yul\":14750:14751   */\n      0x00\n        /* \"#utility.yul\":14743:14758   */\n      revert\n        /* \"#utility.yul\":14770:14964   */\n    tag_157:\n        /* \"#utility.yul\":14810:14814   */\n      0x00\n        /* \"#utility.yul\":14830:14850   */\n      tag_538\n        /* \"#utility.yul\":14848:14849   */\n      dup3\n        /* \"#utility.yul\":14830:14850   */\n      tag_324\n      jump\t// in\n    tag_538:\n        /* \"#utility.yul\":14825:14850   */\n      swap2\n      pop\n        /* \"#utility.yul\":14864:14884   */\n      tag_539\n        /* \"#utility.yul\":14882:14883   */\n      dup4\n        /* \"#utility.yul\":14864:14884   */\n      tag_324\n      jump\t// in\n    tag_539:\n        /* \"#utility.yul\":14859:14884   */\n      swap3\n      pop\n        /* \"#utility.yul\":14908:14909   */\n      dup3\n        /* \"#utility.yul\":14905:14906   */\n      dup3\n        /* \"#utility.yul\":14901:14910   */\n      sub\n        /* \"#utility.yul\":14893:14910   */\n      swap1\n      pop\n        /* \"#utility.yul\":14932:14933   */\n      dup2\n        /* \"#utility.yul\":14926:14930   */\n      dup2\n        /* \"#utility.yul\":14923:14934   */\n      gt\n        /* \"#utility.yul\":14920:14957   */\n      iszero\n      tag_540\n      jumpi\n        /* \"#utility.yul\":14937:14955   */\n      tag_541\n      tag_362\n      jump\t// in\n    tag_541:\n        /* \"#utility.yul\":14920:14957   */\n    tag_540:\n        /* \"#utility.yul\":14770:14964   */\n      swap3\n      swap2\n      pop\n      pop\n      jump\t// out\n        /* \"#utility.yul\":14970:15161   */\n    tag_159:\n        /* \"#utility.yul\":15010:15013   */\n      0x00\n        /* \"#utility.yul\":15029:15049   */\n      tag_543\n        /* \"#utility.yul\":15047:15048   */\n      dup3\n        /* \"#utility.yul\":15029:15049   */\n      tag_324\n      jump\t// in\n    tag_543:\n        /* \"#utility.yul\":15024:15049   */\n      swap2\n      pop\n        /* \"#utility.yul\":15063:15083   */\n      tag_544\n        /* \"#utility.yul\":15081:15082   */\n      dup4\n        /* \"#utility.yul\":15063:15083   */\n      tag_324\n      jump\t// in\n    tag_544:\n        /* \"#utility.yul\":15058:15083   */\n      swap3\n      pop\n        /* \"#utility.yul\":15106:15107   */\n      dup3\n        /* \"#utility.yul\":15103:15104   */\n      dup3\n        /* \"#utility.yul\":15099:15108   */\n      add\n        /* \"#utility.yul\":15092:15108   */\n      swap1\n      pop\n        /* \"#utility.yul\":15127:15130   */\n      dup1\n        /* \"#utility.yul\":15124:15125   */\n      dup3\n        /* \"#utility.yul\":15121:15131   */\n      gt\n        /* \"#utility.yul\":15118:15154   */\n      iszero\n      tag_545\n      jumpi\n        /* \"#utility.yul\":15134:15152   */\n      tag_546\n      tag_362\n      jump\t// in\n    tag_546:\n        /* \"#utility.yul\":15118:15154   */\n    tag_545:\n        /* \"#utility.yul\":14970:15161   */\n      swap3\n      swap2\n      pop\n      pop\n      jump\t// out\n        /* \"#utility.yul\":15167:15308   */\n    tag_363:\n        /* \"#utility.yul\":15216:15220   */\n      0x00\n        /* \"#utility.yul\":15239:15242   */\n      dup2\n        /* \"#utility.yul\":15231:15242   */\n      swap1\n      pop\n        /* \"#utility.yul\":15262:15265   */\n      dup2\n        /* \"#utility.yul\":15259:15260   */\n      0x00\n        /* \"#utility.yul\":15252:15266   */\n      mstore\n        /* \"#utility.yul\":15296:15300   */\n      0x20\n        /* \"#utility.yul\":15293:15294   */\n      0x00\n        /* \"#utility.yul\":15283:15301   */\n      keccak256\n        /* \"#utility.yul\":15275:15301   */\n      swap1\n      pop\n        /* \"#utility.yul\":15167:15308   */\n      swap2\n      swap1\n      pop\n      jump\t// out\n        /* \"#utility.yul\":15314:15407   */\n    tag_364:\n        /* \"#utility.yul\":15351:15357   */\n      0x00\n        /* \"#utility.yul\":15398:15400   */\n      0x20\n        /* \"#utility.yul\":15393:15395   */\n      0x1f\n        /* \"#utility.yul\":15386:15391   */\n      dup4\n        /* \"#utility.yul\":15382:15396   */\n      add\n        /* \"#utility.yul\":15378:15401   */\n      div\n        /* \"#utility.yul\":15368:15401   */\n      swap1\n      pop\n        /* \"#utility.yul\":15314:15407   */\n      swap2\n      swap1\n      pop\n      jump\t// out\n        /* \"#utility.yul\":15413:15520   */\n    tag_365:\n        /* \"#utility.yul\":15457:15465   */\n      0x00\n        /* \"#utility.yul\":15507:15512   */\n      dup3\n        /* \"#utility.yul\":15501:15505   */\n      dup3\n        /* \"#utility.yul\":15497:15513   */\n      shl\n        /* \"#utility.yul\":15476:15513   */\n      swap1\n      pop\n        /* \"#utility.yul\":15413:15520   */\n      swap3\n      swap2\n      pop\n      pop\n      jump\t// out\n        /* \"#utility.yul\":15526:15919   */\n    tag_366:\n        /* \"#utility.yul\":15595:15601   */\n      0x00\n        /* \"#utility.yul\":15645:15646   */\n      0x08\n        /* \"#utility.yul\":15633:15643   */\n      dup4\n        /* \"#utility.yul\":15629:15647   */\n      mul\n        /* \"#utility.yul\":15668:15765   */\n      tag_551\n        /* \"#utility.yul\":15698:15764   */\n      0xffffffffffffffffffffffffffffffffffffffffffffffffffffffffffffffff\n        /* \"#utility.yul\":15687:15696   */\n      dup3\n        /* \"#utility.yul\":15668:15765   */\n      tag_365\n      jump\t// in\n    tag_551:\n        /* \"#utility.yul\":15786:15825   */\n      tag_552\n        /* \"#utility.yul\":15816:15824   */\n      dup7\n        /* \"#utility.yul\":15805:15814   */\n      dup4\n        /* \"#utility.yul\":15786:15825   */\n      tag_365\n      jump\t// in\n    tag_552:\n        /* \"#utility.yul\":15774:15825   */\n      swap6\n      pop\n        /* \"#utility.yul\":15858:15862   */\n      dup1\n        /* \"#utility.yul\":15854:15863   */\n      not\n        /* \"#utility.yul\":15847:15852   */\n      dup5\n        /* \"#utility.yul\":15843:15864   */\n      and\n        /* \"#utility.yul\":15834:15864   */\n      swap4\n      pop\n        /* \"#utility.yul\":15907:15911   */\n      dup1\n        /* \"#utility.yul\":15897:15905   */\n      dup7\n        /* \"#utility.yul\":15893:15912   */\n      and\n        /* \"#utility.yul\":15886:15891   */\n      dup5\n        /* \"#utility.yul\":15883:15913   */\n      or\n        /* \"#utility.yul\":15873:15913   */\n      swap3\n      pop\n        /* \"#utility.yul\":15602:15919   */\n      pop\n      pop\n        /* \"#utility.yul\":15526:15919   */\n      swap4\n      swap3\n      pop\n      pop\n      pop\n      jump\t// out\n        /* \"#utility.yul\":15925:15985   */\n    tag_367:\n        /* \"#utility.yul\":15953:15956   */\n      0x00\n        /* \"#utility.yul\":15974:15979   */\n      dup2\n        /* \"#utility.yul\":15967:15979   */\n      swap1\n      pop\n        /* \"#utility.yul\":15925:15985   */\n      swap2\n      swap1\n      pop\n      jump\t// out\n        /* \"#utility.yul\":15991:16133   */\n    tag_368:\n        /* \"#utility.yul\":16041:16050   */\n      0x00\n        /* \"#utility.yul\":16074:16127   */\n      tag_555\n        /* \"#utility.yul\":16092:16126   */\n      tag_556\n        /* \"#utility.yul\":16101:16125   */\n      tag_557\n        /* \"#utility.yul\":16119:16124   */\n      dup5\n        /* \"#utility.yul\":16101:16125   */\n      tag_324\n      jump\t// in\n    tag_557:\n        /* \"#utility.yul\":16092:16126   */\n      tag_367\n      jump\t// in\n    tag_556:\n        /* \"#utility.yul\":16074:16127   */\n      tag_324\n      jump\t// in\n    tag_555:\n        /* \"#utility.yul\":16061:16127   */\n      swap1\n      pop\n        /* \"#utility.yul\":15991:16133   */\n      swap2\n      swap1\n      pop\n      jump\t// out\n        /* \"#utility.yul\":16139:16214   */\n    tag_369:\n        /* \"#utility.yul\":16182:16185   */\n      0x00\n        /* \"#utility.yul\":16203:16208   */\n      dup2\n        /* \"#utility.yul\":16196:16208   */\n      swap1\n      pop\n        /* \"#utility.yul\":16139:16214   */\n      swap2\n      swap1\n      pop\n      jump\t// out\n        /* \"#utility.yul\":16220:16489   */\n    tag_370:\n        /* \"#utility.yul\":16330:16369   */\n      tag_560\n        /* \"#utility.yul\":16361:16368   */\n      dup4\n        /* \"#utility.yul\":16330:16369   */\n      tag_368\n      jump\t// in\n    tag_560:\n        /* \"#utility.yul\":16391:16482   */\n      tag_561\n        /* \"#utility.yul\":16440:16481   */\n      tag_562\n        /* \"#utility.yul\":16464:16480   */\n      dup3\n        /* \"#utility.yul\":16440:16481   */\n      tag_369\n      jump\t// in\n    tag_562:\n        /* \"#utility.yul\":16432:16438   */\n      dup5\n        /* \"#utility.yul\":16425:16429   */\n      dup5\n        /* \"#utility.yul\":16419:16430   */\n      sload\n        /* \"#utility.yul\":16391:16482   */\n      tag_366\n      jump\t// in\n    tag_561:\n        /* \"#utility.yul\":16385:16389   */\n      dup3\n        /* \"#utility.yul\":16378:16483   */\n      sstore\n        /* \"#utility.yul\":16296:16489   */\n      pop\n        /* \"#utility.yul\":16220:16489   */\n      pop\n      pop\n      pop\n      jump\t// out\n        /* \"#utility.yul\":16495:16568   */\n    tag_371:\n        /* \"#utility.yul\":16540:16543   */\n      0x00\n        /* \"#utility.yul\":16561:16562   */\n      0x00\n        /* \"#utility.yul\":16554:16562   */\n      swap1\n      pop\n        /* \"#utility.yul\":16495:16568   */\n      swap1\n      jump\t// out\n        /* \"#utility.yul\":16574:16763   */\n    tag_372:\n        /* \"#utility.yul\":16651:16683   */\n      tag_565\n      tag_371\n      jump\t// in\n    tag_565:\n        /* \"#utility.yul\":16692:16757   */\n      tag_566\n        /* \"#utility.yul\":16750:16756   */\n      dup2\n        /* \"#utility.yul\":16742:16748   */\n      dup5\n        /* \"#utility.yul\":16736:16740   */\n      dup5\n        /* \"#utility.yul\":16692:16757   */\n      tag_370\n      jump\t// in\n    tag_566:\n        /* \"#utility.yul\":16627:16763   */\n      pop\n        /* \"#utility.yul\":16574:16763   */\n      pop\n      pop\n      jump\t// out\n        /* \"#utility.yul\":16769:16955   */\n    tag_373:\n        /* \"#utility.yul\":16829:16949   */\n    tag_568:\n        /* \"#utility.yul\":16846:16849   */\n      dup2\n        /* \"#utility.yul\":16839:16844   */\n      dup2\n        /* \"#utility.yul\":16836:16850   */\n      lt\n        /* \"#utility.yul\":16829:16949   */\n      iszero\n      tag_570\n      jumpi\n        /* \"#utility.yul\":16900:16939   */\n      tag_571\n        /* \"#utility.yul\":16937:16938   */\n      0x00\n        /* \"#utility.yul\":16930:16935   */\n      dup3\n        /* \"#utility.yul\":16900:16939   */\n      tag_372\n      jump\t// in\n    tag_571:\n        /* \"#utility.yul\":16873:16874   */\n      0x01\n        /* \"#utility.yul\":16866:16871   */\n      dup2\n        /* \"#utility.yul\":16862:16875   */\n      add\n        /* \"#utility.yul\":16853:16875   */\n      swap1\n      pop\n        /* \"#utility.yul\":16829:16949   */\n      jump(tag_568)\n    tag_570:\n        /* \"#utility.yul\":16769:16955   */\n      pop\n      pop\n      jump\t// out\n        /* \"#utility.yul\":16961:17504   */\n    tag_374:\n        /* \"#utility.yul\":17062:17064   */\n      0x1f\n        /* \"#utility.yul\":17057:17060   */\n      dup3\n        /* \"#utility.yul\":17054:17065   */\n      gt\n        /* \"#utility.yul\":17051:17497   */\n      iszero\n      tag_573\n      jumpi\n        /* \"#utility.yul\":17096:17134   */\n      tag_574\n        /* \"#utility.yul\":17128:17133   */\n      dup2\n        /* \"#utility.yul\":17096:17134   */\n      tag_363\n      jump\t// in\n    tag_574:\n        /* \"#utility.yul\":17180:17209   */\n      tag_575\n        /* \"#utility.yul\":17198:17208   */\n      dup5\n        /* \"#utility.yul\":17180:17209   */\n      tag_364\n      jump\t// in\n    tag_575:\n        /* \"#utility.yul\":17170:17178   */\n      dup2\n        /* \"#utility.yul\":17166:17210   */\n      add\n        /* \"#utility.yul\":17363:17365   */\n      0x20\n        /* \"#utility.yul\":17351:17361   */\n      dup6\n        /* \"#utility.yul\":17348:17366   */\n      lt\n        /* \"#utility.yul\":17345:17394   */\n      iszero\n      tag_576\n      jumpi\n        /* \"#utility.yul\":17384:17392   */\n      dup2\n        /* \"#utility.yul\":17369:17392   */\n      swap1\n      pop\n        /* \"#utility.yul\":17345:17394   */\n    tag_576:\n        /* \"#utility.yul\":17407:17487   */\n      tag_577\n        /* \"#utility.yul\":17463:17485   */\n      tag_578\n        /* \"#utility.yul\":17481:17484   */\n      dup6\n        /* \"#utility.yul\":17463:17485   */\n      tag_364\n      jump\t// in\n    tag_578:\n        /* \"#utility.yul\":17453:17461   */\n      dup4\n        /* \"#utility.yul\":17449:17486   */\n      add\n        /* \"#utility.yul\":17436:17447   */\n      dup3\n        /* \"#utility.yul\":17407:17487   */\n      tag_373\n      jump\t// in\n    tag_577:\n        /* \"#utility.yul\":17066:17497   */\n      pop\n      pop\n        /* \"#utility.yul\":17051:17497   */\n    tag_573:\n        /* \"#utility.yul\":16961:17504   */\n      pop\n      pop\n      pop\n      jump\t// out\n        /* \"#utility.yul\":17510:17627   */\n    tag_375:\n        /* \"#utility.yul\":17564:17572   */\n      0x00\n        /* \"#utility.yul\":17614:17619   */\n      dup3\n        /* \"#utility.yul\":17608:17612   */\n      dup3\n        /* \"#utility.yul\":17604:17620   */\n      shr\n        /* \"#utility.yul\":17583:17620   */\n      swap1\n      pop\n        /* \"#utility.yul\":17510:17627   */\n      swap3\n      swap2\n      pop\n      pop\n      jump\t// out\n        /* \"#utility.yul\":17633:17802   */\n    tag_376:\n        /* \"#utility.yul\":17677:17683   */\n      0x00\n        /* \"#utility.yul\":17710:17761   */\n      tag_581\n        /* \"#utility.yul\":17758:17759   */\n      0x00\n        /* \"#utility.yul\":17754:17760   */\n      not\n        /* \"#utility.yul\":17746:17751   */\n      dup5\n        /* \"#utility.yul\":17743:17744   */\n      0x08\n        /* \"#utility.yul\":17739:17752   */\n      mul\n        /* \"#utility.yul\":17710:17761   */\n      tag_375\n      jump\t// in\n    tag_581:\n        /* \"#utility.yul\":17706:17762   */\n      not\n        /* \"#utility.yul\":17791:17795   */\n      dup1\n        /* \"#utility.yul\":17785:17789   */\n      dup4\n        /* \"#utility.yul\":17781:17796   */\n      and\n        /* \"#utility.yul\":17771:17796   */\n      swap2\n      pop\n        /* \"#utility.yul\":17684:17802   */\n      pop\n        /* \"#utility.yul\":17633:17802   */\n      swap3\n      swap2\n      pop\n      pop\n      jump\t// out\n        /* \"#utility.yul\":17807:18102   */\n    tag_377:\n        /* \"#utility.yul\":17883:17887   */\n      0x00\n        /* \"#utility.yul\":18029:18058   */\n      tag_583\n        /* \"#utility.yul\":18054:18057   */\n      dup4\n        /* \"#utility.yul\":18048:18052   */\n      dup4\n        /* \"#utility.yul\":18029:18058   */\n      tag_376\n      jump\t// in\n    tag_583:\n        /* \"#utility.yul\":18021:18058   */\n      swap2\n      pop\n        /* \"#utility.yul\":18091:18094   */\n      dup3\n        /* \"#utility.yul\":18088:18089   */\n      0x02\n        /* \"#utility.yul\":18084:18095   */\n      mul\n        /* \"#utility.yul\":18078:18082   */\n      dup3\n        /* \"#utility.yul\":18075:18096   */\n      or\n        /* \"#utility.yul\":18067:18096   */\n      swap1\n      pop\n        /* \"#utility.yul\":17807:18102   */\n      swap3\n      swap2\n      pop\n      pop\n      jump\t// out\n        /* \"#utility.yul\":18107:19502   */\n    tag_162:\n        /* \"#utility.yul\":18224:18261   */\n      tag_585\n        /* \"#utility.yul\":18257:18260   */\n      dup3\n        /* \"#utility.yul\":18224:18261   */\n      tag_330\n      jump\t// in\n    tag_585:\n        /* \"#utility.yul\":18326:18344   */\n      0xffffffffffffffff\n        /* \"#utility.yul\":18318:18324   */\n      dup2\n        /* \"#utility.yul\":18315:18345   */\n      gt\n        /* \"#utility.yul\":18312:18368   */\n      iszero\n      tag_586\n      jumpi\n        /* \"#utility.yul\":18348:18366   */\n      tag_587\n      tag_340\n      jump\t// in\n    tag_587:\n        /* \"#utility.yul\":18312:18368   */\n    tag_586:\n        /* \"#utility.yul\":18392:18430   */\n      tag_588\n        /* \"#utility.yul\":18424:18428   */\n      dup3\n        /* \"#utility.yul\":18418:18429   */\n      sload\n        /* \"#utility.yul\":18392:18430   */\n      tag_135\n      jump\t// in\n    tag_588:\n        /* \"#utility.yul\":18477:18544   */\n      tag_589\n        /* \"#utility.yul\":18537:18543   */\n      dup3\n        /* \"#utility.yul\":18529:18535   */\n      dup3\n        /* \"#utility.yul\":18523:18527   */\n      dup6\n        /* \"#utility.yul\":18477:18544   */\n      tag_374\n      jump\t// in\n    tag_589:\n        /* \"#utility.yul\":18571:18572   */\n      0x00\n        /* \"#utility.yul\":18595:18599   */\n      0x20\n        /* \"#utility.yul\":18582:18599   */\n      swap1\n      pop\n        /* \"#utility.yul\":18627:18629   */\n      0x1f\n        /* \"#utility.yul\":18619:18625   */\n      dup4\n        /* \"#utility.yul\":18616:18630   */\n      gt\n        /* \"#utility.yul\":18644:18645   */\n      0x01\n        /* \"#utility.yul\":18639:19257   */\n      dup2\n      eq\n      tag_591\n      jumpi\n        /* \"#utility.yul\":19301:19302   */\n      0x00\n        /* \"#utility.yul\":19318:19324   */\n      dup5\n        /* \"#utility.yul\":19315:19392   */\n      iszero\n      tag_592\n      jumpi\n        /* \"#utility.yul\":19367:19376   */\n      dup3\n        /* \"#utility.yul\":19362:19365   */\n      dup8\n        /* \"#utility.yul\":19358:19377   */\n      add\n        /* \"#utility.yul\":19352:19378   */\n      mload\n        /* \"#utility.yul\":19343:19378   */\n      swap1\n      pop\n        /* \"#utility.yul\":19315:19392   */\n    tag_592:\n        /* \"#utility.yul\":19418:19485   */\n      tag_593\n        /* \"#utility.yul\":19478:19484   */\n      dup6\n        /* \"#utility.yul\":19471:19476   */\n      dup3\n        /* \"#utility.yul\":19418:19485   */\n      tag_377\n      jump\t// in\n    tag_593:\n        /* \"#utility.yul\":19412:19416   */\n      dup7\n        /* \"#utility.yul\":19405:19486   */\n      sstore\n        /* \"#utility.yul\":19274:19496   */\n      pop\n        /* \"#utility.yul\":18609:19496   */\n      jump(tag_590)\n        /* \"#utility.yul\":18639:19257   */\n    tag_591:\n        /* \"#utility.yul\":18691:18695   */\n      0x1f\n        /* \"#utility.yul\":18687:18696   */\n      not\n        /* \"#utility.yul\":18679:18685   */\n      dup5\n        /* \"#utility.yul\":18675:18697   */\n      and\n        /* \"#utility.yul\":18725:18762   */\n      tag_594\n        /* \"#utility.yul\":18757:18761   */\n      dup7\n        /* \"#utility.yul\":18725:18762   */\n      tag_363\n      jump\t// in\n    tag_594:\n        /* \"#utility.yul\":18784:18785   */\n      0x00\n        /* \"#utility.yul\":18798:19006   */\n    tag_595:\n        /* \"#utility.yul\":18812:18819   */\n      dup3\n        /* \"#utility.yul\":18809:18810   */\n      dup2\n        /* \"#utility.yul\":18806:18820   */\n      lt\n        /* \"#utility.yul\":18798:19006   */\n      iszero\n      tag_597\n      jumpi\n        /* \"#utility.yul\":18891:18900   */\n      dup5\n        /* \"#utility.yul\":18886:18889   */\n      dup10\n        /* \"#utility.yul\":18882:18901   */\n      add\n        /* \"#utility.yul\":18876:18902   */\n      mload\n        /* \"#utility.yul\":18868:18874   */\n      dup3\n        /* \"#utility.yul\":18861:18903   */\n      sstore\n        /* \"#utility.yul\":18942:18943   */\n      0x01\n        /* \"#utility.yul\":18934:18940   */\n      dup3\n        /* \"#utility.yul\":18930:18944   */\n      add\n        /* \"#utility.yul\":18920:18944   */\n      swap2\n      pop\n        /* \"#utility.yul\":18989:18991   */\n      0x20\n        /* \"#utility.yul\":18978:18987   */\n      dup6\n        /* \"#utility.yul\":18974:18992   */\n      add\n        /* \"#utility.yul\":18961:18992   */\n      swap5\n      pop\n        /* \"#utility.yul\":18835:18839   */\n      0x20\n        /* \"#utility.yul\":18832:18833   */\n      dup2\n        /* \"#utility.yul\":18828:18840   */\n      add\n        /* \"#utility.yul\":18823:18840   */\n      swap1\n      pop\n        /* \"#utility.yul\":18798:19006   */\n      jump(tag_595)\n    tag_597:\n        /* \"#utility.yul\":19034:19040   */\n      dup7\n        /* \"#utility.yul\":19025:19032   */\n      dup4\n        /* \"#utility.yul\":19022:19041   */\n      lt\n        /* \"#utility.yul\":19019:19198   */\n      iszero\n      tag_598\n      jumpi\n        /* \"#utility.yul\":19092:19101   */\n      dup5\n        /* \"#utility.yul\":19087:19090   */\n      dup10\n        /* \"#utility.yul\":19083:19102   */\n      add\n        /* \"#utility.yul\":19077:19103   */\n      mload\n        /* \"#utility.yul\":19135:19183   */\n      tag_599\n        /* \"#utility.yul\":19177:19181   */\n      0x1f\n        /* \"#utility.yul\":19169:19175   */\n      dup10\n        /* \"#utility.yul\":19165:19182   */\n      and\n        /* \"#utility.yul\":19154:19163   */\n      dup3\n        /* \"#utility.yul\":19135:19183   */\n      tag_376\n      jump\t// in\n    tag_599:\n        /* \"#utility.yul\":19127:19133   */\n      dup4\n        /* \"#utility.yul\":19120:19184   */\n      sstore\n        /* \"#utility.yul\":19042:19198   */\n      pop\n        /* \"#utility.yul\":19019:19198   */\n    tag_598:\n        /* \"#utility.yul\":19244:19245   */\n      0x01\n        /* \"#utility.yul\":19240:19241   */\n      0x02\n        /* \"#utility.yul\":19232:19238   */\n      dup9\n        /* \"#utility.yul\":19228:19242   */\n      mul\n        /* \"#utility.yul\":19224:19246   */\n      add\n        /* \"#utility.yul\":19218:19222   */\n      dup9\n        /* \"#utility.yul\":19211:19247   */\n      sstore\n        /* \"#utility.yul\":18646:19257   */\n      pop\n      pop\n      pop\n        /* \"#utility.yul\":18609:19496   */\n    tag_590:\n      pop\n        /* \"#utility.yul\":18199:19502   */\n      pop\n      pop\n      pop\n        /* \"#utility.yul\":18107:19502   */\n      pop\n      pop\n      jump\t// out\n        /* \"#utility.yul\":19508:19840   */\n    tag_165:\n        /* \"#utility.yul\":19629:19633   */\n      0x00\n        /* \"#utility.yul\":19667:19669   */\n      0x40\n        /* \"#utility.yul\":19656:19665   */\n      dup3\n        /* \"#utility.yul\":19652:19670   */\n      add\n        /* \"#utility.yul\":19644:19670   */\n      swap1\n      pop\n        /* \"#utility.yul\":19680:19751   */\n      tag_601\n        /* \"#utility.yul\":19748:19749   */\n      0x00\n        /* \"#utility.yul\":19737:19746   */\n      dup4\n        /* \"#utility.yul\":19733:19750   */\n      add\n        /* \"#utility.yul\":19724:19730   */\n      dup6\n        /* \"#utility.yul\":19680:19751   */\n      tag_335\n      jump\t// in\n    tag_601:\n        /* \"#utility.yul\":19761:19833   */\n      tag_602\n        /* \"#utility.yul\":19829:19831   */\n      0x20\n        /* \"#utility.yul\":19818:19827   */\n      dup4\n        /* \"#utility.yul\":19814:19832   */\n      add\n        /* \"#utility.yul\":19805:19811   */\n      dup5\n        /* \"#utility.yul\":19761:19833   */\n      tag_335\n      jump\t// in\n    tag_602:\n        /* \"#utility.yul\":19508:19840   */\n      swap4\n      swap3\n      pop\n      pop\n      pop\n      jump\t// out\n        /* \"#utility.yul\":19846:20013   */\n    tag_378:\n        /* \"#utility.yul\":19986:20005   */\n      0x6576656e74206973206e6f74206f766572000000000000000000000000000000\n        /* \"#utility.yul\":19982:19983   */\n      0x00\n        /* \"#utility.yul\":19974:19980   */\n      dup3\n        /* \"#utility.yul\":19970:19984   */\n      add\n        /* \"#utility.yul\":19963:20006   */\n      mstore\n        /* \"#utility.yul\":19846:20013   */\n      pop\n      jump\t// out\n        /* \"#utility.yul\":20019:20385   */\n    tag_379:\n        /* \"#utility.yul\":20161:20164   */\n      0x00\n        /* \"#utility.yul\":20182:20249   */\n      tag_605\n        /* \"#utility.yul\":20246:20248   */\n      0x11\n        /* \"#utility.yul\":20241:20244   */\n      dup4\n        /* \"#utility.yul\":20182:20249   */\n      tag_331\n      jump\t// in\n    tag_605:\n        /* \"#utility.yul\":20175:20249   */\n      swap2\n      pop\n        /* \"#utility.yul\":20258:20351   */\n      tag_606\n        /* \"#utility.yul\":20347:20350   */\n      dup3\n        /* \"#utility.yul\":20258:20351   */\n      tag_378\n      jump\t// in\n    tag_606:\n        /* \"#utility.yul\":20376:20378   */\n      0x20\n        /* \"#utility.yul\":20371:20374   */\n      dup3\n        /* \"#utility.yul\":20367:20379   */\n      add\n        /* \"#utility.yul\":20360:20379   */\n      swap1\n      pop\n        /* \"#utility.yul\":20019:20385   */\n      swap2\n      swap1\n      pop\n      jump\t// out\n        /* \"#utility.yul\":20391:20810   */\n    tag_172:\n        /* \"#utility.yul\":20557:20561   */\n      0x00\n        /* \"#utility.yul\":20595:20597   */\n      0x20\n        /* \"#utility.yul\":20584:20593   */\n      dup3\n        /* \"#utility.yul\":20580:20598   */\n      add\n        /* \"#utility.yul\":20572:20598   */\n      swap1\n      pop\n        /* \"#utility.yul\":20644:20653   */\n      dup2\n        /* \"#utility.yul\":20638:20642   */\n      dup2\n        /* \"#utility.yul\":20634:20654   */\n      sub\n        /* \"#utility.yul\":20630:20631   */\n      0x00\n        /* \"#utility.yul\":20619:20628   */\n      dup4\n        /* \"#utility.yul\":20615:20632   */\n      add\n        /* \"#utility.yul\":20608:20655   */\n      mstore\n        /* \"#utility.yul\":20672:20803   */\n      tag_608\n        /* \"#utility.yul\":20798:20802   */\n      dup2\n        /* \"#utility.yul\":20672:20803   */\n      tag_379\n      jump\t// in\n    tag_608:\n        /* \"#utility.yul\":20664:20803   */\n      swap1\n      pop\n        /* \"#utility.yul\":20391:20810   */\n      swap2\n      swap1\n      pop\n      jump\t// out\n        /* \"#utility.yul\":20816:20963   */\n    tag_380:\n        /* \"#utility.yul\":20917:20928   */\n      0x00\n        /* \"#utility.yul\":20954:20957   */\n      dup2\n        /* \"#utility.yul\":20939:20957   */\n      swap1\n      pop\n        /* \"#utility.yul\":20816:20963   */\n      swap3\n      swap2\n      pop\n      pop\n      jump\t// out\n        /* \"#utility.yul\":20969:21083   */\n    tag_381:\n      pop\n      jump\t// out\n        /* \"#utility.yul\":21089:21487   */\n    tag_382:\n        /* \"#utility.yul\":21248:21251   */\n      0x00\n        /* \"#utility.yul\":21269:21352   */\n      tag_612\n        /* \"#utility.yul\":21350:21351   */\n      0x00\n        /* \"#utility.yul\":21345:21348   */\n      dup4\n        /* \"#utility.yul\":21269:21352   */\n      tag_380\n      jump\t// in\n    tag_612:\n        /* \"#utility.yul\":21262:21352   */\n      swap2\n      pop\n        /* \"#utility.yul\":21361:21454   */\n      tag_613\n        /* \"#utility.yul\":21450:21453   */\n      dup3\n        /* \"#utility.yul\":21361:21454   */\n      tag_381\n      jump\t// in\n    tag_613:\n        /* \"#utility.yul\":21479:21480   */\n      0x00\n        /* \"#utility.yul\":21474:21477   */\n      dup3\n        /* \"#utility.yul\":21470:21481   */\n      add\n        /* \"#utility.yul\":21463:21481   */\n      swap1\n      pop\n        /* \"#utility.yul\":21089:21487   */\n      swap2\n      swap1\n      pop\n      jump\t// out\n        /* \"#utility.yul\":21493:21872   */\n    tag_175:\n        /* \"#utility.yul\":21677:21680   */\n      0x00\n        /* \"#utility.yul\":21699:21846   */\n      tag_615\n        /* \"#utility.yul\":21842:21845   */\n      dup3\n        /* \"#utility.yul\":21699:21846   */\n      tag_382\n      jump\t// in\n    tag_615:\n        /* \"#utility.yul\":21692:21846   */\n      swap2\n      pop\n        /* \"#utility.yul\":21863:21866   */\n      dup2\n        /* \"#utility.yul\":21856:21866   */\n      swap1\n      pop\n        /* \"#utility.yul\":21493:21872   */\n      swap2\n      swap1\n      pop\n      jump\t// out\n        /* \"#utility.yul\":21878:22056   */\n    tag_383:\n        /* \"#utility.yul\":22018:22048   */\n      0x6572726f723a6661696c20746f20776974686472617720657468657200000000\n        /* \"#utility.yul\":22014:22015   */\n      0x00\n        /* \"#utility.yul\":22006:22012   */\n      dup3\n        /* \"#utility.yul\":22002:22016   */\n      add\n        /* \"#utility.yul\":21995:22049   */\n      mstore\n        /* \"#utility.yul\":21878:22056   */\n      pop\n      jump\t// out\n        /* \"#utility.yul\":22062:22428   */\n    tag_384:\n        /* \"#utility.yul\":22204:22207   */\n      0x00\n        /* \"#utility.yul\":22225:22292   */\n      tag_618\n        /* \"#utility.yul\":22289:22291   */\n      0x1c\n        /* \"#utility.yul\":22284:22287   */\n      dup4\n        /* \"#utility.yul\":22225:22292   */\n      tag_331\n      jump\t// in\n    tag_618:\n        /* \"#utility.yul\":22218:22292   */\n      swap2\n      pop\n        /* \"#utility.yul\":22301:22394   */\n      tag_619\n        /* \"#utility.yul\":22390:22393   */\n      dup3\n        /* \"#utility.yul\":22301:22394   */\n      tag_383\n      jump\t// in\n    tag_619:\n        /* \"#utility.yul\":22419:22421   */\n      0x20\n        /* \"#utility.yul\":22414:22417   */\n      dup3\n        /* \"#utility.yul\":22410:22422   */\n      add\n        /* \"#utility.yul\":22403:22422   */\n      swap1\n      pop\n        /* \"#utility.yul\":22062:22428   */\n      swap2\n      swap1\n      pop\n      jump\t// out\n        /* \"#utility.yul\":22434:22853   */\n    tag_181:\n        /* \"#utility.yul\":22600:22604   */\n      0x00\n        /* \"#utility.yul\":22638:22640   */\n      0x20\n        /* \"#utility.yul\":22627:22636   */\n      dup3\n        /* \"#utility.yul\":22623:22641   */\n      add\n        /* \"#utility.yul\":22615:22641   */\n      swap1\n      pop\n        /* \"#utility.yul\":22687:22696   */\n      dup2\n        /* \"#utility.yul\":22681:22685   */\n      dup2\n        /* \"#utility.yul\":22677:22697   */\n      sub\n        /* \"#utility.yul\":22673:22674   */\n      0x00\n        /* \"#utility.yul\":22662:22671   */\n      dup4\n        /* \"#utility.yul\":22658:22675   */\n      add\n        /* \"#utility.yul\":22651:22698   */\n      mstore\n        /* \"#utility.yul\":22715:22846   */\n      tag_621\n        /* \"#utility.yul\":22841:22845   */\n      dup2\n        /* \"#utility.yul\":22715:22846   */\n      tag_384\n      jump\t// in\n    tag_621:\n        /* \"#utility.yul\":22707:22846   */\n      swap1\n      pop\n        /* \"#utility.yul\":22434:22853   */\n      swap2\n      swap1\n      pop\n      jump\t// out\n        /* \"#utility.yul\":22859:23269   */\n    tag_189:\n        /* \"#utility.yul\":22899:22906   */\n      0x00\n        /* \"#utility.yul\":22922:22942   */\n      tag_623\n        /* \"#utility.yul\":22940:22941   */\n      dup3\n        /* \"#utility.yul\":22922:22942   */\n      tag_324\n      jump\t// in\n    tag_623:\n        /* \"#utility.yul\":22917:22942   */\n      swap2\n      pop\n        /* \"#utility.yul\":22956:22976   */\n      tag_624\n        /* \"#utility.yul\":22974:22975   */\n      dup4\n        /* \"#utility.yul\":22956:22976   */\n      tag_324\n      jump\t// in\n    tag_624:\n        /* \"#utility.yul\":22951:22976   */\n      swap3\n      pop\n        /* \"#utility.yul\":23011:23012   */\n      dup3\n        /* \"#utility.yul\":23008:23009   */\n      dup3\n        /* \"#utility.yul\":23004:23013   */\n      mul\n        /* \"#utility.yul\":23033:23063   */\n      tag_625\n        /* \"#utility.yul\":23051:23062   */\n      dup2\n        /* \"#utility.yul\":23033:23063   */\n      tag_324\n      jump\t// in\n    tag_625:\n        /* \"#utility.yul\":23022:23063   */\n      swap2\n      pop\n        /* \"#utility.yul\":23212:23213   */\n      dup3\n        /* \"#utility.yul\":23203:23210   */\n      dup3\n        /* \"#utility.yul\":23199:23214   */\n      div\n        /* \"#utility.yul\":23196:23197   */\n      dup5\n        /* \"#utility.yul\":23193:23215   */\n      eq\n        /* \"#utility.yul\":23173:23174   */\n      dup4\n        /* \"#utility.yul\":23166:23175   */\n      iszero\n        /* \"#utility.yul\":23146:23229   */\n      or\n        /* \"#utility.yul\":23123:23262   */\n      tag_626\n      jumpi\n        /* \"#utility.yul\":23242:23260   */\n      tag_627\n      tag_362\n      jump\t// in\n    tag_627:\n        /* \"#utility.yul\":23123:23262   */\n    tag_626:\n        /* \"#utility.yul\":22907:23269   */\n      pop\n        /* \"#utility.yul\":22859:23269   */\n      swap3\n      swap2\n      pop\n      pop\n      jump\t// out\n        /* \"#utility.yul\":23275:23444   */\n    tag_385:\n        /* \"#utility.yul\":23415:23436   */\n      0x796f7520646f6e74206f776e207469636b657400000000000000000000000000\n        /* \"#utility.yul\":23411:23412   */\n      0x00\n        /* \"#utility.yul\":23403:23409   */\n      dup3\n        /* \"#utility.yul\":23399:23413   */\n      add\n        /* \"#utility.yul\":23392:23437   */\n      mstore\n        /* \"#utility.yul\":23275:23444   */\n      pop\n      jump\t// out\n        /* \"#utility.yul\":23450:23816   */\n    tag_386:\n        /* \"#utility.yul\":23592:23595   */\n      0x00\n        /* \"#utility.yul\":23613:23680   */\n      tag_630\n        /* \"#utility.yul\":23677:23679   */\n      0x13\n        /* \"#utility.yul\":23672:23675   */\n      dup4\n        /* \"#utility.yul\":23613:23680   */\n      tag_331\n      jump\t// in\n    tag_630:\n        /* \"#utility.yul\":23606:23680   */\n      swap2\n      pop\n        /* \"#utility.yul\":23689:23782   */\n      tag_631\n        /* \"#utility.yul\":23778:23781   */\n      dup3\n        /* \"#utility.yul\":23689:23782   */\n      tag_385\n      jump\t// in\n    tag_631:\n        /* \"#utility.yul\":23807:23809   */\n      0x20\n        /* \"#utility.yul\":23802:23805   */\n      dup3\n        /* \"#utility.yul\":23798:23810   */\n      add\n        /* \"#utility.yul\":23791:23810   */\n      swap1\n      pop\n        /* \"#utility.yul\":23450:23816   */\n      swap2\n      swap1\n      pop\n      jump\t// out\n        /* \"#utility.yul\":23822:24241   */\n    tag_196:\n        /* \"#utility.yul\":23988:23992   */\n      0x00\n        /* \"#utility.yul\":24026:24028   */\n      0x20\n        /* \"#utility.yul\":24015:24024   */\n      dup3\n        /* \"#utility.yul\":24011:24029   */\n      add\n        /* \"#utility.yul\":24003:24029   */\n      swap1\n      pop\n        /* \"#utility.yul\":24075:24084   */\n      dup2\n        /* \"#utility.yul\":24069:24073   */\n      dup2\n        /* \"#utility.yul\":24065:24085   */\n      sub\n        /* \"#utility.yul\":24061:24062   */\n      0x00\n        /* \"#utility.yul\":24050:24059   */\n      dup4\n        /* \"#utility.yul\":24046:24063   */\n      add\n        /* \"#utility.yul\":24039:24086   */\n      mstore\n        /* \"#utility.yul\":24103:24234   */\n      tag_633\n        /* \"#utility.yul\":24229:24233   */\n      dup2\n        /* \"#utility.yul\":24103:24234   */\n      tag_386\n      jump\t// in\n    tag_633:\n        /* \"#utility.yul\":24095:24234   */\n      swap1\n      pop\n        /* \"#utility.yul\":23822:24241   */\n      swap2\n      swap1\n      pop\n      jump\t// out\n        /* \"#utility.yul\":24247:24411   */\n    tag_387:\n        /* \"#utility.yul\":24387:24403   */\n      0x20696e76616c696420696e646578000000000000000000000000000000000000\n        /* \"#utility.yul\":24383:24384   */\n      0x00\n        /* \"#utility.yul\":24375:24381   */\n      dup3\n        /* \"#utility.yul\":24371:24385   */\n      add\n        /* \"#utility.yul\":24364:24404   */\n      mstore\n        /* \"#utility.yul\":24247:24411   */\n      pop\n      jump\t// out\n        /* \"#utility.yul\":24417:24783   */\n    tag_388:\n        /* \"#utility.yul\":24559:24562   */\n      0x00\n        /* \"#utility.yul\":24580:24647   */\n      tag_636\n        /* \"#utility.yul\":24644:24646   */\n      0x0e\n        /* \"#utility.yul\":24639:24642   */\n      dup4\n        /* \"#utility.yul\":24580:24647   */\n      tag_331\n      jump\t// in\n    tag_636:\n        /* \"#utility.yul\":24573:24647   */\n      swap2\n      pop\n        /* \"#utility.yul\":24656:24749   */\n      tag_637\n        /* \"#utility.yul\":24745:24748   */\n      dup3\n        /* \"#utility.yul\":24656:24749   */\n      tag_387\n      jump\t// in\n    tag_637:\n        /* \"#utility.yul\":24774:24776   */\n      0x20\n        /* \"#utility.yul\":24769:24772   */\n      dup3\n        /* \"#utility.yul\":24765:24777   */\n      add\n        /* \"#utility.yul\":24758:24777   */\n      swap1\n      pop\n        /* \"#utility.yul\":24417:24783   */\n      swap2\n      swap1\n      pop\n      jump\t// out\n        /* \"#utility.yul\":24789:25208   */\n    tag_200:\n        /* \"#utility.yul\":24955:24959   */\n      0x00\n        /* \"#utility.yul\":24993:24995   */\n      0x20\n        /* \"#utility.yul\":24982:24991   */\n      dup3\n        /* \"#utility.yul\":24978:24996   */\n      add\n        /* \"#utility.yul\":24970:24996   */\n      swap1\n      pop\n        /* \"#utility.yul\":25042:25051   */\n      dup2\n        /* \"#utility.yul\":25036:25040   */\n      dup2\n        /* \"#utility.yul\":25032:25052   */\n      sub\n        /* \"#utility.yul\":25028:25029   */\n      0x00\n        /* \"#utility.yul\":25017:25026   */\n      dup4\n        /* \"#utility.yul\":25013:25030   */\n      add\n        /* \"#utility.yul\":25006:25053   */\n      mstore\n        /* \"#utility.yul\":25070:25201   */\n      tag_639\n        /* \"#utility.yul\":25196:25200   */\n      dup2\n        /* \"#utility.yul\":25070:25201   */\n      tag_388\n      jump\t// in\n    tag_639:\n        /* \"#utility.yul\":25062:25201   */\n      swap1\n      pop\n        /* \"#utility.yul\":24789:25208   */\n      swap2\n      swap1\n      pop\n      jump\t// out\n        /* \"#utility.yul\":25214:25394   */\n    tag_203:\n        /* \"#utility.yul\":25262:25339   */\n      0x4e487b7100000000000000000000000000000000000000000000000000000000\n        /* \"#utility.yul\":25259:25260   */\n      0x00\n        /* \"#utility.yul\":25252:25340   */\n      mstore\n        /* \"#utility.yul\":25359:25363   */\n      0x32\n        /* \"#utility.yul\":25356:25357   */\n      0x04\n        /* \"#utility.yul\":25349:25364   */\n      mstore\n        /* \"#utility.yul\":25383:25387   */\n      0x24\n        /* \"#utility.yul\":25380:25381   */\n      0x00\n        /* \"#utility.yul\":25373:25388   */\n      revert\n        /* \"#utility.yul\":25400:25571   */\n    tag_389:\n        /* \"#utility.yul\":25540:25563   */\n      0x726566756e6420706572696f64206973206f7665720000000000000000000000\n        /* \"#utility.yul\":25536:25537   */\n      0x00\n        /* \"#utility.yul\":25528:25534   */\n      dup3\n        /* \"#utility.yul\":25524:25538   */\n      add\n        /* \"#utility.yul\":25517:25564   */\n      mstore\n        /* \"#utility.yul\":25400:25571   */\n      pop\n      jump\t// out\n        /* \"#utility.yul\":25577:25943   */\n    tag_390:\n        /* \"#utility.yul\":25719:25722   */\n      0x00\n        /* \"#utility.yul\":25740:25807   */\n      tag_643\n        /* \"#utility.yul\":25804:25806   */\n      0x15\n        /* \"#utility.yul\":25799:25802   */\n      dup4\n        /* \"#utility.yul\":25740:25807   */\n      tag_331\n      jump\t// in\n    tag_643:\n        /* \"#utility.yul\":25733:25807   */\n      swap2\n      pop\n        /* \"#utility.yul\":25816:25909   */\n      tag_644\n        /* \"#utility.yul\":25905:25908   */\n      dup3\n        /* \"#utility.yul\":25816:25909   */\n      tag_389\n      jump\t// in\n    tag_644:\n        /* \"#utility.yul\":25934:25936   */\n      0x20\n        /* \"#utility.yul\":25929:25932   */\n      dup3\n        /* \"#utility.yul\":25925:25937   */\n      add\n        /* \"#utility.yul\":25918:25937   */\n      swap1\n      pop\n        /* \"#utility.yul\":25577:25943   */\n      swap2\n      swap1\n      pop\n      jump\t// out\n        /* \"#utility.yul\":25949:26368   */\n    tag_238:\n        /* \"#utility.yul\":26115:26119   */\n      0x00\n        /* \"#utility.yul\":26153:26155   */\n      0x20\n        /* \"#utility.yul\":26142:26151   */\n      dup3\n        /* \"#utility.yul\":26138:26156   */\n      add\n        /* \"#utility.yul\":26130:26156   */\n      swap1\n      pop\n        /* \"#utility.yul\":26202:26211   */\n      dup2\n        /* \"#utility.yul\":26196:26200   */\n      dup2\n        /* \"#utility.yul\":26192:26212   */\n      sub\n        /* \"#utility.yul\":26188:26189   */\n      0x00\n        /* \"#utility.yul\":26177:26186   */\n      dup4\n        /* \"#utility.yul\":26173:26190   */\n      add\n        /* \"#utility.yul\":26166:26213   */\n      mstore\n        /* \"#utility.yul\":26230:26361   */\n      tag_646\n        /* \"#utility.yul\":26356:26360   */\n      dup2\n        /* \"#utility.yul\":26230:26361   */\n      tag_390\n      jump\t// in\n    tag_646:\n        /* \"#utility.yul\":26222:26361   */\n      swap1\n      pop\n        /* \"#utility.yul\":25949:26368   */\n      swap2\n      swap1\n      pop\n      jump\t// out\n        /* \"#utility.yul\":26374:26543   */\n    tag_391:\n        /* \"#utility.yul\":26514:26535   */\n      0x796f7520646f6e74206f776e205469636b657400000000000000000000000000\n        /* \"#utility.yul\":26510:26511   */\n      0x00\n        /* \"#utility.yul\":26502:26508   */\n      dup3\n        /* \"#utility.yul\":26498:26512   */\n      add\n        /* \"#utility.yul\":26491:26536   */\n      mstore\n        /* \"#utility.yul\":26374:26543   */\n      pop\n      jump\t// out\n        /* \"#utility.yul\":26549:26915   */\n    tag_392:\n        /* \"#utility.yul\":26691:26694   */\n      0x00\n        /* \"#utility.yul\":26712:26779   */\n      tag_649\n        /* \"#utility.yul\":26776:26778   */\n      0x13\n        /* \"#utility.yul\":26771:26774   */\n      dup4\n        /* \"#utility.yul\":26712:26779   */\n      tag_331\n      jump\t// in\n    tag_649:\n        /* \"#utility.yul\":26705:26779   */\n      swap2\n      pop\n        /* \"#utility.yul\":26788:26881   */\n      tag_650\n        /* \"#utility.yul\":26877:26880   */\n      dup3\n        /* \"#utility.yul\":26788:26881   */\n      tag_391\n      jump\t// in\n    tag_650:\n        /* \"#utility.yul\":26906:26908   */\n      0x20\n        /* \"#utility.yul\":26901:26904   */\n      dup3\n        /* \"#utility.yul\":26897:26909   */\n      add\n        /* \"#utility.yul\":26890:26909   */\n      swap1\n      pop\n        /* \"#utility.yul\":26549:26915   */\n      swap2\n      swap1\n      pop\n      jump\t// out\n        /* \"#utility.yul\":26921:27340   */\n    tag_241:\n        /* \"#utility.yul\":27087:27091   */\n      0x00\n        /* \"#utility.yul\":27125:27127   */\n      0x20\n        /* \"#utility.yul\":27114:27123   */\n      dup3\n        /* \"#utility.yul\":27110:27128   */\n      add\n        /* \"#utility.yul\":27102:27128   */\n      swap1\n      pop\n        /* \"#utility.yul\":27174:27183   */\n      dup2\n        /* \"#utility.yul\":27168:27172   */\n      dup2\n        /* \"#utility.yul\":27164:27184   */\n      sub\n        /* \"#utility.yul\":27160:27161   */\n      0x00\n        /* \"#utility.yul\":27149:27158   */\n      dup4\n        /* \"#utility.yul\":27145:27162   */\n      add\n        /* \"#utility.yul\":27138:27185   */\n      mstore\n        /* \"#utility.yul\":27202:27333   */\n      tag_652\n        /* \"#utility.yul\":27328:27332   */\n      dup2\n        /* \"#utility.yul\":27202:27333   */\n      tag_392\n      jump\t// in\n    tag_652:\n        /* \"#utility.yul\":27194:27333   */\n      swap1\n      pop\n        /* \"#utility.yul\":26921:27340   */\n      swap2\n      swap1\n      pop\n      jump\t// out\n        /* \"#utility.yul\":27346:27519   */\n    tag_393:\n        /* \"#utility.yul\":27486:27511   */\n      0x6572726f723a6973737565207769746820726566756e64000000000000000000\n        /* \"#utility.yul\":27482:27483   */\n      0x00\n        /* \"#utility.yul\":27474:27480   */\n      dup3\n        /* \"#utility.yul\":27470:27484   */\n      add\n        /* \"#utility.yul\":27463:27512   */\n      mstore\n        /* \"#utility.yul\":27346:27519   */\n      pop\n      jump\t// out\n        /* \"#utility.yul\":27525:27891   */\n    tag_394:\n        /* \"#utility.yul\":27667:27670   */\n      0x00\n        /* \"#utility.yul\":27688:27755   */\n      tag_655\n        /* \"#utility.yul\":27752:27754   */\n      0x17\n        /* \"#utility.yul\":27747:27750   */\n      dup4\n        /* \"#utility.yul\":27688:27755   */\n      tag_331\n      jump\t// in\n    tag_655:\n        /* \"#utility.yul\":27681:27755   */\n      swap2\n      pop\n        /* \"#utility.yul\":27764:27857   */\n      tag_656\n        /* \"#utility.yul\":27853:27856   */\n      dup3\n        /* \"#utility.yul\":27764:27857   */\n      tag_393\n      jump\t// in\n    tag_656:\n        /* \"#utility.yul\":27882:27884   */\n      0x20\n        /* \"#utility.yul\":27877:27880   */\n      dup3\n        /* \"#utility.yul\":27873:27885   */\n      add\n        /* \"#utility.yul\":27866:27885   */\n      swap1\n      pop\n        /* \"#utility.yul\":27525:27891   */\n      swap2\n      swap1\n      pop\n      jump\t// out\n        /* \"#utility.yul\":27897:28316   */\n    tag_254:\n        /* \"#utility.yul\":28063:28067   */\n      0x00\n        /* \"#utility.yul\":28101:28103   */\n      0x20\n        /* \"#utility.yul\":28090:28099   */\n      dup3\n        /* \"#utility.yul\":28086:28104   */\n      add\n        /* \"#utility.yul\":28078:28104   */\n      swap1\n      pop\n        /* \"#utility.yul\":28150:28159   */\n      dup2\n        /* \"#utility.yul\":28144:28148   */\n      dup2\n        /* \"#utility.yul\":28140:28160   */\n      sub\n        /* \"#utility.yul\":28136:28137   */\n      0x00\n        /* \"#utility.yul\":28125:28134   */\n      dup4\n        /* \"#utility.yul\":28121:28138   */\n      add\n        /* \"#utility.yul\":28114:28161   */\n      mstore\n        /* \"#utility.yul\":28178:28309   */\n      tag_658\n        /* \"#utility.yul\":28304:28308   */\n      dup2\n        /* \"#utility.yul\":28178:28309   */\n      tag_394\n      jump\t// in\n    tag_658:\n        /* \"#utility.yul\":28170:28309   */\n      swap1\n      pop\n        /* \"#utility.yul\":27897:28316   */\n      swap2\n      swap1\n      pop\n      jump\t// out\n        /* \"#utility.yul\":28322:28498   */\n    tag_395:\n        /* \"#utility.yul\":28462:28490   */\n      0x796f75206861766520746f20627579206f6e65207469636b6574000000000000\n        /* \"#utility.yul\":28458:28459   */\n      0x00\n        /* \"#utility.yul\":28450:28456   */\n      dup3\n        /* \"#utility.yul\":28446:28460   */\n      add\n        /* \"#utility.yul\":28439:28491   */\n      mstore\n        /* \"#utility.yul\":28322:28498   */\n      pop\n      jump\t// out\n        /* \"#utility.yul\":28504:28870   */\n    tag_396:\n        /* \"#utility.yul\":28646:28649   */\n      0x00\n        /* \"#utility.yul\":28667:28734   */\n      tag_661\n        /* \"#utility.yul\":28731:28733   */\n      0x1a\n        /* \"#utility.yul\":28726:28729   */\n      dup4\n        /* \"#utility.yul\":28667:28734   */\n      tag_331\n      jump\t// in\n    tag_661:\n        /* \"#utility.yul\":28660:28734   */\n      swap2\n      pop\n        /* \"#utility.yul\":28743:28836   */\n      tag_662\n        /* \"#utility.yul\":28832:28835   */\n      dup3\n        /* \"#utility.yul\":28743:28836   */\n      tag_395\n      jump\t// in\n    tag_662:\n        /* \"#utility.yul\":28861:28863   */\n      0x20\n        /* \"#utility.yul\":28856:28859   */\n      dup3\n        /* \"#utility.yul\":28852:28864   */\n      add\n        /* \"#utility.yul\":28845:28864   */\n      swap1\n      pop\n        /* \"#utility.yul\":28504:28870   */\n      swap2\n      swap1\n      pop\n      jump\t// out\n        /* \"#utility.yul\":28876:29295   */\n    tag_304:\n        /* \"#utility.yul\":29042:29046   */\n      0x00\n        /* \"#utility.yul\":29080:29082   */\n      0x20\n        /* \"#utility.yul\":29069:29078   */\n      dup3\n        /* \"#utility.yul\":29065:29083   */\n      add\n        /* \"#utility.yul\":29057:29083   */\n      swap1\n      pop\n        /* \"#utility.yul\":29129:29138   */\n      dup2\n        /* \"#utility.yul\":29123:29127   */\n      dup2\n        /* \"#utility.yul\":29119:29139   */\n      sub\n        /* \"#utility.yul\":29115:29116   */\n      0x00\n        /* \"#utility.yul\":29104:29113   */\n      dup4\n        /* \"#utility.yul\":29100:29117   */\n      add\n        /* \"#utility.yul\":29093:29140   */\n      mstore\n        /* \"#utility.yul\":29157:29288   */\n      tag_664\n        /* \"#utility.yul\":29283:29287   */\n      dup2\n        /* \"#utility.yul\":29157:29288   */\n      tag_396\n      jump\t// in\n    tag_664:\n        /* \"#utility.yul\":29149:29288   */\n      swap1\n      pop\n        /* \"#utility.yul\":28876:29295   */\n      swap2\n      swap1\n      pop\n      jump\t// out\n\n    auxdata: 0xa26469706673582212209959a24ebff246e289ed2707d79e079a98890210a575bbba804b370381b8906464736f6c634300081e0033\n}\n",
				"bytecode": {
					"linkReferences": {},
					"object": "608060405266038d7ea4c68000600155660e35fa931a00006002556064600355603260045534801561002f575f5ffd5b50335f5f6101000a81548173ffffffffffffffffffffffffffffffffffffffff021916908373ffffffffffffffffffffffffffffffffffffffff1602179055505f5f9054906101000a900473ffffffffffffffffffffffffffffffffffffffff1673ffffffffffffffffffffffffffffffffffffffff165f73ffffffffffffffffffffffffffffffffffffffff167f8be0079c531659141344cd1fd0a4f28419497f9722a3daafe3b4186f6b6457e060405160405180910390a362093a80426100f89190610139565b60058190555061016c565b5f819050919050565b7f4e487b71000000000000000000000000000000000000000000000000000000005f52601160045260245ffd5b5f61014382610103565b915061014e83610103565b92508282019050808211156101665761016561010c565b5b92915050565b612c03806101795f395ff3fe60806040526004361061014a575f3560e01c80638c7c9e0c116100b5578063a55671971161006e578063a556719714610420578063acae79bb1461044a578063ad90cf8d14610486578063d94d3914146104a2578063ef265cbe146104cc578063f2fde38b146104f65761014a565b80638c7c9e0c1461030f5780638da5cb5b146103395780638f32d59b14610363578063987215751461038d5780639c5655d6146103b5578063a005ec7a146103df5761014a565b80634bfbe5df116101075780634bfbe5df1461023d57806353ab364814610267578063590e1ae314610291578063609af3a7146102a7578063715018a6146102bd5780637ab05004146102d35761014a565b8063332c4fde1461014e578063352371fe1461018f5780633ccfd60b146101ab5780633d784677146101c15780633ea52614146101e95780634b87bb8414610213575b5f5ffd5b348015610159575f5ffd5b50610174600480360381019061016f9190611dd6565b61051e565b60405161018696959493929190611ed9565b60405180910390f35b6101a960048036038101906101a49190612072565b61069c565b005b3480156101b6575f5ffd5b506101bf6109c5565b005b3480156101cc575f5ffd5b506101e760048036038101906101e291906120fa565b610b25565b005b3480156101f4575f5ffd5b506101fd610b6d565b60405161020a919061223a565b60405180910390f35b34801561021e575f5ffd5b50610227610e23565b604051610234919061223a565b60405180910390f35b348015610248575f5ffd5b506102516110d9565b60405161025e919061225a565b60405180910390f35b348015610272575f5ffd5b5061027b6110df565b604051610288919061225a565b60405180910390f35b34801561029c575f5ffd5b506102a56110e5565b005b3480156102b2575f5ffd5b506102bb611361565b005b3480156102c8575f5ffd5b506102d16115dd565b005b3480156102de575f5ffd5b506102f960048036038101906102f4919061229d565b6116a8565b604051610306919061225a565b60405180910390f35b34801561031a575f5ffd5b506103236116bd565b604051610330919061225a565b60405180910390f35b348015610344575f5ffd5b5061034d6116c3565b60405161035a91906122c8565b60405180910390f35b34801561036e575f5ffd5b506103776116ea565b60405161038491906122e1565b60405180910390f35b348015610398575f5ffd5b506103b360048036038101906103ae9190611dd6565b61173f565b005b3480156103c0575f5ffd5b506103c9611759565b6040516103d6919061225a565b60405180910390f35b3480156103ea575f5ffd5b5061040560048036038101906104009190611dd6565b61175f565b60405161041796959493929190611ed9565b60405180910390f35b34801561042b575f5ffd5b506104346118dd565b604051610441919061225a565b60405180910390f35b348015610455575f5ffd5b50610470600480360381019061046b919061229d565b6118e3565b60405161047d919061225a565b60405180910390f35b6104a0600480360381019061049b9190612072565b6118f8565b005b3480156104ad575f5ffd5b506104b6611c21565b6040516104c3919061225a565b60405180910390f35b3480156104d7575f5ffd5b506104e0611c2d565b6040516104ed919061225a565b60405180910390f35b348015610501575f5ffd5b5061051c6004803603810190610517919061229d565b611c39565b005b6009818154811061052d575f80fd5b905f5260205f2090600602015f91509050805f015f9054906101000a900473ffffffffffffffffffffffffffffffffffffffff169080600101805461057190612327565b80601f016020809104026020016040519081016040528092919081815260200182805461059d90612327565b80156105e85780601f106105bf576101008083540402835291602001916105e8565b820191905f5260205f20905b8154815290600101906020018083116105cb57829003601f168201915b5050505050908060020180546105fd90612327565b80601f016020809104026020016040519081016040528092919081815260200182805461062990612327565b80156106745780601f1061064b57610100808354040283529160200191610674565b820191905f5260205f20905b81548152906001019060200180831161065757829003601f168201915b505050505090806003015490806004015490806005015f9054906101000a900460ff16905086565b60015434146106e0576040517f08c379a00000000000000000000000000000000000000000000000000000000081526004016106d7906123c7565b60405180910390fd5b5f60035411610724576040517f08c379a000000000000000000000000000000000000000000000000000000000815260040161071b9061242f565b60405180910390fd5b5f60065f3373ffffffffffffffffffffffffffffffffffffffff1673ffffffffffffffffffffffffffffffffffffffff1681526020019081526020015f20541480156107ac57505f60075f3373ffffffffffffffffffffffffffffffffffffffff1673ffffffffffffffffffffffffffffffffffffffff1681526020019081526020015f2054145b6107eb576040517f08c379a00000000000000000000000000000000000000000000000000000000081526004016107e290612497565b60405180910390fd5b600160035f8282546107fd91906124e2565b925050819055505f60016008805490506108179190612515565b905060086040518060c001604052803373ffffffffffffffffffffffffffffffffffffffff1681526020018681526020018581526020018481526020018381526020015f1515815250908060018154018082558091505060019003905f5260205f2090600602015f909190919091505f820151815f015f6101000a81548173ffffffffffffffffffffffffffffffffffffffff021916908373ffffffffffffffffffffffffffffffffffffffff16021790555060208201518160010190816108df91906126e8565b5060408201518160020190816108f591906126e8565b50606082015181600301556080820151816004015560a0820151816005015f6101000a81548160ff02191690831515021790555050508060065f3373ffffffffffffffffffffffffffffffffffffffff1673ffffffffffffffffffffffffffffffffffffffff1681526020019081526020015f20819055503373ffffffffffffffffffffffffffffffffffffffff167f7d1cd329a11d8807f0374627923b6cd32942b74b38b1accf931d70a507ff739e826001546040516109b79291906127b7565b60405180910390a250505050565b6109cd6116ea565b6109d5575f5ffd5b6005544211610a19576040517f08c379a0000000000000000000000000000000000000000000000000000000008152600401610a1090612828565b60405180910390fd5b5f4790505f610a266116c3565b73ffffffffffffffffffffffffffffffffffffffff1682604051610a4990612873565b5f6040518083038185875af1925050503d805f8114610a83576040519150601f19603f3d011682016040523d82523d5f602084013e610a88565b606091505b5050905080610acc576040517f08c379a0000000000000000000000000000000000000000000000000000000008152600401610ac3906128d1565b60405180910390fd5b610ad46116c3565b73ffffffffffffffffffffffffffffffffffffffff167f884edad9ce6fa2440d8a54cc123490eb96d2768479d49ff9c7366125a942436483604051610b19919061225a565b60405180910390a25050565b610b2d6116ea565b610b35575f5ffd5b670de0b6b3a764000082610b4991906128ef565b600181905550670de0b6b3a764000081610b6391906128ef565b6002819055505050565b610b75611d48565b5f60065f3373ffffffffffffffffffffffffffffffffffffffff1673ffffffffffffffffffffffffffffffffffffffff1681526020019081526020015f205490505f8111610bf8576040517f08c379a0000000000000000000000000000000000000000000000000000000008152600401610bef9061297a565b60405180910390fd5b5f600182610c0691906124e2565b90506008805490508110610c4f576040517f08c379a0000000000000000000000000000000000000000000000000000000008152600401610c46906129e2565b60405180910390fd5b60088181548110610c6357610c62612a00565b5b905f5260205f2090600602016040518060c00160405290815f82015f9054906101000a900473ffffffffffffffffffffffffffffffffffffffff1673ffffffffffffffffffffffffffffffffffffffff1673ffffffffffffffffffffffffffffffffffffffff168152602001600182018054610cde90612327565b80601f0160208091040260200160405190810160405280929190818152602001828054610d0a90612327565b8015610d555780601f10610d2c57610100808354040283529160200191610d55565b820191905f5260205f20905b815481529060010190602001808311610d3857829003601f168201915b50505050508152602001600282018054610d6e90612327565b80601f0160208091040260200160405190810160405280929190818152602001828054610d9a90612327565b8015610de55780601f10610dbc57610100808354040283529160200191610de5565b820191905f5260205f20905b815481529060010190602001808311610dc857829003601f168201915b505050505081526020016003820154815260200160048201548152602001600582015f9054906101000a900460ff1615151515815250509250505090565b610e2b611d48565b5f60075f3373ffffffffffffffffffffffffffffffffffffffff1673ffffffffffffffffffffffffffffffffffffffff1681526020019081526020015f205490505f8111610eae576040517f08c379a0000000000000000000000000000000000000000000000000000000008152600401610ea59061297a565b60405180910390fd5b5f600182610ebc91906124e2565b90506009805490508110610f05576040517f08c379a0000000000000000000000000000000000000000000000000000000008152600401610efc906129e2565b60405180910390fd5b60098181548110610f1957610f18612a00565b5b905f5260205f2090600602016040518060c00160405290815f82015f9054906101000a900473ffffffffffffffffffffffffffffffffffffffff1673ffffffffffffffffffffffffffffffffffffffff1673ffffffffffffffffffffffffffffffffffffffff168152602001600182018054610f9490612327565b80601f0160208091040260200160405190810160405280929190818152602001828054610fc090612327565b801561100b5780601f10610fe25761010080835404028352916020019161100b565b820191905f5260205f20905b815481529060010190602001808311610fee57829003601f168201915b5050505050815260200160028201805461102490612327565b80601f016020809104026020016040519081016040528092919081815260200182805461105090612327565b801561109b5780601f106110725761010080835404028352916020019161109b565b820191905f5260205f20905b81548152906001019060200180831161107e57829003601f168201915b505050505081526020016003820154815260200160048201548152602001600582015f9054906101000a900460ff1615151515815250509250505090565b60055481565b60025481565b5f60065f3373ffffffffffffffffffffffffffffffffffffffff1673ffffffffffffffffffffffffffffffffffffffff1681526020019081526020015f20549050600554421061116a576040517f08c379a000000000000000000000000000000000000000000000000000000000815260040161116190612a77565b60405180910390fd5b5f81116111ac576040517f08c379a00000000000000000000000000000000000000000000000000000000081526004016111a390612adf565b60405180910390fd5b5f60065f3373ffffffffffffffffffffffffffffffffffffffff1673ffffffffffffffffffffffffffffffffffffffff1681526020019081526020015f2081905550600160035f8282546112009190612515565b925050819055505f60018261121591906124e2565b90506008805490508110156112605760016008828154811061123a57611239612a00565b5b905f5260205f2090600602016005015f6101000a81548160ff0219169083151502179055505b5f3373ffffffffffffffffffffffffffffffffffffffff1660015460405161128790612873565b5f6040518083038185875af1925050503d805f81146112c1576040519150601f19603f3d011682016040523d82523d5f602084013e6112c6565b606091505b505090508061130a576040517f08c379a000000000000000000000000000000000000000000000000000000000815260040161130190612b47565b60405180910390fd5b3373ffffffffffffffffffffffffffffffffffffffff167f73f04af9dcc582a923ec15d3eea990fe34adabfff2879e28d44572e01a54abb6846001546040516113549291906127b7565b60405180910390a2505050565b5f60075f3373ffffffffffffffffffffffffffffffffffffffff1673ffffffffffffffffffffffffffffffffffffffff1681526020019081526020015f2054905060055442106113e6576040517f08c379a00000000000000000000000000000000000000000000000000000000081526004016113dd90612a77565b60405180910390fd5b5f8111611428576040517f08c379a000000000000000000000000000000000000000000000000000000000815260040161141f90612adf565b60405180910390fd5b5f60075f3373ffffffffffffffffffffffffffffffffffffffff1673ffffffffffffffffffffffffffffffffffffffff1681526020019081526020015f2081905550600160045f82825461147c9190612515565b925050819055505f60018261149191906124e2565b90506009805490508110156114dc576001600982815481106114b6576114b5612a00565b5b905f5260205f2090600602016005015f6101000a81548160ff0219169083151502179055505b5f3373ffffffffffffffffffffffffffffffffffffffff1660025460405161150390612873565b5f6040518083038185875af1925050503d805f811461153d576040519150601f19603f3d011682016040523d82523d5f602084013e611542565b606091505b5050905080611586576040517f08c379a000000000000000000000000000000000000000000000000000000000815260040161157d90612b47565b60405180910390fd5b3373ffffffffffffffffffffffffffffffffffffffff167f73f04af9dcc582a923ec15d3eea990fe34adabfff2879e28d44572e01a54abb6846002546040516115d09291906127b7565b60405180910390a2505050565b6115e56116ea565b6115ed575f5ffd5b5f73ffffffffffffffffffffffffffffffffffffffff165f5f9054906101000a900473ffffffffffffffffffffffffffffffffffffffff1673ffffffffffffffffffffffffffffffffffffffff167f8be0079c531659141344cd1fd0a4f28419497f9722a3daafe3b4186f6b6457e060405160405180910390a35f5f5f6101000a81548173ffffffffffffffffffffffffffffffffffffffff021916908373ffffffffffffffffffffffffffffffffffffffff160217905550565b6007602052805f5260405f205f915090505481565b60015481565b5f5f5f9054906101000a900473ffffffffffffffffffffffffffffffffffffffff16905090565b5f5f5f9054906101000a900473ffffffffffffffffffffffffffffffffffffffff1673ffffffffffffffffffffffffffffffffffffffff163373ffffffffffffffffffffffffffffffffffffffff1614905090565b6117476116ea565b61174f575f5ffd5b8060058190555050565b60035481565b6008818154811061176e575f80fd5b905f5260205f2090600602015f91509050805f015f9054906101000a900473ffffffffffffffffffffffffffffffffffffffff16908060010180546117b290612327565b80601f01602080910402602001604051908101604052809291908181526020018280546117de90612327565b80156118295780601f1061180057610100808354040283529160200191611829565b820191905f5260205f20905b81548152906001019060200180831161180c57829003601f168201915b50505050509080600201805461183e90612327565b80601f016020809104026020016040519081016040528092919081815260200182805461186a90612327565b80156118b55780601f1061188c576101008083540402835291602001916118b5565b820191905f5260205f20905b81548152906001019060200180831161189857829003601f168201915b505050505090806003015490806004015490806005015f9054906101000a900460ff16905086565b60045481565b6006602052805f5260405f205f915090505481565b600254341461193c576040517f08c379a0000000000000000000000000000000000000000000000000000000008152600401611933906123c7565b60405180910390fd5b5f60045411611980576040517f08c379a00000000000000000000000000000000000000000000000000000000081526004016119779061242f565b60405180910390fd5b5f60075f3373ffffffffffffffffffffffffffffffffffffffff1673ffffffffffffffffffffffffffffffffffffffff1681526020019081526020015f2054148015611a0857505f60065f3373ffffffffffffffffffffffffffffffffffffffff1673ffffffffffffffffffffffffffffffffffffffff1681526020019081526020015f2054145b611a47576040517f08c379a0000000000000000000000000000000000000000000000000000000008152600401611a3e90612baf565b60405180910390fd5b600160045f828254611a5991906124e2565b925050819055505f6001600980549050611a739190612515565b905060096040518060c001604052803373ffffffffffffffffffffffffffffffffffffffff1681526020018681526020018581526020018481526020018381526020015f1515815250908060018154018082558091505060019003905f5260205f2090600602015f909190919091505f820151815f015f6101000a81548173ffffffffffffffffffffffffffffffffffffffff021916908373ffffffffffffffffffffffffffffffffffffffff1602179055506020820151816001019081611b3b91906126e8565b506040820151816002019081611b5191906126e8565b50606082015181600301556080820151816004015560a0820151816005015f6101000a81548160ff02191690831515021790555050508060075f3373ffffffffffffffffffffffffffffffffffffffff1673ffffffffffffffffffffffffffffffffffffffff1681526020019081526020015f20819055503373ffffffffffffffffffffffffffffffffffffffff167f7d1cd329a11d8807f0374627923b6cd32942b74b38b1accf931d70a507ff739e82600254604051611c139291906127b7565b60405180910390a250505050565b5f600980549050905090565b5f600880549050905090565b611c416116ea565b611c49575f5ffd5b611c5281611c55565b50565b5f73ffffffffffffffffffffffffffffffffffffffff168173ffffffffffffffffffffffffffffffffffffffff1603611c8c575f5ffd5b8073ffffffffffffffffffffffffffffffffffffffff165f5f9054906101000a900473ffffffffffffffffffffffffffffffffffffffff1673ffffffffffffffffffffffffffffffffffffffff167f8be0079c531659141344cd1fd0a4f28419497f9722a3daafe3b4186f6b6457e060405160405180910390a3805f5f6101000a81548173ffffffffffffffffffffffffffffffffffffffff021916908373ffffffffffffffffffffffffffffffffffffffff16021790555050565b6040518060c001604052805f73ffffffffffffffffffffffffffffffffffffffff16815260200160608152602001606081526020015f81526020015f81526020015f151581525090565b5f604051905090565b5f5ffd5b5f5ffd5b5f819050919050565b611db581611da3565b8114611dbf575f5ffd5b50565b5f81359050611dd081611dac565b92915050565b5f60208284031215611deb57611dea611d9b565b5b5f611df884828501611dc2565b91505092915050565b5f73ffffffffffffffffffffffffffffffffffffffff82169050919050565b5f611e2a82611e01565b9050919050565b611e3a81611e20565b82525050565b5f81519050919050565b5f82825260208201905092915050565b8281835e5f83830152505050565b5f601f19601f8301169050919050565b5f611e8282611e40565b611e8c8185611e4a565b9350611e9c818560208601611e5a565b611ea581611e68565b840191505092915050565b611eb981611da3565b82525050565b5f8115159050919050565b611ed381611ebf565b82525050565b5f60c082019050611eec5f830189611e31565b8181036020830152611efe8188611e78565b90508181036040830152611f128187611e78565b9050611f216060830186611eb0565b611f2e6080830185611eb0565b611f3b60a0830184611eca565b979650505050505050565b5f5ffd5b5f5ffd5b7f4e487b71000000000000000000000000000000000000000000000000000000005f52604160045260245ffd5b611f8482611e68565b810181811067ffffffffffffffff82111715611fa357611fa2611f4e565b5b80604052505050565b5f611fb5611d92565b9050611fc18282611f7b565b919050565b5f67ffffffffffffffff821115611fe057611fdf611f4e565b5b611fe982611e68565b9050602081019050919050565b828183375f83830152505050565b5f61201661201184611fc6565b611fac565b90508281526020810184848401111561203257612031611f4a565b5b61203d848285611ff6565b509392505050565b5f82601f83011261205957612058611f46565b5b8135612069848260208601612004565b91505092915050565b5f5f5f6060848603121561208957612088611d9b565b5b5f84013567ffffffffffffffff8111156120a6576120a5611d9f565b5b6120b286828701612045565b935050602084013567ffffffffffffffff8111156120d3576120d2611d9f565b5b6120df86828701612045565b92505060406120f086828701611dc2565b9150509250925092565b5f5f604083850312156121105761210f611d9b565b5b5f61211d85828601611dc2565b925050602061212e85828601611dc2565b9150509250929050565b61214181611e20565b82525050565b5f82825260208201905092915050565b5f61216182611e40565b61216b8185612147565b935061217b818560208601611e5a565b61218481611e68565b840191505092915050565b61219881611da3565b82525050565b6121a781611ebf565b82525050565b5f60c083015f8301516121c25f860182612138565b50602083015184820360208601526121da8282612157565b915050604083015184820360408601526121f48282612157565b9150506060830151612209606086018261218f565b50608083015161221c608086018261218f565b5060a083015161222f60a086018261219e565b508091505092915050565b5f6020820190508181035f83015261225281846121ad565b905092915050565b5f60208201905061226d5f830184611eb0565b92915050565b61227c81611e20565b8114612286575f5ffd5b50565b5f8135905061229781612273565b92915050565b5f602082840312156122b2576122b1611d9b565b5b5f6122bf84828501612289565b91505092915050565b5f6020820190506122db5f830184611e31565b92915050565b5f6020820190506122f45f830184611eca565b92915050565b7f4e487b71000000000000000000000000000000000000000000000000000000005f52602260045260245ffd5b5f600282049050600182168061233e57607f821691505b602082108103612351576123506122fa565b5b50919050565b7f796f75206861766520746f2070617920657861637420616d6f756e74206f66205f8201527f6574680000000000000000000000000000000000000000000000000000000000602082015250565b5f6123b1602383611e4a565b91506123bc82612357565b604082019050919050565b5f6020820190508181035f8301526123de816123a5565b9050919050565b7f7365617473206172652066756c6c0000000000000000000000000000000000005f82015250565b5f612419600e83611e4a565b9150612424826123e5565b602082019050919050565b5f6020820190508181035f8301526124468161240d565b9050919050565b7f796f7520616c7265616479206f776e2061207469636b657400000000000000005f82015250565b5f612481601883611e4a565b915061248c8261244d565b602082019050919050565b5f6020820190508181035f8301526124ae81612475565b9050919050565b7f4e487b71000000000000000000000000000000000000000000000000000000005f52601160045260245ffd5b5f6124ec82611da3565b91506124f783611da3565b925082820390508181111561250f5761250e6124b5565b5b92915050565b5f61251f82611da3565b915061252a83611da3565b9250828201905080821115612542576125416124b5565b5b92915050565b5f819050815f5260205f209050919050565b5f6020601f8301049050919050565b5f82821b905092915050565b5f600883026125a47fffffffffffffffffffffffffffffffffffffffffffffffffffffffffffffffff82612569565b6125ae8683612569565b95508019841693508086168417925050509392505050565b5f819050919050565b5f6125e96125e46125df84611da3565b6125c6565b611da3565b9050919050565b5f819050919050565b612602836125cf565b61261661260e826125f0565b848454612575565b825550505050565b5f5f905090565b61262d61261e565b6126388184846125f9565b505050565b5b8181101561265b576126505f82612625565b60018101905061263e565b5050565b601f8211156126a05761267181612548565b61267a8461255a565b81016020851015612689578190505b61269d6126958561255a565b83018261263d565b50505b505050565b5f82821c905092915050565b5f6126c05f19846008026126a5565b1980831691505092915050565b5f6126d883836126b1565b9150826002028217905092915050565b6126f182611e40565b67ffffffffffffffff81111561270a57612709611f4e565b5b6127148254612327565b61271f82828561265f565b5f60209050601f831160018114612750575f841561273e578287015190505b61274885826126cd565b8655506127af565b601f19841661275e86612548565b5f5b8281101561278557848901518255600182019150602085019450602081019050612760565b868310156127a2578489015161279e601f8916826126b1565b8355505b6001600288020188555050505b505050505050565b5f6040820190506127ca5f830185611eb0565b6127d76020830184611eb0565b9392505050565b7f6576656e74206973206e6f74206f7665720000000000000000000000000000005f82015250565b5f612812601183611e4a565b915061281d826127de565b602082019050919050565b5f6020820190508181035f83015261283f81612806565b9050919050565b5f81905092915050565b50565b5f61285e5f83612846565b915061286982612850565b5f82019050919050565b5f61287d82612853565b9150819050919050565b7f6572726f723a6661696c20746f207769746864726177206574686572000000005f82015250565b5f6128bb601c83611e4a565b91506128c682612887565b602082019050919050565b5f6020820190508181035f8301526128e8816128af565b9050919050565b5f6128f982611da3565b915061290483611da3565b925082820261291281611da3565b91508282048414831517612929576129286124b5565b5b5092915050565b7f796f7520646f6e74206f776e207469636b6574000000000000000000000000005f82015250565b5f612964601383611e4a565b915061296f82612930565b602082019050919050565b5f6020820190508181035f83015261299181612958565b9050919050565b7f20696e76616c696420696e6465780000000000000000000000000000000000005f82015250565b5f6129cc600e83611e4a565b91506129d782612998565b602082019050919050565b5f6020820190508181035f8301526129f9816129c0565b9050919050565b7f4e487b71000000000000000000000000000000000000000000000000000000005f52603260045260245ffd5b7f726566756e6420706572696f64206973206f76657200000000000000000000005f82015250565b5f612a61601583611e4a565b9150612a6c82612a2d565b602082019050919050565b5f6020820190508181035f830152612a8e81612a55565b9050919050565b7f796f7520646f6e74206f776e205469636b6574000000000000000000000000005f82015250565b5f612ac9601383611e4a565b9150612ad482612a95565b602082019050919050565b5f6020820190508181035f830152612af681612abd565b9050919050565b7f6572726f723a6973737565207769746820726566756e640000000000000000005f82015250565b5f612b31601783611e4a565b9150612b3c82612afd565b602082019050919050565b5f6020820190508181035f830152612b5e81612b25565b9050919050565b7f796f75206861766520746f20627579206f6e65207469636b65740000000000005f82015250565b5f612b99601a83611e4a565b9150612ba482612b65565b602082019050919050565b5f6020820190508181035f830152612bc681612b8d565b905091905056fea26469706673582212209959a24ebff246e289ed2707d79e079a98890210a575bbba804b370381b8906464736f6c634300081e0033",
					"opcodes": "PUSH1 0x80 PUSH1 0x40 MSTORE PUSH7 0x38D7EA4C68000 PUSH1 0x1 SSTORE PUSH7 0xE35FA931A0000 PUSH1 0x2 SSTORE PUSH1 0x64 PUSH1 0x3 SSTORE PUSH1 0x32 PUSH1 0x4 SSTORE CALLVALUE DUP1 ISZERO PUSH2 0x2F JUMPI PUSH0 PUSH0 REVERT JUMPDEST POP CALLER PUSH0 PUSH0 PUSH2 0x100 EXP DUP2 SLOAD DUP2 PUSH20 0xFFFFFFFFFFFFFFFFFFFFFFFFFFFFFFFFFFFFFFFF MUL NOT AND SWAP1 DUP4 PUSH20 0xFFFFFFFFFFFFFFFFFFFFFFFFFFFFFFFFFFFFFFFF AND MUL OR SWAP1 SSTORE POP PUSH0 PUSH0 SWAP1 SLOAD SWAP1 PUSH2 0x100 EXP SWAP1 DIV PUSH20 0xFFFFFFFFFFFFFFFFFFFFFFFFFFFFFFFFFFFFFFFF AND PUSH20 0xFFFFFFFFFFFFFFFFFFFFFFFFFFFFFFFFFFFFFFFF AND PUSH0 PUSH20 0xFFFFFFFFFFFFFFFFFFFFFFFFFFFFFFFFFFFFFFFF AND PUSH32 0x8BE0079C531659141344CD1FD0A4F28419497F9722A3DAAFE3B4186F6B6457E0 PUSH1 0x40 MLOAD PUSH1 0x40 MLOAD DUP1 SWAP2 SUB SWAP1 LOG3 PUSH3 0x93A80 TIMESTAMP PUSH2 0xF8 SWAP2 SWAP1 PUSH2 0x139 JUMP JUMPDEST PUSH1 0x5 DUP2 SWAP1 SSTORE POP PUSH2 0x16C JUMP JUMPDEST PUSH0 DUP2 SWAP1 POP SWAP2 SWAP1 POP JUMP JUMPDEST PUSH32 0x4E487B7100000000000000000000000000000000000000000000000000000000 PUSH0 MSTORE PUSH1 0x11 PUSH1 0x4 MSTORE PUSH1 0x24 PUSH0 REVERT JUMPDEST PUSH0 PUSH2 0x143 DUP3 PUSH2 0x103 JUMP JUMPDEST SWAP2 POP PUSH2 0x14E DUP4 PUSH2 0x103 JUMP JUMPDEST SWAP3 POP DUP3 DUP3 ADD SWAP1 POP DUP1 DUP3 GT ISZERO PUSH2 0x166 JUMPI PUSH2 0x165 PUSH2 0x10C JUMP JUMPDEST JUMPDEST SWAP3 SWAP2 POP POP JUMP JUMPDEST PUSH2 0x2C03 DUP1 PUSH2 0x179 PUSH0 CODECOPY PUSH0 RETURN INVALID PUSH1 0x80 PUSH1 0x40 MSTORE PUSH1 0x4 CALLDATASIZE LT PUSH2 0x14A JUMPI PUSH0 CALLDATALOAD PUSH1 0xE0 SHR DUP1 PUSH4 0x8C7C9E0C GT PUSH2 0xB5 JUMPI DUP1 PUSH4 0xA5567197 GT PUSH2 0x6E JUMPI DUP1 PUSH4 0xA5567197 EQ PUSH2 0x420 JUMPI DUP1 PUSH4 0xACAE79BB EQ PUSH2 0x44A JUMPI DUP1 PUSH4 0xAD90CF8D EQ PUSH2 0x486 JUMPI DUP1 PUSH4 0xD94D3914 EQ PUSH2 0x4A2 JUMPI DUP1 PUSH4 0xEF265CBE EQ PUSH2 0x4CC JUMPI DUP1 PUSH4 0xF2FDE38B EQ PUSH2 0x4F6 JUMPI PUSH2 0x14A JUMP JUMPDEST DUP1 PUSH4 0x8C7C9E0C EQ PUSH2 0x30F JUMPI DUP1 PUSH4 0x8DA5CB5B EQ PUSH2 0x339 JUMPI DUP1 PUSH4 0x8F32D59B EQ PUSH2 0x363 JUMPI DUP1 PUSH4 0x98721575 EQ PUSH2 0x38D JUMPI DUP1 PUSH4 0x9C5655D6 EQ PUSH2 0x3B5 JUMPI DUP1 PUSH4 0xA005EC7A EQ PUSH2 0x3DF JUMPI PUSH2 0x14A JUMP JUMPDEST DUP1 PUSH4 0x4BFBE5DF GT PUSH2 0x107 JUMPI DUP1 PUSH4 0x4BFBE5DF EQ PUSH2 0x23D JUMPI DUP1 PUSH4 0x53AB3648 EQ PUSH2 0x267 JUMPI DUP1 PUSH4 0x590E1AE3 EQ PUSH2 0x291 JUMPI DUP1 PUSH4 0x609AF3A7 EQ PUSH2 0x2A7 JUMPI DUP1 PUSH4 0x715018A6 EQ PUSH2 0x2BD JUMPI DUP1 PUSH4 0x7AB05004 EQ PUSH2 0x2D3 JUMPI PUSH2 0x14A JUMP JUMPDEST DUP1 PUSH4 0x332C4FDE EQ PUSH2 0x14E JUMPI DUP1 PUSH4 0x352371FE EQ PUSH2 0x18F JUMPI DUP1 PUSH4 0x3CCFD60B EQ PUSH2 0x1AB JUMPI DUP1 PUSH4 0x3D784677 EQ PUSH2 0x1C1 JUMPI DUP1 PUSH4 0x3EA52614 EQ PUSH2 0x1E9 JUMPI DUP1 PUSH4 0x4B87BB84 EQ PUSH2 0x213 JUMPI JUMPDEST PUSH0 PUSH0 REVERT JUMPDEST CALLVALUE DUP1 ISZERO PUSH2 0x159 JUMPI PUSH0 PUSH0 REVERT JUMPDEST POP PUSH2 0x174 PUSH1 0x4 DUP1 CALLDATASIZE SUB DUP2 ADD SWAP1 PUSH2 0x16F SWAP2 SWAP1 PUSH2 0x1DD6 JUMP JUMPDEST PUSH2 0x51E JUMP JUMPDEST PUSH1 0x40 MLOAD PUSH2 0x186 SWAP7 SWAP6 SWAP5 SWAP4 SWAP3 SWAP2 SWAP1 PUSH2 0x1ED9 JUMP JUMPDEST PUSH1 0x40 MLOAD DUP1 SWAP2 SUB SWAP1 RETURN JUMPDEST PUSH2 0x1A9 PUSH1 0x4 DUP1 CALLDATASIZE SUB DUP2 ADD SWAP1 PUSH2 0x1A4 SWAP2 SWAP1 PUSH2 0x2072 JUMP JUMPDEST PUSH2 0x69C JUMP JUMPDEST STOP JUMPDEST CALLVALUE DUP1 ISZERO PUSH2 0x1B6 JUMPI PUSH0 PUSH0 REVERT JUMPDEST POP PUSH2 0x1BF PUSH2 0x9C5 JUMP JUMPDEST STOP JUMPDEST CALLVALUE DUP1 ISZERO PUSH2 0x1CC JUMPI PUSH0 PUSH0 REVERT JUMPDEST POP PUSH2 0x1E7 PUSH1 0x4 DUP1 CALLDATASIZE SUB DUP2 ADD SWAP1 PUSH2 0x1E2 SWAP2 SWAP1 PUSH2 0x20FA JUMP JUMPDEST PUSH2 0xB25 JUMP JUMPDEST STOP JUMPDEST CALLVALUE DUP1 ISZERO PUSH2 0x1F4 JUMPI PUSH0 PUSH0 REVERT JUMPDEST POP PUSH2 0x1FD PUSH2 0xB6D JUMP JUMPDEST PUSH1 0x40 MLOAD PUSH2 0x20A SWAP2 SWAP1 PUSH2 0x223A JUMP JUMPDEST PUSH1 0x40 MLOAD DUP1 SWAP2 SUB SWAP1 RETURN JUMPDEST CALLVALUE DUP1 ISZERO PUSH2 0x21E JUMPI PUSH0 PUSH0 REVERT JUMPDEST POP PUSH2 0x227 PUSH2 0xE23 JUMP JUMPDEST PUSH1 0x40 MLOAD PUSH2 0x234 SWAP2 SWAP1 PUSH2 0x223A JUMP JUMPDEST PUSH1 0x40 MLOAD DUP1 SWAP2 SUB SWAP1 RETURN JUMPDEST CALLVALUE DUP1 ISZERO PUSH2 0x248 JUMPI PUSH0 PUSH0 REVERT JUMPDEST POP PUSH2 0x251 PUSH2 0x10D9 JUMP JUMPDEST PUSH1 0x40 MLOAD PUSH2 0x25E SWAP2 SWAP1 PUSH2 0x225A JUMP JUMPDEST PUSH1 0x40 MLOAD DUP1 SWAP2 SUB SWAP1 RETURN JUMPDEST CALLVALUE DUP1 ISZERO PUSH2 0x272 JUMPI PUSH0 PUSH0 REVERT JUMPDEST POP PUSH2 0x27B PUSH2 0x10DF JUMP JUMPDEST PUSH1 0x40 MLOAD PUSH2 0x288 SWAP2 SWAP1 PUSH2 0x225A JUMP JUMPDEST PUSH1 0x40 MLOAD DUP1 SWAP2 SUB SWAP1 RETURN JUMPDEST CALLVALUE DUP1 ISZERO PUSH2 0x29C JUMPI PUSH0 PUSH0 REVERT JUMPDEST POP PUSH2 0x2A5 PUSH2 0x10E5 JUMP JUMPDEST STOP JUMPDEST CALLVALUE DUP1 ISZERO PUSH2 0x2B2 JUMPI PUSH0 PUSH0 REVERT JUMPDEST POP PUSH2 0x2BB PUSH2 0x1361 JUMP JUMPDEST STOP JUMPDEST CALLVALUE DUP1 ISZERO PUSH2 0x2C8 JUMPI PUSH0 PUSH0 REVERT JUMPDEST POP PUSH2 0x2D1 PUSH2 0x15DD JUMP JUMPDEST STOP JUMPDEST CALLVALUE DUP1 ISZERO PUSH2 0x2DE JUMPI PUSH0 PUSH0 REVERT JUMPDEST POP PUSH2 0x2F9 PUSH1 0x4 DUP1 CALLDATASIZE SUB DUP2 ADD SWAP1 PUSH2 0x2F4 SWAP2 SWAP1 PUSH2 0x229D JUMP JUMPDEST PUSH2 0x16A8 JUMP JUMPDEST PUSH1 0x40 MLOAD PUSH2 0x306 SWAP2 SWAP1 PUSH2 0x225A JUMP JUMPDEST PUSH1 0x40 MLOAD DUP1 SWAP2 SUB SWAP1 RETURN JUMPDEST CALLVALUE DUP1 ISZERO PUSH2 0x31A JUMPI PUSH0 PUSH0 REVERT JUMPDEST POP PUSH2 0x323 PUSH2 0x16BD JUMP JUMPDEST PUSH1 0x40 MLOAD PUSH2 0x330 SWAP2 SWAP1 PUSH2 0x225A JUMP JUMPDEST PUSH1 0x40 MLOAD DUP1 SWAP2 SUB SWAP1 RETURN JUMPDEST CALLVALUE DUP1 ISZERO PUSH2 0x344 JUMPI PUSH0 PUSH0 REVERT JUMPDEST POP PUSH2 0x34D PUSH2 0x16C3 JUMP JUMPDEST PUSH1 0x40 MLOAD PUSH2 0x35A SWAP2 SWAP1 PUSH2 0x22C8 JUMP JUMPDEST PUSH1 0x40 MLOAD DUP1 SWAP2 SUB SWAP1 RETURN JUMPDEST CALLVALUE DUP1 ISZERO PUSH2 0x36E JUMPI PUSH0 PUSH0 REVERT JUMPDEST POP PUSH2 0x377 PUSH2 0x16EA JUMP JUMPDEST PUSH1 0x40 MLOAD PUSH2 0x384 SWAP2 SWAP1 PUSH2 0x22E1 JUMP JUMPDEST PUSH1 0x40 MLOAD DUP1 SWAP2 SUB SWAP1 RETURN JUMPDEST CALLVALUE DUP1 ISZERO PUSH2 0x398 JUMPI PUSH0 PUSH0 REVERT JUMPDEST POP PUSH2 0x3B3 PUSH1 0x4 DUP1 CALLDATASIZE SUB DUP2 ADD SWAP1 PUSH2 0x3AE SWAP2 SWAP1 PUSH2 0x1DD6 JUMP JUMPDEST PUSH2 0x173F JUMP JUMPDEST STOP JUMPDEST CALLVALUE DUP1 ISZERO PUSH2 0x3C0 JUMPI PUSH0 PUSH0 REVERT JUMPDEST POP PUSH2 0x3C9 PUSH2 0x1759 JUMP JUMPDEST PUSH1 0x40 MLOAD PUSH2 0x3D6 SWAP2 SWAP1 PUSH2 0x225A JUMP JUMPDEST PUSH1 0x40 MLOAD DUP1 SWAP2 SUB SWAP1 RETURN JUMPDEST CALLVALUE DUP1 ISZERO PUSH2 0x3EA JUMPI PUSH0 PUSH0 REVERT JUMPDEST POP PUSH2 0x405 PUSH1 0x4 DUP1 CALLDATASIZE SUB DUP2 ADD SWAP1 PUSH2 0x400 SWAP2 SWAP1 PUSH2 0x1DD6 JUMP JUMPDEST PUSH2 0x175F JUMP JUMPDEST PUSH1 0x40 MLOAD PUSH2 0x417 SWAP7 SWAP6 SWAP5 SWAP4 SWAP3 SWAP2 SWAP1 PUSH2 0x1ED9 JUMP JUMPDEST PUSH1 0x40 MLOAD DUP1 SWAP2 SUB SWAP1 RETURN JUMPDEST CALLVALUE DUP1 ISZERO PUSH2 0x42B JUMPI PUSH0 PUSH0 REVERT JUMPDEST POP PUSH2 0x434 PUSH2 0x18DD JUMP JUMPDEST PUSH1 0x40 MLOAD PUSH2 0x441 SWAP2 SWAP1 PUSH2 0x225A JUMP JUMPDEST PUSH1 0x40 MLOAD DUP1 SWAP2 SUB SWAP1 RETURN JUMPDEST CALLVALUE DUP1 ISZERO PUSH2 0x455 JUMPI PUSH0 PUSH0 REVERT JUMPDEST POP PUSH2 0x470 PUSH1 0x4 DUP1 CALLDATASIZE SUB DUP2 ADD SWAP1 PUSH2 0x46B SWAP2 SWAP1 PUSH2 0x229D JUMP JUMPDEST PUSH2 0x18E3 JUMP JUMPDEST PUSH1 0x40 MLOAD PUSH2 0x47D SWAP2 SWAP1 PUSH2 0x225A JUMP JUMPDEST PUSH1 0x40 MLOAD DUP1 SWAP2 SUB SWAP1 RETURN JUMPDEST PUSH2 0x4A0 PUSH1 0x4 DUP1 CALLDATASIZE SUB DUP2 ADD SWAP1 PUSH2 0x49B SWAP2 SWAP1 PUSH2 0x2072 JUMP JUMPDEST PUSH2 0x18F8 JUMP JUMPDEST STOP JUMPDEST CALLVALUE DUP1 ISZERO PUSH2 0x4AD JUMPI PUSH0 PUSH0 REVERT JUMPDEST POP PUSH2 0x4B6 PUSH2 0x1C21 JUMP JUMPDEST PUSH1 0x40 MLOAD PUSH2 0x4C3 SWAP2 SWAP1 PUSH2 0x225A JUMP JUMPDEST PUSH1 0x40 MLOAD DUP1 SWAP2 SUB SWAP1 RETURN JUMPDEST CALLVALUE DUP1 ISZERO PUSH2 0x4D7 JUMPI PUSH0 PUSH0 REVERT JUMPDEST POP PUSH2 0x4E0 PUSH2 0x1C2D JUMP JUMPDEST PUSH1 0x40 MLOAD PUSH2 0x4ED SWAP2 SWAP1 PUSH2 0x225A JUMP JUMPDEST PUSH1 0x40 MLOAD DUP1 SWAP2 SUB SWAP1 RETURN JUMPDEST CALLVALUE DUP1 ISZERO PUSH2 0x501 JUMPI PUSH0 PUSH0 REVERT JUMPDEST POP PUSH2 0x51C PUSH1 0x4 DUP1 CALLDATASIZE SUB DUP2 ADD SWAP1 PUSH2 0x517 SWAP2 SWAP1 PUSH2 0x229D JUMP JUMPDEST PUSH2 0x1C39 JUMP JUMPDEST STOP JUMPDEST PUSH1 0x9 DUP2 DUP2 SLOAD DUP2 LT PUSH2 0x52D JUMPI PUSH0 DUP1 REVERT JUMPDEST SWAP1 PUSH0 MSTORE PUSH1 0x20 PUSH0 KECCAK256 SWAP1 PUSH1 0x6 MUL ADD PUSH0 SWAP2 POP SWAP1 POP DUP1 PUSH0 ADD PUSH0 SWAP1 SLOAD SWAP1 PUSH2 0x100 EXP SWAP1 DIV PUSH20 0xFFFFFFFFFFFFFFFFFFFFFFFFFFFFFFFFFFFFFFFF AND SWAP1 DUP1 PUSH1 0x1 ADD DUP1 SLOAD PUSH2 0x571 SWAP1 PUSH2 0x2327 JUMP JUMPDEST DUP1 PUSH1 0x1F ADD PUSH1 0x20 DUP1 SWAP2 DIV MUL PUSH1 0x20 ADD PUSH1 0x40 MLOAD SWAP1 DUP2 ADD PUSH1 0x40 MSTORE DUP1 SWAP3 SWAP2 SWAP1 DUP2 DUP2 MSTORE PUSH1 0x20 ADD DUP3 DUP1 SLOAD PUSH2 0x59D SWAP1 PUSH2 0x2327 JUMP JUMPDEST DUP1 ISZERO PUSH2 0x5E8 JUMPI DUP1 PUSH1 0x1F LT PUSH2 0x5BF JUMPI PUSH2 0x100 DUP1 DUP4 SLOAD DIV MUL DUP4 MSTORE SWAP2 PUSH1 0x20 ADD SWAP2 PUSH2 0x5E8 JUMP JUMPDEST DUP3 ADD SWAP2 SWAP1 PUSH0 MSTORE PUSH1 0x20 PUSH0 KECCAK256 SWAP1 JUMPDEST DUP2 SLOAD DUP2 MSTORE SWAP1 PUSH1 0x1 ADD SWAP1 PUSH1 0x20 ADD DUP1 DUP4 GT PUSH2 0x5CB JUMPI DUP3 SWAP1 SUB PUSH1 0x1F AND DUP3 ADD SWAP2 JUMPDEST POP POP POP POP POP SWAP1 DUP1 PUSH1 0x2 ADD DUP1 SLOAD PUSH2 0x5FD SWAP1 PUSH2 0x2327 JUMP JUMPDEST DUP1 PUSH1 0x1F ADD PUSH1 0x20 DUP1 SWAP2 DIV MUL PUSH1 0x20 ADD PUSH1 0x40 MLOAD SWAP1 DUP2 ADD PUSH1 0x40 MSTORE DUP1 SWAP3 SWAP2 SWAP1 DUP2 DUP2 MSTORE PUSH1 0x20 ADD DUP3 DUP1 SLOAD PUSH2 0x629 SWAP1 PUSH2 0x2327 JUMP JUMPDEST DUP1 ISZERO PUSH2 0x674 JUMPI DUP1 PUSH1 0x1F LT PUSH2 0x64B JUMPI PUSH2 0x100 DUP1 DUP4 SLOAD DIV MUL DUP4 MSTORE SWAP2 PUSH1 0x20 ADD SWAP2 PUSH2 0x674 JUMP JUMPDEST DUP3 ADD SWAP2 SWAP1 PUSH0 MSTORE PUSH1 0x20 PUSH0 KECCAK256 SWAP1 JUMPDEST DUP2 SLOAD DUP2 MSTORE SWAP1 PUSH1 0x1 ADD SWAP1 PUSH1 0x20 ADD DUP1 DUP4 GT PUSH2 0x657 JUMPI DUP3 SWAP1 SUB PUSH1 0x1F AND DUP3 ADD SWAP2 JUMPDEST POP POP POP POP POP SWAP1 DUP1 PUSH1 0x3 ADD SLOAD SWAP1 DUP1 PUSH1 0x4 ADD SLOAD SWAP1 DUP1 PUSH1 0x5 ADD PUSH0 SWAP1 SLOAD SWAP1 PUSH2 0x100 EXP SWAP1 DIV PUSH1 0xFF AND SWAP1 POP DUP7 JUMP JUMPDEST PUSH1 0x1 SLOAD CALLVALUE EQ PUSH2 0x6E0 JUMPI PUSH1 0x40 MLOAD PUSH32 0x8C379A000000000000000000000000000000000000000000000000000000000 DUP2 MSTORE PUSH1 0x4 ADD PUSH2 0x6D7 SWAP1 PUSH2 0x23C7 JUMP JUMPDEST PUSH1 0x40 MLOAD DUP1 SWAP2 SUB SWAP1 REVERT JUMPDEST PUSH0 PUSH1 0x3 SLOAD GT PUSH2 0x724 JUMPI PUSH1 0x40 MLOAD PUSH32 0x8C379A000000000000000000000000000000000000000000000000000000000 DUP2 MSTORE PUSH1 0x4 ADD PUSH2 0x71B SWAP1 PUSH2 0x242F JUMP JUMPDEST PUSH1 0x40 MLOAD DUP1 SWAP2 SUB SWAP1 REVERT JUMPDEST PUSH0 PUSH1 0x6 PUSH0 CALLER PUSH20 0xFFFFFFFFFFFFFFFFFFFFFFFFFFFFFFFFFFFFFFFF AND PUSH20 0xFFFFFFFFFFFFFFFFFFFFFFFFFFFFFFFFFFFFFFFF AND DUP2 MSTORE PUSH1 0x20 ADD SWAP1 DUP2 MSTORE PUSH1 0x20 ADD PUSH0 KECCAK256 SLOAD EQ DUP1 ISZERO PUSH2 0x7AC JUMPI POP PUSH0 PUSH1 0x7 PUSH0 CALLER PUSH20 0xFFFFFFFFFFFFFFFFFFFFFFFFFFFFFFFFFFFFFFFF AND PUSH20 0xFFFFFFFFFFFFFFFFFFFFFFFFFFFFFFFFFFFFFFFF AND DUP2 MSTORE PUSH1 0x20 ADD SWAP1 DUP2 MSTORE PUSH1 0x20 ADD PUSH0 KECCAK256 SLOAD EQ JUMPDEST PUSH2 0x7EB JUMPI PUSH1 0x40 MLOAD PUSH32 0x8C379A000000000000000000000000000000000000000000000000000000000 DUP2 MSTORE PUSH1 0x4 ADD PUSH2 0x7E2 SWAP1 PUSH2 0x2497 JUMP JUMPDEST PUSH1 0x40 MLOAD DUP1 SWAP2 SUB SWAP1 REVERT JUMPDEST PUSH1 0x1 PUSH1 0x3 PUSH0 DUP3 DUP3 SLOAD PUSH2 0x7FD SWAP2 SWAP1 PUSH2 0x24E2 JUMP JUMPDEST SWAP3 POP POP DUP2 SWAP1 SSTORE POP PUSH0 PUSH1 0x1 PUSH1 0x8 DUP1 SLOAD SWAP1 POP PUSH2 0x817 SWAP2 SWAP1 PUSH2 0x2515 JUMP JUMPDEST SWAP1 POP PUSH1 0x8 PUSH1 0x40 MLOAD DUP1 PUSH1 0xC0 ADD PUSH1 0x40 MSTORE DUP1 CALLER PUSH20 0xFFFFFFFFFFFFFFFFFFFFFFFFFFFFFFFFFFFFFFFF AND DUP2 MSTORE PUSH1 0x20 ADD DUP7 DUP2 MSTORE PUSH1 0x20 ADD DUP6 DUP2 MSTORE PUSH1 0x20 ADD DUP5 DUP2 MSTORE PUSH1 0x20 ADD DUP4 DUP2 MSTORE PUSH1 0x20 ADD PUSH0 ISZERO ISZERO DUP2 MSTORE POP SWAP1 DUP1 PUSH1 0x1 DUP2 SLOAD ADD DUP1 DUP3 SSTORE DUP1 SWAP2 POP POP PUSH1 0x1 SWAP1 SUB SWAP1 PUSH0 MSTORE PUSH1 0x20 PUSH0 KECCAK256 SWAP1 PUSH1 0x6 MUL ADD PUSH0 SWAP1 SWAP2 SWAP1 SWAP2 SWAP1 SWAP2 POP PUSH0 DUP3 ADD MLOAD DUP2 PUSH0 ADD PUSH0 PUSH2 0x100 EXP DUP2 SLOAD DUP2 PUSH20 0xFFFFFFFFFFFFFFFFFFFFFFFFFFFFFFFFFFFFFFFF MUL NOT AND SWAP1 DUP4 PUSH20 0xFFFFFFFFFFFFFFFFFFFFFFFFFFFFFFFFFFFFFFFF AND MUL OR SWAP1 SSTORE POP PUSH1 0x20 DUP3 ADD MLOAD DUP2 PUSH1 0x1 ADD SWAP1 DUP2 PUSH2 0x8DF SWAP2 SWAP1 PUSH2 0x26E8 JUMP JUMPDEST POP PUSH1 0x40 DUP3 ADD MLOAD DUP2 PUSH1 0x2 ADD SWAP1 DUP2 PUSH2 0x8F5 SWAP2 SWAP1 PUSH2 0x26E8 JUMP JUMPDEST POP PUSH1 0x60 DUP3 ADD MLOAD DUP2 PUSH1 0x3 ADD SSTORE PUSH1 0x80 DUP3 ADD MLOAD DUP2 PUSH1 0x4 ADD SSTORE PUSH1 0xA0 DUP3 ADD MLOAD DUP2 PUSH1 0x5 ADD PUSH0 PUSH2 0x100 EXP DUP2 SLOAD DUP2 PUSH1 0xFF MUL NOT AND SWAP1 DUP4 ISZERO ISZERO MUL OR SWAP1 SSTORE POP POP POP DUP1 PUSH1 0x6 PUSH0 CALLER PUSH20 0xFFFFFFFFFFFFFFFFFFFFFFFFFFFFFFFFFFFFFFFF AND PUSH20 0xFFFFFFFFFFFFFFFFFFFFFFFFFFFFFFFFFFFFFFFF AND DUP2 MSTORE PUSH1 0x20 ADD SWAP1 DUP2 MSTORE PUSH1 0x20 ADD PUSH0 KECCAK256 DUP2 SWAP1 SSTORE POP CALLER PUSH20 0xFFFFFFFFFFFFFFFFFFFFFFFFFFFFFFFFFFFFFFFF AND PUSH32 0x7D1CD329A11D8807F0374627923B6CD32942B74B38B1ACCF931D70A507FF739E DUP3 PUSH1 0x1 SLOAD PUSH1 0x40 MLOAD PUSH2 0x9B7 SWAP3 SWAP2 SWAP1 PUSH2 0x27B7 JUMP JUMPDEST PUSH1 0x40 MLOAD DUP1 SWAP2 SUB SWAP1 LOG2 POP POP POP POP JUMP JUMPDEST PUSH2 0x9CD PUSH2 0x16EA JUMP JUMPDEST PUSH2 0x9D5 JUMPI PUSH0 PUSH0 REVERT JUMPDEST PUSH1 0x5 SLOAD TIMESTAMP GT PUSH2 0xA19 JUMPI PUSH1 0x40 MLOAD PUSH32 0x8C379A000000000000000000000000000000000000000000000000000000000 DUP2 MSTORE PUSH1 0x4 ADD PUSH2 0xA10 SWAP1 PUSH2 0x2828 JUMP JUMPDEST PUSH1 0x40 MLOAD DUP1 SWAP2 SUB SWAP1 REVERT JUMPDEST PUSH0 SELFBALANCE SWAP1 POP PUSH0 PUSH2 0xA26 PUSH2 0x16C3 JUMP JUMPDEST PUSH20 0xFFFFFFFFFFFFFFFFFFFFFFFFFFFFFFFFFFFFFFFF AND DUP3 PUSH1 0x40 MLOAD PUSH2 0xA49 SWAP1 PUSH2 0x2873 JUMP JUMPDEST PUSH0 PUSH1 0x40 MLOAD DUP1 DUP4 SUB DUP2 DUP6 DUP8 GAS CALL SWAP3 POP POP POP RETURNDATASIZE DUP1 PUSH0 DUP2 EQ PUSH2 0xA83 JUMPI PUSH1 0x40 MLOAD SWAP2 POP PUSH1 0x1F NOT PUSH1 0x3F RETURNDATASIZE ADD AND DUP3 ADD PUSH1 0x40 MSTORE RETURNDATASIZE DUP3 MSTORE RETURNDATASIZE PUSH0 PUSH1 0x20 DUP5 ADD RETURNDATACOPY PUSH2 0xA88 JUMP JUMPDEST PUSH1 0x60 SWAP2 POP JUMPDEST POP POP SWAP1 POP DUP1 PUSH2 0xACC JUMPI PUSH1 0x40 MLOAD PUSH32 0x8C379A000000000000000000000000000000000000000000000000000000000 DUP2 MSTORE PUSH1 0x4 ADD PUSH2 0xAC3 SWAP1 PUSH2 0x28D1 JUMP JUMPDEST PUSH1 0x40 MLOAD DUP1 SWAP2 SUB SWAP1 REVERT JUMPDEST PUSH2 0xAD4 PUSH2 0x16C3 JUMP JUMPDEST PUSH20 0xFFFFFFFFFFFFFFFFFFFFFFFFFFFFFFFFFFFFFFFF AND PUSH32 0x884EDAD9CE6FA2440D8A54CC123490EB96D2768479D49FF9C7366125A9424364 DUP4 PUSH1 0x40 MLOAD PUSH2 0xB19 SWAP2 SWAP1 PUSH2 0x225A JUMP JUMPDEST PUSH1 0x40 MLOAD DUP1 SWAP2 SUB SWAP1 LOG2 POP POP JUMP JUMPDEST PUSH2 0xB2D PUSH2 0x16EA JUMP JUMPDEST PUSH2 0xB35 JUMPI PUSH0 PUSH0 REVERT JUMPDEST PUSH8 0xDE0B6B3A7640000 DUP3 PUSH2 0xB49 SWAP2 SWAP1 PUSH2 0x28EF JUMP JUMPDEST PUSH1 0x1 DUP2 SWAP1 SSTORE POP PUSH8 0xDE0B6B3A7640000 DUP2 PUSH2 0xB63 SWAP2 SWAP1 PUSH2 0x28EF JUMP JUMPDEST PUSH1 0x2 DUP2 SWAP1 SSTORE POP POP POP JUMP JUMPDEST PUSH2 0xB75 PUSH2 0x1D48 JUMP JUMPDEST PUSH0 PUSH1 0x6 PUSH0 CALLER PUSH20 0xFFFFFFFFFFFFFFFFFFFFFFFFFFFFFFFFFFFFFFFF AND PUSH20 0xFFFFFFFFFFFFFFFFFFFFFFFFFFFFFFFFFFFFFFFF AND DUP2 MSTORE PUSH1 0x20 ADD SWAP1 DUP2 MSTORE PUSH1 0x20 ADD PUSH0 KECCAK256 SLOAD SWAP1 POP PUSH0 DUP2 GT PUSH2 0xBF8 JUMPI PUSH1 0x40 MLOAD PUSH32 0x8C379A000000000000000000000000000000000000000000000000000000000 DUP2 MSTORE PUSH1 0x4 ADD PUSH2 0xBEF SWAP1 PUSH2 0x297A JUMP JUMPDEST PUSH1 0x40 MLOAD DUP1 SWAP2 SUB SWAP1 REVERT JUMPDEST PUSH0 PUSH1 0x1 DUP3 PUSH2 0xC06 SWAP2 SWAP1 PUSH2 0x24E2 JUMP JUMPDEST SWAP1 POP PUSH1 0x8 DUP1 SLOAD SWAP1 POP DUP2 LT PUSH2 0xC4F JUMPI PUSH1 0x40 MLOAD PUSH32 0x8C379A000000000000000000000000000000000000000000000000000000000 DUP2 MSTORE PUSH1 0x4 ADD PUSH2 0xC46 SWAP1 PUSH2 0x29E2 JUMP JUMPDEST PUSH1 0x40 MLOAD DUP1 SWAP2 SUB SWAP1 REVERT JUMPDEST PUSH1 0x8 DUP2 DUP2 SLOAD DUP2 LT PUSH2 0xC63 JUMPI PUSH2 0xC62 PUSH2 0x2A00 JUMP JUMPDEST JUMPDEST SWAP1 PUSH0 MSTORE PUSH1 0x20 PUSH0 KECCAK256 SWAP1 PUSH1 0x6 MUL ADD PUSH1 0x40 MLOAD DUP1 PUSH1 0xC0 ADD PUSH1 0x40 MSTORE SWAP1 DUP2 PUSH0 DUP3 ADD PUSH0 SWAP1 SLOAD SWAP1 PUSH2 0x100 EXP SWAP1 DIV PUSH20 0xFFFFFFFFFFFFFFFFFFFFFFFFFFFFFFFFFFFFFFFF AND PUSH20 0xFFFFFFFFFFFFFFFFFFFFFFFFFFFFFFFFFFFFFFFF AND PUSH20 0xFFFFFFFFFFFFFFFFFFFFFFFFFFFFFFFFFFFFFFFF AND DUP2 MSTORE PUSH1 0x20 ADD PUSH1 0x1 DUP3 ADD DUP1 SLOAD PUSH2 0xCDE SWAP1 PUSH2 0x2327 JUMP JUMPDEST DUP1 PUSH1 0x1F ADD PUSH1 0x20 DUP1 SWAP2 DIV MUL PUSH1 0x20 ADD PUSH1 0x40 MLOAD SWAP1 DUP2 ADD PUSH1 0x40 MSTORE DUP1 SWAP3 SWAP2 SWAP1 DUP2 DUP2 MSTORE PUSH1 0x20 ADD DUP3 DUP1 SLOAD PUSH2 0xD0A SWAP1 PUSH2 0x2327 JUMP JUMPDEST DUP1 ISZERO PUSH2 0xD55 JUMPI DUP1 PUSH1 0x1F LT PUSH2 0xD2C JUMPI PUSH2 0x100 DUP1 DUP4 SLOAD DIV MUL DUP4 MSTORE SWAP2 PUSH1 0x20 ADD SWAP2 PUSH2 0xD55 JUMP JUMPDEST DUP3 ADD SWAP2 SWAP1 PUSH0 MSTORE PUSH1 0x20 PUSH0 KECCAK256 SWAP1 JUMPDEST DUP2 SLOAD DUP2 MSTORE SWAP1 PUSH1 0x1 ADD SWAP1 PUSH1 0x20 ADD DUP1 DUP4 GT PUSH2 0xD38 JUMPI DUP3 SWAP1 SUB PUSH1 0x1F AND DUP3 ADD SWAP2 JUMPDEST POP POP POP POP POP DUP2 MSTORE PUSH1 0x20 ADD PUSH1 0x2 DUP3 ADD DUP1 SLOAD PUSH2 0xD6E SWAP1 PUSH2 0x2327 JUMP JUMPDEST DUP1 PUSH1 0x1F ADD PUSH1 0x20 DUP1 SWAP2 DIV MUL PUSH1 0x20 ADD PUSH1 0x40 MLOAD SWAP1 DUP2 ADD PUSH1 0x40 MSTORE DUP1 SWAP3 SWAP2 SWAP1 DUP2 DUP2 MSTORE PUSH1 0x20 ADD DUP3 DUP1 SLOAD PUSH2 0xD9A SWAP1 PUSH2 0x2327 JUMP JUMPDEST DUP1 ISZERO PUSH2 0xDE5 JUMPI DUP1 PUSH1 0x1F LT PUSH2 0xDBC JUMPI PUSH2 0x100 DUP1 DUP4 SLOAD DIV MUL DUP4 MSTORE SWAP2 PUSH1 0x20 ADD SWAP2 PUSH2 0xDE5 JUMP JUMPDEST DUP3 ADD SWAP2 SWAP1 PUSH0 MSTORE PUSH1 0x20 PUSH0 KECCAK256 SWAP1 JUMPDEST DUP2 SLOAD DUP2 MSTORE SWAP1 PUSH1 0x1 ADD SWAP1 PUSH1 0x20 ADD DUP1 DUP4 GT PUSH2 0xDC8 JUMPI DUP3 SWAP1 SUB PUSH1 0x1F AND DUP3 ADD SWAP2 JUMPDEST POP POP POP POP POP DUP2 MSTORE PUSH1 0x20 ADD PUSH1 0x3 DUP3 ADD SLOAD DUP2 MSTORE PUSH1 0x20 ADD PUSH1 0x4 DUP3 ADD SLOAD DUP2 MSTORE PUSH1 0x20 ADD PUSH1 0x5 DUP3 ADD PUSH0 SWAP1 SLOAD SWAP1 PUSH2 0x100 EXP SWAP1 DIV PUSH1 0xFF AND ISZERO ISZERO ISZERO ISZERO DUP2 MSTORE POP POP SWAP3 POP POP POP SWAP1 JUMP JUMPDEST PUSH2 0xE2B PUSH2 0x1D48 JUMP JUMPDEST PUSH0 PUSH1 0x7 PUSH0 CALLER PUSH20 0xFFFFFFFFFFFFFFFFFFFFFFFFFFFFFFFFFFFFFFFF AND PUSH20 0xFFFFFFFFFFFFFFFFFFFFFFFFFFFFFFFFFFFFFFFF AND DUP2 MSTORE PUSH1 0x20 ADD SWAP1 DUP2 MSTORE PUSH1 0x20 ADD PUSH0 KECCAK256 SLOAD SWAP1 POP PUSH0 DUP2 GT PUSH2 0xEAE JUMPI PUSH1 0x40 MLOAD PUSH32 0x8C379A000000000000000000000000000000000000000000000000000000000 DUP2 MSTORE PUSH1 0x4 ADD PUSH2 0xEA5 SWAP1 PUSH2 0x297A JUMP JUMPDEST PUSH1 0x40 MLOAD DUP1 SWAP2 SUB SWAP1 REVERT JUMPDEST PUSH0 PUSH1 0x1 DUP3 PUSH2 0xEBC SWAP2 SWAP1 PUSH2 0x24E2 JUMP JUMPDEST SWAP1 POP PUSH1 0x9 DUP1 SLOAD SWAP1 POP DUP2 LT PUSH2 0xF05 JUMPI PUSH1 0x40 MLOAD PUSH32 0x8C379A000000000000000000000000000000000000000000000000000000000 DUP2 MSTORE PUSH1 0x4 ADD PUSH2 0xEFC SWAP1 PUSH2 0x29E2 JUMP JUMPDEST PUSH1 0x40 MLOAD DUP1 SWAP2 SUB SWAP1 REVERT JUMPDEST PUSH1 0x9 DUP2 DUP2 SLOAD DUP2 LT PUSH2 0xF19 JUMPI PUSH2 0xF18 PUSH2 0x2A00 JUMP JUMPDEST JUMPDEST SWAP1 PUSH0 MSTORE PUSH1 0x20 PUSH0 KECCAK256 SWAP1 PUSH1 0x6 MUL ADD PUSH1 0x40 MLOAD DUP1 PUSH1 0xC0 ADD PUSH1 0x40 MSTORE SWAP1 DUP2 PUSH0 DUP3 ADD PUSH0 SWAP1 SLOAD SWAP1 PUSH2 0x100 EXP SWAP1 DIV PUSH20 0xFFFFFFFFFFFFFFFFFFFFFFFFFFFFFFFFFFFFFFFF AND PUSH20 0xFFFFFFFFFFFFFFFFFFFFFFFFFFFFFFFFFFFFFFFF AND PUSH20 0xFFFFFFFFFFFFFFFFFFFFFFFFFFFFFFFFFFFFFFFF AND DUP2 MSTORE PUSH1 0x20 ADD PUSH1 0x1 DUP3 ADD DUP1 SLOAD PUSH2 0xF94 SWAP1 PUSH2 0x2327 JUMP JUMPDEST DUP1 PUSH1 0x1F ADD PUSH1 0x20 DUP1 SWAP2 DIV MUL PUSH1 0x20 ADD PUSH1 0x40 MLOAD SWAP1 DUP2 ADD PUSH1 0x40 MSTORE DUP1 SWAP3 SWAP2 SWAP1 DUP2 DUP2 MSTORE PUSH1 0x20 ADD DUP3 DUP1 SLOAD PUSH2 0xFC0 SWAP1 PUSH2 0x2327 JUMP JUMPDEST DUP1 ISZERO PUSH2 0x100B JUMPI DUP1 PUSH1 0x1F LT PUSH2 0xFE2 JUMPI PUSH2 0x100 DUP1 DUP4 SLOAD DIV MUL DUP4 MSTORE SWAP2 PUSH1 0x20 ADD SWAP2 PUSH2 0x100B JUMP JUMPDEST DUP3 ADD SWAP2 SWAP1 PUSH0 MSTORE PUSH1 0x20 PUSH0 KECCAK256 SWAP1 JUMPDEST DUP2 SLOAD DUP2 MSTORE SWAP1 PUSH1 0x1 ADD SWAP1 PUSH1 0x20 ADD DUP1 DUP4 GT PUSH2 0xFEE JUMPI DUP3 SWAP1 SUB PUSH1 0x1F AND DUP3 ADD SWAP2 JUMPDEST POP POP POP POP POP DUP2 MSTORE PUSH1 0x20 ADD PUSH1 0x2 DUP3 ADD DUP1 SLOAD PUSH2 0x1024 SWAP1 PUSH2 0x2327 JUMP JUMPDEST DUP1 PUSH1 0x1F ADD PUSH1 0x20 DUP1 SWAP2 DIV MUL PUSH1 0x20 ADD PUSH1 0x40 MLOAD SWAP1 DUP2 ADD PUSH1 0x40 MSTORE DUP1 SWAP3 SWAP2 SWAP1 DUP2 DUP2 MSTORE PUSH1 0x20 ADD DUP3 DUP1 SLOAD PUSH2 0x1050 SWAP1 PUSH2 0x2327 JUMP JUMPDEST DUP1 ISZERO PUSH2 0x109B JUMPI DUP1 PUSH1 0x1F LT PUSH2 0x1072 JUMPI PUSH2 0x100 DUP1 DUP4 SLOAD DIV MUL DUP4 MSTORE SWAP2 PUSH1 0x20 ADD SWAP2 PUSH2 0x109B JUMP JUMPDEST DUP3 ADD SWAP2 SWAP1 PUSH0 MSTORE PUSH1 0x20 PUSH0 KECCAK256 SWAP1 JUMPDEST DUP2 SLOAD DUP2 MSTORE SWAP1 PUSH1 0x1 ADD SWAP1 PUSH1 0x20 ADD DUP1 DUP4 GT PUSH2 0x107E JUMPI DUP3 SWAP1 SUB PUSH1 0x1F AND DUP3 ADD SWAP2 JUMPDEST POP POP POP POP POP DUP2 MSTORE PUSH1 0x20 ADD PUSH1 0x3 DUP3 ADD SLOAD DUP2 MSTORE PUSH1 0x20 ADD PUSH1 0x4 DUP3 ADD SLOAD DUP2 MSTORE PUSH1 0x20 ADD PUSH1 0x5 DUP3 ADD PUSH0 SWAP1 SLOAD SWAP1 PUSH2 0x100 EXP SWAP1 DIV PUSH1 0xFF AND ISZERO ISZERO ISZERO ISZERO DUP2 MSTORE POP POP SWAP3 POP POP POP SWAP1 JUMP JUMPDEST PUSH1 0x5 SLOAD DUP2 JUMP JUMPDEST PUSH1 0x2 SLOAD DUP2 JUMP JUMPDEST PUSH0 PUSH1 0x6 PUSH0 CALLER PUSH20 0xFFFFFFFFFFFFFFFFFFFFFFFFFFFFFFFFFFFFFFFF AND PUSH20 0xFFFFFFFFFFFFFFFFFFFFFFFFFFFFFFFFFFFFFFFF AND DUP2 MSTORE PUSH1 0x20 ADD SWAP1 DUP2 MSTORE PUSH1 0x20 ADD PUSH0 KECCAK256 SLOAD SWAP1 POP PUSH1 0x5 SLOAD TIMESTAMP LT PUSH2 0x116A JUMPI PUSH1 0x40 MLOAD PUSH32 0x8C379A000000000000000000000000000000000000000000000000000000000 DUP2 MSTORE PUSH1 0x4 ADD PUSH2 0x1161 SWAP1 PUSH2 0x2A77 JUMP JUMPDEST PUSH1 0x40 MLOAD DUP1 SWAP2 SUB SWAP1 REVERT JUMPDEST PUSH0 DUP2 GT PUSH2 0x11AC JUMPI PUSH1 0x40 MLOAD PUSH32 0x8C379A000000000000000000000000000000000000000000000000000000000 DUP2 MSTORE PUSH1 0x4 ADD PUSH2 0x11A3 SWAP1 PUSH2 0x2ADF JUMP JUMPDEST PUSH1 0x40 MLOAD DUP1 SWAP2 SUB SWAP1 REVERT JUMPDEST PUSH0 PUSH1 0x6 PUSH0 CALLER PUSH20 0xFFFFFFFFFFFFFFFFFFFFFFFFFFFFFFFFFFFFFFFF AND PUSH20 0xFFFFFFFFFFFFFFFFFFFFFFFFFFFFFFFFFFFFFFFF AND DUP2 MSTORE PUSH1 0x20 ADD SWAP1 DUP2 MSTORE PUSH1 0x20 ADD PUSH0 KECCAK256 DUP2 SWAP1 SSTORE POP PUSH1 0x1 PUSH1 0x3 PUSH0 DUP3 DUP3 SLOAD PUSH2 0x1200 SWAP2 SWAP1 PUSH2 0x2515 JUMP JUMPDEST SWAP3 POP POP DUP2 SWAP1 SSTORE POP PUSH0 PUSH1 0x1 DUP3 PUSH2 0x1215 SWAP2 SWAP1 PUSH2 0x24E2 JUMP JUMPDEST SWAP1 POP PUSH1 0x8 DUP1 SLOAD SWAP1 POP DUP2 LT ISZERO PUSH2 0x1260 JUMPI PUSH1 0x1 PUSH1 0x8 DUP3 DUP2 SLOAD DUP2 LT PUSH2 0x123A JUMPI PUSH2 0x1239 PUSH2 0x2A00 JUMP JUMPDEST JUMPDEST SWAP1 PUSH0 MSTORE PUSH1 0x20 PUSH0 KECCAK256 SWAP1 PUSH1 0x6 MUL ADD PUSH1 0x5 ADD PUSH0 PUSH2 0x100 EXP DUP2 SLOAD DUP2 PUSH1 0xFF MUL NOT AND SWAP1 DUP4 ISZERO ISZERO MUL OR SWAP1 SSTORE POP JUMPDEST PUSH0 CALLER PUSH20 0xFFFFFFFFFFFFFFFFFFFFFFFFFFFFFFFFFFFFFFFF AND PUSH1 0x1 SLOAD PUSH1 0x40 MLOAD PUSH2 0x1287 SWAP1 PUSH2 0x2873 JUMP JUMPDEST PUSH0 PUSH1 0x40 MLOAD DUP1 DUP4 SUB DUP2 DUP6 DUP8 GAS CALL SWAP3 POP POP POP RETURNDATASIZE DUP1 PUSH0 DUP2 EQ PUSH2 0x12C1 JUMPI PUSH1 0x40 MLOAD SWAP2 POP PUSH1 0x1F NOT PUSH1 0x3F RETURNDATASIZE ADD AND DUP3 ADD PUSH1 0x40 MSTORE RETURNDATASIZE DUP3 MSTORE RETURNDATASIZE PUSH0 PUSH1 0x20 DUP5 ADD RETURNDATACOPY PUSH2 0x12C6 JUMP JUMPDEST PUSH1 0x60 SWAP2 POP JUMPDEST POP POP SWAP1 POP DUP1 PUSH2 0x130A JUMPI PUSH1 0x40 MLOAD PUSH32 0x8C379A000000000000000000000000000000000000000000000000000000000 DUP2 MSTORE PUSH1 0x4 ADD PUSH2 0x1301 SWAP1 PUSH2 0x2B47 JUMP JUMPDEST PUSH1 0x40 MLOAD DUP1 SWAP2 SUB SWAP1 REVERT JUMPDEST CALLER PUSH20 0xFFFFFFFFFFFFFFFFFFFFFFFFFFFFFFFFFFFFFFFF AND PUSH32 0x73F04AF9DCC582A923EC15D3EEA990FE34ADABFFF2879E28D44572E01A54ABB6 DUP5 PUSH1 0x1 SLOAD PUSH1 0x40 MLOAD PUSH2 0x1354 SWAP3 SWAP2 SWAP1 PUSH2 0x27B7 JUMP JUMPDEST PUSH1 0x40 MLOAD DUP1 SWAP2 SUB SWAP1 LOG2 POP POP POP JUMP JUMPDEST PUSH0 PUSH1 0x7 PUSH0 CALLER PUSH20 0xFFFFFFFFFFFFFFFFFFFFFFFFFFFFFFFFFFFFFFFF AND PUSH20 0xFFFFFFFFFFFFFFFFFFFFFFFFFFFFFFFFFFFFFFFF AND DUP2 MSTORE PUSH1 0x20 ADD SWAP1 DUP2 MSTORE PUSH1 0x20 ADD PUSH0 KECCAK256 SLOAD SWAP1 POP PUSH1 0x5 SLOAD TIMESTAMP LT PUSH2 0x13E6 JUMPI PUSH1 0x40 MLOAD PUSH32 0x8C379A000000000000000000000000000000000000000000000000000000000 DUP2 MSTORE PUSH1 0x4 ADD PUSH2 0x13DD SWAP1 PUSH2 0x2A77 JUMP JUMPDEST PUSH1 0x40 MLOAD DUP1 SWAP2 SUB SWAP1 REVERT JUMPDEST PUSH0 DUP2 GT PUSH2 0x1428 JUMPI PUSH1 0x40 MLOAD PUSH32 0x8C379A000000000000000000000000000000000000000000000000000000000 DUP2 MSTORE PUSH1 0x4 ADD PUSH2 0x141F SWAP1 PUSH2 0x2ADF JUMP JUMPDEST PUSH1 0x40 MLOAD DUP1 SWAP2 SUB SWAP1 REVERT JUMPDEST PUSH0 PUSH1 0x7 PUSH0 CALLER PUSH20 0xFFFFFFFFFFFFFFFFFFFFFFFFFFFFFFFFFFFFFFFF AND PUSH20 0xFFFFFFFFFFFFFFFFFFFFFFFFFFFFFFFFFFFFFFFF AND DUP2 MSTORE PUSH1 0x20 ADD SWAP1 DUP2 MSTORE PUSH1 0x20 ADD PUSH0 KECCAK256 DUP2 SWAP1 SSTORE POP PUSH1 0x1 PUSH1 0x4 PUSH0 DUP3 DUP3 SLOAD PUSH2 0x147C SWAP2 SWAP1 PUSH2 0x2515 JUMP JUMPDEST SWAP3 POP POP DUP2 SWAP1 SSTORE POP PUSH0 PUSH1 0x1 DUP3 PUSH2 0x1491 SWAP2 SWAP1 PUSH2 0x24E2 JUMP JUMPDEST SWAP1 POP PUSH1 0x9 DUP1 SLOAD SWAP1 POP DUP2 LT ISZERO PUSH2 0x14DC JUMPI PUSH1 0x1 PUSH1 0x9 DUP3 DUP2 SLOAD DUP2 LT PUSH2 0x14B6 JUMPI PUSH2 0x14B5 PUSH2 0x2A00 JUMP JUMPDEST JUMPDEST SWAP1 PUSH0 MSTORE PUSH1 0x20 PUSH0 KECCAK256 SWAP1 PUSH1 0x6 MUL ADD PUSH1 0x5 ADD PUSH0 PUSH2 0x100 EXP DUP2 SLOAD DUP2 PUSH1 0xFF MUL NOT AND SWAP1 DUP4 ISZERO ISZERO MUL OR SWAP1 SSTORE POP JUMPDEST PUSH0 CALLER PUSH20 0xFFFFFFFFFFFFFFFFFFFFFFFFFFFFFFFFFFFFFFFF AND PUSH1 0x2 SLOAD PUSH1 0x40 MLOAD PUSH2 0x1503 SWAP1 PUSH2 0x2873 JUMP JUMPDEST PUSH0 PUSH1 0x40 MLOAD DUP1 DUP4 SUB DUP2 DUP6 DUP8 GAS CALL SWAP3 POP POP POP RETURNDATASIZE DUP1 PUSH0 DUP2 EQ PUSH2 0x153D JUMPI PUSH1 0x40 MLOAD SWAP2 POP PUSH1 0x1F NOT PUSH1 0x3F RETURNDATASIZE ADD AND DUP3 ADD PUSH1 0x40 MSTORE RETURNDATASIZE DUP3 MSTORE RETURNDATASIZE PUSH0 PUSH1 0x20 DUP5 ADD RETURNDATACOPY PUSH2 0x1542 JUMP JUMPDEST PUSH1 0x60 SWAP2 POP JUMPDEST POP POP SWAP1 POP DUP1 PUSH2 0x1586 JUMPI PUSH1 0x40 MLOAD PUSH32 0x8C379A000000000000000000000000000000000000000000000000000000000 DUP2 MSTORE PUSH1 0x4 ADD PUSH2 0x157D SWAP1 PUSH2 0x2B47 JUMP JUMPDEST PUSH1 0x40 MLOAD DUP1 SWAP2 SUB SWAP1 REVERT JUMPDEST CALLER PUSH20 0xFFFFFFFFFFFFFFFFFFFFFFFFFFFFFFFFFFFFFFFF AND PUSH32 0x73F04AF9DCC582A923EC15D3EEA990FE34ADABFFF2879E28D44572E01A54ABB6 DUP5 PUSH1 0x2 SLOAD PUSH1 0x40 MLOAD PUSH2 0x15D0 SWAP3 SWAP2 SWAP1 PUSH2 0x27B7 JUMP JUMPDEST PUSH1 0x40 MLOAD DUP1 SWAP2 SUB SWAP1 LOG2 POP POP POP JUMP JUMPDEST PUSH2 0x15E5 PUSH2 0x16EA JUMP JUMPDEST PUSH2 0x15ED JUMPI PUSH0 PUSH0 REVERT JUMPDEST PUSH0 PUSH20 0xFFFFFFFFFFFFFFFFFFFFFFFFFFFFFFFFFFFFFFFF AND PUSH0 PUSH0 SWAP1 SLOAD SWAP1 PUSH2 0x100 EXP SWAP1 DIV PUSH20 0xFFFFFFFFFFFFFFFFFFFFFFFFFFFFFFFFFFFFFFFF AND PUSH20 0xFFFFFFFFFFFFFFFFFFFFFFFFFFFFFFFFFFFFFFFF AND PUSH32 0x8BE0079C531659141344CD1FD0A4F28419497F9722A3DAAFE3B4186F6B6457E0 PUSH1 0x40 MLOAD PUSH1 0x40 MLOAD DUP1 SWAP2 SUB SWAP1 LOG3 PUSH0 PUSH0 PUSH0 PUSH2 0x100 EXP DUP2 SLOAD DUP2 PUSH20 0xFFFFFFFFFFFFFFFFFFFFFFFFFFFFFFFFFFFFFFFF MUL NOT AND SWAP1 DUP4 PUSH20 0xFFFFFFFFFFFFFFFFFFFFFFFFFFFFFFFFFFFFFFFF AND MUL OR SWAP1 SSTORE POP JUMP JUMPDEST PUSH1 0x7 PUSH1 0x20 MSTORE DUP1 PUSH0 MSTORE PUSH1 0x40 PUSH0 KECCAK256 PUSH0 SWAP2 POP SWAP1 POP SLOAD DUP2 JUMP JUMPDEST PUSH1 0x1 SLOAD DUP2 JUMP JUMPDEST PUSH0 PUSH0 PUSH0 SWAP1 SLOAD SWAP1 PUSH2 0x100 EXP SWAP1 DIV PUSH20 0xFFFFFFFFFFFFFFFFFFFFFFFFFFFFFFFFFFFFFFFF AND SWAP1 POP SWAP1 JUMP JUMPDEST PUSH0 PUSH0 PUSH0 SWAP1 SLOAD SWAP1 PUSH2 0x100 EXP SWAP1 DIV PUSH20 0xFFFFFFFFFFFFFFFFFFFFFFFFFFFFFFFFFFFFFFFF AND PUSH20 0xFFFFFFFFFFFFFFFFFFFFFFFFFFFFFFFFFFFFFFFF AND CALLER PUSH20 0xFFFFFFFFFFFFFFFFFFFFFFFFFFFFFFFFFFFFFFFF AND EQ SWAP1 POP SWAP1 JUMP JUMPDEST PUSH2 0x1747 PUSH2 0x16EA JUMP JUMPDEST PUSH2 0x174F JUMPI PUSH0 PUSH0 REVERT JUMPDEST DUP1 PUSH1 0x5 DUP2 SWAP1 SSTORE POP POP JUMP JUMPDEST PUSH1 0x3 SLOAD DUP2 JUMP JUMPDEST PUSH1 0x8 DUP2 DUP2 SLOAD DUP2 LT PUSH2 0x176E JUMPI PUSH0 DUP1 REVERT JUMPDEST SWAP1 PUSH0 MSTORE PUSH1 0x20 PUSH0 KECCAK256 SWAP1 PUSH1 0x6 MUL ADD PUSH0 SWAP2 POP SWAP1 POP DUP1 PUSH0 ADD PUSH0 SWAP1 SLOAD SWAP1 PUSH2 0x100 EXP SWAP1 DIV PUSH20 0xFFFFFFFFFFFFFFFFFFFFFFFFFFFFFFFFFFFFFFFF AND SWAP1 DUP1 PUSH1 0x1 ADD DUP1 SLOAD PUSH2 0x17B2 SWAP1 PUSH2 0x2327 JUMP JUMPDEST DUP1 PUSH1 0x1F ADD PUSH1 0x20 DUP1 SWAP2 DIV MUL PUSH1 0x20 ADD PUSH1 0x40 MLOAD SWAP1 DUP2 ADD PUSH1 0x40 MSTORE DUP1 SWAP3 SWAP2 SWAP1 DUP2 DUP2 MSTORE PUSH1 0x20 ADD DUP3 DUP1 SLOAD PUSH2 0x17DE SWAP1 PUSH2 0x2327 JUMP JUMPDEST DUP1 ISZERO PUSH2 0x1829 JUMPI DUP1 PUSH1 0x1F LT PUSH2 0x1800 JUMPI PUSH2 0x100 DUP1 DUP4 SLOAD DIV MUL DUP4 MSTORE SWAP2 PUSH1 0x20 ADD SWAP2 PUSH2 0x1829 JUMP JUMPDEST DUP3 ADD SWAP2 SWAP1 PUSH0 MSTORE PUSH1 0x20 PUSH0 KECCAK256 SWAP1 JUMPDEST DUP2 SLOAD DUP2 MSTORE SWAP1 PUSH1 0x1 ADD SWAP1 PUSH1 0x20 ADD DUP1 DUP4 GT PUSH2 0x180C JUMPI DUP3 SWAP1 SUB PUSH1 0x1F AND DUP3 ADD SWAP2 JUMPDEST POP POP POP POP POP SWAP1 DUP1 PUSH1 0x2 ADD DUP1 SLOAD PUSH2 0x183E SWAP1 PUSH2 0x2327 JUMP JUMPDEST DUP1 PUSH1 0x1F ADD PUSH1 0x20 DUP1 SWAP2 DIV MUL PUSH1 0x20 ADD PUSH1 0x40 MLOAD SWAP1 DUP2 ADD PUSH1 0x40 MSTORE DUP1 SWAP3 SWAP2 SWAP1 DUP2 DUP2 MSTORE PUSH1 0x20 ADD DUP3 DUP1 SLOAD PUSH2 0x186A SWAP1 PUSH2 0x2327 JUMP JUMPDEST DUP1 ISZERO PUSH2 0x18B5 JUMPI DUP1 PUSH1 0x1F LT PUSH2 0x188C JUMPI PUSH2 0x100 DUP1 DUP4 SLOAD DIV MUL DUP4 MSTORE SWAP2 PUSH1 0x20 ADD SWAP2 PUSH2 0x18B5 JUMP JUMPDEST DUP3 ADD SWAP2 SWAP1 PUSH0 MSTORE PUSH1 0x20 PUSH0 KECCAK256 SWAP1 JUMPDEST DUP2 SLOAD DUP2 MSTORE SWAP1 PUSH1 0x1 ADD SWAP1 PUSH1 0x20 ADD DUP1 DUP4 GT PUSH2 0x1898 JUMPI DUP3 SWAP1 SUB PUSH1 0x1F AND DUP3 ADD SWAP2 JUMPDEST POP POP POP POP POP SWAP1 DUP1 PUSH1 0x3 ADD SLOAD SWAP1 DUP1 PUSH1 0x4 ADD SLOAD SWAP1 DUP1 PUSH1 0x5 ADD PUSH0 SWAP1 SLOAD SWAP1 PUSH2 0x100 EXP SWAP1 DIV PUSH1 0xFF AND SWAP1 POP DUP7 JUMP JUMPDEST PUSH1 0x4 SLOAD DUP2 JUMP JUMPDEST PUSH1 0x6 PUSH1 0x20 MSTORE DUP1 PUSH0 MSTORE PUSH1 0x40 PUSH0 KECCAK256 PUSH0 SWAP2 POP SWAP1 POP SLOAD DUP2 JUMP JUMPDEST PUSH1 0x2 SLOAD CALLVALUE EQ PUSH2 0x193C JUMPI PUSH1 0x40 MLOAD PUSH32 0x8C379A000000000000000000000000000000000000000000000000000000000 DUP2 MSTORE PUSH1 0x4 ADD PUSH2 0x1933 SWAP1 PUSH2 0x23C7 JUMP JUMPDEST PUSH1 0x40 MLOAD DUP1 SWAP2 SUB SWAP1 REVERT JUMPDEST PUSH0 PUSH1 0x4 SLOAD GT PUSH2 0x1980 JUMPI PUSH1 0x40 MLOAD PUSH32 0x8C379A000000000000000000000000000000000000000000000000000000000 DUP2 MSTORE PUSH1 0x4 ADD PUSH2 0x1977 SWAP1 PUSH2 0x242F JUMP JUMPDEST PUSH1 0x40 MLOAD DUP1 SWAP2 SUB SWAP1 REVERT JUMPDEST PUSH0 PUSH1 0x7 PUSH0 CALLER PUSH20 0xFFFFFFFFFFFFFFFFFFFFFFFFFFFFFFFFFFFFFFFF AND PUSH20 0xFFFFFFFFFFFFFFFFFFFFFFFFFFFFFFFFFFFFFFFF AND DUP2 MSTORE PUSH1 0x20 ADD SWAP1 DUP2 MSTORE PUSH1 0x20 ADD PUSH0 KECCAK256 SLOAD EQ DUP1 ISZERO PUSH2 0x1A08 JUMPI POP PUSH0 PUSH1 0x6 PUSH0 CALLER PUSH20 0xFFFFFFFFFFFFFFFFFFFFFFFFFFFFFFFFFFFFFFFF AND PUSH20 0xFFFFFFFFFFFFFFFFFFFFFFFFFFFFFFFFFFFFFFFF AND DUP2 MSTORE PUSH1 0x20 ADD SWAP1 DUP2 MSTORE PUSH1 0x20 ADD PUSH0 KECCAK256 SLOAD EQ JUMPDEST PUSH2 0x1A47 JUMPI PUSH1 0x40 MLOAD PUSH32 0x8C379A000000000000000000000000000000000000000000000000000000000 DUP2 MSTORE PUSH1 0x4 ADD PUSH2 0x1A3E SWAP1 PUSH2 0x2BAF JUMP JUMPDEST PUSH1 0x40 MLOAD DUP1 SWAP2 SUB SWAP1 REVERT JUMPDEST PUSH1 0x1 PUSH1 0x4 PUSH0 DUP3 DUP3 SLOAD PUSH2 0x1A59 SWAP2 SWAP1 PUSH2 0x24E2 JUMP JUMPDEST SWAP3 POP POP DUP2 SWAP1 SSTORE POP PUSH0 PUSH1 0x1 PUSH1 0x9 DUP1 SLOAD SWAP1 POP PUSH2 0x1A73 SWAP2 SWAP1 PUSH2 0x2515 JUMP JUMPDEST SWAP1 POP PUSH1 0x9 PUSH1 0x40 MLOAD DUP1 PUSH1 0xC0 ADD PUSH1 0x40 MSTORE DUP1 CALLER PUSH20 0xFFFFFFFFFFFFFFFFFFFFFFFFFFFFFFFFFFFFFFFF AND DUP2 MSTORE PUSH1 0x20 ADD DUP7 DUP2 MSTORE PUSH1 0x20 ADD DUP6 DUP2 MSTORE PUSH1 0x20 ADD DUP5 DUP2 MSTORE PUSH1 0x20 ADD DUP4 DUP2 MSTORE PUSH1 0x20 ADD PUSH0 ISZERO ISZERO DUP2 MSTORE POP SWAP1 DUP1 PUSH1 0x1 DUP2 SLOAD ADD DUP1 DUP3 SSTORE DUP1 SWAP2 POP POP PUSH1 0x1 SWAP1 SUB SWAP1 PUSH0 MSTORE PUSH1 0x20 PUSH0 KECCAK256 SWAP1 PUSH1 0x6 MUL ADD PUSH0 SWAP1 SWAP2 SWAP1 SWAP2 SWAP1 SWAP2 POP PUSH0 DUP3 ADD MLOAD DUP2 PUSH0 ADD PUSH0 PUSH2 0x100 EXP DUP2 SLOAD DUP2 PUSH20 0xFFFFFFFFFFFFFFFFFFFFFFFFFFFFFFFFFFFFFFFF MUL NOT AND SWAP1 DUP4 PUSH20 0xFFFFFFFFFFFFFFFFFFFFFFFFFFFFFFFFFFFFFFFF AND MUL OR SWAP1 SSTORE POP PUSH1 0x20 DUP3 ADD MLOAD DUP2 PUSH1 0x1 ADD SWAP1 DUP2 PUSH2 0x1B3B SWAP2 SWAP1 PUSH2 0x26E8 JUMP JUMPDEST POP PUSH1 0x40 DUP3 ADD MLOAD DUP2 PUSH1 0x2 ADD SWAP1 DUP2 PUSH2 0x1B51 SWAP2 SWAP1 PUSH2 0x26E8 JUMP JUMPDEST POP PUSH1 0x60 DUP3 ADD MLOAD DUP2 PUSH1 0x3 ADD SSTORE PUSH1 0x80 DUP3 ADD MLOAD DUP2 PUSH1 0x4 ADD SSTORE PUSH1 0xA0 DUP3 ADD MLOAD DUP2 PUSH1 0x5 ADD PUSH0 PUSH2 0x100 EXP DUP2 SLOAD DUP2 PUSH1 0xFF MUL NOT AND SWAP1 DUP4 ISZERO ISZERO MUL OR SWAP1 SSTORE POP POP POP DUP1 PUSH1 0x7 PUSH0 CALLER PUSH20 0xFFFFFFFFFFFFFFFFFFFFFFFFFFFFFFFFFFFFFFFF AND PUSH20 0xFFFFFFFFFFFFFFFFFFFFFFFFFFFFFFFFFFFFFFFF AND DUP2 MSTORE PUSH1 0x20 ADD SWAP1 DUP2 MSTORE PUSH1 0x20 ADD PUSH0 KECCAK256 DUP2 SWAP1 SSTORE POP CALLER PUSH20 0xFFFFFFFFFFFFFFFFFFFFFFFFFFFFFFFFFFFFFFFF AND PUSH32 0x7D1CD329A11D8807F0374627923B6CD32942B74B38B1ACCF931D70A507FF739E DUP3 PUSH1 0x2 SLOAD PUSH1 0x40 MLOAD PUSH2 0x1C13 SWAP3 SWAP2 SWAP1 PUSH2 0x27B7 JUMP JUMPDEST PUSH1 0x40 MLOAD DUP1 SWAP2 SUB SWAP1 LOG2 POP POP POP POP JUMP JUMPDEST PUSH0 PUSH1 0x9 DUP1 SLOAD SWAP1 POP SWAP1 POP SWAP1 JUMP JUMPDEST PUSH0 PUSH1 0x8 DUP1 SLOAD SWAP1 POP SWAP1 POP SWAP1 JUMP JUMPDEST PUSH2 0x1C41 PUSH2 0x16EA JUMP JUMPDEST PUSH2 0x1C49 JUMPI PUSH0 PUSH0 REVERT JUMPDEST PUSH2 0x1C52 DUP2 PUSH2 0x1C55 JUMP JUMPDEST POP JUMP JUMPDEST PUSH0 PUSH20 0xFFFFFFFFFFFFFFFFFFFFFFFFFFFFFFFFFFFFFFFF AND DUP2 PUSH20 0xFFFFFFFFFFFFFFFFFFFFFFFFFFFFFFFFFFFFFFFF AND SUB PUSH2 0x1C8C JUMPI PUSH0 PUSH0 REVERT JUMPDEST DUP1 PUSH20 0xFFFFFFFFFFFFFFFFFFFFFFFFFFFFFFFFFFFFFFFF AND PUSH0 PUSH0 SWAP1 SLOAD SWAP1 PUSH2 0x100 EXP SWAP1 DIV PUSH20 0xFFFFFFFFFFFFFFFFFFFFFFFFFFFFFFFFFFFFFFFF AND PUSH20 0xFFFFFFFFFFFFFFFFFFFFFFFFFFFFFFFFFFFFFFFF AND PUSH32 0x8BE0079C531659141344CD1FD0A4F28419497F9722A3DAAFE3B4186F6B6457E0 PUSH1 0x40 MLOAD PUSH1 0x40 MLOAD DUP1 SWAP2 SUB SWAP1 LOG3 DUP1 PUSH0 PUSH0 PUSH2 0x100 EXP DUP2 SLOAD DUP2 PUSH20 0xFFFFFFFFFFFFFFFFFFFFFFFFFFFFFFFFFFFFFFFF MUL NOT AND SWAP1 DUP4 PUSH20 0xFFFFFFFFFFFFFFFFFFFFFFFFFFFFFFFFFFFFFFFF AND MUL OR SWAP1 SSTORE POP POP JUMP JUMPDEST PUSH1 0x40 MLOAD DUP1 PUSH1 0xC0 ADD PUSH1 0x40 MSTORE DUP1 PUSH0 PUSH20 0xFFFFFFFFFFFFFFFFFFFFFFFFFFFFFFFFFFFFFFFF AND DUP2 MSTORE PUSH1 0x20 ADD PUSH1 0x60 DUP2 MSTORE PUSH1 0x20 ADD PUSH1 0x60 DUP2 MSTORE PUSH1 0x20 ADD PUSH0 DUP2 MSTORE PUSH1 0x20 ADD PUSH0 DUP2 MSTORE PUSH1 0x20 ADD PUSH0 ISZERO ISZERO DUP2 MSTORE POP SWAP1 JUMP JUMPDEST PUSH0 PUSH1 0x40 MLOAD SWAP1 POP SWAP1 JUMP JUMPDEST PUSH0 PUSH0 REVERT JUMPDEST PUSH0 PUSH0 REVERT JUMPDEST PUSH0 DUP2 SWAP1 POP SWAP2 SWAP1 POP JUMP JUMPDEST PUSH2 0x1DB5 DUP2 PUSH2 0x1DA3 JUMP JUMPDEST DUP2 EQ PUSH2 0x1DBF JUMPI PUSH0 PUSH0 REVERT JUMPDEST POP JUMP JUMPDEST PUSH0 DUP2 CALLDATALOAD SWAP1 POP PUSH2 0x1DD0 DUP2 PUSH2 0x1DAC JUMP JUMPDEST SWAP3 SWAP2 POP POP JUMP JUMPDEST PUSH0 PUSH1 0x20 DUP3 DUP5 SUB SLT ISZERO PUSH2 0x1DEB JUMPI PUSH2 0x1DEA PUSH2 0x1D9B JUMP JUMPDEST JUMPDEST PUSH0 PUSH2 0x1DF8 DUP5 DUP3 DUP6 ADD PUSH2 0x1DC2 JUMP JUMPDEST SWAP2 POP POP SWAP3 SWAP2 POP POP JUMP JUMPDEST PUSH0 PUSH20 0xFFFFFFFFFFFFFFFFFFFFFFFFFFFFFFFFFFFFFFFF DUP3 AND SWAP1 POP SWAP2 SWAP1 POP JUMP JUMPDEST PUSH0 PUSH2 0x1E2A DUP3 PUSH2 0x1E01 JUMP JUMPDEST SWAP1 POP SWAP2 SWAP1 POP JUMP JUMPDEST PUSH2 0x1E3A DUP2 PUSH2 0x1E20 JUMP JUMPDEST DUP3 MSTORE POP POP JUMP JUMPDEST PUSH0 DUP2 MLOAD SWAP1 POP SWAP2 SWAP1 POP JUMP JUMPDEST PUSH0 DUP3 DUP3 MSTORE PUSH1 0x20 DUP3 ADD SWAP1 POP SWAP3 SWAP2 POP POP JUMP JUMPDEST DUP3 DUP2 DUP4 MCOPY PUSH0 DUP4 DUP4 ADD MSTORE POP POP POP JUMP JUMPDEST PUSH0 PUSH1 0x1F NOT PUSH1 0x1F DUP4 ADD AND SWAP1 POP SWAP2 SWAP1 POP JUMP JUMPDEST PUSH0 PUSH2 0x1E82 DUP3 PUSH2 0x1E40 JUMP JUMPDEST PUSH2 0x1E8C DUP2 DUP6 PUSH2 0x1E4A JUMP JUMPDEST SWAP4 POP PUSH2 0x1E9C DUP2 DUP6 PUSH1 0x20 DUP7 ADD PUSH2 0x1E5A JUMP JUMPDEST PUSH2 0x1EA5 DUP2 PUSH2 0x1E68 JUMP JUMPDEST DUP5 ADD SWAP2 POP POP SWAP3 SWAP2 POP POP JUMP JUMPDEST PUSH2 0x1EB9 DUP2 PUSH2 0x1DA3 JUMP JUMPDEST DUP3 MSTORE POP POP JUMP JUMPDEST PUSH0 DUP2 ISZERO ISZERO SWAP1 POP SWAP2 SWAP1 POP JUMP JUMPDEST PUSH2 0x1ED3 DUP2 PUSH2 0x1EBF JUMP JUMPDEST DUP3 MSTORE POP POP JUMP JUMPDEST PUSH0 PUSH1 0xC0 DUP3 ADD SWAP1 POP PUSH2 0x1EEC PUSH0 DUP4 ADD DUP10 PUSH2 0x1E31 JUMP JUMPDEST DUP2 DUP2 SUB PUSH1 0x20 DUP4 ADD MSTORE PUSH2 0x1EFE DUP2 DUP9 PUSH2 0x1E78 JUMP JUMPDEST SWAP1 POP DUP2 DUP2 SUB PUSH1 0x40 DUP4 ADD MSTORE PUSH2 0x1F12 DUP2 DUP8 PUSH2 0x1E78 JUMP JUMPDEST SWAP1 POP PUSH2 0x1F21 PUSH1 0x60 DUP4 ADD DUP7 PUSH2 0x1EB0 JUMP JUMPDEST PUSH2 0x1F2E PUSH1 0x80 DUP4 ADD DUP6 PUSH2 0x1EB0 JUMP JUMPDEST PUSH2 0x1F3B PUSH1 0xA0 DUP4 ADD DUP5 PUSH2 0x1ECA JUMP JUMPDEST SWAP8 SWAP7 POP POP POP POP POP POP POP JUMP JUMPDEST PUSH0 PUSH0 REVERT JUMPDEST PUSH0 PUSH0 REVERT JUMPDEST PUSH32 0x4E487B7100000000000000000000000000000000000000000000000000000000 PUSH0 MSTORE PUSH1 0x41 PUSH1 0x4 MSTORE PUSH1 0x24 PUSH0 REVERT JUMPDEST PUSH2 0x1F84 DUP3 PUSH2 0x1E68 JUMP JUMPDEST DUP2 ADD DUP2 DUP2 LT PUSH8 0xFFFFFFFFFFFFFFFF DUP3 GT OR ISZERO PUSH2 0x1FA3 JUMPI PUSH2 0x1FA2 PUSH2 0x1F4E JUMP JUMPDEST JUMPDEST DUP1 PUSH1 0x40 MSTORE POP POP POP JUMP JUMPDEST PUSH0 PUSH2 0x1FB5 PUSH2 0x1D92 JUMP JUMPDEST SWAP1 POP PUSH2 0x1FC1 DUP3 DUP3 PUSH2 0x1F7B JUMP JUMPDEST SWAP2 SWAP1 POP JUMP JUMPDEST PUSH0 PUSH8 0xFFFFFFFFFFFFFFFF DUP3 GT ISZERO PUSH2 0x1FE0 JUMPI PUSH2 0x1FDF PUSH2 0x1F4E JUMP JUMPDEST JUMPDEST PUSH2 0x1FE9 DUP3 PUSH2 0x1E68 JUMP JUMPDEST SWAP1 POP PUSH1 0x20 DUP2 ADD SWAP1 POP SWAP2 SWAP1 POP JUMP JUMPDEST DUP3 DUP2 DUP4 CALLDATACOPY PUSH0 DUP4 DUP4 ADD MSTORE POP POP POP JUMP JUMPDEST PUSH0 PUSH2 0x2016 PUSH2 0x2011 DUP5 PUSH2 0x1FC6 JUMP JUMPDEST PUSH2 0x1FAC JUMP JUMPDEST SWAP1 POP DUP3 DUP2 MSTORE PUSH1 0x20 DUP2 ADD DUP5 DUP5 DUP5 ADD GT ISZERO PUSH2 0x2032 JUMPI PUSH2 0x2031 PUSH2 0x1F4A JUMP JUMPDEST JUMPDEST PUSH2 0x203D DUP5 DUP3 DUP6 PUSH2 0x1FF6 JUMP JUMPDEST POP SWAP4 SWAP3 POP POP POP JUMP JUMPDEST PUSH0 DUP3 PUSH1 0x1F DUP4 ADD SLT PUSH2 0x2059 JUMPI PUSH2 0x2058 PUSH2 0x1F46 JUMP JUMPDEST JUMPDEST DUP2 CALLDATALOAD PUSH2 0x2069 DUP5 DUP3 PUSH1 0x20 DUP7 ADD PUSH2 0x2004 JUMP JUMPDEST SWAP2 POP POP SWAP3 SWAP2 POP POP JUMP JUMPDEST PUSH0 PUSH0 PUSH0 PUSH1 0x60 DUP5 DUP7 SUB SLT ISZERO PUSH2 0x2089 JUMPI PUSH2 0x2088 PUSH2 0x1D9B JUMP JUMPDEST JUMPDEST PUSH0 DUP5 ADD CALLDATALOAD PUSH8 0xFFFFFFFFFFFFFFFF DUP2 GT ISZERO PUSH2 0x20A6 JUMPI PUSH2 0x20A5 PUSH2 0x1D9F JUMP JUMPDEST JUMPDEST PUSH2 0x20B2 DUP7 DUP3 DUP8 ADD PUSH2 0x2045 JUMP JUMPDEST SWAP4 POP POP PUSH1 0x20 DUP5 ADD CALLDATALOAD PUSH8 0xFFFFFFFFFFFFFFFF DUP2 GT ISZERO PUSH2 0x20D3 JUMPI PUSH2 0x20D2 PUSH2 0x1D9F JUMP JUMPDEST JUMPDEST PUSH2 0x20DF DUP7 DUP3 DUP8 ADD PUSH2 0x2045 JUMP JUMPDEST SWAP3 POP POP PUSH1 0x40 PUSH2 0x20F0 DUP7 DUP3 DUP8 ADD PUSH2 0x1DC2 JUMP JUMPDEST SWAP2 POP POP SWAP3 POP SWAP3 POP SWAP3 JUMP JUMPDEST PUSH0 PUSH0 PUSH1 0x40 DUP4 DUP6 SUB SLT ISZERO PUSH2 0x2110 JUMPI PUSH2 0x210F PUSH2 0x1D9B JUMP JUMPDEST JUMPDEST PUSH0 PUSH2 0x211D DUP6 DUP3 DUP7 ADD PUSH2 0x1DC2 JUMP JUMPDEST SWAP3 POP POP PUSH1 0x20 PUSH2 0x212E DUP6 DUP3 DUP7 ADD PUSH2 0x1DC2 JUMP JUMPDEST SWAP2 POP POP SWAP3 POP SWAP3 SWAP1 POP JUMP JUMPDEST PUSH2 0x2141 DUP2 PUSH2 0x1E20 JUMP JUMPDEST DUP3 MSTORE POP POP JUMP JUMPDEST PUSH0 DUP3 DUP3 MSTORE PUSH1 0x20 DUP3 ADD SWAP1 POP SWAP3 SWAP2 POP POP JUMP JUMPDEST PUSH0 PUSH2 0x2161 DUP3 PUSH2 0x1E40 JUMP JUMPDEST PUSH2 0x216B DUP2 DUP6 PUSH2 0x2147 JUMP JUMPDEST SWAP4 POP PUSH2 0x217B DUP2 DUP6 PUSH1 0x20 DUP7 ADD PUSH2 0x1E5A JUMP JUMPDEST PUSH2 0x2184 DUP2 PUSH2 0x1E68 JUMP JUMPDEST DUP5 ADD SWAP2 POP POP SWAP3 SWAP2 POP POP JUMP JUMPDEST PUSH2 0x2198 DUP2 PUSH2 0x1DA3 JUMP JUMPDEST DUP3 MSTORE POP POP JUMP JUMPDEST PUSH2 0x21A7 DUP2 PUSH2 0x1EBF JUMP JUMPDEST DUP3 MSTORE POP POP JUMP JUMPDEST PUSH0 PUSH1 0xC0 DUP4 ADD PUSH0 DUP4 ADD MLOAD PUSH2 0x21C2 PUSH0 DUP7 ADD DUP3 PUSH2 0x2138 JUMP JUMPDEST POP PUSH1 0x20 DUP4 ADD MLOAD DUP5 DUP3 SUB PUSH1 0x20 DUP7 ADD MSTORE PUSH2 0x21DA DUP3 DUP3 PUSH2 0x2157 JUMP JUMPDEST SWAP2 POP POP PUSH1 0x40 DUP4 ADD MLOAD DUP5 DUP3 SUB PUSH1 0x40 DUP7 ADD MSTORE PUSH2 0x21F4 DUP3 DUP3 PUSH2 0x2157 JUMP JUMPDEST SWAP2 POP POP PUSH1 0x60 DUP4 ADD MLOAD PUSH2 0x2209 PUSH1 0x60 DUP7 ADD DUP3 PUSH2 0x218F JUMP JUMPDEST POP PUSH1 0x80 DUP4 ADD MLOAD PUSH2 0x221C PUSH1 0x80 DUP7 ADD DUP3 PUSH2 0x218F JUMP JUMPDEST POP PUSH1 0xA0 DUP4 ADD MLOAD PUSH2 0x222F PUSH1 0xA0 DUP7 ADD DUP3 PUSH2 0x219E JUMP JUMPDEST POP DUP1 SWAP2 POP POP SWAP3 SWAP2 POP POP JUMP JUMPDEST PUSH0 PUSH1 0x20 DUP3 ADD SWAP1 POP DUP2 DUP2 SUB PUSH0 DUP4 ADD MSTORE PUSH2 0x2252 DUP2 DUP5 PUSH2 0x21AD JUMP JUMPDEST SWAP1 POP SWAP3 SWAP2 POP POP JUMP JUMPDEST PUSH0 PUSH1 0x20 DUP3 ADD SWAP1 POP PUSH2 0x226D PUSH0 DUP4 ADD DUP5 PUSH2 0x1EB0 JUMP JUMPDEST SWAP3 SWAP2 POP POP JUMP JUMPDEST PUSH2 0x227C DUP2 PUSH2 0x1E20 JUMP JUMPDEST DUP2 EQ PUSH2 0x2286 JUMPI PUSH0 PUSH0 REVERT JUMPDEST POP JUMP JUMPDEST PUSH0 DUP2 CALLDATALOAD SWAP1 POP PUSH2 0x2297 DUP2 PUSH2 0x2273 JUMP JUMPDEST SWAP3 SWAP2 POP POP JUMP JUMPDEST PUSH0 PUSH1 0x20 DUP3 DUP5 SUB SLT ISZERO PUSH2 0x22B2 JUMPI PUSH2 0x22B1 PUSH2 0x1D9B JUMP JUMPDEST JUMPDEST PUSH0 PUSH2 0x22BF DUP5 DUP3 DUP6 ADD PUSH2 0x2289 JUMP JUMPDEST SWAP2 POP POP SWAP3 SWAP2 POP POP JUMP JUMPDEST PUSH0 PUSH1 0x20 DUP3 ADD SWAP1 POP PUSH2 0x22DB PUSH0 DUP4 ADD DUP5 PUSH2 0x1E31 JUMP JUMPDEST SWAP3 SWAP2 POP POP JUMP JUMPDEST PUSH0 PUSH1 0x20 DUP3 ADD SWAP1 POP PUSH2 0x22F4 PUSH0 DUP4 ADD DUP5 PUSH2 0x1ECA JUMP JUMPDEST SWAP3 SWAP2 POP POP JUMP JUMPDEST PUSH32 0x4E487B7100000000000000000000000000000000000000000000000000000000 PUSH0 MSTORE PUSH1 0x22 PUSH1 0x4 MSTORE PUSH1 0x24 PUSH0 REVERT JUMPDEST PUSH0 PUSH1 0x2 DUP3 DIV SWAP1 POP PUSH1 0x1 DUP3 AND DUP1 PUSH2 0x233E JUMPI PUSH1 0x7F DUP3 AND SWAP2 POP JUMPDEST PUSH1 0x20 DUP3 LT DUP2 SUB PUSH2 0x2351 JUMPI PUSH2 0x2350 PUSH2 0x22FA JUMP JUMPDEST JUMPDEST POP SWAP2 SWAP1 POP JUMP JUMPDEST PUSH32 0x796F75206861766520746F2070617920657861637420616D6F756E74206F6620 PUSH0 DUP3 ADD MSTORE PUSH32 0x6574680000000000000000000000000000000000000000000000000000000000 PUSH1 0x20 DUP3 ADD MSTORE POP JUMP JUMPDEST PUSH0 PUSH2 0x23B1 PUSH1 0x23 DUP4 PUSH2 0x1E4A JUMP JUMPDEST SWAP2 POP PUSH2 0x23BC DUP3 PUSH2 0x2357 JUMP JUMPDEST PUSH1 0x40 DUP3 ADD SWAP1 POP SWAP2 SWAP1 POP JUMP JUMPDEST PUSH0 PUSH1 0x20 DUP3 ADD SWAP1 POP DUP2 DUP2 SUB PUSH0 DUP4 ADD MSTORE PUSH2 0x23DE DUP2 PUSH2 0x23A5 JUMP JUMPDEST SWAP1 POP SWAP2 SWAP1 POP JUMP JUMPDEST PUSH32 0x7365617473206172652066756C6C000000000000000000000000000000000000 PUSH0 DUP3 ADD MSTORE POP JUMP JUMPDEST PUSH0 PUSH2 0x2419 PUSH1 0xE DUP4 PUSH2 0x1E4A JUMP JUMPDEST SWAP2 POP PUSH2 0x2424 DUP3 PUSH2 0x23E5 JUMP JUMPDEST PUSH1 0x20 DUP3 ADD SWAP1 POP SWAP2 SWAP1 POP JUMP JUMPDEST PUSH0 PUSH1 0x20 DUP3 ADD SWAP1 POP DUP2 DUP2 SUB PUSH0 DUP4 ADD MSTORE PUSH2 0x2446 DUP2 PUSH2 0x240D JUMP JUMPDEST SWAP1 POP SWAP2 SWAP1 POP JUMP JUMPDEST PUSH32 0x796F7520616C7265616479206F776E2061207469636B65740000000000000000 PUSH0 DUP3 ADD MSTORE POP JUMP JUMPDEST PUSH0 PUSH2 0x2481 PUSH1 0x18 DUP4 PUSH2 0x1E4A JUMP JUMPDEST SWAP2 POP PUSH2 0x248C DUP3 PUSH2 0x244D JUMP JUMPDEST PUSH1 0x20 DUP3 ADD SWAP1 POP SWAP2 SWAP1 POP JUMP JUMPDEST PUSH0 PUSH1 0x20 DUP3 ADD SWAP1 POP DUP2 DUP2 SUB PUSH0 DUP4 ADD MSTORE PUSH2 0x24AE DUP2 PUSH2 0x2475 JUMP JUMPDEST SWAP1 POP SWAP2 SWAP1 POP JUMP JUMPDEST PUSH32 0x4E487B7100000000000000000000000000000000000000000000000000000000 PUSH0 MSTORE PUSH1 0x11 PUSH1 0x4 MSTORE PUSH1 0x24 PUSH0 REVERT JUMPDEST PUSH0 PUSH2 0x24EC DUP3 PUSH2 0x1DA3 JUMP JUMPDEST SWAP2 POP PUSH2 0x24F7 DUP4 PUSH2 0x1DA3 JUMP JUMPDEST SWAP3 POP DUP3 DUP3 SUB SWAP1 POP DUP2 DUP2 GT ISZERO PUSH2 0x250F JUMPI PUSH2 0x250E PUSH2 0x24B5 JUMP JUMPDEST JUMPDEST SWAP3 SWAP2 POP POP JUMP JUMPDEST PUSH0 PUSH2 0x251F DUP3 PUSH2 0x1DA3 JUMP JUMPDEST SWAP2 POP PUSH2 0x252A DUP4 PUSH2 0x1DA3 JUMP JUMPDEST SWAP3 POP DUP3 DUP3 ADD SWAP1 POP DUP1 DUP3 GT ISZERO PUSH2 0x2542 JUMPI PUSH2 0x2541 PUSH2 0x24B5 JUMP JUMPDEST JUMPDEST SWAP3 SWAP2 POP POP JUMP JUMPDEST PUSH0 DUP2 SWAP1 POP DUP2 PUSH0 MSTORE PUSH1 0x20 PUSH0 KECCAK256 SWAP1 POP SWAP2 SWAP1 POP JUMP JUMPDEST PUSH0 PUSH1 0x20 PUSH1 0x1F DUP4 ADD DIV SWAP1 POP SWAP2 SWAP1 POP JUMP JUMPDEST PUSH0 DUP3 DUP3 SHL SWAP1 POP SWAP3 SWAP2 POP POP JUMP JUMPDEST PUSH0 PUSH1 0x8 DUP4 MUL PUSH2 0x25A4 PUSH32 0xFFFFFFFFFFFFFFFFFFFFFFFFFFFFFFFFFFFFFFFFFFFFFFFFFFFFFFFFFFFFFFFF DUP3 PUSH2 0x2569 JUMP JUMPDEST PUSH2 0x25AE DUP7 DUP4 PUSH2 0x2569 JUMP JUMPDEST SWAP6 POP DUP1 NOT DUP5 AND SWAP4 POP DUP1 DUP7 AND DUP5 OR SWAP3 POP POP POP SWAP4 SWAP3 POP POP POP JUMP JUMPDEST PUSH0 DUP2 SWAP1 POP SWAP2 SWAP1 POP JUMP JUMPDEST PUSH0 PUSH2 0x25E9 PUSH2 0x25E4 PUSH2 0x25DF DUP5 PUSH2 0x1DA3 JUMP JUMPDEST PUSH2 0x25C6 JUMP JUMPDEST PUSH2 0x1DA3 JUMP JUMPDEST SWAP1 POP SWAP2 SWAP1 POP JUMP JUMPDEST PUSH0 DUP2 SWAP1 POP SWAP2 SWAP1 POP JUMP JUMPDEST PUSH2 0x2602 DUP4 PUSH2 0x25CF JUMP JUMPDEST PUSH2 0x2616 PUSH2 0x260E DUP3 PUSH2 0x25F0 JUMP JUMPDEST DUP5 DUP5 SLOAD PUSH2 0x2575 JUMP JUMPDEST DUP3 SSTORE POP POP POP POP JUMP JUMPDEST PUSH0 PUSH0 SWAP1 POP SWAP1 JUMP JUMPDEST PUSH2 0x262D PUSH2 0x261E JUMP JUMPDEST PUSH2 0x2638 DUP2 DUP5 DUP5 PUSH2 0x25F9 JUMP JUMPDEST POP POP POP JUMP JUMPDEST JUMPDEST DUP2 DUP2 LT ISZERO PUSH2 0x265B JUMPI PUSH2 0x2650 PUSH0 DUP3 PUSH2 0x2625 JUMP JUMPDEST PUSH1 0x1 DUP2 ADD SWAP1 POP PUSH2 0x263E JUMP JUMPDEST POP POP JUMP JUMPDEST PUSH1 0x1F DUP3 GT ISZERO PUSH2 0x26A0 JUMPI PUSH2 0x2671 DUP2 PUSH2 0x2548 JUMP JUMPDEST PUSH2 0x267A DUP5 PUSH2 0x255A JUMP JUMPDEST DUP2 ADD PUSH1 0x20 DUP6 LT ISZERO PUSH2 0x2689 JUMPI DUP2 SWAP1 POP JUMPDEST PUSH2 0x269D PUSH2 0x2695 DUP6 PUSH2 0x255A JUMP JUMPDEST DUP4 ADD DUP3 PUSH2 0x263D JUMP JUMPDEST POP POP JUMPDEST POP POP POP JUMP JUMPDEST PUSH0 DUP3 DUP3 SHR SWAP1 POP SWAP3 SWAP2 POP POP JUMP JUMPDEST PUSH0 PUSH2 0x26C0 PUSH0 NOT DUP5 PUSH1 0x8 MUL PUSH2 0x26A5 JUMP JUMPDEST NOT DUP1 DUP4 AND SWAP2 POP POP SWAP3 SWAP2 POP POP JUMP JUMPDEST PUSH0 PUSH2 0x26D8 DUP4 DUP4 PUSH2 0x26B1 JUMP JUMPDEST SWAP2 POP DUP3 PUSH1 0x2 MUL DUP3 OR SWAP1 POP SWAP3 SWAP2 POP POP JUMP JUMPDEST PUSH2 0x26F1 DUP3 PUSH2 0x1E40 JUMP JUMPDEST PUSH8 0xFFFFFFFFFFFFFFFF DUP2 GT ISZERO PUSH2 0x270A JUMPI PUSH2 0x2709 PUSH2 0x1F4E JUMP JUMPDEST JUMPDEST PUSH2 0x2714 DUP3 SLOAD PUSH2 0x2327 JUMP JUMPDEST PUSH2 0x271F DUP3 DUP3 DUP6 PUSH2 0x265F JUMP JUMPDEST PUSH0 PUSH1 0x20 SWAP1 POP PUSH1 0x1F DUP4 GT PUSH1 0x1 DUP2 EQ PUSH2 0x2750 JUMPI PUSH0 DUP5 ISZERO PUSH2 0x273E JUMPI DUP3 DUP8 ADD MLOAD SWAP1 POP JUMPDEST PUSH2 0x2748 DUP6 DUP3 PUSH2 0x26CD JUMP JUMPDEST DUP7 SSTORE POP PUSH2 0x27AF JUMP JUMPDEST PUSH1 0x1F NOT DUP5 AND PUSH2 0x275E DUP7 PUSH2 0x2548 JUMP JUMPDEST PUSH0 JUMPDEST DUP3 DUP2 LT ISZERO PUSH2 0x2785 JUMPI DUP5 DUP10 ADD MLOAD DUP3 SSTORE PUSH1 0x1 DUP3 ADD SWAP2 POP PUSH1 0x20 DUP6 ADD SWAP5 POP PUSH1 0x20 DUP2 ADD SWAP1 POP PUSH2 0x2760 JUMP JUMPDEST DUP7 DUP4 LT ISZERO PUSH2 0x27A2 JUMPI DUP5 DUP10 ADD MLOAD PUSH2 0x279E PUSH1 0x1F DUP10 AND DUP3 PUSH2 0x26B1 JUMP JUMPDEST DUP4 SSTORE POP JUMPDEST PUSH1 0x1 PUSH1 0x2 DUP9 MUL ADD DUP9 SSTORE POP POP POP JUMPDEST POP POP POP POP POP POP JUMP JUMPDEST PUSH0 PUSH1 0x40 DUP3 ADD SWAP1 POP PUSH2 0x27CA PUSH0 DUP4 ADD DUP6 PUSH2 0x1EB0 JUMP JUMPDEST PUSH2 0x27D7 PUSH1 0x20 DUP4 ADD DUP5 PUSH2 0x1EB0 JUMP JUMPDEST SWAP4 SWAP3 POP POP POP JUMP JUMPDEST PUSH32 0x6576656E74206973206E6F74206F766572000000000000000000000000000000 PUSH0 DUP3 ADD MSTORE POP JUMP JUMPDEST PUSH0 PUSH2 0x2812 PUSH1 0x11 DUP4 PUSH2 0x1E4A JUMP JUMPDEST SWAP2 POP PUSH2 0x281D DUP3 PUSH2 0x27DE JUMP JUMPDEST PUSH1 0x20 DUP3 ADD SWAP1 POP SWAP2 SWAP1 POP JUMP JUMPDEST PUSH0 PUSH1 0x20 DUP3 ADD SWAP1 POP DUP2 DUP2 SUB PUSH0 DUP4 ADD MSTORE PUSH2 0x283F DUP2 PUSH2 0x2806 JUMP JUMPDEST SWAP1 POP SWAP2 SWAP1 POP JUMP JUMPDEST PUSH0 DUP2 SWAP1 POP SWAP3 SWAP2 POP POP JUMP JUMPDEST POP JUMP JUMPDEST PUSH0 PUSH2 0x285E PUSH0 DUP4 PUSH2 0x2846 JUMP JUMPDEST SWAP2 POP PUSH2 0x2869 DUP3 PUSH2 0x2850 JUMP JUMPDEST PUSH0 DUP3 ADD SWAP1 POP SWAP2 SWAP1 POP JUMP JUMPDEST PUSH0 PUSH2 0x287D DUP3 PUSH2 0x2853 JUMP JUMPDEST SWAP2 POP DUP2 SWAP1 POP SWAP2 SWAP1 POP JUMP JUMPDEST PUSH32 0x6572726F723A6661696C20746F20776974686472617720657468657200000000 PUSH0 DUP3 ADD MSTORE POP JUMP JUMPDEST PUSH0 PUSH2 0x28BB PUSH1 0x1C DUP4 PUSH2 0x1E4A JUMP JUMPDEST SWAP2 POP PUSH2 0x28C6 DUP3 PUSH2 0x2887 JUMP JUMPDEST PUSH1 0x20 DUP3 ADD SWAP1 POP SWAP2 SWAP1 POP JUMP JUMPDEST PUSH0 PUSH1 0x20 DUP3 ADD SWAP1 POP DUP2 DUP2 SUB PUSH0 DUP4 ADD MSTORE PUSH2 0x28E8 DUP2 PUSH2 0x28AF JUMP JUMPDEST SWAP1 POP SWAP2 SWAP1 POP JUMP JUMPDEST PUSH0 PUSH2 0x28F9 DUP3 PUSH2 0x1DA3 JUMP JUMPDEST SWAP2 POP PUSH2 0x2904 DUP4 PUSH2 0x1DA3 JUMP JUMPDEST SWAP3 POP DUP3 DUP3 MUL PUSH2 0x2912 DUP2 PUSH2 0x1DA3 JUMP JUMPDEST SWAP2 POP DUP3 DUP3 DIV DUP5 EQ DUP4 ISZERO OR PUSH2 0x2929 JUMPI PUSH2 0x2928 PUSH2 0x24B5 JUMP JUMPDEST JUMPDEST POP SWAP3 SWAP2 POP POP JUMP JUMPDEST PUSH32 0x796F7520646F6E74206F776E207469636B657400000000000000000000000000 PUSH0 DUP3 ADD MSTORE POP JUMP JUMPDEST PUSH0 PUSH2 0x2964 PUSH1 0x13 DUP4 PUSH2 0x1E4A JUMP JUMPDEST SWAP2 POP PUSH2 0x296F DUP3 PUSH2 0x2930 JUMP JUMPDEST PUSH1 0x20 DUP3 ADD SWAP1 POP SWAP2 SWAP1 POP JUMP JUMPDEST PUSH0 PUSH1 0x20 DUP3 ADD SWAP1 POP DUP2 DUP2 SUB PUSH0 DUP4 ADD MSTORE PUSH2 0x2991 DUP2 PUSH2 0x2958 JUMP JUMPDEST SWAP1 POP SWAP2 SWAP1 POP JUMP JUMPDEST PUSH32 0x20696E76616C696420696E646578000000000000000000000000000000000000 PUSH0 DUP3 ADD MSTORE POP JUMP JUMPDEST PUSH0 PUSH2 0x29CC PUSH1 0xE DUP4 PUSH2 0x1E4A JUMP JUMPDEST SWAP2 POP PUSH2 0x29D7 DUP3 PUSH2 0x2998 JUMP JUMPDEST PUSH1 0x20 DUP3 ADD SWAP1 POP SWAP2 SWAP1 POP JUMP JUMPDEST PUSH0 PUSH1 0x20 DUP3 ADD SWAP1 POP DUP2 DUP2 SUB PUSH0 DUP4 ADD MSTORE PUSH2 0x29F9 DUP2 PUSH2 0x29C0 JUMP JUMPDEST SWAP1 POP SWAP2 SWAP1 POP JUMP JUMPDEST PUSH32 0x4E487B7100000000000000000000000000000000000000000000000000000000 PUSH0 MSTORE PUSH1 0x32 PUSH1 0x4 MSTORE PUSH1 0x24 PUSH0 REVERT JUMPDEST PUSH32 0x726566756E6420706572696F64206973206F7665720000000000000000000000 PUSH0 DUP3 ADD MSTORE POP JUMP JUMPDEST PUSH0 PUSH2 0x2A61 PUSH1 0x15 DUP4 PUSH2 0x1E4A JUMP JUMPDEST SWAP2 POP PUSH2 0x2A6C DUP3 PUSH2 0x2A2D JUMP JUMPDEST PUSH1 0x20 DUP3 ADD SWAP1 POP SWAP2 SWAP1 POP JUMP JUMPDEST PUSH0 PUSH1 0x20 DUP3 ADD SWAP1 POP DUP2 DUP2 SUB PUSH0 DUP4 ADD MSTORE PUSH2 0x2A8E DUP2 PUSH2 0x2A55 JUMP JUMPDEST SWAP1 POP SWAP2 SWAP1 POP JUMP JUMPDEST PUSH32 0x796F7520646F6E74206F776E205469636B657400000000000000000000000000 PUSH0 DUP3 ADD MSTORE POP JUMP JUMPDEST PUSH0 PUSH2 0x2AC9 PUSH1 0x13 DUP4 PUSH2 0x1E4A JUMP JUMPDEST SWAP2 POP PUSH2 0x2AD4 DUP3 PUSH2 0x2A95 JUMP JUMPDEST PUSH1 0x20 DUP3 ADD SWAP1 POP SWAP2 SWAP1 POP JUMP JUMPDEST PUSH0 PUSH1 0x20 DUP3 ADD SWAP1 POP DUP2 DUP2 SUB PUSH0 DUP4 ADD MSTORE PUSH2 0x2AF6 DUP2 PUSH2 0x2ABD JUMP JUMPDEST SWAP1 POP SWAP2 SWAP1 POP JUMP JUMPDEST PUSH32 0x6572726F723A6973737565207769746820726566756E64000000000000000000 PUSH0 DUP3 ADD MSTORE POP JUMP JUMPDEST PUSH0 PUSH2 0x2B31 PUSH1 0x17 DUP4 PUSH2 0x1E4A JUMP JUMPDEST SWAP2 POP PUSH2 0x2B3C DUP3 PUSH2 0x2AFD JUMP JUMPDEST PUSH1 0x20 DUP3 ADD SWAP1 POP SWAP2 SWAP1 POP JUMP JUMPDEST PUSH0 PUSH1 0x20 DUP3 ADD SWAP1 POP DUP2 DUP2 SUB PUSH0 DUP4 ADD MSTORE PUSH2 0x2B5E DUP2 PUSH2 0x2B25 JUMP JUMPDEST SWAP1 POP SWAP2 SWAP1 POP JUMP JUMPDEST PUSH32 0x796F75206861766520746F20627579206F6E65207469636B6574000000000000 PUSH0 DUP3 ADD MSTORE POP JUMP JUMPDEST PUSH0 PUSH2 0x2B99 PUSH1 0x1A DUP4 PUSH2 0x1E4A JUMP JUMPDEST SWAP2 POP PUSH2 0x2BA4 DUP3 PUSH2 0x2B65 JUMP JUMPDEST PUSH1 0x20 DUP3 ADD SWAP1 POP SWAP2 SWAP1 POP JUMP JUMPDEST PUSH0 PUSH1 0x20 DUP3 ADD SWAP1 POP DUP2 DUP2 SUB PUSH0 DUP4 ADD MSTORE PUSH2 0x2BC6 DUP2 PUSH2 0x2B8D JUMP JUMPDEST SWAP1 POP SWAP2 SWAP1 POP JUMP INVALID LOG2 PUSH5 0x6970667358 0x22 SLT KECCAK256 SWAP10 MSIZE LOG2 0x4E 0xBF CALLCODE CHAINID 0xE2 DUP10 0xED 0x27 SMOD 0xD7 SWAP15 SMOD SWAP11 SWAP9 DUP10 MUL LT 0xA5 PUSH22 0xBBBA804B370381B8906464736F6C634300081E003300 "
				},
				"gasEstimates": {
					"creation": {
						"codeDepositCost": "2253400",
						"executionCost": "infinite",
						"totalCost": "infinite"
					},
					"external": {
						"Buyvipseats(string,string,uint256)": "infinite",
						"checkticket()": "infinite",
						"checkticketvip()": "infinite",
						"details(uint256)": "infinite",
						"eth()": "2448",
						"ethforvip()": "2470",
						"eventDate()": "2448",
						"isOwner()": "2556",
						"owner()": "2559",
						"payforticket(string,string,uint256)": "infinite",
						"refund()": "infinite",
						"refundforvip()": "infinite",
						"renounceOwnership()": "30398",
						"seats()": "2536",
						"seteventdate(uint256)": "24806",
						"setticketprize(uint256,uint256)": "infinite",
						"soldticket()": "2550",
						"soldvipticket()": "2528",
						"transferOwnership(address)": "30790",
						"usertoTicket(address)": "2846",
						"usertoVipTicket(address)": "2935",
						"vipdetails(uint256)": "infinite",
						"vipseats()": "2447",
						"withdraw()": "infinite"
					}
				},
				"methodIdentifiers": {
					"Buyvipseats(string,string,uint256)": "ad90cf8d",
					"checkticket()": "3ea52614",
					"checkticketvip()": "4b87bb84",
					"details(uint256)": "a005ec7a",
					"eth()": "8c7c9e0c",
					"ethforvip()": "53ab3648",
					"eventDate()": "4bfbe5df",
					"isOwner()": "8f32d59b",
					"owner()": "8da5cb5b",
					"payforticket(string,string,uint256)": "352371fe",
					"refund()": "590e1ae3",
					"refundforvip()": "609af3a7",
					"renounceOwnership()": "715018a6",
					"seats()": "9c5655d6",
					"seteventdate(uint256)": "98721575",
					"setticketprize(uint256,uint256)": "3d784677",
					"soldticket()": "ef265cbe",
					"soldvipticket()": "d94d3914",
					"transferOwnership(address)": "f2fde38b",
					"usertoTicket(address)": "acae79bb",
					"usertoVipTicket(address)": "7ab05004",
					"vipdetails(uint256)": "332c4fde",
					"vipseats()": "a5567197",
					"withdraw()": "3ccfd60b"
				}
			},
			"storageLayout": {
				"storage": [
					{
						"astId": 592,
						"contract": "contracts/new.sol:wallet",
						"label": "_owner",
						"offset": 0,
						"slot": "0",
						"type": "t_address"
					},
					{
						"astId": 7,
						"contract": "contracts/new.sol:wallet",
						"label": "eth",
						"offset": 0,
						"slot": "1",
						"type": "t_uint256"
					},
					{
						"astId": 10,
						"contract": "contracts/new.sol:wallet",
						"label": "ethforvip",
						"offset": 0,
						"slot": "2",
						"type": "t_uint256"
					},
					{
						"astId": 13,
						"contract": "contracts/new.sol:wallet",
						"label": "seats",
						"offset": 0,
						"slot": "3",
						"type": "t_uint256"
					},
					{
						"astId": 16,
						"contract": "contracts/new.sol:wallet",
						"label": "vipseats",
						"offset": 0,
						"slot": "4",
						"type": "t_uint256"
					},
					{
						"astId": 18,
						"contract": "contracts/new.sol:wallet",
						"label": "eventDate",
						"offset": 0,
						"slot": "5",
						"type": "t_uint256"
					},
					{
						"astId": 22,
						"contract": "contracts/new.sol:wallet",
						"label": "usertoTicket",
						"offset": 0,
						"slot": "6",
						"type": "t_mapping(t_address,t_uint256)"
					},
					{
						"astId": 26,
						"contract": "contracts/new.sol:wallet",
						"label": "usertoVipTicket",
						"offset": 0,
						"slot": "7",
						"type": "t_mapping(t_address,t_uint256)"
					},
					{
						"astId": 71,
						"contract": "contracts/new.sol:wallet",
						"label": "details",
						"offset": 0,
						"slot": "8",
						"type": "t_array(t_struct(Ticket)67_storage)dyn_storage"
					},
					{
						"astId": 75,
						"contract": "contracts/new.sol:wallet",
						"label": "vipdetails",
						"offset": 0,
						"slot": "9",
						"type": "t_array(t_struct(Ticket)67_storage)dyn_storage"
					}
				],
				"types": {
					"t_address": {
						"encoding": "inplace",
						"label": "address",
						"numberOfBytes": "20"
					},
					"t_array(t_struct(Ticket)67_storage)dyn_storage": {
						"base": "t_struct(Ticket)67_storage",
						"encoding": "dynamic_array",
						"label": "struct wallet.Ticket[]",
						"numberOfBytes": "32"
					},
					"t_bool": {
						"encoding": "inplace",
						"label": "bool",
						"numberOfBytes": "1"
					},
					"t_mapping(t_address,t_uint256)": {
						"encoding": "mapping",
						"key": "t_address",
						"label": "mapping(address => uint256)",
						"numberOfBytes": "32",
						"value": "t_uint256"
					},
					"t_string_storage": {
						"encoding": "bytes",
						"label": "string",
						"numberOfBytes": "32"
					},
					"t_struct(Ticket)67_storage": {
						"encoding": "inplace",
						"label": "struct wallet.Ticket",
						"members": [
							{
								"astId": 56,
								"contract": "contracts/new.sol:wallet",
								"label": "buyer",
								"offset": 0,
								"slot": "0",
								"type": "t_address"
							},
							{
								"astId": 58,
								"contract": "contracts/new.sol:wallet",
								"label": "name",
								"offset": 0,
								"slot": "1",
								"type": "t_string_storage"
							},
							{
								"astId": 60,
								"contract": "contracts/new.sol:wallet",
								"label": "email",
								"offset": 0,
								"slot": "2",
								"type": "t_string_storage"
							},
							{
								"astId": 62,
								"contract": "contracts/new.sol:wallet",
								"label": "phoneNo",
								"offset": 0,
								"slot": "3",
								"type": "t_uint256"
							},
							{
								"astId": 64,
								"contract": "contracts/new.sol:wallet",
								"label": "ticketNo",
								"offset": 0,
								"slot": "4",
								"type": "t_uint256"
							},
							{
								"astId": 66,
								"contract": "contracts/new.sol:wallet",
								"label": "refunded",
								"offset": 0,
								"slot": "5",
								"type": "t_bool"
							}
						],
						"numberOfBytes": "192"
					},
					"t_uint256": {
						"encoding": "inplace",
						"label": "uint256",
						"numberOfBytes": "32"
					}
				}
			},
			"userdoc": {
				"kind": "user",
				"methods": {
					"renounceOwnership()": {
						"notice": "Renouncing to ownership will leave the contract without an owner. It will not be possible to call the functions with the `onlyOwner` modifier anymore."
					}
				},
				"version": 1
			}
		}
	}
}